{"contracts/Shop.sol":{"Shop":{"abi":[{"inputs":[],"stateMutability":"nonpayable","type":"constructor"},{"inputs":[{"internalType":"uint256","name":"ownedItemId","type":"uint256"}],"name":"Shop__AlreadyOwner","type":"error"},{"inputs":[{"internalType":"uint256","name":"requiredPrice","type":"uint256"}],"name":"Shop__NotEnoughMoney","type":"error"},{"inputs":[{"internalType":"uint256","name":"notExistingId","type":"uint256"}],"name":"Shop__NotListed","type":"error"},{"inputs":[{"internalType":"uint256","name":"notOwnedItemId","type":"uint256"}],"name":"Shop__NotOwner","type":"error"},{"inputs":[{"internalType":"address","name":"","type":"address"}],"name":"Users__AlreadyEvaluated","type":"error"},{"inputs":[],"name":"Users__NotAdmittedGrade","type":"error"},{"inputs":[{"internalType":"address","name":"","type":"address"}],"name":"Users__NotEmbassador","type":"error"},{"inputs":[{"internalType":"address","name":"","type":"address"}],"name":"Users__NotLevel5","type":"error"},{"inputs":[],"name":"Users__OwnerNotAllowed","type":"error"},{"anonymous":false,"inputs":[{"indexed":true,"internalType":"address","name":"","type":"address"},{"indexed":true,"internalType":"string","name":"","type":"string"}],"name":"AddressWasSet","type":"event"},{"anonymous":false,"inputs":[{"indexed":true,"internalType":"string","name":"name","type":"string"},{"indexed":true,"internalType":"address","name":"buyer","type":"address"},{"indexed":true,"internalType":"uint256","name":"id","type":"uint256"}],"name":"ItemBought","type":"event"},{"anonymous":false,"inputs":[{"indexed":true,"internalType":"string","name":"name","type":"string"},{"indexed":true,"internalType":"uint256","name":"id","type":"uint256"}],"name":"ItemCancelled","type":"event"},{"anonymous":false,"inputs":[{"indexed":true,"internalType":"string","name":"name","type":"string"},{"indexed":true,"internalType":"address","name":"seller","type":"address"},{"indexed":true,"internalType":"uint256","name":"id","type":"uint256"},{"indexed":false,"internalType":"uint256","name":"price","type":"uint256"}],"name":"ItemListed","type":"event"},{"anonymous":false,"inputs":[{"indexed":true,"internalType":"address","name":"","type":"address"},{"indexed":true,"internalType":"string","name":"","type":"string"}],"name":"MailWasSet","type":"event"},{"anonymous":false,"inputs":[{"indexed":true,"internalType":"address","name":"previousOwner","type":"address"},{"indexed":true,"internalType":"address","name":"newOwner","type":"address"}],"name":"OwnershipTransferred","type":"event"},{"anonymous":false,"inputs":[{"indexed":true,"internalType":"address","name":"","type":"address"},{"indexed":true,"internalType":"string","name":"","type":"string"}],"name":"TelephoneWasSet","type":"event"},{"inputs":[{"internalType":"uint256","name":"_id","type":"uint256"}],"name":"buyItem","outputs":[],"stateMutability":"payable","type":"function"},{"inputs":[{"internalType":"address","name":"_user","type":"address"}],"name":"cancelEmbassador","outputs":[],"stateMutability":"nonpayable","type":"function"},{"inputs":[{"internalType":"uint256","name":"_id","type":"uint256"}],"name":"cancelItem","outputs":[],"stateMutability":"nonpayable","type":"function"},{"inputs":[{"internalType":"address","name":"_user","type":"address"}],"name":"checkEmbassador","outputs":[{"internalType":"bool","name":"","type":"bool"}],"stateMutability":"view","type":"function"},{"inputs":[{"internalType":"uint256","name":"_grade","type":"uint256"}],"name":"evaluateOwner","outputs":[],"stateMutability":"nonpayable","type":"function"},{"inputs":[],"name":"getItemAmount","outputs":[{"internalType":"uint256","name":"","type":"uint256"}],"stateMutability":"view","type":"function"},{"inputs":[{"internalType":"uint256","name":"_position","type":"uint256"}],"name":"getListedItem","outputs":[{"internalType":"string","name":"","type":"string"}],"stateMutability":"view","type":"function"},{"inputs":[],"name":"getMyAddress","outputs":[{"internalType":"string","name":"","type":"string"}],"stateMutability":"view","type":"function"},{"inputs":[],"name":"getMyLevel","outputs":[{"internalType":"uint256","name":"","type":"uint256"}],"stateMutability":"view","type":"function"},{"inputs":[],"name":"getMyMail","outputs":[{"internalType":"string","name":"","type":"string"}],"stateMutability":"view","type":"function"},{"inputs":[],"name":"getMyTelephone","outputs":[{"internalType":"string","name":"","type":"string"}],"stateMutability":"view","type":"function"},{"inputs":[],"name":"getOwnerVotes","outputs":[{"internalType":"uint256","name":"","type":"uint256"}],"stateMutability":"view","type":"function"},{"inputs":[{"internalType":"address","name":"_user","type":"address"},{"internalType":"uint256","name":"_points","type":"uint256"}],"name":"givePoints","outputs":[],"stateMutability":"nonpayable","type":"function"},{"inputs":[],"name":"itemAmount","outputs":[{"internalType":"uint256","name":"","type":"uint256"}],"stateMutability":"view","type":"function"},{"inputs":[{"internalType":"uint256","name":"","type":"uint256"}],"name":"itemList","outputs":[{"internalType":"string","name":"name","type":"string"},{"internalType":"string","name":"description","type":"string"},{"internalType":"string","name":"picture","type":"string"},{"internalType":"uint256","name":"id","type":"uint256"},{"internalType":"address","name":"owner","type":"address"},{"internalType":"uint256","name":"price","type":"uint256"}],"stateMutability":"view","type":"function"},{"inputs":[{"internalType":"string","name":"_name","type":"string"},{"internalType":"string","name":"_description","type":"string"},{"internalType":"string","name":"_picture","type":"string"},{"internalType":"uint256","name":"_price","type":"uint256"}],"name":"listItem","outputs":[],"stateMutability":"nonpayable","type":"function"},{"inputs":[{"internalType":"address","name":"_user","type":"address"}],"name":"makeEmbassador","outputs":[],"stateMutability":"nonpayable","type":"function"},{"inputs":[],"name":"owner","outputs":[{"internalType":"address","name":"","type":"address"}],"stateMutability":"view","type":"function"},{"inputs":[],"name":"renounceOwnership","outputs":[],"stateMutability":"nonpayable","type":"function"},{"inputs":[{"internalType":"string","name":"_myAddress","type":"string"}],"name":"setMyAddress","outputs":[],"stateMutability":"nonpayable","type":"function"},{"inputs":[{"internalType":"string","name":"_myMail","type":"string"}],"name":"setMyMail","outputs":[],"stateMutability":"nonpayable","type":"function"},{"inputs":[{"internalType":"string","name":"_myTelephone","type":"string"}],"name":"setMyTelephone","outputs":[],"stateMutability":"nonpayable","type":"function"},{"inputs":[{"internalType":"address","name":"newOwner","type":"address"}],"name":"transferOwnership","outputs":[],"stateMutability":"nonpayable","type":"function"}],"devdoc":{"kind":"dev","methods":{"owner()":{"details":"Returns the address of the current owner."},"renounceOwnership()":{"details":"Leaves the contract without owner. It will not be possible to call `onlyOwner` functions. Can only be called by the current owner. NOTE: Renouncing ownership will leave the contract without an owner, thereby disabling any functionality that is only available to the owner."},"transferOwnership(address)":{"details":"Transfers ownership of the contract to a new account (`newOwner`). Can only be called by the current owner."}},"version":1},"evm":{"bytecode":{"linkReferences":{},"object":"60806040523480156200001157600080fd5b506200003262000026620001f260201b60201c565b620001fa60201b60201c565b620000667f675cae87c8a1bc8f337a070c1fce3227916a0a478189f262648aa918a08b915160001b620002be60201b60201c565b6200009a7f4da13821059c6b4cddb3b6e5b8ddb34dd89594f6bd01720ffd8590332e33016460001b620002be60201b60201c565b620000ce7f0ae3dc343e8151edf789b50c35de3c4bcd0f3aea3d8b9de53d340cf1ae04b5a260001b620002be60201b60201c565b33600160006101000a81548173ffffffffffffffffffffffffffffffffffffffff021916908373ffffffffffffffffffffffffffffffffffffffff160217905550620001437f8059b491ed86d687eb33ab4855addbfe316d6f68b1b21667c0c5b914456af6b960001b620002c160201b60201c565b620001777ff9feeca126bb07774734d09387130a5861eab468cf8a03c2dba0a6d08e4af25760001b620002c160201b60201c565b620001ab7f1cd6bbfe211a521014c39ff3d24c8b029f10dee73a23028a806155f2ba0413ee60001b620002c160201b60201c565b33600160006101000a81548173ffffffffffffffffffffffffffffffffffffffff021916908373ffffffffffffffffffffffffffffffffffffffff160217905550620002c4565b600033905090565b60008060009054906101000a900473ffffffffffffffffffffffffffffffffffffffff169050816000806101000a81548173ffffffffffffffffffffffffffffffffffffffff021916908373ffffffffffffffffffffffffffffffffffffffff1602179055508173ffffffffffffffffffffffffffffffffffffffff168173ffffffffffffffffffffffffffffffffffffffff167f8be0079c531659141344cd1fd0a4f28419497f9722a3daafe3b4186f6b6457e060405160405180910390a35050565b50565b50565b61488f80620002d46000396000f3fe6080604052600436106101405760003560e01c80638da5cb5b116100b6578063c03735611161006f578063c037356114610437578063cc01631314610462578063d65274c91461048d578063e7fb74c7146104b6578063ec9b4d14146104d2578063f2fde38b146104fd57610140565b80638da5cb5b1461033b5780639a16629914610366578063a4eb88f814610391578063adb303d9146103ba578063bbd4d97c146103e3578063bc7024291461040c57610140565b806351563f8e1161010857806351563f8e1461024157806367faca241461026a5780636e1223d414610293578063715018a6146102be5780637655abc8146102d5578063818a01e11461031257610140565b80630374e1c21461014557806308309a6f14610182578063134053a6146101ab5780631b1e39e8146101d65780633d4d3600146101ff575b600080fd5b34801561015157600080fd5b5061016c60048036038101906101679190613f23565b610526565b6040516101799190613f6b565b60405180910390f35b34801561018e57600080fd5b506101a960048036038101906101a491906140cc565b610600565b005b3480156101b757600080fd5b506101c061078c565b6040516101cd919061412e565b60405180910390f35b3480156101e257600080fd5b506101fd60048036038101906101f891906140cc565b61081a565b005b34801561020b57600080fd5b5061022660048036038101906102219190614175565b6109a6565b60405161023896959493929190614239565b60405180910390f35b34801561024d57600080fd5b5061026860048036038101906102639190614175565b610baa565b005b34801561027657600080fd5b50610291600480360381019061028c9190614175565b6110a4565b005b34801561029f57600080fd5b506102a861162a565b6040516102b5919061412e565b60405180910390f35b3480156102ca57600080fd5b506102d36116b8565b005b3480156102e157600080fd5b506102fc60048036038101906102f79190614175565b6116cc565b60405161030991906142af565b60405180910390f35b34801561031e57600080fd5b5061033960048036038101906103349190613f23565b611823565b005b34801561034757600080fd5b50610350611a6a565b60405161035d91906142d1565b60405180910390f35b34801561037257600080fd5b5061037b611a93565b60405161038891906142af565b60405180910390f35b34801561039d57600080fd5b506103b860048036038101906103b391906140cc565b611be6565b005b3480156103c657600080fd5b506103e160048036038101906103dc91906142ec565b611d72565b005b3480156103ef57600080fd5b5061040a60048036038101906104059190613f23565b611ee9565b005b34801561041857600080fd5b506104216122be565b60405161042e91906142af565b60405180910390f35b34801561044357600080fd5b5061044c612411565b604051610459919061412e565b60405180910390f35b34801561046e57600080fd5b50610477612417565b60405161048491906142af565b60405180910390f35b34801561049957600080fd5b506104b460048036038101906104af919061432c565b61256a565b005b6104d060048036038101906104cb9190614175565b61282d565b005b3480156104de57600080fd5b506104e761320e565b6040516104f4919061412e565b60405180910390f35b34801561050957600080fd5b50610524600480360381019061051f9190613f23565b6132d9565b005b60006105547f7cc75704f78d4af0161627de45da3dd03b65989173dd0e313c6b1b5bf6ecd19360001b61335d565b6105807f62dda847388a111b5ea42d1efea8e8484d27f35b6cff17df984b0121fa1ea2d860001b61335d565b6105ac7f3aabfa31b93ce855c0d252e3cce92b5a72c3ecfb4d8ffd69d3e30dd58e2e5b2260001b61335d565b600660008373ffffffffffffffffffffffffffffffffffffffff1673ffffffffffffffffffffffffffffffffffffffff16815260200190815260200160002060009054906101000a900460ff169050919050565b61062c7fbb3a3131f12f71a5c713c231565a2cfa84e3aaffb4e5677d56de0f10ad09841360001b61335d565b6106587f4f86eae510f55bfdf06b5f4de84f723983135aed8cba665234a452de5114bef860001b61335d565b6106847fdc03516a822c6e62326f0263dd3c5850b5751ddb2effb69f65000b9e4d33272960001b61335d565b80600960003373ffffffffffffffffffffffffffffffffffffffff1673ffffffffffffffffffffffffffffffffffffffff16815260200190815260200160002090805190602001906106d7929190613dce565b506107047f919b0d86f8ec5918e64507cfe99ad81393fd3e77ba8ef8a756841b1223f3e26d60001b61335d565b6107307fa0a81ae3e3398bdcbd23e7e752a44cccceca8f8d01fca0b38308965f4ce0b9c960001b61335d565b8060405161073e9190614423565b60405180910390203373ffffffffffffffffffffffffffffffffffffffff167fa58cbc2d3fc0880739836e4603b53162415106cbe246519f687d635cb98de46960405160405180910390a350565b60006107ba7f79354d0f73c5e3d0b33b05e39259220c9ffd1eb3de41a04f758cde5836277b0260001b613360565b6107e67f94e56dbb171fb3367f074ea208478c3498e9e18a3036962ebace8f441068b3b860001b613360565b6108127f7acfdcf60afb2ff875b595be13b57e65e0b27797f9a17718c3b83910cbf395bc60001b613360565b600c54905090565b6108467f7ee4dec7d08f2fbc7b39511f8950b75fd18dc54768c5a961a0cb3cb44b330d7360001b61335d565b6108727f0d95c03fd27371e903c035d6c412db715eafacfa1128a17f337c55feb207dc9e60001b61335d565b61089e7f078d8ea605ae0048606db256f78abc5670db91d5412cf4f4f0c4aa2993be8a3160001b61335d565b80600860003373ffffffffffffffffffffffffffffffffffffffff1673ffffffffffffffffffffffffffffffffffffffff16815260200190815260200160002090805190602001906108f1929190613dce565b5061091e7f510eacb43a7d6d1de19251b2502d32045e2d0366037312444b8d8af5275a9c4460001b61335d565b61094a7fec8dcfce2b205ce132cd8ca90cb1db848dffb1609a1050e763c486bf41c0760860001b61335d565b806040516109589190614423565b60405180910390203373ffffffffffffffffffffffffffffffffffffffff167f7c628b061e272b7258a02ac185c3f3c805bf87461e54b741885a169d7ae39cce60405160405180910390a350565b600b81815481106109b657600080fd5b90600052602060002090600602016000915090508060000180546109d990614469565b80601f0160208091040260200160405190810160405280929190818152602001828054610a0590614469565b8015610a525780601f10610a2757610100808354040283529160200191610a52565b820191906000526020600020905b815481529060010190602001808311610a3557829003601f168201915b505050505090806001018054610a6790614469565b80601f0160208091040260200160405190810160405280929190818152602001828054610a9390614469565b8015610ae05780601f10610ab557610100808354040283529160200191610ae0565b820191906000526020600020905b815481529060010190602001808311610ac357829003601f168201915b505050505090806002018054610af590614469565b80601f0160208091040260200160405190810160405280929190818152602001828054610b2190614469565b8015610b6e5780601f10610b4357610100808354040283529160200191610b6e565b820191906000526020600020905b815481529060010190602001808311610b5157829003601f168201915b5050505050908060030154908060040160009054906101000a900473ffffffffffffffffffffffffffffffffffffffff16908060050154905086565b80610bd77f9465c16a288568b90a39115d3d3eb15305c43fe6b70b60ab0ac6630d590425c060001b613360565b610c037f9c398ef1a0addf5be55dc3724aed418fd90405ec0f0f031b720a1c42a711bc4f60001b613360565b610c2f7f813e599e382e6cb92d46c741c9ddcd72e64effd5bc16e778c2477ad58290c24f60001b613360565b600b805490508110610cd057610c677fa03bd4366ff54ab45a3d74433993b31db4e74c5669c8b29c8acdaa9873b11aac60001b613360565b610c937fbd9042ff855d27b4750c514c54c2e169ad334fb9fd322ec812664fb3255b056260001b613360565b806040517fae08efde000000000000000000000000000000000000000000000000000000008152600401610cc7919061412e565b60405180910390fd5b610cfc7f4b13f1e945469c66e662c55de4d3c65aa5d7d3ca31844005a95696a2dbc4fe8160001b613360565b610d287f9a7a15b631f8fd10c4b4ad504bb08742b3a92ae66308b02eb360a04931cc199c60001b613360565b610d547fb5f0d42e32ea933a15514c8d9e0abe7e73c766ffd44cd8cd0ddbe2ebd3c8b1d760001b613360565b610d807f8e61811a89abeda29d3e3e778a0fde8ee78f5a12e2142fc5ecbc277c7fb9eb0260001b613360565b610dac7fa744718e5319fae05fad033dab7cff7ab76b380b84552cac8483363a993f1c2260001b613360565b3373ffffffffffffffffffffffffffffffffffffffff16600b8381548110610dd757610dd661449b565b5b906000526020600020906006020160040160009054906101000a900473ffffffffffffffffffffffffffffffffffffffff1673ffffffffffffffffffffffffffffffffffffffff1614610eb957610e507f3c00fabd47d0162eae6fd79d2af65a885ab6757d7ae41a4eafe2c3296c69ed8d60001b613360565b610e7c7f21311d025133639d4725cacde86e34b6d53be0e1e59be4768da6e6f625cd422560001b613360565b816040517feef61d50000000000000000000000000000000000000000000000000000000008152600401610eb0919061412e565b60405180910390fd5b610ee57f839be3c1b1109b91dbc08ebc8a7517c0c40dc96a847a9c9de293a9e51242d87360001b613360565b610f117fdd4a57cdbd40dbe5189dbf903131092466cfe031175d672482d26313e778075560001b613360565b600c6000815480929190610f24906144f9565b9190505550610f557f88b2c97ea3b714a78452f5edf104ed1cfff851727af8b8c04f494c754bada32660001b613360565b610f817f1c8900d111dc5708377879a0face822904e523c6c15bc6f860b426878092686960001b613360565b81600b8381548110610f9657610f9561449b565b5b9060005260206000209060060201600001604051610fb491906145b7565b60405180910390207f701c7939e3d5a81feb6e3335b60cd139d6e7a836571174de8587de079fb5b70c60405160405180910390a36110147f2b46e529bf0eb49cbeeb190b40b8f0c4d80d854eaf55d46db15fd491704cd95960001b613360565b600b82815481106110285761102761449b565b5b9060005260206000209060060201600080820160006110479190613e54565b6001820160006110579190613e54565b6002820160006110679190613e54565b60038201600090556004820160006101000a81549073ffffffffffffffffffffffffffffffffffffffff0219169055600582016000905550505050565b6110d07f42607466aac1417b69168d4e7f252a1e69b28334fa784169f5018b41d27f6f2460001b61335d565b6110fc7fdcbad97780ccfce527619c95e277110cdb501292bc62674a209d27adc2e7680560001b61335d565b6111287f761d5a8b6b7df8d48236e5b9ff96ae3425702bc31ee2b4606c942ba3499ea2db60001b61335d565b600660003373ffffffffffffffffffffffffffffffffffffffff1673ffffffffffffffffffffffffffffffffffffffff16815260200190815260200160002060009054906101000a900460ff1661120e576111a57f0629953d3c41183d2a7c55ad28fd6c1a6250998af0b826722c3fc819812cf9b660001b61335d565b6111d17f18b3fbebea46127981ae60b3456c86b204ac7a36a2887a0845c9352aa895951a60001b61335d565b336040517fd141f98600000000000000000000000000000000000000000000000000000000815260040161120591906142d1565b60405180910390fd5b61123a7f74428effc60474dc60e3987cb93e268b4e2c0f862a2da9ca9acb9a3d8b49939c60001b61335d565b6112667fbdcc0e84427de6cc3a4e54b48f099ed0080c7da9933644e3f9c3e432355230eb60001b61335d565b6112927f203766e944a742f8f0817a3f0d369351049bbaa9093545fad4a146b9994c3f0960001b61335d565b600760003373ffffffffffffffffffffffffffffffffffffffff1673ffffffffffffffffffffffffffffffffffffffff16815260200190815260200160002060009054906101000a900460ff1615611379576113107f87b6e5aa0b303ef6e5efc05d577ed14695ca7c6cba13df67ef17149b1ab6126060001b61335d565b61133c7f4a533c468c545ff3810ff619d2935f30551601115b0115adc4c4cd93ad37de2360001b61335d565b336040517f60a704b400000000000000000000000000000000000000000000000000000000815260040161137091906142d1565b60405180910390fd5b6113a57fd3e47c5c0787901bd0c24823314523815bb91cb3b7e51c04b649196f78c0c28d60001b61335d565b6113d17f5d73beb7e5de4660fac634206c64c996000e70c53307fb61720edf4f44eab3f460001b61335d565b6113fd7f0372e368cdd1a0ed88e515eae80acb1f3009ac3166188dbaf061d474db43647b60001b61335d565b600081108061140c5750600a81115b1561149b5761143d7fbf755e4bb763cf37b0147e2feb37d8023051e13e88837a5ab22f36c7bb62559460001b61335d565b6114697fb76c1584c51284096a75a4b6973b79c9cdace51683c84f4cdd16403d471d826860001b61335d565b6040517fa0f45cb600000000000000000000000000000000000000000000000000000000815260040160405180910390fd5b6114c77f359bb255741f7f5ce345d5d21cd0a801c231bffbe55203780d4554e9ce073d7d60001b61335d565b6114f37f43276a2438011574c56e2741fec741ff34e62c8b5eba8b4d79338b575016b83e60001b61335d565b61151f7f91a67fcfc3156006e3c5621e11fbcc9bf1107efdb83ee471e569126e14b5ccab60001b61335d565b6001600760003373ffffffffffffffffffffffffffffffffffffffff1673ffffffffffffffffffffffffffffffffffffffff16815260200190815260200160002060006101000a81548160ff0219169083151502179055506115a37fedd1f3451c02264451126d6b188b2fe36001920948c61d6ce2666f7e240145c460001b61335d565b6115cf7fe8444679dc7bec120f89cadecf1acdcdcd8240345b243015ea8b89602d0c5daf60001b61335d565b806002546115dd91906145ce565b60028190555061160f7fc1ee7a76a77d0c4e2fbfb7889d02014e9d2b456734e42bd6563225693f8f28e960001b61335d565b6003600081548092919061162290614624565b919050555050565b60006116587f7472d49cf76e4c16de1dc665c1efbb730281f83e48c89ecef8225d776db6d8b560001b61335d565b6116847f5c62f396fbb673b4663d17d579f90cc50e2cb8d2e8bdee48b73fbe5cb9d28dac60001b61335d565b6116b07fd5385e9d745d4863d76721aeb970328a1ce5658593f1825ae7eaf2fd800ed42960001b61335d565b600354905090565b6116c0613363565b6116ca60006133e1565b565b60606116fa7f38090cbd967e53d6781a7091f5c994a9c1d7c5c1927038e1eb293502519f15c960001b613360565b6117267f2aba7a932b51e157021fb2312091252904adab82474531bb77c9e1309ab8447360001b613360565b6117527fa77672c3582da0241f1c53f426cc360c7bcffd337814ee1afb4f9519caf4c5da60001b613360565b600b600183600b80549050611767919061466d565b611771919061466d565b815481106117825761178161449b565b5b9060005260206000209060060201600001805461179e90614469565b80601f01602080910402602001604051908101604052809291908181526020018280546117ca90614469565b80156118175780601f106117ec57610100808354040283529160200191611817565b820191906000526020600020905b8154815290600101906020018083116117fa57829003601f168201915b50505050509050919050565b61182b613363565b6118577fc20387937713e607df397f6a784f530a7ea80049aa069d605d915585a83f687460001b61335d565b6118837fe0349a5c9427f6a7df01f8eebba5a25837d22315d56269c76d27ba03673181c760001b61335d565b6118af7fcd78497f8a7842492e3915facca7359fefb7fa6659fc27f37dd96376c2eda7af60001b61335d565b6005600460008373ffffffffffffffffffffffffffffffffffffffff1673ffffffffffffffffffffffffffffffffffffffff168152602001908152602001600020541461198b576119227fd2da44d61a4b4c088d3b2bdde4547753b9b1ec6b5d378fd4dd3c49cf0cc587c860001b61335d565b61194e7f51f002e55df470f602c612cb535be56e729acf180383ae69051f88157b871e3660001b61335d565b806040517faf90c65200000000000000000000000000000000000000000000000000000000815260040161198291906142d1565b60405180910390fd5b6119b77f421302ba49b19e97e94149dfeea00a5b5de179aaa7983431a6f554f8a18475ce60001b61335d565b6119e37f1d8efc786ca1a00573681451e29c0ec03018fa1efdf7b382ba0e392aaa8647d760001b61335d565b611a0f7f75ec9799584cbae3f07ce13dad919018b5ee6fadcd5b56613ebdce7d4af2bbb860001b61335d565b6001600660008373ffffffffffffffffffffffffffffffffffffffff1673ffffffffffffffffffffffffffffffffffffffff16815260200190815260200160002060006101000a81548160ff02191690831515021790555050565b60008060009054906101000a900473ffffffffffffffffffffffffffffffffffffffff16905090565b6060611ac17fd4e8f21eb4941ff98330c97100ea74ef5d5c3271fc41f86b13ac5c984951a71c60001b61335d565b611aed7ff5bf0ff9709654acc9bc58c64c4a29eb73d883ccd753770d037a66651dc03dab60001b61335d565b611b197f9c300a467f20a659cb0fb429094fc10204c29caf7f3a4964b6f0e0851176097f60001b61335d565b600860003373ffffffffffffffffffffffffffffffffffffffff1673ffffffffffffffffffffffffffffffffffffffff1681526020019081526020016000208054611b6390614469565b80601f0160208091040260200160405190810160405280929190818152602001828054611b8f90614469565b8015611bdc5780601f10611bb157610100808354040283529160200191611bdc565b820191906000526020600020905b815481529060010190602001808311611bbf57829003601f168201915b5050505050905090565b611c127f7183fa704cc570dbd39248ba6169d77ab37c330ff2368a772a091383ee24788e60001b61335d565b611c3e7fb09cd72325c9ed009cd504a1f00a5bf3b44534093c662a40f3e23ca2fab79f9960001b61335d565b611c6a7f924b39036a3f7dcf002d1195bdcebe0484a016117cec10d89fe79530c1b3fa7160001b61335d565b80600a60003373ffffffffffffffffffffffffffffffffffffffff1673ffffffffffffffffffffffffffffffffffffffff1681526020019081526020016000209080519060200190611cbd929190613dce565b50611cea7fd15d17d25c56fc84e03366c57f59b766f14a310fdc59488d22e45883ff3bf2e160001b61335d565b611d167ff5f1d0b34620da312404ae3908095427d2e57e98522334be456d6f7409efd19c60001b61335d565b80604051611d249190614423565b60405180910390203373ffffffffffffffffffffffffffffffffffffffff167ff1bfcc87ef5b48f65c55ba6bc830a7964faa23a6f8ef22f4fe324b472dad11f860405160405180910390a350565b611d9e7f80214d72d042780366a0e7f2c9471ae54014f35c7ac5f10937e293070687168a60001b61335d565b611dca7fdbe0f62cee9e977bd37a4b4408c3834281995f0c55b51e456ab02a1c43b32e1460001b61335d565b611df67fa8e719967be802fc8a2640cdf73bf18811bed72623d5e0ab56bb5d0caccccb1960001b61335d565b80600560008473ffffffffffffffffffffffffffffffffffffffff1673ffffffffffffffffffffffffffffffffffffffff16815260200190815260200160002054611e4191906145ce565b600560008473ffffffffffffffffffffffffffffffffffffffff1673ffffffffffffffffffffffffffffffffffffffff16815260200190815260200160002081905550611eb07f50aaf2f0f43bf85aa80b9335f5fd301b1f5f7958b988acb485c79141ed1e1af060001b61335d565b611edc7ff1f23f45970c0b85fe190fb2a3edc9941a9f2e2787df7bbccb6b00d25b38b3c560001b61335d565b611ee5826134a5565b5050565b611ef1613363565b611f1d7f755046a19be54076260df17b72c9a0ebb59ac82e85c6a19e5cd4d02cd964cf2b60001b61335d565b611f497f6dcd97ea535219d4264bfaa961bde802fc8c4d67af248f641365b3a4f992fa3c60001b61335d565b611f757f4fb493336c128e4c9f6d184c552e0b74002ec161867ccecf3a76718d5707459460001b61335d565b6000600354600254611f8791906146d0565b9050611fb57f0bc12a59eb993b24215055cb6813686b526180c82c5f9b0c1ab105b5ae75e40460001b61335d565b611fe17fbce846dac16af9bd0ef4b697818911c241765c867fcfea12695b470510cd889c60001b61335d565b6007811015612074576120167fe3811d8581cbca19dc099981c99bd7ef4b70294e7daffccf89efe9c4878b030160001b61335d565b6120427fabea48b3f22e1342783bf8a69df1dd3623302e72792c7f44956f464b2344513b60001b61335d565b6040517fa5124bf100000000000000000000000000000000000000000000000000000000815260040160405180910390fd5b6120a07f9152f9a1422b22bd98188e44873880e498952f8e68d3e1bb274080a3d0714a8a60001b61335d565b6120cc7f7365fc7614094a5cd25c2b55e57a07fb4ec69d3345813aec83dd1696a5b8c9aa60001b61335d565b6120f87ffe3a9f376c68f5fab7d33131626c72a95749f4cdb905d8324f2cb57e87d97f4860001b61335d565b600660008373ffffffffffffffffffffffffffffffffffffffff1673ffffffffffffffffffffffffffffffffffffffff16815260200190815260200160002060009054906101000a900460ff166121de576121757f8b894458213e85e7360955f229e656db71952f11cffb54cf23e8f7cd8c2e837760001b61335d565b6121a17f9cddb0c177b522a7694a6253f17d8245674f285121fa2b1aaa4b741cc94753bb60001b61335d565b816040517fd141f9860000000000000000000000000000000000000000000000000000000081526004016121d591906142d1565b60405180910390fd5b61220a7f7e600aea8a3b95b2792f714a811699fcdafbbb2893a7393e9beee0264275249660001b61335d565b6122367f2075603338c87c00fce38e51dd708c19246524a8bf3bed069e65bc730aef3b1660001b61335d565b6122627fa60b839e4e3023ac304f2d03d858250b905d388f8632c04ce7d89283cd2ba45d60001b61335d565b6000600660008473ffffffffffffffffffffffffffffffffffffffff1673ffffffffffffffffffffffffffffffffffffffff16815260200190815260200160002060006101000a81548160ff0219169083151502179055505050565b60606122ec7f2ab4fab67eb79d446ae486db2ffba8eccebb6835742e1ebf7b82b727f10aa7a060001b61335d565b6123187f19d78fe81ef434b2eb23ffacb978928c64d2756b0cd29e7d3118b48b648f2ebc60001b61335d565b6123447f72a22fe6feb645e231c6ebc7461328bfe66243dbd1355af25030cffe57cafbf460001b61335d565b600a60003373ffffffffffffffffffffffffffffffffffffffff1673ffffffffffffffffffffffffffffffffffffffff168152602001908152602001600020805461238e90614469565b80601f01602080910402602001604051908101604052809291908181526020018280546123ba90614469565b80156124075780601f106123dc57610100808354040283529160200191612407565b820191906000526020600020905b8154815290600101906020018083116123ea57829003601f168201915b5050505050905090565b600c5481565b60606124457f951317631f126a56e86bf83c89bc29a657e4fb2e91745cd99ec18e10a65f4b5a60001b61335d565b6124717fabba283b7c7b426d8eb217b8cc440b929de057c1b712e0a9ab6a449d2ff1711160001b61335d565b61249d7f919c0c3800cf94c74500ba3e18d82d56be31ea7e9353518d7bd910439682659560001b61335d565b600960003373ffffffffffffffffffffffffffffffffffffffff1673ffffffffffffffffffffffffffffffffffffffff16815260200190815260200160002080546124e790614469565b80601f016020809104026020016040519081016040528092919081815260200182805461251390614469565b80156125605780601f1061253557610100808354040283529160200191612560565b820191906000526020600020905b81548152906001019060200180831161254357829003601f168201915b5050505050905090565b6125967f28c151de6e1c3f9e94a435bce5e64b8ef32c5da3ec835b04ada8cc6fcab1d4ad60001b613360565b6125c27f0b5c89414ecf676e948c4c0ee24294745d10993d13fe8359ba6c5cc1092d589b60001b613360565b6125ee7ffa02846b08d450007ac3784a33479dad851f8dbd75d9fcdf25a6a3f7a54aaefa60001b613360565b600b6040518060c00160405280868152602001858152602001848152602001600b8054905081526020013373ffffffffffffffffffffffffffffffffffffffff168152602001838152509080600181540180825580915050600190039060005260206000209060060201600090919091909150600082015181600001908051906020019061267d929190613dce565b50602082015181600101908051906020019061269a929190613dce565b5060408201518160020190805190602001906126b7929190613dce565b506060820151816003015560808201518160040160006101000a81548173ffffffffffffffffffffffffffffffffffffffff021916908373ffffffffffffffffffffffffffffffffffffffff16021790555060a0820151816005015550506127417f77d33d68591ea33cc8f97d0d9c7fe9f28c5c465b9109a9dd42955a9d12d6ee9860001b613360565b600c600081548092919061275490614624565b91905055506127857fadd17d50b0fdb14932dfc14204b61e26366314cfd52eab4aab75d4a13c37a77c60001b613360565b6127b17f1970d9419cbb7908b6a536bc9b1cc74f97f662b39aa7a9b11ff4f3e5a05d82d160001b613360565b6001600b805490506127c3919061466d565b3373ffffffffffffffffffffffffffffffffffffffff16856040516127e89190614423565b60405180910390207f3d51a95276a8cfd6489223082d100f5a832a5e5363e06326cc478e86ee2b24dc8460405161281f919061412e565b60405180910390a450505050565b8061285a7f9465c16a288568b90a39115d3d3eb15305c43fe6b70b60ab0ac6630d590425c060001b613360565b6128867f9c398ef1a0addf5be55dc3724aed418fd90405ec0f0f031b720a1c42a711bc4f60001b613360565b6128b27f813e599e382e6cb92d46c741c9ddcd72e64effd5bc16e778c2477ad58290c24f60001b613360565b600b805490508110612953576128ea7fa03bd4366ff54ab45a3d74433993b31db4e74c5669c8b29c8acdaa9873b11aac60001b613360565b6129167fbd9042ff855d27b4750c514c54c2e169ad334fb9fd322ec812664fb3255b056260001b613360565b806040517fae08efde00000000000000000000000000000000000000000000000000000000815260040161294a919061412e565b60405180910390fd5b61297f7f4b13f1e945469c66e662c55de4d3c65aa5d7d3ca31844005a95696a2dbc4fe8160001b613360565b6129ab7f9a7a15b631f8fd10c4b4ad504bb08742b3a92ae66308b02eb360a04931cc199c60001b613360565b6129d77f3ffa053bf181768c45c2e938fcbacd20ba8dc945387fffb217bdfa6a2dea04ed60001b613360565b612a037f53b6f64b143108059b5ed6fb7a44d23613f8cf77565cf14b8788776ff30e997660001b613360565b612a2f7fa82ebcea8e6a31d5be6c506f5972208977e55cc728841780eb10ab83b4ff514d60001b613360565b6000600b8381548110612a4557612a4461449b565b5b9060005260206000209060060201600501549050612a857f18de1b9a1d1bc8b97cb473c92fce590ebfd0519d072f3a01042f89753199a5af60001b613360565b612ab17fc94aaf50492a9e203b1c0c64a8e5fe73aef1c73715a70c43843769d84e0007c960001b613360565b600060646005600460003373ffffffffffffffffffffffffffffffffffffffff1673ffffffffffffffffffffffffffffffffffffffff1681526020019081526020016000205484612b029190614701565b612b0c9190614701565b612b1691906146d0565b9050612b447f3360f81e0434d0a9053460f52545426b40752ec42b713cf75e39065c6a21632860001b613360565b612b707f77f0ae03617d40843c2e57138aff2516329dad8f64978d2e8c47a1b103485bec60001b613360565b60008183612b7e919061466d565b9050612bac7fec4d6474d931d001f397df2a4e6d08aa200d5e69c319f26a27e09220a05fc4a560001b613360565b612bd87f115f70d1b06eacf79d8acda806e0fed89fa9d62baab5b6cf24e1a699ff0c713060001b613360565b80341015612c9a57612c0c7f214e4df2e84d01e9aa2226bfcc1d450e1453e6dfe361174ae8d2c98f6359f05760001b613360565b612c387f2b8cfba0b6c592517a28d840cee5f99479d953f8289521fe494993e75d1fd7f860001b613360565b600b8581548110612c4c57612c4b61449b565b5b9060005260206000209060060201600501546040517faaf32d2f000000000000000000000000000000000000000000000000000000008152600401612c91919061412e565b60405180910390fd5b612cc67f814c017496dc799f3dcc4677297fbafeecda02997f30f036aa452690593f68a460001b613360565b612cf27fc05aca6adcf7588d52953ba34dfdf35802dac7d2261220a36d762fe2c23350a260001b613360565b612d1e7f139763e4d4364c007959934f4f837b9918167e7127f1ed28d071b6a94f17e5f160001b613360565b600b8581548110612d3257612d3161449b565b5b906000526020600020906006020160040160009054906101000a900473ffffffffffffffffffffffffffffffffffffffff1673ffffffffffffffffffffffffffffffffffffffff163373ffffffffffffffffffffffffffffffffffffffff161415612e2c57612dc37f0469ab65346ccfd4cd534c78f1f288b03a253776ba37ed60c18d8daa59f7393060001b613360565b612def7fa916a652c187c66362793229ea44a276b97e29134a32337cec8d8b08c885d79160001b613360565b846040517f20b91b67000000000000000000000000000000000000000000000000000000008152600401612e23919061412e565b60405180910390fd5b612e587f944aecbe5429a3166394875fb03440bc90daed33804e5014235634e5961f293f60001b613360565b612e847f855f8e19094fab0f6a8e00d9b7791a52083b61afdf695266bf384310ae29d4d160001b613360565b612eb07fa3f399314ae93337db85a6b02b7772ba3a261599bfdc6b24acd097c98c67efbe60001b613360565b612f0b600b8681548110612ec757612ec661449b565b5b906000526020600020906006020160040160009054906101000a900473ffffffffffffffffffffffffffffffffffffffff16603285612f0691906146d0565b611d72565b612f377f6a0ff0c3507595b1de554fbfbb86d089a0c07e105b0ee63bec0249c1ebac6ef460001b613360565b612f637f5d10417e17c1c94acc8c2295b1a2b7cb8cf762f0d1145e5be4805aecc91e702860001b613360565b33600b8681548110612f7857612f7761449b565b5b906000526020600020906006020160040160006101000a81548173ffffffffffffffffffffffffffffffffffffffff021916908373ffffffffffffffffffffffffffffffffffffffff160217905550612ff37f92ed9e77f14060fa8441074782291340c0d44af3ee0b3d5d24bda7aee1777c3160001b613360565b61301f7f171e29e3294dab099c6fac0b24c5e4dcaa827ce0eb5e2a686a403a2aaa8e14e160001b613360565b6130353360328361303091906146d0565b611d72565b6130617f5e9d1f7d1b43e2c3197fd51a23f4ef7a4d24171e6452e876e477ceba77dac88b60001b613360565b600c6000815480929190613074906144f9565b91905055506130a57fc296119e93eef53da63414e8919bdaa3335c462a8438785d8f9f3e5e175bf59c60001b613360565b6130d17f514316d2266d56265ee2a60cec7f6b806e5b964d1c8fdc7ad478fa927246d97760001b613360565b843373ffffffffffffffffffffffffffffffffffffffff16600b87815481106130fd576130fc61449b565b5b906000526020600020906006020160000160405161311b91906145b7565b60405180910390207f326f0b4ef6b221838bf1dcec0112c888c10cb7653cc15d3fc97244983609b61560405160405180910390a461317b7fb586e7dc472949a9b16461138668d2e83170f96ed9f929aba257ef2615d1bfcc60001b613360565b600b858154811061318f5761318e61449b565b5b9060005260206000209060060201600080820160006131ae9190613e54565b6001820160006131be9190613e54565b6002820160006131ce9190613e54565b60038201600090556004820160006101000a81549073ffffffffffffffffffffffffffffffffffffffff0219169055600582016000905550505050505050565b600061323c7f91c59dcb437b551916f2e2ef87ab772fdb78569e60429f81361bb62414abf08860001b61335d565b6132687f1192599e79fbe539b0dbad5ba64299bad6da5e1de83515fca00b52a2c7ae846c60001b61335d565b6132947f4012c33689830bf380134c222a93f726456c71c68ebbb2609126e46431c89d4d60001b61335d565b600460003373ffffffffffffffffffffffffffffffffffffffff1673ffffffffffffffffffffffffffffffffffffffff16815260200190815260200160002054905090565b6132e1613363565b600073ffffffffffffffffffffffffffffffffffffffff168173ffffffffffffffffffffffffffffffffffffffff161415613351576040517f08c379a0000000000000000000000000000000000000000000000000000000008152600401613348906147cd565b60405180910390fd5b61335a816133e1565b50565b50565b50565b61336b613dc6565b73ffffffffffffffffffffffffffffffffffffffff16613389611a6a565b73ffffffffffffffffffffffffffffffffffffffff16146133df576040517f08c379a00000000000000000000000000000000000000000000000000000000081526004016133d690614839565b60405180910390fd5b565b60008060009054906101000a900473ffffffffffffffffffffffffffffffffffffffff169050816000806101000a81548173ffffffffffffffffffffffffffffffffffffffff021916908373ffffffffffffffffffffffffffffffffffffffff1602179055508173ffffffffffffffffffffffffffffffffffffffff168173ffffffffffffffffffffffffffffffffffffffff167f8be0079c531659141344cd1fd0a4f28419497f9722a3daafe3b4186f6b6457e060405160405180910390a35050565b6134d17fe9dccc56ca60697d24db1a9337e5fb16a7ff922f8b16694536fe23a54a41557c60001b61335d565b6134fd7ff6606631a623d997ae7d97b1a814f99a0d054112702db82d26ce06c12871304460001b61335d565b6135297f4369278e75aa4de739e67c94b437836f43088814c91f2f2d663eafc084294eab60001b61335d565b6064600560008373ffffffffffffffffffffffffffffffffffffffff1673ffffffffffffffffffffffffffffffffffffffff1681526020019081526020016000205410156136135761359d7ff6df9e2e81f56dfced4d831f32f09dd105f2b194f1fa98f79d4d2422c5a3afb960001b61335d565b6135c97fa0210c9b0159736dce5dfe18ea5325592e09fcdd11ed4060607e166b7f97cb9460001b61335d565b6000600460008373ffffffffffffffffffffffffffffffffffffffff1673ffffffffffffffffffffffffffffffffffffffff16815260200190815260200160002081905550613dc3565b61363f7f8d626bf238f035399ac316ad82bdda7ea0e802fd0012b560f6cc9e7d3ab8f3d160001b61335d565b61366b7fb8c58710ccc53714d6f18991e42f115b6fd7367147ae5391880a198118884c1060001b61335d565b6064600560008373ffffffffffffffffffffffffffffffffffffffff1673ffffffffffffffffffffffffffffffffffffffff16815260200190815260200160002054101580156136fa575060c8600560008373ffffffffffffffffffffffffffffffffffffffff1673ffffffffffffffffffffffffffffffffffffffff16815260200190815260200160002054105b156137a15761372b7f6e3778e3d1355c03aedc1d8194daaadfa9cb64ba4977a336119eabe24b23b14060001b61335d565b6137577fc764e50b5690b7d47bb3f8a7ae45f461bea14e662ffa77d3f59942c17093d62360001b61335d565b6001600460008373ffffffffffffffffffffffffffffffffffffffff1673ffffffffffffffffffffffffffffffffffffffff16815260200190815260200160002081905550613dc2565b6137cd7f6bef4ae69a42629f0bc47824750351092f8fe72c38f1c9defc0a8aa9aa698e9260001b61335d565b6137f97f2d25164c3999d6f8059a83b82dcba01c421a27cff08fc9b0f7024e1363686c7e60001b61335d565b60c8600560008373ffffffffffffffffffffffffffffffffffffffff1673ffffffffffffffffffffffffffffffffffffffff1681526020019081526020016000205410158015613889575061012c600560008373ffffffffffffffffffffffffffffffffffffffff1673ffffffffffffffffffffffffffffffffffffffff16815260200190815260200160002054105b15613930576138ba7f65ab888d681535a79e1de1e72e3e47e217b2a243a49e824416f3a2dcf42b61a460001b61335d565b6138e67fe8c7f7b59b5e75d0dbb5f77ac55762738d7c045bf8fea170ae53e21bc9da172360001b61335d565b6002600460008373ffffffffffffffffffffffffffffffffffffffff1673ffffffffffffffffffffffffffffffffffffffff16815260200190815260200160002081905550613dc1565b61395c7fd2bd70ec34b921c0b7d003f3fef3dc395481616bdddee32e068b199960a487c560001b61335d565b6139887f03d1202ab73cd97ad1794b2f2bf46768a2ff004a00782d2c8c4fbdb98d457f6260001b61335d565b61012c600560008373ffffffffffffffffffffffffffffffffffffffff1673ffffffffffffffffffffffffffffffffffffffff1681526020019081526020016000205410158015613a195750610190600560008373ffffffffffffffffffffffffffffffffffffffff1673ffffffffffffffffffffffffffffffffffffffff16815260200190815260200160002054105b15613ac057613a4a7ffcdf4c81c0cdc9569789d3bb6edd1d61ce35fec35906a4e2fefdc87398cdcb8260001b61335d565b613a767fdd63976f93dff65c2751d9cc656d449eef1eb2c120115fe8a243653a71b518f260001b61335d565b6003600460008373ffffffffffffffffffffffffffffffffffffffff1673ffffffffffffffffffffffffffffffffffffffff16815260200190815260200160002081905550613dc0565b613aec7f8bf6870630d6a3f978c012dc417f35b729bc49aa2e8be7009120eafefdbe333260001b61335d565b613b187f98b250248b0caa417ead4f4fd517ec331914121d8b2ca6493bca655b6cbfed1260001b61335d565b610190600560008373ffffffffffffffffffffffffffffffffffffffff1673ffffffffffffffffffffffffffffffffffffffff1681526020019081526020016000205410158015613ba957506101f4600560008373ffffffffffffffffffffffffffffffffffffffff1673ffffffffffffffffffffffffffffffffffffffff16815260200190815260200160002054105b15613c4f57613bda7f0d508090d6d549a0b81a3b884c03b3438af6209dcfb2457b9ba78928705d291c60001b61335d565b613c067feb4950f5a88a1b0c63319beed5185eaf4152d9ee18c78ba7197bdf8a356a1b3160001b61335d565b60048060008373ffffffffffffffffffffffffffffffffffffffff1673ffffffffffffffffffffffffffffffffffffffff16815260200190815260200160002081905550613dbf565b613c7b7ffc9e7f3a5bb4c8c8f3908e7a8d1bf3a8beb8470e6986618c5d19de7bb37f2feb60001b61335d565b613ca77f50eb89b8ba209d7483291285fb7d4c3f055c60aa080a96cfbbe999bb007b4a1b60001b61335d565b6101f4600560008373ffffffffffffffffffffffffffffffffffffffff1673ffffffffffffffffffffffffffffffffffffffff1681526020019081526020016000205410613d9157613d1b7fb8631b6fcbc91dac2bd574d8bce43da8ee3215856df57a708abb02e480169e9460001b61335d565b613d477f9947c270752b368b0d5b716c56d9669875853a77e5987aedff1f621d25951a7d60001b61335d565b6005600460008373ffffffffffffffffffffffffffffffffffffffff1673ffffffffffffffffffffffffffffffffffffffff16815260200190815260200160002081905550613dbe565b613dbd7f8eae625f09b30d06e1faca62a0f699e72945ffad5b998c419c35efdd32a0885660001b61335d565b5b5b5b5b5b5b50565b600033905090565b828054613dda90614469565b90600052602060002090601f016020900481019282613dfc5760008555613e43565b82601f10613e1557805160ff1916838001178555613e43565b82800160010185558215613e43579182015b82811115613e42578251825591602001919060010190613e27565b5b509050613e509190613e94565b5090565b508054613e6090614469565b6000825580601f10613e725750613e91565b601f016020900490600052602060002090810190613e909190613e94565b5b50565b5b80821115613ead576000816000905550600101613e95565b5090565b6000604051905090565b600080fd5b600080fd5b600073ffffffffffffffffffffffffffffffffffffffff82169050919050565b6000613ef082613ec5565b9050919050565b613f0081613ee5565b8114613f0b57600080fd5b50565b600081359050613f1d81613ef7565b92915050565b600060208284031215613f3957613f38613ebb565b5b6000613f4784828501613f0e565b91505092915050565b60008115159050919050565b613f6581613f50565b82525050565b6000602082019050613f806000830184613f5c565b92915050565b600080fd5b600080fd5b6000601f19601f8301169050919050565b7f4e487b7100000000000000000000000000000000000000000000000000000000600052604160045260246000fd5b613fd982613f90565b810181811067ffffffffffffffff82111715613ff857613ff7613fa1565b5b80604052505050565b600061400b613eb1565b90506140178282613fd0565b919050565b600067ffffffffffffffff82111561403757614036613fa1565b5b61404082613f90565b9050602081019050919050565b82818337600083830152505050565b600061406f61406a8461401c565b614001565b90508281526020810184848401111561408b5761408a613f8b565b5b61409684828561404d565b509392505050565b600082601f8301126140b3576140b2613f86565b5b81356140c384826020860161405c565b91505092915050565b6000602082840312156140e2576140e1613ebb565b5b600082013567ffffffffffffffff811115614100576140ff613ec0565b5b61410c8482850161409e565b91505092915050565b6000819050919050565b61412881614115565b82525050565b6000602082019050614143600083018461411f565b92915050565b61415281614115565b811461415d57600080fd5b50565b60008135905061416f81614149565b92915050565b60006020828403121561418b5761418a613ebb565b5b600061419984828501614160565b91505092915050565b600081519050919050565b600082825260208201905092915050565b60005b838110156141dc5780820151818401526020810190506141c1565b838111156141eb576000848401525b50505050565b60006141fc826141a2565b61420681856141ad565b93506142168185602086016141be565b61421f81613f90565b840191505092915050565b61423381613ee5565b82525050565b600060c082019050818103600083015261425381896141f1565b9050818103602083015261426781886141f1565b9050818103604083015261427b81876141f1565b905061428a606083018661411f565b614297608083018561422a565b6142a460a083018461411f565b979650505050505050565b600060208201905081810360008301526142c981846141f1565b905092915050565b60006020820190506142e6600083018461422a565b92915050565b6000806040838503121561430357614302613ebb565b5b600061431185828601613f0e565b925050602061432285828601614160565b9150509250929050565b6000806000806080858703121561434657614345613ebb565b5b600085013567ffffffffffffffff81111561436457614363613ec0565b5b6143708782880161409e565b945050602085013567ffffffffffffffff81111561439157614390613ec0565b5b61439d8782880161409e565b935050604085013567ffffffffffffffff8111156143be576143bd613ec0565b5b6143ca8782880161409e565b92505060606143db87828801614160565b91505092959194509250565b600081905092915050565b60006143fd826141a2565b61440781856143e7565b93506144178185602086016141be565b80840191505092915050565b600061442f82846143f2565b915081905092915050565b7f4e487b7100000000000000000000000000000000000000000000000000000000600052602260045260246000fd5b6000600282049050600182168061448157607f821691505b602082108114156144955761449461443a565b5b50919050565b7f4e487b7100000000000000000000000000000000000000000000000000000000600052603260045260246000fd5b7f4e487b7100000000000000000000000000000000000000000000000000000000600052601160045260246000fd5b600061450482614115565b91506000821415614518576145176144ca565b5b600182039050919050565b60008190508160005260206000209050919050565b6000815461454581614469565b61454f81866143e7565b9450600182166000811461456a576001811461457b576145ae565b60ff198316865281860193506145ae565b61458485614523565b60005b838110156145a657815481890152600182019150602081019050614587565b838801955050505b50505092915050565b60006145c38284614538565b915081905092915050565b60006145d982614115565b91506145e483614115565b9250827fffffffffffffffffffffffffffffffffffffffffffffffffffffffffffffffff03821115614619576146186144ca565b5b828201905092915050565b600061462f82614115565b91507fffffffffffffffffffffffffffffffffffffffffffffffffffffffffffffffff821415614662576146616144ca565b5b600182019050919050565b600061467882614115565b915061468383614115565b925082821015614696576146956144ca565b5b828203905092915050565b7f4e487b7100000000000000000000000000000000000000000000000000000000600052601260045260246000fd5b60006146db82614115565b91506146e683614115565b9250826146f6576146f56146a1565b5b828204905092915050565b600061470c82614115565b915061471783614115565b9250817fffffffffffffffffffffffffffffffffffffffffffffffffffffffffffffffff04831182151516156147505761474f6144ca565b5b828202905092915050565b7f4f776e61626c653a206e6577206f776e657220697320746865207a65726f206160008201527f6464726573730000000000000000000000000000000000000000000000000000602082015250565b60006147b76026836141ad565b91506147c28261475b565b604082019050919050565b600060208201905081810360008301526147e6816147aa565b9050919050565b7f4f776e61626c653a2063616c6c6572206973206e6f7420746865206f776e6572600082015250565b60006148236020836141ad565b915061482e826147ed565b602082019050919050565b6000602082019050818103600083015261485281614816565b905091905056fea2646970667358221220ba3fe38485fca4365dd71c77576515e09dcab64d93ae563ccaa56ee918a5804064736f6c63430008080033","opcodes":"PUSH1 0x80 PUSH1 0x40 MSTORE CALLVALUE DUP1 ISZERO PUSH3 0x11 JUMPI PUSH1 0x0 DUP1 REVERT JUMPDEST POP PUSH3 0x32 PUSH3 0x26 PUSH3 0x1F2 PUSH1 0x20 SHL PUSH1 0x20 SHR JUMP JUMPDEST PUSH3 0x1FA PUSH1 0x20 SHL PUSH1 0x20 SHR JUMP JUMPDEST PUSH3 0x66 PUSH32 0x675CAE87C8A1BC8F337A070C1FCE3227916A0A478189F262648AA918A08B9151 PUSH1 0x0 SHL PUSH3 0x2BE PUSH1 0x20 SHL PUSH1 0x20 SHR JUMP JUMPDEST PUSH3 0x9A PUSH32 0x4DA13821059C6B4CDDB3B6E5B8DDB34DD89594F6BD01720FFD8590332E330164 PUSH1 0x0 SHL PUSH3 0x2BE PUSH1 0x20 SHL PUSH1 0x20 SHR JUMP JUMPDEST PUSH3 0xCE PUSH32 0xAE3DC343E8151EDF789B50C35DE3C4BCD0F3AEA3D8B9DE53D340CF1AE04B5A2 PUSH1 0x0 SHL PUSH3 0x2BE PUSH1 0x20 SHL PUSH1 0x20 SHR JUMP JUMPDEST CALLER PUSH1 0x1 PUSH1 0x0 PUSH2 0x100 EXP DUP2 SLOAD DUP2 PUSH20 0xFFFFFFFFFFFFFFFFFFFFFFFFFFFFFFFFFFFFFFFF MUL NOT AND SWAP1 DUP4 PUSH20 0xFFFFFFFFFFFFFFFFFFFFFFFFFFFFFFFFFFFFFFFF AND MUL OR SWAP1 SSTORE POP PUSH3 0x143 PUSH32 0x8059B491ED86D687EB33AB4855ADDBFE316D6F68B1B21667C0C5B914456AF6B9 PUSH1 0x0 SHL PUSH3 0x2C1 PUSH1 0x20 SHL PUSH1 0x20 SHR JUMP JUMPDEST PUSH3 0x177 PUSH32 0xF9FEECA126BB07774734D09387130A5861EAB468CF8A03C2DBA0A6D08E4AF257 PUSH1 0x0 SHL PUSH3 0x2C1 PUSH1 0x20 SHL PUSH1 0x20 SHR JUMP JUMPDEST PUSH3 0x1AB PUSH32 0x1CD6BBFE211A521014C39FF3D24C8B029F10DEE73A23028A806155F2BA0413EE PUSH1 0x0 SHL PUSH3 0x2C1 PUSH1 0x20 SHL PUSH1 0x20 SHR JUMP JUMPDEST CALLER PUSH1 0x1 PUSH1 0x0 PUSH2 0x100 EXP DUP2 SLOAD DUP2 PUSH20 0xFFFFFFFFFFFFFFFFFFFFFFFFFFFFFFFFFFFFFFFF MUL NOT AND SWAP1 DUP4 PUSH20 0xFFFFFFFFFFFFFFFFFFFFFFFFFFFFFFFFFFFFFFFF AND MUL OR SWAP1 SSTORE POP PUSH3 0x2C4 JUMP JUMPDEST PUSH1 0x0 CALLER SWAP1 POP SWAP1 JUMP JUMPDEST PUSH1 0x0 DUP1 PUSH1 0x0 SWAP1 SLOAD SWAP1 PUSH2 0x100 EXP SWAP1 DIV PUSH20 0xFFFFFFFFFFFFFFFFFFFFFFFFFFFFFFFFFFFFFFFF AND SWAP1 POP DUP2 PUSH1 0x0 DUP1 PUSH2 0x100 EXP DUP2 SLOAD DUP2 PUSH20 0xFFFFFFFFFFFFFFFFFFFFFFFFFFFFFFFFFFFFFFFF MUL NOT AND SWAP1 DUP4 PUSH20 0xFFFFFFFFFFFFFFFFFFFFFFFFFFFFFFFFFFFFFFFF AND MUL OR SWAP1 SSTORE POP DUP2 PUSH20 0xFFFFFFFFFFFFFFFFFFFFFFFFFFFFFFFFFFFFFFFF AND DUP2 PUSH20 0xFFFFFFFFFFFFFFFFFFFFFFFFFFFFFFFFFFFFFFFF AND PUSH32 0x8BE0079C531659141344CD1FD0A4F28419497F9722A3DAAFE3B4186F6B6457E0 PUSH1 0x40 MLOAD PUSH1 0x40 MLOAD DUP1 SWAP2 SUB SWAP1 LOG3 POP POP JUMP JUMPDEST POP JUMP JUMPDEST POP JUMP JUMPDEST PUSH2 0x488F DUP1 PUSH3 0x2D4 PUSH1 0x0 CODECOPY PUSH1 0x0 RETURN INVALID PUSH1 0x80 PUSH1 0x40 MSTORE PUSH1 0x4 CALLDATASIZE LT PUSH2 0x140 JUMPI PUSH1 0x0 CALLDATALOAD PUSH1 0xE0 SHR DUP1 PUSH4 0x8DA5CB5B GT PUSH2 0xB6 JUMPI DUP1 PUSH4 0xC0373561 GT PUSH2 0x6F JUMPI DUP1 PUSH4 0xC0373561 EQ PUSH2 0x437 JUMPI DUP1 PUSH4 0xCC016313 EQ PUSH2 0x462 JUMPI DUP1 PUSH4 0xD65274C9 EQ PUSH2 0x48D JUMPI DUP1 PUSH4 0xE7FB74C7 EQ PUSH2 0x4B6 JUMPI DUP1 PUSH4 0xEC9B4D14 EQ PUSH2 0x4D2 JUMPI DUP1 PUSH4 0xF2FDE38B EQ PUSH2 0x4FD JUMPI PUSH2 0x140 JUMP JUMPDEST DUP1 PUSH4 0x8DA5CB5B EQ PUSH2 0x33B JUMPI DUP1 PUSH4 0x9A166299 EQ PUSH2 0x366 JUMPI DUP1 PUSH4 0xA4EB88F8 EQ PUSH2 0x391 JUMPI DUP1 PUSH4 0xADB303D9 EQ PUSH2 0x3BA JUMPI DUP1 PUSH4 0xBBD4D97C EQ PUSH2 0x3E3 JUMPI DUP1 PUSH4 0xBC702429 EQ PUSH2 0x40C JUMPI PUSH2 0x140 JUMP JUMPDEST DUP1 PUSH4 0x51563F8E GT PUSH2 0x108 JUMPI DUP1 PUSH4 0x51563F8E EQ PUSH2 0x241 JUMPI DUP1 PUSH4 0x67FACA24 EQ PUSH2 0x26A JUMPI DUP1 PUSH4 0x6E1223D4 EQ PUSH2 0x293 JUMPI DUP1 PUSH4 0x715018A6 EQ PUSH2 0x2BE JUMPI DUP1 PUSH4 0x7655ABC8 EQ PUSH2 0x2D5 JUMPI DUP1 PUSH4 0x818A01E1 EQ PUSH2 0x312 JUMPI PUSH2 0x140 JUMP JUMPDEST DUP1 PUSH4 0x374E1C2 EQ PUSH2 0x145 JUMPI DUP1 PUSH4 0x8309A6F EQ PUSH2 0x182 JUMPI DUP1 PUSH4 0x134053A6 EQ PUSH2 0x1AB JUMPI DUP1 PUSH4 0x1B1E39E8 EQ PUSH2 0x1D6 JUMPI DUP1 PUSH4 0x3D4D3600 EQ PUSH2 0x1FF JUMPI JUMPDEST PUSH1 0x0 DUP1 REVERT JUMPDEST CALLVALUE DUP1 ISZERO PUSH2 0x151 JUMPI PUSH1 0x0 DUP1 REVERT JUMPDEST POP PUSH2 0x16C PUSH1 0x4 DUP1 CALLDATASIZE SUB DUP2 ADD SWAP1 PUSH2 0x167 SWAP2 SWAP1 PUSH2 0x3F23 JUMP JUMPDEST PUSH2 0x526 JUMP JUMPDEST PUSH1 0x40 MLOAD PUSH2 0x179 SWAP2 SWAP1 PUSH2 0x3F6B JUMP JUMPDEST PUSH1 0x40 MLOAD DUP1 SWAP2 SUB SWAP1 RETURN JUMPDEST CALLVALUE DUP1 ISZERO PUSH2 0x18E JUMPI PUSH1 0x0 DUP1 REVERT JUMPDEST POP PUSH2 0x1A9 PUSH1 0x4 DUP1 CALLDATASIZE SUB DUP2 ADD SWAP1 PUSH2 0x1A4 SWAP2 SWAP1 PUSH2 0x40CC JUMP JUMPDEST PUSH2 0x600 JUMP JUMPDEST STOP JUMPDEST CALLVALUE DUP1 ISZERO PUSH2 0x1B7 JUMPI PUSH1 0x0 DUP1 REVERT JUMPDEST POP PUSH2 0x1C0 PUSH2 0x78C JUMP JUMPDEST PUSH1 0x40 MLOAD PUSH2 0x1CD SWAP2 SWAP1 PUSH2 0x412E JUMP JUMPDEST PUSH1 0x40 MLOAD DUP1 SWAP2 SUB SWAP1 RETURN JUMPDEST CALLVALUE DUP1 ISZERO PUSH2 0x1E2 JUMPI PUSH1 0x0 DUP1 REVERT JUMPDEST POP PUSH2 0x1FD PUSH1 0x4 DUP1 CALLDATASIZE SUB DUP2 ADD SWAP1 PUSH2 0x1F8 SWAP2 SWAP1 PUSH2 0x40CC JUMP JUMPDEST PUSH2 0x81A JUMP JUMPDEST STOP JUMPDEST CALLVALUE DUP1 ISZERO PUSH2 0x20B JUMPI PUSH1 0x0 DUP1 REVERT JUMPDEST POP PUSH2 0x226 PUSH1 0x4 DUP1 CALLDATASIZE SUB DUP2 ADD SWAP1 PUSH2 0x221 SWAP2 SWAP1 PUSH2 0x4175 JUMP JUMPDEST PUSH2 0x9A6 JUMP JUMPDEST PUSH1 0x40 MLOAD PUSH2 0x238 SWAP7 SWAP6 SWAP5 SWAP4 SWAP3 SWAP2 SWAP1 PUSH2 0x4239 JUMP JUMPDEST PUSH1 0x40 MLOAD DUP1 SWAP2 SUB SWAP1 RETURN JUMPDEST CALLVALUE DUP1 ISZERO PUSH2 0x24D JUMPI PUSH1 0x0 DUP1 REVERT JUMPDEST POP PUSH2 0x268 PUSH1 0x4 DUP1 CALLDATASIZE SUB DUP2 ADD SWAP1 PUSH2 0x263 SWAP2 SWAP1 PUSH2 0x4175 JUMP JUMPDEST PUSH2 0xBAA JUMP JUMPDEST STOP JUMPDEST CALLVALUE DUP1 ISZERO PUSH2 0x276 JUMPI PUSH1 0x0 DUP1 REVERT JUMPDEST POP PUSH2 0x291 PUSH1 0x4 DUP1 CALLDATASIZE SUB DUP2 ADD SWAP1 PUSH2 0x28C SWAP2 SWAP1 PUSH2 0x4175 JUMP JUMPDEST PUSH2 0x10A4 JUMP JUMPDEST STOP JUMPDEST CALLVALUE DUP1 ISZERO PUSH2 0x29F JUMPI PUSH1 0x0 DUP1 REVERT JUMPDEST POP PUSH2 0x2A8 PUSH2 0x162A JUMP JUMPDEST PUSH1 0x40 MLOAD PUSH2 0x2B5 SWAP2 SWAP1 PUSH2 0x412E JUMP JUMPDEST PUSH1 0x40 MLOAD DUP1 SWAP2 SUB SWAP1 RETURN JUMPDEST CALLVALUE DUP1 ISZERO PUSH2 0x2CA JUMPI PUSH1 0x0 DUP1 REVERT JUMPDEST POP PUSH2 0x2D3 PUSH2 0x16B8 JUMP JUMPDEST STOP JUMPDEST CALLVALUE DUP1 ISZERO PUSH2 0x2E1 JUMPI PUSH1 0x0 DUP1 REVERT JUMPDEST POP PUSH2 0x2FC PUSH1 0x4 DUP1 CALLDATASIZE SUB DUP2 ADD SWAP1 PUSH2 0x2F7 SWAP2 SWAP1 PUSH2 0x4175 JUMP JUMPDEST PUSH2 0x16CC JUMP JUMPDEST PUSH1 0x40 MLOAD PUSH2 0x309 SWAP2 SWAP1 PUSH2 0x42AF JUMP JUMPDEST PUSH1 0x40 MLOAD DUP1 SWAP2 SUB SWAP1 RETURN JUMPDEST CALLVALUE DUP1 ISZERO PUSH2 0x31E JUMPI PUSH1 0x0 DUP1 REVERT JUMPDEST POP PUSH2 0x339 PUSH1 0x4 DUP1 CALLDATASIZE SUB DUP2 ADD SWAP1 PUSH2 0x334 SWAP2 SWAP1 PUSH2 0x3F23 JUMP JUMPDEST PUSH2 0x1823 JUMP JUMPDEST STOP JUMPDEST CALLVALUE DUP1 ISZERO PUSH2 0x347 JUMPI PUSH1 0x0 DUP1 REVERT JUMPDEST POP PUSH2 0x350 PUSH2 0x1A6A JUMP JUMPDEST PUSH1 0x40 MLOAD PUSH2 0x35D SWAP2 SWAP1 PUSH2 0x42D1 JUMP JUMPDEST PUSH1 0x40 MLOAD DUP1 SWAP2 SUB SWAP1 RETURN JUMPDEST CALLVALUE DUP1 ISZERO PUSH2 0x372 JUMPI PUSH1 0x0 DUP1 REVERT JUMPDEST POP PUSH2 0x37B PUSH2 0x1A93 JUMP JUMPDEST PUSH1 0x40 MLOAD PUSH2 0x388 SWAP2 SWAP1 PUSH2 0x42AF JUMP JUMPDEST PUSH1 0x40 MLOAD DUP1 SWAP2 SUB SWAP1 RETURN JUMPDEST CALLVALUE DUP1 ISZERO PUSH2 0x39D JUMPI PUSH1 0x0 DUP1 REVERT JUMPDEST POP PUSH2 0x3B8 PUSH1 0x4 DUP1 CALLDATASIZE SUB DUP2 ADD SWAP1 PUSH2 0x3B3 SWAP2 SWAP1 PUSH2 0x40CC JUMP JUMPDEST PUSH2 0x1BE6 JUMP JUMPDEST STOP JUMPDEST CALLVALUE DUP1 ISZERO PUSH2 0x3C6 JUMPI PUSH1 0x0 DUP1 REVERT JUMPDEST POP PUSH2 0x3E1 PUSH1 0x4 DUP1 CALLDATASIZE SUB DUP2 ADD SWAP1 PUSH2 0x3DC SWAP2 SWAP1 PUSH2 0x42EC JUMP JUMPDEST PUSH2 0x1D72 JUMP JUMPDEST STOP JUMPDEST CALLVALUE DUP1 ISZERO PUSH2 0x3EF JUMPI PUSH1 0x0 DUP1 REVERT JUMPDEST POP PUSH2 0x40A PUSH1 0x4 DUP1 CALLDATASIZE SUB DUP2 ADD SWAP1 PUSH2 0x405 SWAP2 SWAP1 PUSH2 0x3F23 JUMP JUMPDEST PUSH2 0x1EE9 JUMP JUMPDEST STOP JUMPDEST CALLVALUE DUP1 ISZERO PUSH2 0x418 JUMPI PUSH1 0x0 DUP1 REVERT JUMPDEST POP PUSH2 0x421 PUSH2 0x22BE JUMP JUMPDEST PUSH1 0x40 MLOAD PUSH2 0x42E SWAP2 SWAP1 PUSH2 0x42AF JUMP JUMPDEST PUSH1 0x40 MLOAD DUP1 SWAP2 SUB SWAP1 RETURN JUMPDEST CALLVALUE DUP1 ISZERO PUSH2 0x443 JUMPI PUSH1 0x0 DUP1 REVERT JUMPDEST POP PUSH2 0x44C PUSH2 0x2411 JUMP JUMPDEST PUSH1 0x40 MLOAD PUSH2 0x459 SWAP2 SWAP1 PUSH2 0x412E JUMP JUMPDEST PUSH1 0x40 MLOAD DUP1 SWAP2 SUB SWAP1 RETURN JUMPDEST CALLVALUE DUP1 ISZERO PUSH2 0x46E JUMPI PUSH1 0x0 DUP1 REVERT JUMPDEST POP PUSH2 0x477 PUSH2 0x2417 JUMP JUMPDEST PUSH1 0x40 MLOAD PUSH2 0x484 SWAP2 SWAP1 PUSH2 0x42AF JUMP JUMPDEST PUSH1 0x40 MLOAD DUP1 SWAP2 SUB SWAP1 RETURN JUMPDEST CALLVALUE DUP1 ISZERO PUSH2 0x499 JUMPI PUSH1 0x0 DUP1 REVERT JUMPDEST POP PUSH2 0x4B4 PUSH1 0x4 DUP1 CALLDATASIZE SUB DUP2 ADD SWAP1 PUSH2 0x4AF SWAP2 SWAP1 PUSH2 0x432C JUMP JUMPDEST PUSH2 0x256A JUMP JUMPDEST STOP JUMPDEST PUSH2 0x4D0 PUSH1 0x4 DUP1 CALLDATASIZE SUB DUP2 ADD SWAP1 PUSH2 0x4CB SWAP2 SWAP1 PUSH2 0x4175 JUMP JUMPDEST PUSH2 0x282D JUMP JUMPDEST STOP JUMPDEST CALLVALUE DUP1 ISZERO PUSH2 0x4DE JUMPI PUSH1 0x0 DUP1 REVERT JUMPDEST POP PUSH2 0x4E7 PUSH2 0x320E JUMP JUMPDEST PUSH1 0x40 MLOAD PUSH2 0x4F4 SWAP2 SWAP1 PUSH2 0x412E JUMP JUMPDEST PUSH1 0x40 MLOAD DUP1 SWAP2 SUB SWAP1 RETURN JUMPDEST CALLVALUE DUP1 ISZERO PUSH2 0x509 JUMPI PUSH1 0x0 DUP1 REVERT JUMPDEST POP PUSH2 0x524 PUSH1 0x4 DUP1 CALLDATASIZE SUB DUP2 ADD SWAP1 PUSH2 0x51F SWAP2 SWAP1 PUSH2 0x3F23 JUMP JUMPDEST PUSH2 0x32D9 JUMP JUMPDEST STOP JUMPDEST PUSH1 0x0 PUSH2 0x554 PUSH32 0x7CC75704F78D4AF0161627DE45DA3DD03B65989173DD0E313C6B1B5BF6ECD193 PUSH1 0x0 SHL PUSH2 0x335D JUMP JUMPDEST PUSH2 0x580 PUSH32 0x62DDA847388A111B5EA42D1EFEA8E8484D27F35B6CFF17DF984B0121FA1EA2D8 PUSH1 0x0 SHL PUSH2 0x335D JUMP JUMPDEST PUSH2 0x5AC PUSH32 0x3AABFA31B93CE855C0D252E3CCE92B5A72C3ECFB4D8FFD69D3E30DD58E2E5B22 PUSH1 0x0 SHL PUSH2 0x335D JUMP JUMPDEST PUSH1 0x6 PUSH1 0x0 DUP4 PUSH20 0xFFFFFFFFFFFFFFFFFFFFFFFFFFFFFFFFFFFFFFFF AND PUSH20 0xFFFFFFFFFFFFFFFFFFFFFFFFFFFFFFFFFFFFFFFF AND DUP2 MSTORE PUSH1 0x20 ADD SWAP1 DUP2 MSTORE PUSH1 0x20 ADD PUSH1 0x0 KECCAK256 PUSH1 0x0 SWAP1 SLOAD SWAP1 PUSH2 0x100 EXP SWAP1 DIV PUSH1 0xFF AND SWAP1 POP SWAP2 SWAP1 POP JUMP JUMPDEST PUSH2 0x62C PUSH32 0xBB3A3131F12F71A5C713C231565A2CFA84E3AAFFB4E5677D56DE0F10AD098413 PUSH1 0x0 SHL PUSH2 0x335D JUMP JUMPDEST PUSH2 0x658 PUSH32 0x4F86EAE510F55BFDF06B5F4DE84F723983135AED8CBA665234A452DE5114BEF8 PUSH1 0x0 SHL PUSH2 0x335D JUMP JUMPDEST PUSH2 0x684 PUSH32 0xDC03516A822C6E62326F0263DD3C5850B5751DDB2EFFB69F65000B9E4D332729 PUSH1 0x0 SHL PUSH2 0x335D JUMP JUMPDEST DUP1 PUSH1 0x9 PUSH1 0x0 CALLER PUSH20 0xFFFFFFFFFFFFFFFFFFFFFFFFFFFFFFFFFFFFFFFF AND PUSH20 0xFFFFFFFFFFFFFFFFFFFFFFFFFFFFFFFFFFFFFFFF AND DUP2 MSTORE PUSH1 0x20 ADD SWAP1 DUP2 MSTORE PUSH1 0x20 ADD PUSH1 0x0 KECCAK256 SWAP1 DUP1 MLOAD SWAP1 PUSH1 0x20 ADD SWAP1 PUSH2 0x6D7 SWAP3 SWAP2 SWAP1 PUSH2 0x3DCE JUMP JUMPDEST POP PUSH2 0x704 PUSH32 0x919B0D86F8EC5918E64507CFE99AD81393FD3E77BA8EF8A756841B1223F3E26D PUSH1 0x0 SHL PUSH2 0x335D JUMP JUMPDEST PUSH2 0x730 PUSH32 0xA0A81AE3E3398BDCBD23E7E752A44CCCCECA8F8D01FCA0B38308965F4CE0B9C9 PUSH1 0x0 SHL PUSH2 0x335D JUMP JUMPDEST DUP1 PUSH1 0x40 MLOAD PUSH2 0x73E SWAP2 SWAP1 PUSH2 0x4423 JUMP JUMPDEST PUSH1 0x40 MLOAD DUP1 SWAP2 SUB SWAP1 KECCAK256 CALLER PUSH20 0xFFFFFFFFFFFFFFFFFFFFFFFFFFFFFFFFFFFFFFFF AND PUSH32 0xA58CBC2D3FC0880739836E4603B53162415106CBE246519F687D635CB98DE469 PUSH1 0x40 MLOAD PUSH1 0x40 MLOAD DUP1 SWAP2 SUB SWAP1 LOG3 POP JUMP JUMPDEST PUSH1 0x0 PUSH2 0x7BA PUSH32 0x79354D0F73C5E3D0B33B05E39259220C9FFD1EB3DE41A04F758CDE5836277B02 PUSH1 0x0 SHL PUSH2 0x3360 JUMP JUMPDEST PUSH2 0x7E6 PUSH32 0x94E56DBB171FB3367F074EA208478C3498E9E18A3036962EBACE8F441068B3B8 PUSH1 0x0 SHL PUSH2 0x3360 JUMP JUMPDEST PUSH2 0x812 PUSH32 0x7ACFDCF60AFB2FF875B595BE13B57E65E0B27797F9A17718C3B83910CBF395BC PUSH1 0x0 SHL PUSH2 0x3360 JUMP JUMPDEST PUSH1 0xC SLOAD SWAP1 POP SWAP1 JUMP JUMPDEST PUSH2 0x846 PUSH32 0x7EE4DEC7D08F2FBC7B39511F8950B75FD18DC54768C5A961A0CB3CB44B330D73 PUSH1 0x0 SHL PUSH2 0x335D JUMP JUMPDEST PUSH2 0x872 PUSH32 0xD95C03FD27371E903C035D6C412DB715EAFACFA1128A17F337C55FEB207DC9E PUSH1 0x0 SHL PUSH2 0x335D JUMP JUMPDEST PUSH2 0x89E PUSH32 0x78D8EA605AE0048606DB256F78ABC5670DB91D5412CF4F4F0C4AA2993BE8A31 PUSH1 0x0 SHL PUSH2 0x335D JUMP JUMPDEST DUP1 PUSH1 0x8 PUSH1 0x0 CALLER PUSH20 0xFFFFFFFFFFFFFFFFFFFFFFFFFFFFFFFFFFFFFFFF AND PUSH20 0xFFFFFFFFFFFFFFFFFFFFFFFFFFFFFFFFFFFFFFFF AND DUP2 MSTORE PUSH1 0x20 ADD SWAP1 DUP2 MSTORE PUSH1 0x20 ADD PUSH1 0x0 KECCAK256 SWAP1 DUP1 MLOAD SWAP1 PUSH1 0x20 ADD SWAP1 PUSH2 0x8F1 SWAP3 SWAP2 SWAP1 PUSH2 0x3DCE JUMP JUMPDEST POP PUSH2 0x91E PUSH32 0x510EACB43A7D6D1DE19251B2502D32045E2D0366037312444B8D8AF5275A9C44 PUSH1 0x0 SHL PUSH2 0x335D JUMP JUMPDEST PUSH2 0x94A PUSH32 0xEC8DCFCE2B205CE132CD8CA90CB1DB848DFFB1609A1050E763C486BF41C07608 PUSH1 0x0 SHL PUSH2 0x335D JUMP JUMPDEST DUP1 PUSH1 0x40 MLOAD PUSH2 0x958 SWAP2 SWAP1 PUSH2 0x4423 JUMP JUMPDEST PUSH1 0x40 MLOAD DUP1 SWAP2 SUB SWAP1 KECCAK256 CALLER PUSH20 0xFFFFFFFFFFFFFFFFFFFFFFFFFFFFFFFFFFFFFFFF AND PUSH32 0x7C628B061E272B7258A02AC185C3F3C805BF87461E54B741885A169D7AE39CCE PUSH1 0x40 MLOAD PUSH1 0x40 MLOAD DUP1 SWAP2 SUB SWAP1 LOG3 POP JUMP JUMPDEST PUSH1 0xB DUP2 DUP2 SLOAD DUP2 LT PUSH2 0x9B6 JUMPI PUSH1 0x0 DUP1 REVERT JUMPDEST SWAP1 PUSH1 0x0 MSTORE PUSH1 0x20 PUSH1 0x0 KECCAK256 SWAP1 PUSH1 0x6 MUL ADD PUSH1 0x0 SWAP2 POP SWAP1 POP DUP1 PUSH1 0x0 ADD DUP1 SLOAD PUSH2 0x9D9 SWAP1 PUSH2 0x4469 JUMP JUMPDEST DUP1 PUSH1 0x1F ADD PUSH1 0x20 DUP1 SWAP2 DIV MUL PUSH1 0x20 ADD PUSH1 0x40 MLOAD SWAP1 DUP2 ADD PUSH1 0x40 MSTORE DUP1 SWAP3 SWAP2 SWAP1 DUP2 DUP2 MSTORE PUSH1 0x20 ADD DUP3 DUP1 SLOAD PUSH2 0xA05 SWAP1 PUSH2 0x4469 JUMP JUMPDEST DUP1 ISZERO PUSH2 0xA52 JUMPI DUP1 PUSH1 0x1F LT PUSH2 0xA27 JUMPI PUSH2 0x100 DUP1 DUP4 SLOAD DIV MUL DUP4 MSTORE SWAP2 PUSH1 0x20 ADD SWAP2 PUSH2 0xA52 JUMP JUMPDEST DUP3 ADD SWAP2 SWAP1 PUSH1 0x0 MSTORE PUSH1 0x20 PUSH1 0x0 KECCAK256 SWAP1 JUMPDEST DUP2 SLOAD DUP2 MSTORE SWAP1 PUSH1 0x1 ADD SWAP1 PUSH1 0x20 ADD DUP1 DUP4 GT PUSH2 0xA35 JUMPI DUP3 SWAP1 SUB PUSH1 0x1F AND DUP3 ADD SWAP2 JUMPDEST POP POP POP POP POP SWAP1 DUP1 PUSH1 0x1 ADD DUP1 SLOAD PUSH2 0xA67 SWAP1 PUSH2 0x4469 JUMP JUMPDEST DUP1 PUSH1 0x1F ADD PUSH1 0x20 DUP1 SWAP2 DIV MUL PUSH1 0x20 ADD PUSH1 0x40 MLOAD SWAP1 DUP2 ADD PUSH1 0x40 MSTORE DUP1 SWAP3 SWAP2 SWAP1 DUP2 DUP2 MSTORE PUSH1 0x20 ADD DUP3 DUP1 SLOAD PUSH2 0xA93 SWAP1 PUSH2 0x4469 JUMP JUMPDEST DUP1 ISZERO PUSH2 0xAE0 JUMPI DUP1 PUSH1 0x1F LT PUSH2 0xAB5 JUMPI PUSH2 0x100 DUP1 DUP4 SLOAD DIV MUL DUP4 MSTORE SWAP2 PUSH1 0x20 ADD SWAP2 PUSH2 0xAE0 JUMP JUMPDEST DUP3 ADD SWAP2 SWAP1 PUSH1 0x0 MSTORE PUSH1 0x20 PUSH1 0x0 KECCAK256 SWAP1 JUMPDEST DUP2 SLOAD DUP2 MSTORE SWAP1 PUSH1 0x1 ADD SWAP1 PUSH1 0x20 ADD DUP1 DUP4 GT PUSH2 0xAC3 JUMPI DUP3 SWAP1 SUB PUSH1 0x1F AND DUP3 ADD SWAP2 JUMPDEST POP POP POP POP POP SWAP1 DUP1 PUSH1 0x2 ADD DUP1 SLOAD PUSH2 0xAF5 SWAP1 PUSH2 0x4469 JUMP JUMPDEST DUP1 PUSH1 0x1F ADD PUSH1 0x20 DUP1 SWAP2 DIV MUL PUSH1 0x20 ADD PUSH1 0x40 MLOAD SWAP1 DUP2 ADD PUSH1 0x40 MSTORE DUP1 SWAP3 SWAP2 SWAP1 DUP2 DUP2 MSTORE PUSH1 0x20 ADD DUP3 DUP1 SLOAD PUSH2 0xB21 SWAP1 PUSH2 0x4469 JUMP JUMPDEST DUP1 ISZERO PUSH2 0xB6E JUMPI DUP1 PUSH1 0x1F LT PUSH2 0xB43 JUMPI PUSH2 0x100 DUP1 DUP4 SLOAD DIV MUL DUP4 MSTORE SWAP2 PUSH1 0x20 ADD SWAP2 PUSH2 0xB6E JUMP JUMPDEST DUP3 ADD SWAP2 SWAP1 PUSH1 0x0 MSTORE PUSH1 0x20 PUSH1 0x0 KECCAK256 SWAP1 JUMPDEST DUP2 SLOAD DUP2 MSTORE SWAP1 PUSH1 0x1 ADD SWAP1 PUSH1 0x20 ADD DUP1 DUP4 GT PUSH2 0xB51 JUMPI DUP3 SWAP1 SUB PUSH1 0x1F AND DUP3 ADD SWAP2 JUMPDEST POP POP POP POP POP SWAP1 DUP1 PUSH1 0x3 ADD SLOAD SWAP1 DUP1 PUSH1 0x4 ADD PUSH1 0x0 SWAP1 SLOAD SWAP1 PUSH2 0x100 EXP SWAP1 DIV PUSH20 0xFFFFFFFFFFFFFFFFFFFFFFFFFFFFFFFFFFFFFFFF AND SWAP1 DUP1 PUSH1 0x5 ADD SLOAD SWAP1 POP DUP7 JUMP JUMPDEST DUP1 PUSH2 0xBD7 PUSH32 0x9465C16A288568B90A39115D3D3EB15305C43FE6B70B60AB0AC6630D590425C0 PUSH1 0x0 SHL PUSH2 0x3360 JUMP JUMPDEST PUSH2 0xC03 PUSH32 0x9C398EF1A0ADDF5BE55DC3724AED418FD90405EC0F0F031B720A1C42A711BC4F PUSH1 0x0 SHL PUSH2 0x3360 JUMP JUMPDEST PUSH2 0xC2F PUSH32 0x813E599E382E6CB92D46C741C9DDCD72E64EFFD5BC16E778C2477AD58290C24F PUSH1 0x0 SHL PUSH2 0x3360 JUMP JUMPDEST PUSH1 0xB DUP1 SLOAD SWAP1 POP DUP2 LT PUSH2 0xCD0 JUMPI PUSH2 0xC67 PUSH32 0xA03BD4366FF54AB45A3D74433993B31DB4E74C5669C8B29C8ACDAA9873B11AAC PUSH1 0x0 SHL PUSH2 0x3360 JUMP JUMPDEST PUSH2 0xC93 PUSH32 0xBD9042FF855D27B4750C514C54C2E169AD334FB9FD322EC812664FB3255B0562 PUSH1 0x0 SHL PUSH2 0x3360 JUMP JUMPDEST DUP1 PUSH1 0x40 MLOAD PUSH32 0xAE08EFDE00000000000000000000000000000000000000000000000000000000 DUP2 MSTORE PUSH1 0x4 ADD PUSH2 0xCC7 SWAP2 SWAP1 PUSH2 0x412E JUMP JUMPDEST PUSH1 0x40 MLOAD DUP1 SWAP2 SUB SWAP1 REVERT JUMPDEST PUSH2 0xCFC PUSH32 0x4B13F1E945469C66E662C55DE4D3C65AA5D7D3CA31844005A95696A2DBC4FE81 PUSH1 0x0 SHL PUSH2 0x3360 JUMP JUMPDEST PUSH2 0xD28 PUSH32 0x9A7A15B631F8FD10C4B4AD504BB08742B3A92AE66308B02EB360A04931CC199C PUSH1 0x0 SHL PUSH2 0x3360 JUMP JUMPDEST PUSH2 0xD54 PUSH32 0xB5F0D42E32EA933A15514C8D9E0ABE7E73C766FFD44CD8CD0DDBE2EBD3C8B1D7 PUSH1 0x0 SHL PUSH2 0x3360 JUMP JUMPDEST PUSH2 0xD80 PUSH32 0x8E61811A89ABEDA29D3E3E778A0FDE8EE78F5A12E2142FC5ECBC277C7FB9EB02 PUSH1 0x0 SHL PUSH2 0x3360 JUMP JUMPDEST PUSH2 0xDAC PUSH32 0xA744718E5319FAE05FAD033DAB7CFF7AB76B380B84552CAC8483363A993F1C22 PUSH1 0x0 SHL PUSH2 0x3360 JUMP JUMPDEST CALLER PUSH20 0xFFFFFFFFFFFFFFFFFFFFFFFFFFFFFFFFFFFFFFFF AND PUSH1 0xB DUP4 DUP2 SLOAD DUP2 LT PUSH2 0xDD7 JUMPI PUSH2 0xDD6 PUSH2 0x449B JUMP JUMPDEST JUMPDEST SWAP1 PUSH1 0x0 MSTORE PUSH1 0x20 PUSH1 0x0 KECCAK256 SWAP1 PUSH1 0x6 MUL ADD PUSH1 0x4 ADD PUSH1 0x0 SWAP1 SLOAD SWAP1 PUSH2 0x100 EXP SWAP1 DIV PUSH20 0xFFFFFFFFFFFFFFFFFFFFFFFFFFFFFFFFFFFFFFFF AND PUSH20 0xFFFFFFFFFFFFFFFFFFFFFFFFFFFFFFFFFFFFFFFF AND EQ PUSH2 0xEB9 JUMPI PUSH2 0xE50 PUSH32 0x3C00FABD47D0162EAE6FD79D2AF65A885AB6757D7AE41A4EAFE2C3296C69ED8D PUSH1 0x0 SHL PUSH2 0x3360 JUMP JUMPDEST PUSH2 0xE7C PUSH32 0x21311D025133639D4725CACDE86E34B6D53BE0E1E59BE4768DA6E6F625CD4225 PUSH1 0x0 SHL PUSH2 0x3360 JUMP JUMPDEST DUP2 PUSH1 0x40 MLOAD PUSH32 0xEEF61D5000000000000000000000000000000000000000000000000000000000 DUP2 MSTORE PUSH1 0x4 ADD PUSH2 0xEB0 SWAP2 SWAP1 PUSH2 0x412E JUMP JUMPDEST PUSH1 0x40 MLOAD DUP1 SWAP2 SUB SWAP1 REVERT JUMPDEST PUSH2 0xEE5 PUSH32 0x839BE3C1B1109B91DBC08EBC8A7517C0C40DC96A847A9C9DE293A9E51242D873 PUSH1 0x0 SHL PUSH2 0x3360 JUMP JUMPDEST PUSH2 0xF11 PUSH32 0xDD4A57CDBD40DBE5189DBF903131092466CFE031175D672482D26313E7780755 PUSH1 0x0 SHL PUSH2 0x3360 JUMP JUMPDEST PUSH1 0xC PUSH1 0x0 DUP2 SLOAD DUP1 SWAP3 SWAP2 SWAP1 PUSH2 0xF24 SWAP1 PUSH2 0x44F9 JUMP JUMPDEST SWAP2 SWAP1 POP SSTORE POP PUSH2 0xF55 PUSH32 0x88B2C97EA3B714A78452F5EDF104ED1CFFF851727AF8B8C04F494C754BADA326 PUSH1 0x0 SHL PUSH2 0x3360 JUMP JUMPDEST PUSH2 0xF81 PUSH32 0x1C8900D111DC5708377879A0FACE822904E523C6C15BC6F860B4268780926869 PUSH1 0x0 SHL PUSH2 0x3360 JUMP JUMPDEST DUP2 PUSH1 0xB DUP4 DUP2 SLOAD DUP2 LT PUSH2 0xF96 JUMPI PUSH2 0xF95 PUSH2 0x449B JUMP JUMPDEST JUMPDEST SWAP1 PUSH1 0x0 MSTORE PUSH1 0x20 PUSH1 0x0 KECCAK256 SWAP1 PUSH1 0x6 MUL ADD PUSH1 0x0 ADD PUSH1 0x40 MLOAD PUSH2 0xFB4 SWAP2 SWAP1 PUSH2 0x45B7 JUMP JUMPDEST PUSH1 0x40 MLOAD DUP1 SWAP2 SUB SWAP1 KECCAK256 PUSH32 0x701C7939E3D5A81FEB6E3335B60CD139D6E7A836571174DE8587DE079FB5B70C PUSH1 0x40 MLOAD PUSH1 0x40 MLOAD DUP1 SWAP2 SUB SWAP1 LOG3 PUSH2 0x1014 PUSH32 0x2B46E529BF0EB49CBEEB190B40B8F0C4D80D854EAF55D46DB15FD491704CD959 PUSH1 0x0 SHL PUSH2 0x3360 JUMP JUMPDEST PUSH1 0xB DUP3 DUP2 SLOAD DUP2 LT PUSH2 0x1028 JUMPI PUSH2 0x1027 PUSH2 0x449B JUMP JUMPDEST JUMPDEST SWAP1 PUSH1 0x0 MSTORE PUSH1 0x20 PUSH1 0x0 KECCAK256 SWAP1 PUSH1 0x6 MUL ADD PUSH1 0x0 DUP1 DUP3 ADD PUSH1 0x0 PUSH2 0x1047 SWAP2 SWAP1 PUSH2 0x3E54 JUMP JUMPDEST PUSH1 0x1 DUP3 ADD PUSH1 0x0 PUSH2 0x1057 SWAP2 SWAP1 PUSH2 0x3E54 JUMP JUMPDEST PUSH1 0x2 DUP3 ADD PUSH1 0x0 PUSH2 0x1067 SWAP2 SWAP1 PUSH2 0x3E54 JUMP JUMPDEST PUSH1 0x3 DUP3 ADD PUSH1 0x0 SWAP1 SSTORE PUSH1 0x4 DUP3 ADD PUSH1 0x0 PUSH2 0x100 EXP DUP2 SLOAD SWAP1 PUSH20 0xFFFFFFFFFFFFFFFFFFFFFFFFFFFFFFFFFFFFFFFF MUL NOT AND SWAP1 SSTORE PUSH1 0x5 DUP3 ADD PUSH1 0x0 SWAP1 SSTORE POP POP POP POP JUMP JUMPDEST PUSH2 0x10D0 PUSH32 0x42607466AAC1417B69168D4E7F252A1E69B28334FA784169F5018B41D27F6F24 PUSH1 0x0 SHL PUSH2 0x335D JUMP JUMPDEST PUSH2 0x10FC PUSH32 0xDCBAD97780CCFCE527619C95E277110CDB501292BC62674A209D27ADC2E76805 PUSH1 0x0 SHL PUSH2 0x335D JUMP JUMPDEST PUSH2 0x1128 PUSH32 0x761D5A8B6B7DF8D48236E5B9FF96AE3425702BC31EE2B4606C942BA3499EA2DB PUSH1 0x0 SHL PUSH2 0x335D JUMP JUMPDEST PUSH1 0x6 PUSH1 0x0 CALLER PUSH20 0xFFFFFFFFFFFFFFFFFFFFFFFFFFFFFFFFFFFFFFFF AND PUSH20 0xFFFFFFFFFFFFFFFFFFFFFFFFFFFFFFFFFFFFFFFF AND DUP2 MSTORE PUSH1 0x20 ADD SWAP1 DUP2 MSTORE PUSH1 0x20 ADD PUSH1 0x0 KECCAK256 PUSH1 0x0 SWAP1 SLOAD SWAP1 PUSH2 0x100 EXP SWAP1 DIV PUSH1 0xFF AND PUSH2 0x120E JUMPI PUSH2 0x11A5 PUSH32 0x629953D3C41183D2A7C55AD28FD6C1A6250998AF0B826722C3FC819812CF9B6 PUSH1 0x0 SHL PUSH2 0x335D JUMP JUMPDEST PUSH2 0x11D1 PUSH32 0x18B3FBEBEA46127981AE60B3456C86B204AC7A36A2887A0845C9352AA895951A PUSH1 0x0 SHL PUSH2 0x335D JUMP JUMPDEST CALLER PUSH1 0x40 MLOAD PUSH32 0xD141F98600000000000000000000000000000000000000000000000000000000 DUP2 MSTORE PUSH1 0x4 ADD PUSH2 0x1205 SWAP2 SWAP1 PUSH2 0x42D1 JUMP JUMPDEST PUSH1 0x40 MLOAD DUP1 SWAP2 SUB SWAP1 REVERT JUMPDEST PUSH2 0x123A PUSH32 0x74428EFFC60474DC60E3987CB93E268B4E2C0F862A2DA9CA9ACB9A3D8B49939C PUSH1 0x0 SHL PUSH2 0x335D JUMP JUMPDEST PUSH2 0x1266 PUSH32 0xBDCC0E84427DE6CC3A4E54B48F099ED0080C7DA9933644E3F9C3E432355230EB PUSH1 0x0 SHL PUSH2 0x335D JUMP JUMPDEST PUSH2 0x1292 PUSH32 0x203766E944A742F8F0817A3F0D369351049BBAA9093545FAD4A146B9994C3F09 PUSH1 0x0 SHL PUSH2 0x335D JUMP JUMPDEST PUSH1 0x7 PUSH1 0x0 CALLER PUSH20 0xFFFFFFFFFFFFFFFFFFFFFFFFFFFFFFFFFFFFFFFF AND PUSH20 0xFFFFFFFFFFFFFFFFFFFFFFFFFFFFFFFFFFFFFFFF AND DUP2 MSTORE PUSH1 0x20 ADD SWAP1 DUP2 MSTORE PUSH1 0x20 ADD PUSH1 0x0 KECCAK256 PUSH1 0x0 SWAP1 SLOAD SWAP1 PUSH2 0x100 EXP SWAP1 DIV PUSH1 0xFF AND ISZERO PUSH2 0x1379 JUMPI PUSH2 0x1310 PUSH32 0x87B6E5AA0B303EF6E5EFC05D577ED14695CA7C6CBA13DF67EF17149B1AB61260 PUSH1 0x0 SHL PUSH2 0x335D JUMP JUMPDEST PUSH2 0x133C PUSH32 0x4A533C468C545FF3810FF619D2935F30551601115B0115ADC4C4CD93AD37DE23 PUSH1 0x0 SHL PUSH2 0x335D JUMP JUMPDEST CALLER PUSH1 0x40 MLOAD PUSH32 0x60A704B400000000000000000000000000000000000000000000000000000000 DUP2 MSTORE PUSH1 0x4 ADD PUSH2 0x1370 SWAP2 SWAP1 PUSH2 0x42D1 JUMP JUMPDEST PUSH1 0x40 MLOAD DUP1 SWAP2 SUB SWAP1 REVERT JUMPDEST PUSH2 0x13A5 PUSH32 0xD3E47C5C0787901BD0C24823314523815BB91CB3B7E51C04B649196F78C0C28D PUSH1 0x0 SHL PUSH2 0x335D JUMP JUMPDEST PUSH2 0x13D1 PUSH32 0x5D73BEB7E5DE4660FAC634206C64C996000E70C53307FB61720EDF4F44EAB3F4 PUSH1 0x0 SHL PUSH2 0x335D JUMP JUMPDEST PUSH2 0x13FD PUSH32 0x372E368CDD1A0ED88E515EAE80ACB1F3009AC3166188DBAF061D474DB43647B PUSH1 0x0 SHL PUSH2 0x335D JUMP JUMPDEST PUSH1 0x0 DUP2 LT DUP1 PUSH2 0x140C JUMPI POP PUSH1 0xA DUP2 GT JUMPDEST ISZERO PUSH2 0x149B JUMPI PUSH2 0x143D PUSH32 0xBF755E4BB763CF37B0147E2FEB37D8023051E13E88837A5AB22F36C7BB625594 PUSH1 0x0 SHL PUSH2 0x335D JUMP JUMPDEST PUSH2 0x1469 PUSH32 0xB76C1584C51284096A75A4B6973B79C9CDACE51683C84F4CDD16403D471D8268 PUSH1 0x0 SHL PUSH2 0x335D JUMP JUMPDEST PUSH1 0x40 MLOAD PUSH32 0xA0F45CB600000000000000000000000000000000000000000000000000000000 DUP2 MSTORE PUSH1 0x4 ADD PUSH1 0x40 MLOAD DUP1 SWAP2 SUB SWAP1 REVERT JUMPDEST PUSH2 0x14C7 PUSH32 0x359BB255741F7F5CE345D5D21CD0A801C231BFFBE55203780D4554E9CE073D7D PUSH1 0x0 SHL PUSH2 0x335D JUMP JUMPDEST PUSH2 0x14F3 PUSH32 0x43276A2438011574C56E2741FEC741FF34E62C8B5EBA8B4D79338B575016B83E PUSH1 0x0 SHL PUSH2 0x335D JUMP JUMPDEST PUSH2 0x151F PUSH32 0x91A67FCFC3156006E3C5621E11FBCC9BF1107EFDB83EE471E569126E14B5CCAB PUSH1 0x0 SHL PUSH2 0x335D JUMP JUMPDEST PUSH1 0x1 PUSH1 0x7 PUSH1 0x0 CALLER PUSH20 0xFFFFFFFFFFFFFFFFFFFFFFFFFFFFFFFFFFFFFFFF AND PUSH20 0xFFFFFFFFFFFFFFFFFFFFFFFFFFFFFFFFFFFFFFFF AND DUP2 MSTORE PUSH1 0x20 ADD SWAP1 DUP2 MSTORE PUSH1 0x20 ADD PUSH1 0x0 KECCAK256 PUSH1 0x0 PUSH2 0x100 EXP DUP2 SLOAD DUP2 PUSH1 0xFF MUL NOT AND SWAP1 DUP4 ISZERO ISZERO MUL OR SWAP1 SSTORE POP PUSH2 0x15A3 PUSH32 0xEDD1F3451C02264451126D6B188B2FE36001920948C61D6CE2666F7E240145C4 PUSH1 0x0 SHL PUSH2 0x335D JUMP JUMPDEST PUSH2 0x15CF PUSH32 0xE8444679DC7BEC120F89CADECF1ACDCDCD8240345B243015EA8B89602D0C5DAF PUSH1 0x0 SHL PUSH2 0x335D JUMP JUMPDEST DUP1 PUSH1 0x2 SLOAD PUSH2 0x15DD SWAP2 SWAP1 PUSH2 0x45CE JUMP JUMPDEST PUSH1 0x2 DUP2 SWAP1 SSTORE POP PUSH2 0x160F PUSH32 0xC1EE7A76A77D0C4E2FBFB7889D02014E9D2B456734E42BD6563225693F8F28E9 PUSH1 0x0 SHL PUSH2 0x335D JUMP JUMPDEST PUSH1 0x3 PUSH1 0x0 DUP2 SLOAD DUP1 SWAP3 SWAP2 SWAP1 PUSH2 0x1622 SWAP1 PUSH2 0x4624 JUMP JUMPDEST SWAP2 SWAP1 POP SSTORE POP POP JUMP JUMPDEST PUSH1 0x0 PUSH2 0x1658 PUSH32 0x7472D49CF76E4C16DE1DC665C1EFBB730281F83E48C89ECEF8225D776DB6D8B5 PUSH1 0x0 SHL PUSH2 0x335D JUMP JUMPDEST PUSH2 0x1684 PUSH32 0x5C62F396FBB673B4663D17D579F90CC50E2CB8D2E8BDEE48B73FBE5CB9D28DAC PUSH1 0x0 SHL PUSH2 0x335D JUMP JUMPDEST PUSH2 0x16B0 PUSH32 0xD5385E9D745D4863D76721AEB970328A1CE5658593F1825AE7EAF2FD800ED429 PUSH1 0x0 SHL PUSH2 0x335D JUMP JUMPDEST PUSH1 0x3 SLOAD SWAP1 POP SWAP1 JUMP JUMPDEST PUSH2 0x16C0 PUSH2 0x3363 JUMP JUMPDEST PUSH2 0x16CA PUSH1 0x0 PUSH2 0x33E1 JUMP JUMPDEST JUMP JUMPDEST PUSH1 0x60 PUSH2 0x16FA PUSH32 0x38090CBD967E53D6781A7091F5C994A9C1D7C5C1927038E1EB293502519F15C9 PUSH1 0x0 SHL PUSH2 0x3360 JUMP JUMPDEST PUSH2 0x1726 PUSH32 0x2ABA7A932B51E157021FB2312091252904ADAB82474531BB77C9E1309AB84473 PUSH1 0x0 SHL PUSH2 0x3360 JUMP JUMPDEST PUSH2 0x1752 PUSH32 0xA77672C3582DA0241F1C53F426CC360C7BCFFD337814EE1AFB4F9519CAF4C5DA PUSH1 0x0 SHL PUSH2 0x3360 JUMP JUMPDEST PUSH1 0xB PUSH1 0x1 DUP4 PUSH1 0xB DUP1 SLOAD SWAP1 POP PUSH2 0x1767 SWAP2 SWAP1 PUSH2 0x466D JUMP JUMPDEST PUSH2 0x1771 SWAP2 SWAP1 PUSH2 0x466D JUMP JUMPDEST DUP2 SLOAD DUP2 LT PUSH2 0x1782 JUMPI PUSH2 0x1781 PUSH2 0x449B JUMP JUMPDEST JUMPDEST SWAP1 PUSH1 0x0 MSTORE PUSH1 0x20 PUSH1 0x0 KECCAK256 SWAP1 PUSH1 0x6 MUL ADD PUSH1 0x0 ADD DUP1 SLOAD PUSH2 0x179E SWAP1 PUSH2 0x4469 JUMP JUMPDEST DUP1 PUSH1 0x1F ADD PUSH1 0x20 DUP1 SWAP2 DIV MUL PUSH1 0x20 ADD PUSH1 0x40 MLOAD SWAP1 DUP2 ADD PUSH1 0x40 MSTORE DUP1 SWAP3 SWAP2 SWAP1 DUP2 DUP2 MSTORE PUSH1 0x20 ADD DUP3 DUP1 SLOAD PUSH2 0x17CA SWAP1 PUSH2 0x4469 JUMP JUMPDEST DUP1 ISZERO PUSH2 0x1817 JUMPI DUP1 PUSH1 0x1F LT PUSH2 0x17EC JUMPI PUSH2 0x100 DUP1 DUP4 SLOAD DIV MUL DUP4 MSTORE SWAP2 PUSH1 0x20 ADD SWAP2 PUSH2 0x1817 JUMP JUMPDEST DUP3 ADD SWAP2 SWAP1 PUSH1 0x0 MSTORE PUSH1 0x20 PUSH1 0x0 KECCAK256 SWAP1 JUMPDEST DUP2 SLOAD DUP2 MSTORE SWAP1 PUSH1 0x1 ADD SWAP1 PUSH1 0x20 ADD DUP1 DUP4 GT PUSH2 0x17FA JUMPI DUP3 SWAP1 SUB PUSH1 0x1F AND DUP3 ADD SWAP2 JUMPDEST POP POP POP POP POP SWAP1 POP SWAP2 SWAP1 POP JUMP JUMPDEST PUSH2 0x182B PUSH2 0x3363 JUMP JUMPDEST PUSH2 0x1857 PUSH32 0xC20387937713E607DF397F6A784F530A7EA80049AA069D605D915585A83F6874 PUSH1 0x0 SHL PUSH2 0x335D JUMP JUMPDEST PUSH2 0x1883 PUSH32 0xE0349A5C9427F6A7DF01F8EEBBA5A25837D22315D56269C76D27BA03673181C7 PUSH1 0x0 SHL PUSH2 0x335D JUMP JUMPDEST PUSH2 0x18AF PUSH32 0xCD78497F8A7842492E3915FACCA7359FEFB7FA6659FC27F37DD96376C2EDA7AF PUSH1 0x0 SHL PUSH2 0x335D JUMP JUMPDEST PUSH1 0x5 PUSH1 0x4 PUSH1 0x0 DUP4 PUSH20 0xFFFFFFFFFFFFFFFFFFFFFFFFFFFFFFFFFFFFFFFF AND PUSH20 0xFFFFFFFFFFFFFFFFFFFFFFFFFFFFFFFFFFFFFFFF AND DUP2 MSTORE PUSH1 0x20 ADD SWAP1 DUP2 MSTORE PUSH1 0x20 ADD PUSH1 0x0 KECCAK256 SLOAD EQ PUSH2 0x198B JUMPI PUSH2 0x1922 PUSH32 0xD2DA44D61A4B4C088D3B2BDDE4547753B9B1EC6B5D378FD4DD3C49CF0CC587C8 PUSH1 0x0 SHL PUSH2 0x335D JUMP JUMPDEST PUSH2 0x194E PUSH32 0x51F002E55DF470F602C612CB535BE56E729ACF180383AE69051F88157B871E36 PUSH1 0x0 SHL PUSH2 0x335D JUMP JUMPDEST DUP1 PUSH1 0x40 MLOAD PUSH32 0xAF90C65200000000000000000000000000000000000000000000000000000000 DUP2 MSTORE PUSH1 0x4 ADD PUSH2 0x1982 SWAP2 SWAP1 PUSH2 0x42D1 JUMP JUMPDEST PUSH1 0x40 MLOAD DUP1 SWAP2 SUB SWAP1 REVERT JUMPDEST PUSH2 0x19B7 PUSH32 0x421302BA49B19E97E94149DFEEA00A5B5DE179AAA7983431A6F554F8A18475CE PUSH1 0x0 SHL PUSH2 0x335D JUMP JUMPDEST PUSH2 0x19E3 PUSH32 0x1D8EFC786CA1A00573681451E29C0EC03018FA1EFDF7B382BA0E392AAA8647D7 PUSH1 0x0 SHL PUSH2 0x335D JUMP JUMPDEST PUSH2 0x1A0F PUSH32 0x75EC9799584CBAE3F07CE13DAD919018B5EE6FADCD5B56613EBDCE7D4AF2BBB8 PUSH1 0x0 SHL PUSH2 0x335D JUMP JUMPDEST PUSH1 0x1 PUSH1 0x6 PUSH1 0x0 DUP4 PUSH20 0xFFFFFFFFFFFFFFFFFFFFFFFFFFFFFFFFFFFFFFFF AND PUSH20 0xFFFFFFFFFFFFFFFFFFFFFFFFFFFFFFFFFFFFFFFF AND DUP2 MSTORE PUSH1 0x20 ADD SWAP1 DUP2 MSTORE PUSH1 0x20 ADD PUSH1 0x0 KECCAK256 PUSH1 0x0 PUSH2 0x100 EXP DUP2 SLOAD DUP2 PUSH1 0xFF MUL NOT AND SWAP1 DUP4 ISZERO ISZERO MUL OR SWAP1 SSTORE POP POP JUMP JUMPDEST PUSH1 0x0 DUP1 PUSH1 0x0 SWAP1 SLOAD SWAP1 PUSH2 0x100 EXP SWAP1 DIV PUSH20 0xFFFFFFFFFFFFFFFFFFFFFFFFFFFFFFFFFFFFFFFF AND SWAP1 POP SWAP1 JUMP JUMPDEST PUSH1 0x60 PUSH2 0x1AC1 PUSH32 0xD4E8F21EB4941FF98330C97100EA74EF5D5C3271FC41F86B13AC5C984951A71C PUSH1 0x0 SHL PUSH2 0x335D JUMP JUMPDEST PUSH2 0x1AED PUSH32 0xF5BF0FF9709654ACC9BC58C64C4A29EB73D883CCD753770D037A66651DC03DAB PUSH1 0x0 SHL PUSH2 0x335D JUMP JUMPDEST PUSH2 0x1B19 PUSH32 0x9C300A467F20A659CB0FB429094FC10204C29CAF7F3A4964B6F0E0851176097F PUSH1 0x0 SHL PUSH2 0x335D JUMP JUMPDEST PUSH1 0x8 PUSH1 0x0 CALLER PUSH20 0xFFFFFFFFFFFFFFFFFFFFFFFFFFFFFFFFFFFFFFFF AND PUSH20 0xFFFFFFFFFFFFFFFFFFFFFFFFFFFFFFFFFFFFFFFF AND DUP2 MSTORE PUSH1 0x20 ADD SWAP1 DUP2 MSTORE PUSH1 0x20 ADD PUSH1 0x0 KECCAK256 DUP1 SLOAD PUSH2 0x1B63 SWAP1 PUSH2 0x4469 JUMP JUMPDEST DUP1 PUSH1 0x1F ADD PUSH1 0x20 DUP1 SWAP2 DIV MUL PUSH1 0x20 ADD PUSH1 0x40 MLOAD SWAP1 DUP2 ADD PUSH1 0x40 MSTORE DUP1 SWAP3 SWAP2 SWAP1 DUP2 DUP2 MSTORE PUSH1 0x20 ADD DUP3 DUP1 SLOAD PUSH2 0x1B8F SWAP1 PUSH2 0x4469 JUMP JUMPDEST DUP1 ISZERO PUSH2 0x1BDC JUMPI DUP1 PUSH1 0x1F LT PUSH2 0x1BB1 JUMPI PUSH2 0x100 DUP1 DUP4 SLOAD DIV MUL DUP4 MSTORE SWAP2 PUSH1 0x20 ADD SWAP2 PUSH2 0x1BDC JUMP JUMPDEST DUP3 ADD SWAP2 SWAP1 PUSH1 0x0 MSTORE PUSH1 0x20 PUSH1 0x0 KECCAK256 SWAP1 JUMPDEST DUP2 SLOAD DUP2 MSTORE SWAP1 PUSH1 0x1 ADD SWAP1 PUSH1 0x20 ADD DUP1 DUP4 GT PUSH2 0x1BBF JUMPI DUP3 SWAP1 SUB PUSH1 0x1F AND DUP3 ADD SWAP2 JUMPDEST POP POP POP POP POP SWAP1 POP SWAP1 JUMP JUMPDEST PUSH2 0x1C12 PUSH32 0x7183FA704CC570DBD39248BA6169D77AB37C330FF2368A772A091383EE24788E PUSH1 0x0 SHL PUSH2 0x335D JUMP JUMPDEST PUSH2 0x1C3E PUSH32 0xB09CD72325C9ED009CD504A1F00A5BF3B44534093C662A40F3E23CA2FAB79F99 PUSH1 0x0 SHL PUSH2 0x335D JUMP JUMPDEST PUSH2 0x1C6A PUSH32 0x924B39036A3F7DCF002D1195BDCEBE0484A016117CEC10D89FE79530C1B3FA71 PUSH1 0x0 SHL PUSH2 0x335D JUMP JUMPDEST DUP1 PUSH1 0xA PUSH1 0x0 CALLER PUSH20 0xFFFFFFFFFFFFFFFFFFFFFFFFFFFFFFFFFFFFFFFF AND PUSH20 0xFFFFFFFFFFFFFFFFFFFFFFFFFFFFFFFFFFFFFFFF AND DUP2 MSTORE PUSH1 0x20 ADD SWAP1 DUP2 MSTORE PUSH1 0x20 ADD PUSH1 0x0 KECCAK256 SWAP1 DUP1 MLOAD SWAP1 PUSH1 0x20 ADD SWAP1 PUSH2 0x1CBD SWAP3 SWAP2 SWAP1 PUSH2 0x3DCE JUMP JUMPDEST POP PUSH2 0x1CEA PUSH32 0xD15D17D25C56FC84E03366C57F59B766F14A310FDC59488D22E45883FF3BF2E1 PUSH1 0x0 SHL PUSH2 0x335D JUMP JUMPDEST PUSH2 0x1D16 PUSH32 0xF5F1D0B34620DA312404AE3908095427D2E57E98522334BE456D6F7409EFD19C PUSH1 0x0 SHL PUSH2 0x335D JUMP JUMPDEST DUP1 PUSH1 0x40 MLOAD PUSH2 0x1D24 SWAP2 SWAP1 PUSH2 0x4423 JUMP JUMPDEST PUSH1 0x40 MLOAD DUP1 SWAP2 SUB SWAP1 KECCAK256 CALLER PUSH20 0xFFFFFFFFFFFFFFFFFFFFFFFFFFFFFFFFFFFFFFFF AND PUSH32 0xF1BFCC87EF5B48F65C55BA6BC830A7964FAA23A6F8EF22F4FE324B472DAD11F8 PUSH1 0x40 MLOAD PUSH1 0x40 MLOAD DUP1 SWAP2 SUB SWAP1 LOG3 POP JUMP JUMPDEST PUSH2 0x1D9E PUSH32 0x80214D72D042780366A0E7F2C9471AE54014F35C7AC5F10937E293070687168A PUSH1 0x0 SHL PUSH2 0x335D JUMP JUMPDEST PUSH2 0x1DCA PUSH32 0xDBE0F62CEE9E977BD37A4B4408C3834281995F0C55B51E456AB02A1C43B32E14 PUSH1 0x0 SHL PUSH2 0x335D JUMP JUMPDEST PUSH2 0x1DF6 PUSH32 0xA8E719967BE802FC8A2640CDF73BF18811BED72623D5E0AB56BB5D0CACCCCB19 PUSH1 0x0 SHL PUSH2 0x335D JUMP JUMPDEST DUP1 PUSH1 0x5 PUSH1 0x0 DUP5 PUSH20 0xFFFFFFFFFFFFFFFFFFFFFFFFFFFFFFFFFFFFFFFF AND PUSH20 0xFFFFFFFFFFFFFFFFFFFFFFFFFFFFFFFFFFFFFFFF AND DUP2 MSTORE PUSH1 0x20 ADD SWAP1 DUP2 MSTORE PUSH1 0x20 ADD PUSH1 0x0 KECCAK256 SLOAD PUSH2 0x1E41 SWAP2 SWAP1 PUSH2 0x45CE JUMP JUMPDEST PUSH1 0x5 PUSH1 0x0 DUP5 PUSH20 0xFFFFFFFFFFFFFFFFFFFFFFFFFFFFFFFFFFFFFFFF AND PUSH20 0xFFFFFFFFFFFFFFFFFFFFFFFFFFFFFFFFFFFFFFFF AND DUP2 MSTORE PUSH1 0x20 ADD SWAP1 DUP2 MSTORE PUSH1 0x20 ADD PUSH1 0x0 KECCAK256 DUP2 SWAP1 SSTORE POP PUSH2 0x1EB0 PUSH32 0x50AAF2F0F43BF85AA80B9335F5FD301B1F5F7958B988ACB485C79141ED1E1AF0 PUSH1 0x0 SHL PUSH2 0x335D JUMP JUMPDEST PUSH2 0x1EDC PUSH32 0xF1F23F45970C0B85FE190FB2A3EDC9941A9F2E2787DF7BBCCB6B00D25B38B3C5 PUSH1 0x0 SHL PUSH2 0x335D JUMP JUMPDEST PUSH2 0x1EE5 DUP3 PUSH2 0x34A5 JUMP JUMPDEST POP POP JUMP JUMPDEST PUSH2 0x1EF1 PUSH2 0x3363 JUMP JUMPDEST PUSH2 0x1F1D PUSH32 0x755046A19BE54076260DF17B72C9A0EBB59AC82E85C6A19E5CD4D02CD964CF2B PUSH1 0x0 SHL PUSH2 0x335D JUMP JUMPDEST PUSH2 0x1F49 PUSH32 0x6DCD97EA535219D4264BFAA961BDE802FC8C4D67AF248F641365B3A4F992FA3C PUSH1 0x0 SHL PUSH2 0x335D JUMP JUMPDEST PUSH2 0x1F75 PUSH32 0x4FB493336C128E4C9F6D184C552E0B74002EC161867CCECF3A76718D57074594 PUSH1 0x0 SHL PUSH2 0x335D JUMP JUMPDEST PUSH1 0x0 PUSH1 0x3 SLOAD PUSH1 0x2 SLOAD PUSH2 0x1F87 SWAP2 SWAP1 PUSH2 0x46D0 JUMP JUMPDEST SWAP1 POP PUSH2 0x1FB5 PUSH32 0xBC12A59EB993B24215055CB6813686B526180C82C5F9B0C1AB105B5AE75E404 PUSH1 0x0 SHL PUSH2 0x335D JUMP JUMPDEST PUSH2 0x1FE1 PUSH32 0xBCE846DAC16AF9BD0EF4B697818911C241765C867FCFEA12695B470510CD889C PUSH1 0x0 SHL PUSH2 0x335D JUMP JUMPDEST PUSH1 0x7 DUP2 LT ISZERO PUSH2 0x2074 JUMPI PUSH2 0x2016 PUSH32 0xE3811D8581CBCA19DC099981C99BD7EF4B70294E7DAFFCCF89EFE9C4878B0301 PUSH1 0x0 SHL PUSH2 0x335D JUMP JUMPDEST PUSH2 0x2042 PUSH32 0xABEA48B3F22E1342783BF8A69DF1DD3623302E72792C7F44956F464B2344513B PUSH1 0x0 SHL PUSH2 0x335D JUMP JUMPDEST PUSH1 0x40 MLOAD PUSH32 0xA5124BF100000000000000000000000000000000000000000000000000000000 DUP2 MSTORE PUSH1 0x4 ADD PUSH1 0x40 MLOAD DUP1 SWAP2 SUB SWAP1 REVERT JUMPDEST PUSH2 0x20A0 PUSH32 0x9152F9A1422B22BD98188E44873880E498952F8E68D3E1BB274080A3D0714A8A PUSH1 0x0 SHL PUSH2 0x335D JUMP JUMPDEST PUSH2 0x20CC PUSH32 0x7365FC7614094A5CD25C2B55E57A07FB4EC69D3345813AEC83DD1696A5B8C9AA PUSH1 0x0 SHL PUSH2 0x335D JUMP JUMPDEST PUSH2 0x20F8 PUSH32 0xFE3A9F376C68F5FAB7D33131626C72A95749F4CDB905D8324F2CB57E87D97F48 PUSH1 0x0 SHL PUSH2 0x335D JUMP JUMPDEST PUSH1 0x6 PUSH1 0x0 DUP4 PUSH20 0xFFFFFFFFFFFFFFFFFFFFFFFFFFFFFFFFFFFFFFFF AND PUSH20 0xFFFFFFFFFFFFFFFFFFFFFFFFFFFFFFFFFFFFFFFF AND DUP2 MSTORE PUSH1 0x20 ADD SWAP1 DUP2 MSTORE PUSH1 0x20 ADD PUSH1 0x0 KECCAK256 PUSH1 0x0 SWAP1 SLOAD SWAP1 PUSH2 0x100 EXP SWAP1 DIV PUSH1 0xFF AND PUSH2 0x21DE JUMPI PUSH2 0x2175 PUSH32 0x8B894458213E85E7360955F229E656DB71952F11CFFB54CF23E8F7CD8C2E8377 PUSH1 0x0 SHL PUSH2 0x335D JUMP JUMPDEST PUSH2 0x21A1 PUSH32 0x9CDDB0C177B522A7694A6253F17D8245674F285121FA2B1AAA4B741CC94753BB PUSH1 0x0 SHL PUSH2 0x335D JUMP JUMPDEST DUP2 PUSH1 0x40 MLOAD PUSH32 0xD141F98600000000000000000000000000000000000000000000000000000000 DUP2 MSTORE PUSH1 0x4 ADD PUSH2 0x21D5 SWAP2 SWAP1 PUSH2 0x42D1 JUMP JUMPDEST PUSH1 0x40 MLOAD DUP1 SWAP2 SUB SWAP1 REVERT JUMPDEST PUSH2 0x220A PUSH32 0x7E600AEA8A3B95B2792F714A811699FCDAFBBB2893A7393E9BEEE02642752496 PUSH1 0x0 SHL PUSH2 0x335D JUMP JUMPDEST PUSH2 0x2236 PUSH32 0x2075603338C87C00FCE38E51DD708C19246524A8BF3BED069E65BC730AEF3B16 PUSH1 0x0 SHL PUSH2 0x335D JUMP JUMPDEST PUSH2 0x2262 PUSH32 0xA60B839E4E3023AC304F2D03D858250B905D388F8632C04CE7D89283CD2BA45D PUSH1 0x0 SHL PUSH2 0x335D JUMP JUMPDEST PUSH1 0x0 PUSH1 0x6 PUSH1 0x0 DUP5 PUSH20 0xFFFFFFFFFFFFFFFFFFFFFFFFFFFFFFFFFFFFFFFF AND PUSH20 0xFFFFFFFFFFFFFFFFFFFFFFFFFFFFFFFFFFFFFFFF AND DUP2 MSTORE PUSH1 0x20 ADD SWAP1 DUP2 MSTORE PUSH1 0x20 ADD PUSH1 0x0 KECCAK256 PUSH1 0x0 PUSH2 0x100 EXP DUP2 SLOAD DUP2 PUSH1 0xFF MUL NOT AND SWAP1 DUP4 ISZERO ISZERO MUL OR SWAP1 SSTORE POP POP POP JUMP JUMPDEST PUSH1 0x60 PUSH2 0x22EC PUSH32 0x2AB4FAB67EB79D446AE486DB2FFBA8ECCEBB6835742E1EBF7B82B727F10AA7A0 PUSH1 0x0 SHL PUSH2 0x335D JUMP JUMPDEST PUSH2 0x2318 PUSH32 0x19D78FE81EF434B2EB23FFACB978928C64D2756B0CD29E7D3118B48B648F2EBC PUSH1 0x0 SHL PUSH2 0x335D JUMP JUMPDEST PUSH2 0x2344 PUSH32 0x72A22FE6FEB645E231C6EBC7461328BFE66243DBD1355AF25030CFFE57CAFBF4 PUSH1 0x0 SHL PUSH2 0x335D JUMP JUMPDEST PUSH1 0xA PUSH1 0x0 CALLER PUSH20 0xFFFFFFFFFFFFFFFFFFFFFFFFFFFFFFFFFFFFFFFF AND PUSH20 0xFFFFFFFFFFFFFFFFFFFFFFFFFFFFFFFFFFFFFFFF AND DUP2 MSTORE PUSH1 0x20 ADD SWAP1 DUP2 MSTORE PUSH1 0x20 ADD PUSH1 0x0 KECCAK256 DUP1 SLOAD PUSH2 0x238E SWAP1 PUSH2 0x4469 JUMP JUMPDEST DUP1 PUSH1 0x1F ADD PUSH1 0x20 DUP1 SWAP2 DIV MUL PUSH1 0x20 ADD PUSH1 0x40 MLOAD SWAP1 DUP2 ADD PUSH1 0x40 MSTORE DUP1 SWAP3 SWAP2 SWAP1 DUP2 DUP2 MSTORE PUSH1 0x20 ADD DUP3 DUP1 SLOAD PUSH2 0x23BA SWAP1 PUSH2 0x4469 JUMP JUMPDEST DUP1 ISZERO PUSH2 0x2407 JUMPI DUP1 PUSH1 0x1F LT PUSH2 0x23DC JUMPI PUSH2 0x100 DUP1 DUP4 SLOAD DIV MUL DUP4 MSTORE SWAP2 PUSH1 0x20 ADD SWAP2 PUSH2 0x2407 JUMP JUMPDEST DUP3 ADD SWAP2 SWAP1 PUSH1 0x0 MSTORE PUSH1 0x20 PUSH1 0x0 KECCAK256 SWAP1 JUMPDEST DUP2 SLOAD DUP2 MSTORE SWAP1 PUSH1 0x1 ADD SWAP1 PUSH1 0x20 ADD DUP1 DUP4 GT PUSH2 0x23EA JUMPI DUP3 SWAP1 SUB PUSH1 0x1F AND DUP3 ADD SWAP2 JUMPDEST POP POP POP POP POP SWAP1 POP SWAP1 JUMP JUMPDEST PUSH1 0xC SLOAD DUP2 JUMP JUMPDEST PUSH1 0x60 PUSH2 0x2445 PUSH32 0x951317631F126A56E86BF83C89BC29A657E4FB2E91745CD99EC18E10A65F4B5A PUSH1 0x0 SHL PUSH2 0x335D JUMP JUMPDEST PUSH2 0x2471 PUSH32 0xABBA283B7C7B426D8EB217B8CC440B929DE057C1B712E0A9AB6A449D2FF17111 PUSH1 0x0 SHL PUSH2 0x335D JUMP JUMPDEST PUSH2 0x249D PUSH32 0x919C0C3800CF94C74500BA3E18D82D56BE31EA7E9353518D7BD9104396826595 PUSH1 0x0 SHL PUSH2 0x335D JUMP JUMPDEST PUSH1 0x9 PUSH1 0x0 CALLER PUSH20 0xFFFFFFFFFFFFFFFFFFFFFFFFFFFFFFFFFFFFFFFF AND PUSH20 0xFFFFFFFFFFFFFFFFFFFFFFFFFFFFFFFFFFFFFFFF AND DUP2 MSTORE PUSH1 0x20 ADD SWAP1 DUP2 MSTORE PUSH1 0x20 ADD PUSH1 0x0 KECCAK256 DUP1 SLOAD PUSH2 0x24E7 SWAP1 PUSH2 0x4469 JUMP JUMPDEST DUP1 PUSH1 0x1F ADD PUSH1 0x20 DUP1 SWAP2 DIV MUL PUSH1 0x20 ADD PUSH1 0x40 MLOAD SWAP1 DUP2 ADD PUSH1 0x40 MSTORE DUP1 SWAP3 SWAP2 SWAP1 DUP2 DUP2 MSTORE PUSH1 0x20 ADD DUP3 DUP1 SLOAD PUSH2 0x2513 SWAP1 PUSH2 0x4469 JUMP JUMPDEST DUP1 ISZERO PUSH2 0x2560 JUMPI DUP1 PUSH1 0x1F LT PUSH2 0x2535 JUMPI PUSH2 0x100 DUP1 DUP4 SLOAD DIV MUL DUP4 MSTORE SWAP2 PUSH1 0x20 ADD SWAP2 PUSH2 0x2560 JUMP JUMPDEST DUP3 ADD SWAP2 SWAP1 PUSH1 0x0 MSTORE PUSH1 0x20 PUSH1 0x0 KECCAK256 SWAP1 JUMPDEST DUP2 SLOAD DUP2 MSTORE SWAP1 PUSH1 0x1 ADD SWAP1 PUSH1 0x20 ADD DUP1 DUP4 GT PUSH2 0x2543 JUMPI DUP3 SWAP1 SUB PUSH1 0x1F AND DUP3 ADD SWAP2 JUMPDEST POP POP POP POP POP SWAP1 POP SWAP1 JUMP JUMPDEST PUSH2 0x2596 PUSH32 0x28C151DE6E1C3F9E94A435BCE5E64B8EF32C5DA3EC835B04ADA8CC6FCAB1D4AD PUSH1 0x0 SHL PUSH2 0x3360 JUMP JUMPDEST PUSH2 0x25C2 PUSH32 0xB5C89414ECF676E948C4C0EE24294745D10993D13FE8359BA6C5CC1092D589B PUSH1 0x0 SHL PUSH2 0x3360 JUMP JUMPDEST PUSH2 0x25EE PUSH32 0xFA02846B08D450007AC3784A33479DAD851F8DBD75D9FCDF25A6A3F7A54AAEFA PUSH1 0x0 SHL PUSH2 0x3360 JUMP JUMPDEST PUSH1 0xB PUSH1 0x40 MLOAD DUP1 PUSH1 0xC0 ADD PUSH1 0x40 MSTORE DUP1 DUP7 DUP2 MSTORE PUSH1 0x20 ADD DUP6 DUP2 MSTORE PUSH1 0x20 ADD DUP5 DUP2 MSTORE PUSH1 0x20 ADD PUSH1 0xB DUP1 SLOAD SWAP1 POP DUP2 MSTORE PUSH1 0x20 ADD CALLER PUSH20 0xFFFFFFFFFFFFFFFFFFFFFFFFFFFFFFFFFFFFFFFF AND DUP2 MSTORE PUSH1 0x20 ADD DUP4 DUP2 MSTORE POP SWAP1 DUP1 PUSH1 0x1 DUP2 SLOAD ADD DUP1 DUP3 SSTORE DUP1 SWAP2 POP POP PUSH1 0x1 SWAP1 SUB SWAP1 PUSH1 0x0 MSTORE PUSH1 0x20 PUSH1 0x0 KECCAK256 SWAP1 PUSH1 0x6 MUL ADD PUSH1 0x0 SWAP1 SWAP2 SWAP1 SWAP2 SWAP1 SWAP2 POP PUSH1 0x0 DUP3 ADD MLOAD DUP2 PUSH1 0x0 ADD SWAP1 DUP1 MLOAD SWAP1 PUSH1 0x20 ADD SWAP1 PUSH2 0x267D SWAP3 SWAP2 SWAP1 PUSH2 0x3DCE JUMP JUMPDEST POP PUSH1 0x20 DUP3 ADD MLOAD DUP2 PUSH1 0x1 ADD SWAP1 DUP1 MLOAD SWAP1 PUSH1 0x20 ADD SWAP1 PUSH2 0x269A SWAP3 SWAP2 SWAP1 PUSH2 0x3DCE JUMP JUMPDEST POP PUSH1 0x40 DUP3 ADD MLOAD DUP2 PUSH1 0x2 ADD SWAP1 DUP1 MLOAD SWAP1 PUSH1 0x20 ADD SWAP1 PUSH2 0x26B7 SWAP3 SWAP2 SWAP1 PUSH2 0x3DCE JUMP JUMPDEST POP PUSH1 0x60 DUP3 ADD MLOAD DUP2 PUSH1 0x3 ADD SSTORE PUSH1 0x80 DUP3 ADD MLOAD DUP2 PUSH1 0x4 ADD PUSH1 0x0 PUSH2 0x100 EXP DUP2 SLOAD DUP2 PUSH20 0xFFFFFFFFFFFFFFFFFFFFFFFFFFFFFFFFFFFFFFFF MUL NOT AND SWAP1 DUP4 PUSH20 0xFFFFFFFFFFFFFFFFFFFFFFFFFFFFFFFFFFFFFFFF AND MUL OR SWAP1 SSTORE POP PUSH1 0xA0 DUP3 ADD MLOAD DUP2 PUSH1 0x5 ADD SSTORE POP POP PUSH2 0x2741 PUSH32 0x77D33D68591EA33CC8F97D0D9C7FE9F28C5C465B9109A9DD42955A9D12D6EE98 PUSH1 0x0 SHL PUSH2 0x3360 JUMP JUMPDEST PUSH1 0xC PUSH1 0x0 DUP2 SLOAD DUP1 SWAP3 SWAP2 SWAP1 PUSH2 0x2754 SWAP1 PUSH2 0x4624 JUMP JUMPDEST SWAP2 SWAP1 POP SSTORE POP PUSH2 0x2785 PUSH32 0xADD17D50B0FDB14932DFC14204B61E26366314CFD52EAB4AAB75D4A13C37A77C PUSH1 0x0 SHL PUSH2 0x3360 JUMP JUMPDEST PUSH2 0x27B1 PUSH32 0x1970D9419CBB7908B6A536BC9B1CC74F97F662B39AA7A9B11FF4F3E5A05D82D1 PUSH1 0x0 SHL PUSH2 0x3360 JUMP JUMPDEST PUSH1 0x1 PUSH1 0xB DUP1 SLOAD SWAP1 POP PUSH2 0x27C3 SWAP2 SWAP1 PUSH2 0x466D JUMP JUMPDEST CALLER PUSH20 0xFFFFFFFFFFFFFFFFFFFFFFFFFFFFFFFFFFFFFFFF AND DUP6 PUSH1 0x40 MLOAD PUSH2 0x27E8 SWAP2 SWAP1 PUSH2 0x4423 JUMP JUMPDEST PUSH1 0x40 MLOAD DUP1 SWAP2 SUB SWAP1 KECCAK256 PUSH32 0x3D51A95276A8CFD6489223082D100F5A832A5E5363E06326CC478E86EE2B24DC DUP5 PUSH1 0x40 MLOAD PUSH2 0x281F SWAP2 SWAP1 PUSH2 0x412E JUMP JUMPDEST PUSH1 0x40 MLOAD DUP1 SWAP2 SUB SWAP1 LOG4 POP POP POP POP JUMP JUMPDEST DUP1 PUSH2 0x285A PUSH32 0x9465C16A288568B90A39115D3D3EB15305C43FE6B70B60AB0AC6630D590425C0 PUSH1 0x0 SHL PUSH2 0x3360 JUMP JUMPDEST PUSH2 0x2886 PUSH32 0x9C398EF1A0ADDF5BE55DC3724AED418FD90405EC0F0F031B720A1C42A711BC4F PUSH1 0x0 SHL PUSH2 0x3360 JUMP JUMPDEST PUSH2 0x28B2 PUSH32 0x813E599E382E6CB92D46C741C9DDCD72E64EFFD5BC16E778C2477AD58290C24F PUSH1 0x0 SHL PUSH2 0x3360 JUMP JUMPDEST PUSH1 0xB DUP1 SLOAD SWAP1 POP DUP2 LT PUSH2 0x2953 JUMPI PUSH2 0x28EA PUSH32 0xA03BD4366FF54AB45A3D74433993B31DB4E74C5669C8B29C8ACDAA9873B11AAC PUSH1 0x0 SHL PUSH2 0x3360 JUMP JUMPDEST PUSH2 0x2916 PUSH32 0xBD9042FF855D27B4750C514C54C2E169AD334FB9FD322EC812664FB3255B0562 PUSH1 0x0 SHL PUSH2 0x3360 JUMP JUMPDEST DUP1 PUSH1 0x40 MLOAD PUSH32 0xAE08EFDE00000000000000000000000000000000000000000000000000000000 DUP2 MSTORE PUSH1 0x4 ADD PUSH2 0x294A SWAP2 SWAP1 PUSH2 0x412E JUMP JUMPDEST PUSH1 0x40 MLOAD DUP1 SWAP2 SUB SWAP1 REVERT JUMPDEST PUSH2 0x297F PUSH32 0x4B13F1E945469C66E662C55DE4D3C65AA5D7D3CA31844005A95696A2DBC4FE81 PUSH1 0x0 SHL PUSH2 0x3360 JUMP JUMPDEST PUSH2 0x29AB PUSH32 0x9A7A15B631F8FD10C4B4AD504BB08742B3A92AE66308B02EB360A04931CC199C PUSH1 0x0 SHL PUSH2 0x3360 JUMP JUMPDEST PUSH2 0x29D7 PUSH32 0x3FFA053BF181768C45C2E938FCBACD20BA8DC945387FFFB217BDFA6A2DEA04ED PUSH1 0x0 SHL PUSH2 0x3360 JUMP JUMPDEST PUSH2 0x2A03 PUSH32 0x53B6F64B143108059B5ED6FB7A44D23613F8CF77565CF14B8788776FF30E9976 PUSH1 0x0 SHL PUSH2 0x3360 JUMP JUMPDEST PUSH2 0x2A2F PUSH32 0xA82EBCEA8E6A31D5BE6C506F5972208977E55CC728841780EB10AB83B4FF514D PUSH1 0x0 SHL PUSH2 0x3360 JUMP JUMPDEST PUSH1 0x0 PUSH1 0xB DUP4 DUP2 SLOAD DUP2 LT PUSH2 0x2A45 JUMPI PUSH2 0x2A44 PUSH2 0x449B JUMP JUMPDEST JUMPDEST SWAP1 PUSH1 0x0 MSTORE PUSH1 0x20 PUSH1 0x0 KECCAK256 SWAP1 PUSH1 0x6 MUL ADD PUSH1 0x5 ADD SLOAD SWAP1 POP PUSH2 0x2A85 PUSH32 0x18DE1B9A1D1BC8B97CB473C92FCE590EBFD0519D072F3A01042F89753199A5AF PUSH1 0x0 SHL PUSH2 0x3360 JUMP JUMPDEST PUSH2 0x2AB1 PUSH32 0xC94AAF50492A9E203B1C0C64A8E5FE73AEF1C73715A70C43843769D84E0007C9 PUSH1 0x0 SHL PUSH2 0x3360 JUMP JUMPDEST PUSH1 0x0 PUSH1 0x64 PUSH1 0x5 PUSH1 0x4 PUSH1 0x0 CALLER PUSH20 0xFFFFFFFFFFFFFFFFFFFFFFFFFFFFFFFFFFFFFFFF AND PUSH20 0xFFFFFFFFFFFFFFFFFFFFFFFFFFFFFFFFFFFFFFFF AND DUP2 MSTORE PUSH1 0x20 ADD SWAP1 DUP2 MSTORE PUSH1 0x20 ADD PUSH1 0x0 KECCAK256 SLOAD DUP5 PUSH2 0x2B02 SWAP2 SWAP1 PUSH2 0x4701 JUMP JUMPDEST PUSH2 0x2B0C SWAP2 SWAP1 PUSH2 0x4701 JUMP JUMPDEST PUSH2 0x2B16 SWAP2 SWAP1 PUSH2 0x46D0 JUMP JUMPDEST SWAP1 POP PUSH2 0x2B44 PUSH32 0x3360F81E0434D0A9053460F52545426B40752EC42B713CF75E39065C6A216328 PUSH1 0x0 SHL PUSH2 0x3360 JUMP JUMPDEST PUSH2 0x2B70 PUSH32 0x77F0AE03617D40843C2E57138AFF2516329DAD8F64978D2E8C47A1B103485BEC PUSH1 0x0 SHL PUSH2 0x3360 JUMP JUMPDEST PUSH1 0x0 DUP2 DUP4 PUSH2 0x2B7E SWAP2 SWAP1 PUSH2 0x466D JUMP JUMPDEST SWAP1 POP PUSH2 0x2BAC PUSH32 0xEC4D6474D931D001F397DF2A4E6D08AA200D5E69C319F26A27E09220A05FC4A5 PUSH1 0x0 SHL PUSH2 0x3360 JUMP JUMPDEST PUSH2 0x2BD8 PUSH32 0x115F70D1B06EACF79D8ACDA806E0FED89FA9D62BAAB5B6CF24E1A699FF0C7130 PUSH1 0x0 SHL PUSH2 0x3360 JUMP JUMPDEST DUP1 CALLVALUE LT ISZERO PUSH2 0x2C9A JUMPI PUSH2 0x2C0C PUSH32 0x214E4DF2E84D01E9AA2226BFCC1D450E1453E6DFE361174AE8D2C98F6359F057 PUSH1 0x0 SHL PUSH2 0x3360 JUMP JUMPDEST PUSH2 0x2C38 PUSH32 0x2B8CFBA0B6C592517A28D840CEE5F99479D953F8289521FE494993E75D1FD7F8 PUSH1 0x0 SHL PUSH2 0x3360 JUMP JUMPDEST PUSH1 0xB DUP6 DUP2 SLOAD DUP2 LT PUSH2 0x2C4C JUMPI PUSH2 0x2C4B PUSH2 0x449B JUMP JUMPDEST JUMPDEST SWAP1 PUSH1 0x0 MSTORE PUSH1 0x20 PUSH1 0x0 KECCAK256 SWAP1 PUSH1 0x6 MUL ADD PUSH1 0x5 ADD SLOAD PUSH1 0x40 MLOAD PUSH32 0xAAF32D2F00000000000000000000000000000000000000000000000000000000 DUP2 MSTORE PUSH1 0x4 ADD PUSH2 0x2C91 SWAP2 SWAP1 PUSH2 0x412E JUMP JUMPDEST PUSH1 0x40 MLOAD DUP1 SWAP2 SUB SWAP1 REVERT JUMPDEST PUSH2 0x2CC6 PUSH32 0x814C017496DC799F3DCC4677297FBAFEECDA02997F30F036AA452690593F68A4 PUSH1 0x0 SHL PUSH2 0x3360 JUMP JUMPDEST PUSH2 0x2CF2 PUSH32 0xC05ACA6ADCF7588D52953BA34DFDF35802DAC7D2261220A36D762FE2C23350A2 PUSH1 0x0 SHL PUSH2 0x3360 JUMP JUMPDEST PUSH2 0x2D1E PUSH32 0x139763E4D4364C007959934F4F837B9918167E7127F1ED28D071B6A94F17E5F1 PUSH1 0x0 SHL PUSH2 0x3360 JUMP JUMPDEST PUSH1 0xB DUP6 DUP2 SLOAD DUP2 LT PUSH2 0x2D32 JUMPI PUSH2 0x2D31 PUSH2 0x449B JUMP JUMPDEST JUMPDEST SWAP1 PUSH1 0x0 MSTORE PUSH1 0x20 PUSH1 0x0 KECCAK256 SWAP1 PUSH1 0x6 MUL ADD PUSH1 0x4 ADD PUSH1 0x0 SWAP1 SLOAD SWAP1 PUSH2 0x100 EXP SWAP1 DIV PUSH20 0xFFFFFFFFFFFFFFFFFFFFFFFFFFFFFFFFFFFFFFFF AND PUSH20 0xFFFFFFFFFFFFFFFFFFFFFFFFFFFFFFFFFFFFFFFF AND CALLER PUSH20 0xFFFFFFFFFFFFFFFFFFFFFFFFFFFFFFFFFFFFFFFF AND EQ ISZERO PUSH2 0x2E2C JUMPI PUSH2 0x2DC3 PUSH32 0x469AB65346CCFD4CD534C78F1F288B03A253776BA37ED60C18D8DAA59F73930 PUSH1 0x0 SHL PUSH2 0x3360 JUMP JUMPDEST PUSH2 0x2DEF PUSH32 0xA916A652C187C66362793229EA44A276B97E29134A32337CEC8D8B08C885D791 PUSH1 0x0 SHL PUSH2 0x3360 JUMP JUMPDEST DUP5 PUSH1 0x40 MLOAD PUSH32 0x20B91B6700000000000000000000000000000000000000000000000000000000 DUP2 MSTORE PUSH1 0x4 ADD PUSH2 0x2E23 SWAP2 SWAP1 PUSH2 0x412E JUMP JUMPDEST PUSH1 0x40 MLOAD DUP1 SWAP2 SUB SWAP1 REVERT JUMPDEST PUSH2 0x2E58 PUSH32 0x944AECBE5429A3166394875FB03440BC90DAED33804E5014235634E5961F293F PUSH1 0x0 SHL PUSH2 0x3360 JUMP JUMPDEST PUSH2 0x2E84 PUSH32 0x855F8E19094FAB0F6A8E00D9B7791A52083B61AFDF695266BF384310AE29D4D1 PUSH1 0x0 SHL PUSH2 0x3360 JUMP JUMPDEST PUSH2 0x2EB0 PUSH32 0xA3F399314AE93337DB85A6B02B7772BA3A261599BFDC6B24ACD097C98C67EFBE PUSH1 0x0 SHL PUSH2 0x3360 JUMP JUMPDEST PUSH2 0x2F0B PUSH1 0xB DUP7 DUP2 SLOAD DUP2 LT PUSH2 0x2EC7 JUMPI PUSH2 0x2EC6 PUSH2 0x449B JUMP JUMPDEST JUMPDEST SWAP1 PUSH1 0x0 MSTORE PUSH1 0x20 PUSH1 0x0 KECCAK256 SWAP1 PUSH1 0x6 MUL ADD PUSH1 0x4 ADD PUSH1 0x0 SWAP1 SLOAD SWAP1 PUSH2 0x100 EXP SWAP1 DIV PUSH20 0xFFFFFFFFFFFFFFFFFFFFFFFFFFFFFFFFFFFFFFFF AND PUSH1 0x32 DUP6 PUSH2 0x2F06 SWAP2 SWAP1 PUSH2 0x46D0 JUMP JUMPDEST PUSH2 0x1D72 JUMP JUMPDEST PUSH2 0x2F37 PUSH32 0x6A0FF0C3507595B1DE554FBFBB86D089A0C07E105B0EE63BEC0249C1EBAC6EF4 PUSH1 0x0 SHL PUSH2 0x3360 JUMP JUMPDEST PUSH2 0x2F63 PUSH32 0x5D10417E17C1C94ACC8C2295B1A2B7CB8CF762F0D1145E5BE4805AECC91E7028 PUSH1 0x0 SHL PUSH2 0x3360 JUMP JUMPDEST CALLER PUSH1 0xB DUP7 DUP2 SLOAD DUP2 LT PUSH2 0x2F78 JUMPI PUSH2 0x2F77 PUSH2 0x449B JUMP JUMPDEST JUMPDEST SWAP1 PUSH1 0x0 MSTORE PUSH1 0x20 PUSH1 0x0 KECCAK256 SWAP1 PUSH1 0x6 MUL ADD PUSH1 0x4 ADD PUSH1 0x0 PUSH2 0x100 EXP DUP2 SLOAD DUP2 PUSH20 0xFFFFFFFFFFFFFFFFFFFFFFFFFFFFFFFFFFFFFFFF MUL NOT AND SWAP1 DUP4 PUSH20 0xFFFFFFFFFFFFFFFFFFFFFFFFFFFFFFFFFFFFFFFF AND MUL OR SWAP1 SSTORE POP PUSH2 0x2FF3 PUSH32 0x92ED9E77F14060FA8441074782291340C0D44AF3EE0B3D5D24BDA7AEE1777C31 PUSH1 0x0 SHL PUSH2 0x3360 JUMP JUMPDEST PUSH2 0x301F PUSH32 0x171E29E3294DAB099C6FAC0B24C5E4DCAA827CE0EB5E2A686A403A2AAA8E14E1 PUSH1 0x0 SHL PUSH2 0x3360 JUMP JUMPDEST PUSH2 0x3035 CALLER PUSH1 0x32 DUP4 PUSH2 0x3030 SWAP2 SWAP1 PUSH2 0x46D0 JUMP JUMPDEST PUSH2 0x1D72 JUMP JUMPDEST PUSH2 0x3061 PUSH32 0x5E9D1F7D1B43E2C3197FD51A23F4EF7A4D24171E6452E876E477CEBA77DAC88B PUSH1 0x0 SHL PUSH2 0x3360 JUMP JUMPDEST PUSH1 0xC PUSH1 0x0 DUP2 SLOAD DUP1 SWAP3 SWAP2 SWAP1 PUSH2 0x3074 SWAP1 PUSH2 0x44F9 JUMP JUMPDEST SWAP2 SWAP1 POP SSTORE POP PUSH2 0x30A5 PUSH32 0xC296119E93EEF53DA63414E8919BDAA3335C462A8438785D8F9F3E5E175BF59C PUSH1 0x0 SHL PUSH2 0x3360 JUMP JUMPDEST PUSH2 0x30D1 PUSH32 0x514316D2266D56265EE2A60CEC7F6B806E5B964D1C8FDC7AD478FA927246D977 PUSH1 0x0 SHL PUSH2 0x3360 JUMP JUMPDEST DUP5 CALLER PUSH20 0xFFFFFFFFFFFFFFFFFFFFFFFFFFFFFFFFFFFFFFFF AND PUSH1 0xB DUP8 DUP2 SLOAD DUP2 LT PUSH2 0x30FD JUMPI PUSH2 0x30FC PUSH2 0x449B JUMP JUMPDEST JUMPDEST SWAP1 PUSH1 0x0 MSTORE PUSH1 0x20 PUSH1 0x0 KECCAK256 SWAP1 PUSH1 0x6 MUL ADD PUSH1 0x0 ADD PUSH1 0x40 MLOAD PUSH2 0x311B SWAP2 SWAP1 PUSH2 0x45B7 JUMP JUMPDEST PUSH1 0x40 MLOAD DUP1 SWAP2 SUB SWAP1 KECCAK256 PUSH32 0x326F0B4EF6B221838BF1DCEC0112C888C10CB7653CC15D3FC97244983609B615 PUSH1 0x40 MLOAD PUSH1 0x40 MLOAD DUP1 SWAP2 SUB SWAP1 LOG4 PUSH2 0x317B PUSH32 0xB586E7DC472949A9B16461138668D2E83170F96ED9F929ABA257EF2615D1BFCC PUSH1 0x0 SHL PUSH2 0x3360 JUMP JUMPDEST PUSH1 0xB DUP6 DUP2 SLOAD DUP2 LT PUSH2 0x318F JUMPI PUSH2 0x318E PUSH2 0x449B JUMP JUMPDEST JUMPDEST SWAP1 PUSH1 0x0 MSTORE PUSH1 0x20 PUSH1 0x0 KECCAK256 SWAP1 PUSH1 0x6 MUL ADD PUSH1 0x0 DUP1 DUP3 ADD PUSH1 0x0 PUSH2 0x31AE SWAP2 SWAP1 PUSH2 0x3E54 JUMP JUMPDEST PUSH1 0x1 DUP3 ADD PUSH1 0x0 PUSH2 0x31BE SWAP2 SWAP1 PUSH2 0x3E54 JUMP JUMPDEST PUSH1 0x2 DUP3 ADD PUSH1 0x0 PUSH2 0x31CE SWAP2 SWAP1 PUSH2 0x3E54 JUMP JUMPDEST PUSH1 0x3 DUP3 ADD PUSH1 0x0 SWAP1 SSTORE PUSH1 0x4 DUP3 ADD PUSH1 0x0 PUSH2 0x100 EXP DUP2 SLOAD SWAP1 PUSH20 0xFFFFFFFFFFFFFFFFFFFFFFFFFFFFFFFFFFFFFFFF MUL NOT AND SWAP1 SSTORE PUSH1 0x5 DUP3 ADD PUSH1 0x0 SWAP1 SSTORE POP POP POP POP POP POP POP JUMP JUMPDEST PUSH1 0x0 PUSH2 0x323C PUSH32 0x91C59DCB437B551916F2E2EF87AB772FDB78569E60429F81361BB62414ABF088 PUSH1 0x0 SHL PUSH2 0x335D JUMP JUMPDEST PUSH2 0x3268 PUSH32 0x1192599E79FBE539B0DBAD5BA64299BAD6DA5E1DE83515FCA00B52A2C7AE846C PUSH1 0x0 SHL PUSH2 0x335D JUMP JUMPDEST PUSH2 0x3294 PUSH32 0x4012C33689830BF380134C222A93F726456C71C68EBBB2609126E46431C89D4D PUSH1 0x0 SHL PUSH2 0x335D JUMP JUMPDEST PUSH1 0x4 PUSH1 0x0 CALLER PUSH20 0xFFFFFFFFFFFFFFFFFFFFFFFFFFFFFFFFFFFFFFFF AND PUSH20 0xFFFFFFFFFFFFFFFFFFFFFFFFFFFFFFFFFFFFFFFF AND DUP2 MSTORE PUSH1 0x20 ADD SWAP1 DUP2 MSTORE PUSH1 0x20 ADD PUSH1 0x0 KECCAK256 SLOAD SWAP1 POP SWAP1 JUMP JUMPDEST PUSH2 0x32E1 PUSH2 0x3363 JUMP JUMPDEST PUSH1 0x0 PUSH20 0xFFFFFFFFFFFFFFFFFFFFFFFFFFFFFFFFFFFFFFFF AND DUP2 PUSH20 0xFFFFFFFFFFFFFFFFFFFFFFFFFFFFFFFFFFFFFFFF AND EQ ISZERO PUSH2 0x3351 JUMPI PUSH1 0x40 MLOAD PUSH32 0x8C379A000000000000000000000000000000000000000000000000000000000 DUP2 MSTORE PUSH1 0x4 ADD PUSH2 0x3348 SWAP1 PUSH2 0x47CD JUMP JUMPDEST PUSH1 0x40 MLOAD DUP1 SWAP2 SUB SWAP1 REVERT JUMPDEST PUSH2 0x335A DUP2 PUSH2 0x33E1 JUMP JUMPDEST POP JUMP JUMPDEST POP JUMP JUMPDEST POP JUMP JUMPDEST PUSH2 0x336B PUSH2 0x3DC6 JUMP JUMPDEST PUSH20 0xFFFFFFFFFFFFFFFFFFFFFFFFFFFFFFFFFFFFFFFF AND PUSH2 0x3389 PUSH2 0x1A6A JUMP JUMPDEST PUSH20 0xFFFFFFFFFFFFFFFFFFFFFFFFFFFFFFFFFFFFFFFF AND EQ PUSH2 0x33DF JUMPI PUSH1 0x40 MLOAD PUSH32 0x8C379A000000000000000000000000000000000000000000000000000000000 DUP2 MSTORE PUSH1 0x4 ADD PUSH2 0x33D6 SWAP1 PUSH2 0x4839 JUMP JUMPDEST PUSH1 0x40 MLOAD DUP1 SWAP2 SUB SWAP1 REVERT JUMPDEST JUMP JUMPDEST PUSH1 0x0 DUP1 PUSH1 0x0 SWAP1 SLOAD SWAP1 PUSH2 0x100 EXP SWAP1 DIV PUSH20 0xFFFFFFFFFFFFFFFFFFFFFFFFFFFFFFFFFFFFFFFF AND SWAP1 POP DUP2 PUSH1 0x0 DUP1 PUSH2 0x100 EXP DUP2 SLOAD DUP2 PUSH20 0xFFFFFFFFFFFFFFFFFFFFFFFFFFFFFFFFFFFFFFFF MUL NOT AND SWAP1 DUP4 PUSH20 0xFFFFFFFFFFFFFFFFFFFFFFFFFFFFFFFFFFFFFFFF AND MUL OR SWAP1 SSTORE POP DUP2 PUSH20 0xFFFFFFFFFFFFFFFFFFFFFFFFFFFFFFFFFFFFFFFF AND DUP2 PUSH20 0xFFFFFFFFFFFFFFFFFFFFFFFFFFFFFFFFFFFFFFFF AND PUSH32 0x8BE0079C531659141344CD1FD0A4F28419497F9722A3DAAFE3B4186F6B6457E0 PUSH1 0x40 MLOAD PUSH1 0x40 MLOAD DUP1 SWAP2 SUB SWAP1 LOG3 POP POP JUMP JUMPDEST PUSH2 0x34D1 PUSH32 0xE9DCCC56CA60697D24DB1A9337E5FB16A7FF922F8B16694536FE23A54A41557C PUSH1 0x0 SHL PUSH2 0x335D JUMP JUMPDEST PUSH2 0x34FD PUSH32 0xF6606631A623D997AE7D97B1A814F99A0D054112702DB82D26CE06C128713044 PUSH1 0x0 SHL PUSH2 0x335D JUMP JUMPDEST PUSH2 0x3529 PUSH32 0x4369278E75AA4DE739E67C94B437836F43088814C91F2F2D663EAFC084294EAB PUSH1 0x0 SHL PUSH2 0x335D JUMP JUMPDEST PUSH1 0x64 PUSH1 0x5 PUSH1 0x0 DUP4 PUSH20 0xFFFFFFFFFFFFFFFFFFFFFFFFFFFFFFFFFFFFFFFF AND PUSH20 0xFFFFFFFFFFFFFFFFFFFFFFFFFFFFFFFFFFFFFFFF AND DUP2 MSTORE PUSH1 0x20 ADD SWAP1 DUP2 MSTORE PUSH1 0x20 ADD PUSH1 0x0 KECCAK256 SLOAD LT ISZERO PUSH2 0x3613 JUMPI PUSH2 0x359D PUSH32 0xF6DF9E2E81F56DFCED4D831F32F09DD105F2B194F1FA98F79D4D2422C5A3AFB9 PUSH1 0x0 SHL PUSH2 0x335D JUMP JUMPDEST PUSH2 0x35C9 PUSH32 0xA0210C9B0159736DCE5DFE18EA5325592E09FCDD11ED4060607E166B7F97CB94 PUSH1 0x0 SHL PUSH2 0x335D JUMP JUMPDEST PUSH1 0x0 PUSH1 0x4 PUSH1 0x0 DUP4 PUSH20 0xFFFFFFFFFFFFFFFFFFFFFFFFFFFFFFFFFFFFFFFF AND PUSH20 0xFFFFFFFFFFFFFFFFFFFFFFFFFFFFFFFFFFFFFFFF AND DUP2 MSTORE PUSH1 0x20 ADD SWAP1 DUP2 MSTORE PUSH1 0x20 ADD PUSH1 0x0 KECCAK256 DUP2 SWAP1 SSTORE POP PUSH2 0x3DC3 JUMP JUMPDEST PUSH2 0x363F PUSH32 0x8D626BF238F035399AC316AD82BDDA7EA0E802FD0012B560F6CC9E7D3AB8F3D1 PUSH1 0x0 SHL PUSH2 0x335D JUMP JUMPDEST PUSH2 0x366B PUSH32 0xB8C58710CCC53714D6F18991E42F115B6FD7367147AE5391880A198118884C10 PUSH1 0x0 SHL PUSH2 0x335D JUMP JUMPDEST PUSH1 0x64 PUSH1 0x5 PUSH1 0x0 DUP4 PUSH20 0xFFFFFFFFFFFFFFFFFFFFFFFFFFFFFFFFFFFFFFFF AND PUSH20 0xFFFFFFFFFFFFFFFFFFFFFFFFFFFFFFFFFFFFFFFF AND DUP2 MSTORE PUSH1 0x20 ADD SWAP1 DUP2 MSTORE PUSH1 0x20 ADD PUSH1 0x0 KECCAK256 SLOAD LT ISZERO DUP1 ISZERO PUSH2 0x36FA JUMPI POP PUSH1 0xC8 PUSH1 0x5 PUSH1 0x0 DUP4 PUSH20 0xFFFFFFFFFFFFFFFFFFFFFFFFFFFFFFFFFFFFFFFF AND PUSH20 0xFFFFFFFFFFFFFFFFFFFFFFFFFFFFFFFFFFFFFFFF AND DUP2 MSTORE PUSH1 0x20 ADD SWAP1 DUP2 MSTORE PUSH1 0x20 ADD PUSH1 0x0 KECCAK256 SLOAD LT JUMPDEST ISZERO PUSH2 0x37A1 JUMPI PUSH2 0x372B PUSH32 0x6E3778E3D1355C03AEDC1D8194DAAADFA9CB64BA4977A336119EABE24B23B140 PUSH1 0x0 SHL PUSH2 0x335D JUMP JUMPDEST PUSH2 0x3757 PUSH32 0xC764E50B5690B7D47BB3F8A7AE45F461BEA14E662FFA77D3F59942C17093D623 PUSH1 0x0 SHL PUSH2 0x335D JUMP JUMPDEST PUSH1 0x1 PUSH1 0x4 PUSH1 0x0 DUP4 PUSH20 0xFFFFFFFFFFFFFFFFFFFFFFFFFFFFFFFFFFFFFFFF AND PUSH20 0xFFFFFFFFFFFFFFFFFFFFFFFFFFFFFFFFFFFFFFFF AND DUP2 MSTORE PUSH1 0x20 ADD SWAP1 DUP2 MSTORE PUSH1 0x20 ADD PUSH1 0x0 KECCAK256 DUP2 SWAP1 SSTORE POP PUSH2 0x3DC2 JUMP JUMPDEST PUSH2 0x37CD PUSH32 0x6BEF4AE69A42629F0BC47824750351092F8FE72C38F1C9DEFC0A8AA9AA698E92 PUSH1 0x0 SHL PUSH2 0x335D JUMP JUMPDEST PUSH2 0x37F9 PUSH32 0x2D25164C3999D6F8059A83B82DCBA01C421A27CFF08FC9B0F7024E1363686C7E PUSH1 0x0 SHL PUSH2 0x335D JUMP JUMPDEST PUSH1 0xC8 PUSH1 0x5 PUSH1 0x0 DUP4 PUSH20 0xFFFFFFFFFFFFFFFFFFFFFFFFFFFFFFFFFFFFFFFF AND PUSH20 0xFFFFFFFFFFFFFFFFFFFFFFFFFFFFFFFFFFFFFFFF AND DUP2 MSTORE PUSH1 0x20 ADD SWAP1 DUP2 MSTORE PUSH1 0x20 ADD PUSH1 0x0 KECCAK256 SLOAD LT ISZERO DUP1 ISZERO PUSH2 0x3889 JUMPI POP PUSH2 0x12C PUSH1 0x5 PUSH1 0x0 DUP4 PUSH20 0xFFFFFFFFFFFFFFFFFFFFFFFFFFFFFFFFFFFFFFFF AND PUSH20 0xFFFFFFFFFFFFFFFFFFFFFFFFFFFFFFFFFFFFFFFF AND DUP2 MSTORE PUSH1 0x20 ADD SWAP1 DUP2 MSTORE PUSH1 0x20 ADD PUSH1 0x0 KECCAK256 SLOAD LT JUMPDEST ISZERO PUSH2 0x3930 JUMPI PUSH2 0x38BA PUSH32 0x65AB888D681535A79E1DE1E72E3E47E217B2A243A49E824416F3A2DCF42B61A4 PUSH1 0x0 SHL PUSH2 0x335D JUMP JUMPDEST PUSH2 0x38E6 PUSH32 0xE8C7F7B59B5E75D0DBB5F77AC55762738D7C045BF8FEA170AE53E21BC9DA1723 PUSH1 0x0 SHL PUSH2 0x335D JUMP JUMPDEST PUSH1 0x2 PUSH1 0x4 PUSH1 0x0 DUP4 PUSH20 0xFFFFFFFFFFFFFFFFFFFFFFFFFFFFFFFFFFFFFFFF AND PUSH20 0xFFFFFFFFFFFFFFFFFFFFFFFFFFFFFFFFFFFFFFFF AND DUP2 MSTORE PUSH1 0x20 ADD SWAP1 DUP2 MSTORE PUSH1 0x20 ADD PUSH1 0x0 KECCAK256 DUP2 SWAP1 SSTORE POP PUSH2 0x3DC1 JUMP JUMPDEST PUSH2 0x395C PUSH32 0xD2BD70EC34B921C0B7D003F3FEF3DC395481616BDDDEE32E068B199960A487C5 PUSH1 0x0 SHL PUSH2 0x335D JUMP JUMPDEST PUSH2 0x3988 PUSH32 0x3D1202AB73CD97AD1794B2F2BF46768A2FF004A00782D2C8C4FBDB98D457F62 PUSH1 0x0 SHL PUSH2 0x335D JUMP JUMPDEST PUSH2 0x12C PUSH1 0x5 PUSH1 0x0 DUP4 PUSH20 0xFFFFFFFFFFFFFFFFFFFFFFFFFFFFFFFFFFFFFFFF AND PUSH20 0xFFFFFFFFFFFFFFFFFFFFFFFFFFFFFFFFFFFFFFFF AND DUP2 MSTORE PUSH1 0x20 ADD SWAP1 DUP2 MSTORE PUSH1 0x20 ADD PUSH1 0x0 KECCAK256 SLOAD LT ISZERO DUP1 ISZERO PUSH2 0x3A19 JUMPI POP PUSH2 0x190 PUSH1 0x5 PUSH1 0x0 DUP4 PUSH20 0xFFFFFFFFFFFFFFFFFFFFFFFFFFFFFFFFFFFFFFFF AND PUSH20 0xFFFFFFFFFFFFFFFFFFFFFFFFFFFFFFFFFFFFFFFF AND DUP2 MSTORE PUSH1 0x20 ADD SWAP1 DUP2 MSTORE PUSH1 0x20 ADD PUSH1 0x0 KECCAK256 SLOAD LT JUMPDEST ISZERO PUSH2 0x3AC0 JUMPI PUSH2 0x3A4A PUSH32 0xFCDF4C81C0CDC9569789D3BB6EDD1D61CE35FEC35906A4E2FEFDC87398CDCB82 PUSH1 0x0 SHL PUSH2 0x335D JUMP JUMPDEST PUSH2 0x3A76 PUSH32 0xDD63976F93DFF65C2751D9CC656D449EEF1EB2C120115FE8A243653A71B518F2 PUSH1 0x0 SHL PUSH2 0x335D JUMP JUMPDEST PUSH1 0x3 PUSH1 0x4 PUSH1 0x0 DUP4 PUSH20 0xFFFFFFFFFFFFFFFFFFFFFFFFFFFFFFFFFFFFFFFF AND PUSH20 0xFFFFFFFFFFFFFFFFFFFFFFFFFFFFFFFFFFFFFFFF AND DUP2 MSTORE PUSH1 0x20 ADD SWAP1 DUP2 MSTORE PUSH1 0x20 ADD PUSH1 0x0 KECCAK256 DUP2 SWAP1 SSTORE POP PUSH2 0x3DC0 JUMP JUMPDEST PUSH2 0x3AEC PUSH32 0x8BF6870630D6A3F978C012DC417F35B729BC49AA2E8BE7009120EAFEFDBE3332 PUSH1 0x0 SHL PUSH2 0x335D JUMP JUMPDEST PUSH2 0x3B18 PUSH32 0x98B250248B0CAA417EAD4F4FD517EC331914121D8B2CA6493BCA655B6CBFED12 PUSH1 0x0 SHL PUSH2 0x335D JUMP JUMPDEST PUSH2 0x190 PUSH1 0x5 PUSH1 0x0 DUP4 PUSH20 0xFFFFFFFFFFFFFFFFFFFFFFFFFFFFFFFFFFFFFFFF AND PUSH20 0xFFFFFFFFFFFFFFFFFFFFFFFFFFFFFFFFFFFFFFFF AND DUP2 MSTORE PUSH1 0x20 ADD SWAP1 DUP2 MSTORE PUSH1 0x20 ADD PUSH1 0x0 KECCAK256 SLOAD LT ISZERO DUP1 ISZERO PUSH2 0x3BA9 JUMPI POP PUSH2 0x1F4 PUSH1 0x5 PUSH1 0x0 DUP4 PUSH20 0xFFFFFFFFFFFFFFFFFFFFFFFFFFFFFFFFFFFFFFFF AND PUSH20 0xFFFFFFFFFFFFFFFFFFFFFFFFFFFFFFFFFFFFFFFF AND DUP2 MSTORE PUSH1 0x20 ADD SWAP1 DUP2 MSTORE PUSH1 0x20 ADD PUSH1 0x0 KECCAK256 SLOAD LT JUMPDEST ISZERO PUSH2 0x3C4F JUMPI PUSH2 0x3BDA PUSH32 0xD508090D6D549A0B81A3B884C03B3438AF6209DCFB2457B9BA78928705D291C PUSH1 0x0 SHL PUSH2 0x335D JUMP JUMPDEST PUSH2 0x3C06 PUSH32 0xEB4950F5A88A1B0C63319BEED5185EAF4152D9EE18C78BA7197BDF8A356A1B31 PUSH1 0x0 SHL PUSH2 0x335D JUMP JUMPDEST PUSH1 0x4 DUP1 PUSH1 0x0 DUP4 PUSH20 0xFFFFFFFFFFFFFFFFFFFFFFFFFFFFFFFFFFFFFFFF AND PUSH20 0xFFFFFFFFFFFFFFFFFFFFFFFFFFFFFFFFFFFFFFFF AND DUP2 MSTORE PUSH1 0x20 ADD SWAP1 DUP2 MSTORE PUSH1 0x20 ADD PUSH1 0x0 KECCAK256 DUP2 SWAP1 SSTORE POP PUSH2 0x3DBF JUMP JUMPDEST PUSH2 0x3C7B PUSH32 0xFC9E7F3A5BB4C8C8F3908E7A8D1BF3A8BEB8470E6986618C5D19DE7BB37F2FEB PUSH1 0x0 SHL PUSH2 0x335D JUMP JUMPDEST PUSH2 0x3CA7 PUSH32 0x50EB89B8BA209D7483291285FB7D4C3F055C60AA080A96CFBBE999BB007B4A1B PUSH1 0x0 SHL PUSH2 0x335D JUMP JUMPDEST PUSH2 0x1F4 PUSH1 0x5 PUSH1 0x0 DUP4 PUSH20 0xFFFFFFFFFFFFFFFFFFFFFFFFFFFFFFFFFFFFFFFF AND PUSH20 0xFFFFFFFFFFFFFFFFFFFFFFFFFFFFFFFFFFFFFFFF AND DUP2 MSTORE PUSH1 0x20 ADD SWAP1 DUP2 MSTORE PUSH1 0x20 ADD PUSH1 0x0 KECCAK256 SLOAD LT PUSH2 0x3D91 JUMPI PUSH2 0x3D1B PUSH32 0xB8631B6FCBC91DAC2BD574D8BCE43DA8EE3215856DF57A708ABB02E480169E94 PUSH1 0x0 SHL PUSH2 0x335D JUMP JUMPDEST PUSH2 0x3D47 PUSH32 0x9947C270752B368B0D5B716C56D9669875853A77E5987AEDFF1F621D25951A7D PUSH1 0x0 SHL PUSH2 0x335D JUMP JUMPDEST PUSH1 0x5 PUSH1 0x4 PUSH1 0x0 DUP4 PUSH20 0xFFFFFFFFFFFFFFFFFFFFFFFFFFFFFFFFFFFFFFFF AND PUSH20 0xFFFFFFFFFFFFFFFFFFFFFFFFFFFFFFFFFFFFFFFF AND DUP2 MSTORE PUSH1 0x20 ADD SWAP1 DUP2 MSTORE PUSH1 0x20 ADD PUSH1 0x0 KECCAK256 DUP2 SWAP1 SSTORE POP PUSH2 0x3DBE JUMP JUMPDEST PUSH2 0x3DBD PUSH32 0x8EAE625F09B30D06E1FACA62A0F699E72945FFAD5B998C419C35EFDD32A08856 PUSH1 0x0 SHL PUSH2 0x335D JUMP JUMPDEST JUMPDEST JUMPDEST JUMPDEST JUMPDEST JUMPDEST JUMPDEST POP JUMP JUMPDEST PUSH1 0x0 CALLER SWAP1 POP SWAP1 JUMP JUMPDEST DUP3 DUP1 SLOAD PUSH2 0x3DDA SWAP1 PUSH2 0x4469 JUMP JUMPDEST SWAP1 PUSH1 0x0 MSTORE PUSH1 0x20 PUSH1 0x0 KECCAK256 SWAP1 PUSH1 0x1F ADD PUSH1 0x20 SWAP1 DIV DUP2 ADD SWAP3 DUP3 PUSH2 0x3DFC JUMPI PUSH1 0x0 DUP6 SSTORE PUSH2 0x3E43 JUMP JUMPDEST DUP3 PUSH1 0x1F LT PUSH2 0x3E15 JUMPI DUP1 MLOAD PUSH1 0xFF NOT AND DUP4 DUP1 ADD OR DUP6 SSTORE PUSH2 0x3E43 JUMP JUMPDEST DUP3 DUP1 ADD PUSH1 0x1 ADD DUP6 SSTORE DUP3 ISZERO PUSH2 0x3E43 JUMPI SWAP2 DUP3 ADD JUMPDEST DUP3 DUP2 GT ISZERO PUSH2 0x3E42 JUMPI DUP3 MLOAD DUP3 SSTORE SWAP2 PUSH1 0x20 ADD SWAP2 SWAP1 PUSH1 0x1 ADD SWAP1 PUSH2 0x3E27 JUMP JUMPDEST JUMPDEST POP SWAP1 POP PUSH2 0x3E50 SWAP2 SWAP1 PUSH2 0x3E94 JUMP JUMPDEST POP SWAP1 JUMP JUMPDEST POP DUP1 SLOAD PUSH2 0x3E60 SWAP1 PUSH2 0x4469 JUMP JUMPDEST PUSH1 0x0 DUP3 SSTORE DUP1 PUSH1 0x1F LT PUSH2 0x3E72 JUMPI POP PUSH2 0x3E91 JUMP JUMPDEST PUSH1 0x1F ADD PUSH1 0x20 SWAP1 DIV SWAP1 PUSH1 0x0 MSTORE PUSH1 0x20 PUSH1 0x0 KECCAK256 SWAP1 DUP2 ADD SWAP1 PUSH2 0x3E90 SWAP2 SWAP1 PUSH2 0x3E94 JUMP JUMPDEST JUMPDEST POP JUMP JUMPDEST JUMPDEST DUP1 DUP3 GT ISZERO PUSH2 0x3EAD JUMPI PUSH1 0x0 DUP2 PUSH1 0x0 SWAP1 SSTORE POP PUSH1 0x1 ADD PUSH2 0x3E95 JUMP JUMPDEST POP SWAP1 JUMP JUMPDEST PUSH1 0x0 PUSH1 0x40 MLOAD SWAP1 POP SWAP1 JUMP JUMPDEST PUSH1 0x0 DUP1 REVERT JUMPDEST PUSH1 0x0 DUP1 REVERT JUMPDEST PUSH1 0x0 PUSH20 0xFFFFFFFFFFFFFFFFFFFFFFFFFFFFFFFFFFFFFFFF DUP3 AND SWAP1 POP SWAP2 SWAP1 POP JUMP JUMPDEST PUSH1 0x0 PUSH2 0x3EF0 DUP3 PUSH2 0x3EC5 JUMP JUMPDEST SWAP1 POP SWAP2 SWAP1 POP JUMP JUMPDEST PUSH2 0x3F00 DUP2 PUSH2 0x3EE5 JUMP JUMPDEST DUP2 EQ PUSH2 0x3F0B JUMPI PUSH1 0x0 DUP1 REVERT JUMPDEST POP JUMP JUMPDEST PUSH1 0x0 DUP2 CALLDATALOAD SWAP1 POP PUSH2 0x3F1D DUP2 PUSH2 0x3EF7 JUMP JUMPDEST SWAP3 SWAP2 POP POP JUMP JUMPDEST PUSH1 0x0 PUSH1 0x20 DUP3 DUP5 SUB SLT ISZERO PUSH2 0x3F39 JUMPI PUSH2 0x3F38 PUSH2 0x3EBB JUMP JUMPDEST JUMPDEST PUSH1 0x0 PUSH2 0x3F47 DUP5 DUP3 DUP6 ADD PUSH2 0x3F0E JUMP JUMPDEST SWAP2 POP POP SWAP3 SWAP2 POP POP JUMP JUMPDEST PUSH1 0x0 DUP2 ISZERO ISZERO SWAP1 POP SWAP2 SWAP1 POP JUMP JUMPDEST PUSH2 0x3F65 DUP2 PUSH2 0x3F50 JUMP JUMPDEST DUP3 MSTORE POP POP JUMP JUMPDEST PUSH1 0x0 PUSH1 0x20 DUP3 ADD SWAP1 POP PUSH2 0x3F80 PUSH1 0x0 DUP4 ADD DUP5 PUSH2 0x3F5C JUMP JUMPDEST SWAP3 SWAP2 POP POP JUMP JUMPDEST PUSH1 0x0 DUP1 REVERT JUMPDEST PUSH1 0x0 DUP1 REVERT JUMPDEST PUSH1 0x0 PUSH1 0x1F NOT PUSH1 0x1F DUP4 ADD AND SWAP1 POP SWAP2 SWAP1 POP JUMP JUMPDEST PUSH32 0x4E487B7100000000000000000000000000000000000000000000000000000000 PUSH1 0x0 MSTORE PUSH1 0x41 PUSH1 0x4 MSTORE PUSH1 0x24 PUSH1 0x0 REVERT JUMPDEST PUSH2 0x3FD9 DUP3 PUSH2 0x3F90 JUMP JUMPDEST DUP2 ADD DUP2 DUP2 LT PUSH8 0xFFFFFFFFFFFFFFFF DUP3 GT OR ISZERO PUSH2 0x3FF8 JUMPI PUSH2 0x3FF7 PUSH2 0x3FA1 JUMP JUMPDEST JUMPDEST DUP1 PUSH1 0x40 MSTORE POP POP POP JUMP JUMPDEST PUSH1 0x0 PUSH2 0x400B PUSH2 0x3EB1 JUMP JUMPDEST SWAP1 POP PUSH2 0x4017 DUP3 DUP3 PUSH2 0x3FD0 JUMP JUMPDEST SWAP2 SWAP1 POP JUMP JUMPDEST PUSH1 0x0 PUSH8 0xFFFFFFFFFFFFFFFF DUP3 GT ISZERO PUSH2 0x4037 JUMPI PUSH2 0x4036 PUSH2 0x3FA1 JUMP JUMPDEST JUMPDEST PUSH2 0x4040 DUP3 PUSH2 0x3F90 JUMP JUMPDEST SWAP1 POP PUSH1 0x20 DUP2 ADD SWAP1 POP SWAP2 SWAP1 POP JUMP JUMPDEST DUP3 DUP2 DUP4 CALLDATACOPY PUSH1 0x0 DUP4 DUP4 ADD MSTORE POP POP POP JUMP JUMPDEST PUSH1 0x0 PUSH2 0x406F PUSH2 0x406A DUP5 PUSH2 0x401C JUMP JUMPDEST PUSH2 0x4001 JUMP JUMPDEST SWAP1 POP DUP3 DUP2 MSTORE PUSH1 0x20 DUP2 ADD DUP5 DUP5 DUP5 ADD GT ISZERO PUSH2 0x408B JUMPI PUSH2 0x408A PUSH2 0x3F8B JUMP JUMPDEST JUMPDEST PUSH2 0x4096 DUP5 DUP3 DUP6 PUSH2 0x404D JUMP JUMPDEST POP SWAP4 SWAP3 POP POP POP JUMP JUMPDEST PUSH1 0x0 DUP3 PUSH1 0x1F DUP4 ADD SLT PUSH2 0x40B3 JUMPI PUSH2 0x40B2 PUSH2 0x3F86 JUMP JUMPDEST JUMPDEST DUP2 CALLDATALOAD PUSH2 0x40C3 DUP5 DUP3 PUSH1 0x20 DUP7 ADD PUSH2 0x405C JUMP JUMPDEST SWAP2 POP POP SWAP3 SWAP2 POP POP JUMP JUMPDEST PUSH1 0x0 PUSH1 0x20 DUP3 DUP5 SUB SLT ISZERO PUSH2 0x40E2 JUMPI PUSH2 0x40E1 PUSH2 0x3EBB JUMP JUMPDEST JUMPDEST PUSH1 0x0 DUP3 ADD CALLDATALOAD PUSH8 0xFFFFFFFFFFFFFFFF DUP2 GT ISZERO PUSH2 0x4100 JUMPI PUSH2 0x40FF PUSH2 0x3EC0 JUMP JUMPDEST JUMPDEST PUSH2 0x410C DUP5 DUP3 DUP6 ADD PUSH2 0x409E JUMP JUMPDEST SWAP2 POP POP SWAP3 SWAP2 POP POP JUMP JUMPDEST PUSH1 0x0 DUP2 SWAP1 POP SWAP2 SWAP1 POP JUMP JUMPDEST PUSH2 0x4128 DUP2 PUSH2 0x4115 JUMP JUMPDEST DUP3 MSTORE POP POP JUMP JUMPDEST PUSH1 0x0 PUSH1 0x20 DUP3 ADD SWAP1 POP PUSH2 0x4143 PUSH1 0x0 DUP4 ADD DUP5 PUSH2 0x411F JUMP JUMPDEST SWAP3 SWAP2 POP POP JUMP JUMPDEST PUSH2 0x4152 DUP2 PUSH2 0x4115 JUMP JUMPDEST DUP2 EQ PUSH2 0x415D JUMPI PUSH1 0x0 DUP1 REVERT JUMPDEST POP JUMP JUMPDEST PUSH1 0x0 DUP2 CALLDATALOAD SWAP1 POP PUSH2 0x416F DUP2 PUSH2 0x4149 JUMP JUMPDEST SWAP3 SWAP2 POP POP JUMP JUMPDEST PUSH1 0x0 PUSH1 0x20 DUP3 DUP5 SUB SLT ISZERO PUSH2 0x418B JUMPI PUSH2 0x418A PUSH2 0x3EBB JUMP JUMPDEST JUMPDEST PUSH1 0x0 PUSH2 0x4199 DUP5 DUP3 DUP6 ADD PUSH2 0x4160 JUMP JUMPDEST SWAP2 POP POP SWAP3 SWAP2 POP POP JUMP JUMPDEST PUSH1 0x0 DUP2 MLOAD SWAP1 POP SWAP2 SWAP1 POP JUMP JUMPDEST PUSH1 0x0 DUP3 DUP3 MSTORE PUSH1 0x20 DUP3 ADD SWAP1 POP SWAP3 SWAP2 POP POP JUMP JUMPDEST PUSH1 0x0 JUMPDEST DUP4 DUP2 LT ISZERO PUSH2 0x41DC JUMPI DUP1 DUP3 ADD MLOAD DUP2 DUP5 ADD MSTORE PUSH1 0x20 DUP2 ADD SWAP1 POP PUSH2 0x41C1 JUMP JUMPDEST DUP4 DUP2 GT ISZERO PUSH2 0x41EB JUMPI PUSH1 0x0 DUP5 DUP5 ADD MSTORE JUMPDEST POP POP POP POP JUMP JUMPDEST PUSH1 0x0 PUSH2 0x41FC DUP3 PUSH2 0x41A2 JUMP JUMPDEST PUSH2 0x4206 DUP2 DUP6 PUSH2 0x41AD JUMP JUMPDEST SWAP4 POP PUSH2 0x4216 DUP2 DUP6 PUSH1 0x20 DUP7 ADD PUSH2 0x41BE JUMP JUMPDEST PUSH2 0x421F DUP2 PUSH2 0x3F90 JUMP JUMPDEST DUP5 ADD SWAP2 POP POP SWAP3 SWAP2 POP POP JUMP JUMPDEST PUSH2 0x4233 DUP2 PUSH2 0x3EE5 JUMP JUMPDEST DUP3 MSTORE POP POP JUMP JUMPDEST PUSH1 0x0 PUSH1 0xC0 DUP3 ADD SWAP1 POP DUP2 DUP2 SUB PUSH1 0x0 DUP4 ADD MSTORE PUSH2 0x4253 DUP2 DUP10 PUSH2 0x41F1 JUMP JUMPDEST SWAP1 POP DUP2 DUP2 SUB PUSH1 0x20 DUP4 ADD MSTORE PUSH2 0x4267 DUP2 DUP9 PUSH2 0x41F1 JUMP JUMPDEST SWAP1 POP DUP2 DUP2 SUB PUSH1 0x40 DUP4 ADD MSTORE PUSH2 0x427B DUP2 DUP8 PUSH2 0x41F1 JUMP JUMPDEST SWAP1 POP PUSH2 0x428A PUSH1 0x60 DUP4 ADD DUP7 PUSH2 0x411F JUMP JUMPDEST PUSH2 0x4297 PUSH1 0x80 DUP4 ADD DUP6 PUSH2 0x422A JUMP JUMPDEST PUSH2 0x42A4 PUSH1 0xA0 DUP4 ADD DUP5 PUSH2 0x411F JUMP JUMPDEST SWAP8 SWAP7 POP POP POP POP POP POP POP JUMP JUMPDEST PUSH1 0x0 PUSH1 0x20 DUP3 ADD SWAP1 POP DUP2 DUP2 SUB PUSH1 0x0 DUP4 ADD MSTORE PUSH2 0x42C9 DUP2 DUP5 PUSH2 0x41F1 JUMP JUMPDEST SWAP1 POP SWAP3 SWAP2 POP POP JUMP JUMPDEST PUSH1 0x0 PUSH1 0x20 DUP3 ADD SWAP1 POP PUSH2 0x42E6 PUSH1 0x0 DUP4 ADD DUP5 PUSH2 0x422A JUMP JUMPDEST SWAP3 SWAP2 POP POP JUMP JUMPDEST PUSH1 0x0 DUP1 PUSH1 0x40 DUP4 DUP6 SUB SLT ISZERO PUSH2 0x4303 JUMPI PUSH2 0x4302 PUSH2 0x3EBB JUMP JUMPDEST JUMPDEST PUSH1 0x0 PUSH2 0x4311 DUP6 DUP3 DUP7 ADD PUSH2 0x3F0E JUMP JUMPDEST SWAP3 POP POP PUSH1 0x20 PUSH2 0x4322 DUP6 DUP3 DUP7 ADD PUSH2 0x4160 JUMP JUMPDEST SWAP2 POP POP SWAP3 POP SWAP3 SWAP1 POP JUMP JUMPDEST PUSH1 0x0 DUP1 PUSH1 0x0 DUP1 PUSH1 0x80 DUP6 DUP8 SUB SLT ISZERO PUSH2 0x4346 JUMPI PUSH2 0x4345 PUSH2 0x3EBB JUMP JUMPDEST JUMPDEST PUSH1 0x0 DUP6 ADD CALLDATALOAD PUSH8 0xFFFFFFFFFFFFFFFF DUP2 GT ISZERO PUSH2 0x4364 JUMPI PUSH2 0x4363 PUSH2 0x3EC0 JUMP JUMPDEST JUMPDEST PUSH2 0x4370 DUP8 DUP3 DUP9 ADD PUSH2 0x409E JUMP JUMPDEST SWAP5 POP POP PUSH1 0x20 DUP6 ADD CALLDATALOAD PUSH8 0xFFFFFFFFFFFFFFFF DUP2 GT ISZERO PUSH2 0x4391 JUMPI PUSH2 0x4390 PUSH2 0x3EC0 JUMP JUMPDEST JUMPDEST PUSH2 0x439D DUP8 DUP3 DUP9 ADD PUSH2 0x409E JUMP JUMPDEST SWAP4 POP POP PUSH1 0x40 DUP6 ADD CALLDATALOAD PUSH8 0xFFFFFFFFFFFFFFFF DUP2 GT ISZERO PUSH2 0x43BE JUMPI PUSH2 0x43BD PUSH2 0x3EC0 JUMP JUMPDEST JUMPDEST PUSH2 0x43CA DUP8 DUP3 DUP9 ADD PUSH2 0x409E JUMP JUMPDEST SWAP3 POP POP PUSH1 0x60 PUSH2 0x43DB DUP8 DUP3 DUP9 ADD PUSH2 0x4160 JUMP JUMPDEST SWAP2 POP POP SWAP3 SWAP6 SWAP2 SWAP5 POP SWAP3 POP JUMP JUMPDEST PUSH1 0x0 DUP2 SWAP1 POP SWAP3 SWAP2 POP POP JUMP JUMPDEST PUSH1 0x0 PUSH2 0x43FD DUP3 PUSH2 0x41A2 JUMP JUMPDEST PUSH2 0x4407 DUP2 DUP6 PUSH2 0x43E7 JUMP JUMPDEST SWAP4 POP PUSH2 0x4417 DUP2 DUP6 PUSH1 0x20 DUP7 ADD PUSH2 0x41BE JUMP JUMPDEST DUP1 DUP5 ADD SWAP2 POP POP SWAP3 SWAP2 POP POP JUMP JUMPDEST PUSH1 0x0 PUSH2 0x442F DUP3 DUP5 PUSH2 0x43F2 JUMP JUMPDEST SWAP2 POP DUP2 SWAP1 POP SWAP3 SWAP2 POP POP JUMP JUMPDEST PUSH32 0x4E487B7100000000000000000000000000000000000000000000000000000000 PUSH1 0x0 MSTORE PUSH1 0x22 PUSH1 0x4 MSTORE PUSH1 0x24 PUSH1 0x0 REVERT JUMPDEST PUSH1 0x0 PUSH1 0x2 DUP3 DIV SWAP1 POP PUSH1 0x1 DUP3 AND DUP1 PUSH2 0x4481 JUMPI PUSH1 0x7F DUP3 AND SWAP2 POP JUMPDEST PUSH1 0x20 DUP3 LT DUP2 EQ ISZERO PUSH2 0x4495 JUMPI PUSH2 0x4494 PUSH2 0x443A JUMP JUMPDEST JUMPDEST POP SWAP2 SWAP1 POP JUMP JUMPDEST PUSH32 0x4E487B7100000000000000000000000000000000000000000000000000000000 PUSH1 0x0 MSTORE PUSH1 0x32 PUSH1 0x4 MSTORE PUSH1 0x24 PUSH1 0x0 REVERT JUMPDEST PUSH32 0x4E487B7100000000000000000000000000000000000000000000000000000000 PUSH1 0x0 MSTORE PUSH1 0x11 PUSH1 0x4 MSTORE PUSH1 0x24 PUSH1 0x0 REVERT JUMPDEST PUSH1 0x0 PUSH2 0x4504 DUP3 PUSH2 0x4115 JUMP JUMPDEST SWAP2 POP PUSH1 0x0 DUP3 EQ ISZERO PUSH2 0x4518 JUMPI PUSH2 0x4517 PUSH2 0x44CA JUMP JUMPDEST JUMPDEST PUSH1 0x1 DUP3 SUB SWAP1 POP SWAP2 SWAP1 POP JUMP JUMPDEST PUSH1 0x0 DUP2 SWAP1 POP DUP2 PUSH1 0x0 MSTORE PUSH1 0x20 PUSH1 0x0 KECCAK256 SWAP1 POP SWAP2 SWAP1 POP JUMP JUMPDEST PUSH1 0x0 DUP2 SLOAD PUSH2 0x4545 DUP2 PUSH2 0x4469 JUMP JUMPDEST PUSH2 0x454F DUP2 DUP7 PUSH2 0x43E7 JUMP JUMPDEST SWAP5 POP PUSH1 0x1 DUP3 AND PUSH1 0x0 DUP2 EQ PUSH2 0x456A JUMPI PUSH1 0x1 DUP2 EQ PUSH2 0x457B JUMPI PUSH2 0x45AE JUMP JUMPDEST PUSH1 0xFF NOT DUP4 AND DUP7 MSTORE DUP2 DUP7 ADD SWAP4 POP PUSH2 0x45AE JUMP JUMPDEST PUSH2 0x4584 DUP6 PUSH2 0x4523 JUMP JUMPDEST PUSH1 0x0 JUMPDEST DUP4 DUP2 LT ISZERO PUSH2 0x45A6 JUMPI DUP2 SLOAD DUP2 DUP10 ADD MSTORE PUSH1 0x1 DUP3 ADD SWAP2 POP PUSH1 0x20 DUP2 ADD SWAP1 POP PUSH2 0x4587 JUMP JUMPDEST DUP4 DUP9 ADD SWAP6 POP POP POP JUMPDEST POP POP POP SWAP3 SWAP2 POP POP JUMP JUMPDEST PUSH1 0x0 PUSH2 0x45C3 DUP3 DUP5 PUSH2 0x4538 JUMP JUMPDEST SWAP2 POP DUP2 SWAP1 POP SWAP3 SWAP2 POP POP JUMP JUMPDEST PUSH1 0x0 PUSH2 0x45D9 DUP3 PUSH2 0x4115 JUMP JUMPDEST SWAP2 POP PUSH2 0x45E4 DUP4 PUSH2 0x4115 JUMP JUMPDEST SWAP3 POP DUP3 PUSH32 0xFFFFFFFFFFFFFFFFFFFFFFFFFFFFFFFFFFFFFFFFFFFFFFFFFFFFFFFFFFFFFFFF SUB DUP3 GT ISZERO PUSH2 0x4619 JUMPI PUSH2 0x4618 PUSH2 0x44CA JUMP JUMPDEST JUMPDEST DUP3 DUP3 ADD SWAP1 POP SWAP3 SWAP2 POP POP JUMP JUMPDEST PUSH1 0x0 PUSH2 0x462F DUP3 PUSH2 0x4115 JUMP JUMPDEST SWAP2 POP PUSH32 0xFFFFFFFFFFFFFFFFFFFFFFFFFFFFFFFFFFFFFFFFFFFFFFFFFFFFFFFFFFFFFFFF DUP3 EQ ISZERO PUSH2 0x4662 JUMPI PUSH2 0x4661 PUSH2 0x44CA JUMP JUMPDEST JUMPDEST PUSH1 0x1 DUP3 ADD SWAP1 POP SWAP2 SWAP1 POP JUMP JUMPDEST PUSH1 0x0 PUSH2 0x4678 DUP3 PUSH2 0x4115 JUMP JUMPDEST SWAP2 POP PUSH2 0x4683 DUP4 PUSH2 0x4115 JUMP JUMPDEST SWAP3 POP DUP3 DUP3 LT ISZERO PUSH2 0x4696 JUMPI PUSH2 0x4695 PUSH2 0x44CA JUMP JUMPDEST JUMPDEST DUP3 DUP3 SUB SWAP1 POP SWAP3 SWAP2 POP POP JUMP JUMPDEST PUSH32 0x4E487B7100000000000000000000000000000000000000000000000000000000 PUSH1 0x0 MSTORE PUSH1 0x12 PUSH1 0x4 MSTORE PUSH1 0x24 PUSH1 0x0 REVERT JUMPDEST PUSH1 0x0 PUSH2 0x46DB DUP3 PUSH2 0x4115 JUMP JUMPDEST SWAP2 POP PUSH2 0x46E6 DUP4 PUSH2 0x4115 JUMP JUMPDEST SWAP3 POP DUP3 PUSH2 0x46F6 JUMPI PUSH2 0x46F5 PUSH2 0x46A1 JUMP JUMPDEST JUMPDEST DUP3 DUP3 DIV SWAP1 POP SWAP3 SWAP2 POP POP JUMP JUMPDEST PUSH1 0x0 PUSH2 0x470C DUP3 PUSH2 0x4115 JUMP JUMPDEST SWAP2 POP PUSH2 0x4717 DUP4 PUSH2 0x4115 JUMP JUMPDEST SWAP3 POP DUP2 PUSH32 0xFFFFFFFFFFFFFFFFFFFFFFFFFFFFFFFFFFFFFFFFFFFFFFFFFFFFFFFFFFFFFFFF DIV DUP4 GT DUP3 ISZERO ISZERO AND ISZERO PUSH2 0x4750 JUMPI PUSH2 0x474F PUSH2 0x44CA JUMP JUMPDEST JUMPDEST DUP3 DUP3 MUL SWAP1 POP SWAP3 SWAP2 POP POP JUMP JUMPDEST PUSH32 0x4F776E61626C653A206E6577206F776E657220697320746865207A65726F2061 PUSH1 0x0 DUP3 ADD MSTORE PUSH32 0x6464726573730000000000000000000000000000000000000000000000000000 PUSH1 0x20 DUP3 ADD MSTORE POP JUMP JUMPDEST PUSH1 0x0 PUSH2 0x47B7 PUSH1 0x26 DUP4 PUSH2 0x41AD JUMP JUMPDEST SWAP2 POP PUSH2 0x47C2 DUP3 PUSH2 0x475B JUMP JUMPDEST PUSH1 0x40 DUP3 ADD SWAP1 POP SWAP2 SWAP1 POP JUMP JUMPDEST PUSH1 0x0 PUSH1 0x20 DUP3 ADD SWAP1 POP DUP2 DUP2 SUB PUSH1 0x0 DUP4 ADD MSTORE PUSH2 0x47E6 DUP2 PUSH2 0x47AA JUMP JUMPDEST SWAP1 POP SWAP2 SWAP1 POP JUMP JUMPDEST PUSH32 0x4F776E61626C653A2063616C6C6572206973206E6F7420746865206F776E6572 PUSH1 0x0 DUP3 ADD MSTORE POP JUMP JUMPDEST PUSH1 0x0 PUSH2 0x4823 PUSH1 0x20 DUP4 PUSH2 0x41AD JUMP JUMPDEST SWAP2 POP PUSH2 0x482E DUP3 PUSH2 0x47ED JUMP JUMPDEST PUSH1 0x20 DUP3 ADD SWAP1 POP SWAP2 SWAP1 POP JUMP JUMPDEST PUSH1 0x0 PUSH1 0x20 DUP3 ADD SWAP1 POP DUP2 DUP2 SUB PUSH1 0x0 DUP4 ADD MSTORE PUSH2 0x4852 DUP2 PUSH2 0x4816 JUMP JUMPDEST SWAP1 POP SWAP2 SWAP1 POP JUMP INVALID LOG2 PUSH5 0x6970667358 0x22 SLT KECCAK256 0xBA EXTCODEHASH 0xE3 DUP5 DUP6 0xFC LOG4 CALLDATASIZE 0x5D 0xD7 SHR PUSH24 0x576515E09DCAB64D93AE563CCAA56EE918A5804064736F6C PUSH4 0x43000808 STOP CALLER "},"gasEstimates":{"creation":{"codeDepositCost":"3715000","executionCost":"infinite","totalCost":"infinite"},"external":{"buyItem(uint256)":"infinite","cancelEmbassador(address)":"infinite","cancelItem(uint256)":"infinite","checkEmbassador(address)":"infinite","evaluateOwner(uint256)":"infinite","getItemAmount()":"infinite","getListedItem(uint256)":"infinite","getMyAddress()":"infinite","getMyLevel()":"infinite","getMyMail()":"infinite","getMyTelephone()":"infinite","getOwnerVotes()":"infinite","givePoints(address,uint256)":"infinite","itemAmount()":"2451","itemList(uint256)":"infinite","listItem(string,string,string,uint256)":"infinite","makeEmbassador(address)":"infinite","owner()":"2545","renounceOwnership()":"30487","setMyAddress(string)":"infinite","setMyMail(string)":"infinite","setMyTelephone(string)":"infinite","transferOwnership(address)":"30879"},"internal":{"c_0xc61891ea(bytes32)":"11","givePoints()":"infinite"}},"methodIdentifiers":{"buyItem(uint256)":"e7fb74c7","cancelEmbassador(address)":"bbd4d97c","cancelItem(uint256)":"51563f8e","checkEmbassador(address)":"0374e1c2","evaluateOwner(uint256)":"67faca24","getItemAmount()":"134053a6","getListedItem(uint256)":"7655abc8","getMyAddress()":"9a166299","getMyLevel()":"ec9b4d14","getMyMail()":"cc016313","getMyTelephone()":"bc702429","getOwnerVotes()":"6e1223d4","givePoints(address,uint256)":"adb303d9","itemAmount()":"c0373561","itemList(uint256)":"3d4d3600","listItem(string,string,string,uint256)":"d65274c9","makeEmbassador(address)":"818a01e1","owner()":"8da5cb5b","renounceOwnership()":"715018a6","setMyAddress(string)":"1b1e39e8","setMyMail(string)":"08309a6f","setMyTelephone(string)":"a4eb88f8","transferOwnership(address)":"f2fde38b"}},"storageLayout":{"storage":[{"astId":1635,"contract":"contracts/Shop.sol:Shop","label":"_owner","offset":0,"slot":"0","type":"t_address"},{"astId":758,"contract":"contracts/Shop.sol:Shop","label":"_owner","offset":0,"slot":"1","type":"t_address"},{"astId":760,"contract":"contracts/Shop.sol:Shop","label":"ownerGrade","offset":0,"slot":"2","type":"t_uint256"},{"astId":762,"contract":"contracts/Shop.sol:Shop","label":"ownerVotes","offset":0,"slot":"3","type":"t_uint256"},{"astId":766,"contract":"contracts/Shop.sol:Shop","label":"userLevel","offset":0,"slot":"4","type":"t_mapping(t_address,t_uint256)"},{"astId":770,"contract":"contracts/Shop.sol:Shop","label":"userPoints","offset":0,"slot":"5","type":"t_mapping(t_address,t_uint256)"},{"astId":774,"contract":"contracts/Shop.sol:Shop","label":"isEmbassador","offset":0,"slot":"6","type":"t_mapping(t_address,t_bool)"},{"astId":778,"contract":"contracts/Shop.sol:Shop","label":"evaluatedOwner","offset":0,"slot":"7","type":"t_mapping(t_address,t_bool)"},{"astId":782,"contract":"contracts/Shop.sol:Shop","label":"userAddress","offset":0,"slot":"8","type":"t_mapping(t_address,t_string_storage)"},{"astId":786,"contract":"contracts/Shop.sol:Shop","label":"userMail","offset":0,"slot":"9","type":"t_mapping(t_address,t_string_storage)"},{"astId":790,"contract":"contracts/Shop.sol:Shop","label":"userTelephone","offset":0,"slot":"10","type":"t_mapping(t_address,t_string_storage)"},{"astId":174,"contract":"contracts/Shop.sol:Shop","label":"itemList","offset":0,"slot":"11","type":"t_array(t_struct(Item)189_storage)dyn_storage"},{"astId":176,"contract":"contracts/Shop.sol:Shop","label":"itemAmount","offset":0,"slot":"12","type":"t_uint256"}],"types":{"t_address":{"encoding":"inplace","label":"address","numberOfBytes":"20"},"t_array(t_struct(Item)189_storage)dyn_storage":{"base":"t_struct(Item)189_storage","encoding":"dynamic_array","label":"struct Shop.Item[]","numberOfBytes":"32"},"t_bool":{"encoding":"inplace","label":"bool","numberOfBytes":"1"},"t_mapping(t_address,t_bool)":{"encoding":"mapping","key":"t_address","label":"mapping(address => bool)","numberOfBytes":"32","value":"t_bool"},"t_mapping(t_address,t_string_storage)":{"encoding":"mapping","key":"t_address","label":"mapping(address => string)","numberOfBytes":"32","value":"t_string_storage"},"t_mapping(t_address,t_uint256)":{"encoding":"mapping","key":"t_address","label":"mapping(address => uint256)","numberOfBytes":"32","value":"t_uint256"},"t_string_storage":{"encoding":"bytes","label":"string","numberOfBytes":"32"},"t_struct(Item)189_storage":{"encoding":"inplace","label":"struct Shop.Item","members":[{"astId":178,"contract":"contracts/Shop.sol:Shop","label":"name","offset":0,"slot":"0","type":"t_string_storage"},{"astId":180,"contract":"contracts/Shop.sol:Shop","label":"description","offset":0,"slot":"1","type":"t_string_storage"},{"astId":182,"contract":"contracts/Shop.sol:Shop","label":"picture","offset":0,"slot":"2","type":"t_string_storage"},{"astId":184,"contract":"contracts/Shop.sol:Shop","label":"id","offset":0,"slot":"3","type":"t_uint256"},{"astId":186,"contract":"contracts/Shop.sol:Shop","label":"owner","offset":0,"slot":"4","type":"t_address"},{"astId":188,"contract":"contracts/Shop.sol:Shop","label":"price","offset":0,"slot":"5","type":"t_uint256"}],"numberOfBytes":"192"},"t_uint256":{"encoding":"inplace","label":"uint256","numberOfBytes":"32"}}},"userdoc":{"kind":"user","methods":{},"version":1}}}}