{"contracts/Users.sol":{"Users":{"abi":[{"inputs":[],"stateMutability":"nonpayable","type":"constructor"},{"inputs":[{"internalType":"address","name":"","type":"address"}],"name":"Users__AlreadyEvaluated","type":"error"},{"inputs":[],"name":"Users__NotAdmittedGrade","type":"error"},{"inputs":[{"internalType":"address","name":"","type":"address"}],"name":"Users__NotEmbassador","type":"error"},{"inputs":[{"internalType":"address","name":"","type":"address"}],"name":"Users__NotLevel5","type":"error"},{"inputs":[],"name":"Users__OwnerNotAllowed","type":"error"},{"anonymous":false,"inputs":[{"indexed":true,"internalType":"address","name":"","type":"address"},{"indexed":true,"internalType":"string","name":"","type":"string"}],"name":"AddressWasSet","type":"event"},{"anonymous":false,"inputs":[{"indexed":true,"internalType":"address","name":"","type":"address"},{"indexed":true,"internalType":"string","name":"","type":"string"}],"name":"MailWasSet","type":"event"},{"anonymous":false,"inputs":[{"indexed":true,"internalType":"address","name":"previousOwner","type":"address"},{"indexed":true,"internalType":"address","name":"newOwner","type":"address"}],"name":"OwnershipTransferred","type":"event"},{"anonymous":false,"inputs":[{"indexed":true,"internalType":"address","name":"","type":"address"},{"indexed":true,"internalType":"string","name":"","type":"string"}],"name":"TelephoneWasSet","type":"event"},{"inputs":[{"internalType":"address","name":"_user","type":"address"}],"name":"cancelEmbassador","outputs":[],"stateMutability":"nonpayable","type":"function"},{"inputs":[{"internalType":"address","name":"_user","type":"address"}],"name":"checkEmbassador","outputs":[{"internalType":"bool","name":"","type":"bool"}],"stateMutability":"view","type":"function"},{"inputs":[{"internalType":"uint256","name":"_grade","type":"uint256"}],"name":"evaluateOwner","outputs":[],"stateMutability":"nonpayable","type":"function"},{"inputs":[],"name":"getMyAddress","outputs":[{"internalType":"string","name":"","type":"string"}],"stateMutability":"view","type":"function"},{"inputs":[],"name":"getMyLevel","outputs":[{"internalType":"uint256","name":"","type":"uint256"}],"stateMutability":"view","type":"function"},{"inputs":[],"name":"getMyMail","outputs":[{"internalType":"string","name":"","type":"string"}],"stateMutability":"view","type":"function"},{"inputs":[],"name":"getMyTelephone","outputs":[{"internalType":"string","name":"","type":"string"}],"stateMutability":"view","type":"function"},{"inputs":[],"name":"getOwnerVotes","outputs":[{"internalType":"uint256","name":"","type":"uint256"}],"stateMutability":"view","type":"function"},{"inputs":[{"internalType":"address","name":"_user","type":"address"},{"internalType":"uint256","name":"_points","type":"uint256"}],"name":"givePoints","outputs":[],"stateMutability":"nonpayable","type":"function"},{"inputs":[{"internalType":"address","name":"_user","type":"address"}],"name":"makeEmbassador","outputs":[],"stateMutability":"nonpayable","type":"function"},{"inputs":[],"name":"owner","outputs":[{"internalType":"address","name":"","type":"address"}],"stateMutability":"view","type":"function"},{"inputs":[],"name":"renounceOwnership","outputs":[],"stateMutability":"nonpayable","type":"function"},{"inputs":[{"internalType":"string","name":"_myAddress","type":"string"}],"name":"setMyAddress","outputs":[],"stateMutability":"nonpayable","type":"function"},{"inputs":[{"internalType":"string","name":"_myMail","type":"string"}],"name":"setMyMail","outputs":[],"stateMutability":"nonpayable","type":"function"},{"inputs":[{"internalType":"string","name":"_myTelephone","type":"string"}],"name":"setMyTelephone","outputs":[],"stateMutability":"nonpayable","type":"function"},{"inputs":[{"internalType":"address","name":"newOwner","type":"address"}],"name":"transferOwnership","outputs":[],"stateMutability":"nonpayable","type":"function"}],"devdoc":{"kind":"dev","methods":{"owner()":{"details":"Returns the address of the current owner."},"renounceOwnership()":{"details":"Leaves the contract without owner. It will not be possible to call `onlyOwner` functions. Can only be called by the current owner. NOTE: Renouncing ownership will leave the contract without an owner, thereby disabling any functionality that is only available to the owner."},"transferOwnership(address)":{"details":"Transfers ownership of the contract to a new account (`newOwner`). Can only be called by the current owner."}},"version":1},"evm":{"bytecode":{"linkReferences":{},"object":"60806040523480156200001157600080fd5b5062000032620000266200011560201b60201c565b6200011d60201b60201c565b620000667f675cae87c8a1bc8f337a070c1fce3227916a0a478189f262648aa918a08b915160001b620001e160201b60201c565b6200009a7f4da13821059c6b4cddb3b6e5b8ddb34dd89594f6bd01720ffd8590332e33016460001b620001e160201b60201c565b620000ce7f0ae3dc343e8151edf789b50c35de3c4bcd0f3aea3d8b9de53d340cf1ae04b5a260001b620001e160201b60201c565b33600160006101000a81548173ffffffffffffffffffffffffffffffffffffffff021916908373ffffffffffffffffffffffffffffffffffffffff160217905550620001e4565b600033905090565b60008060009054906101000a900473ffffffffffffffffffffffffffffffffffffffff169050816000806101000a81548173ffffffffffffffffffffffffffffffffffffffff021916908373ffffffffffffffffffffffffffffffffffffffff1602179055508173ffffffffffffffffffffffffffffffffffffffff168173ffffffffffffffffffffffffffffffffffffffff167f8be0079c531659141344cd1fd0a4f28419497f9722a3daafe3b4186f6b6457e060405160405180910390a35050565b50565b612da980620001f46000396000f3fe608060405234801561001057600080fd5b50600436106101005760003560e01c80639a16629911610097578063bc70242911610066578063bc7024291461025d578063cc0163131461027b578063ec9b4d1414610299578063f2fde38b146102b757610100565b80639a166299146101eb578063a4eb88f814610209578063adb303d914610225578063bbd4d97c1461024157610100565b80636e1223d4116100d35780636e1223d414610189578063715018a6146101a7578063818a01e1146101b15780638da5cb5b146101cd57610100565b80630374e1c21461010557806308309a6f146101355780631b1e39e81461015157806367faca241461016d575b600080fd5b61011f600480360381019061011a9190612700565b6102d3565b60405161012c9190612748565b60405180910390f35b61014f600480360381019061014a91906128a9565b6103ad565b005b61016b600480360381019061016691906128a9565b610539565b005b61018760048036038101906101829190612928565b6106c5565b005b610191610c4b565b60405161019e9190612964565b60405180910390f35b6101af610cd9565b005b6101cb60048036038101906101c69190612700565b610ced565b005b6101d5610f34565b6040516101e2919061298e565b60405180910390f35b6101f3610f5d565b6040516102009190612a31565b60405180910390f35b610223600480360381019061021e91906128a9565b6110b0565b005b61023f600480360381019061023a9190612a53565b61123c565b005b61025b60048036038101906102569190612700565b6113b3565b005b610265611788565b6040516102729190612a31565b60405180910390f35b6102836118db565b6040516102909190612a31565b60405180910390f35b6102a1611a2e565b6040516102ae9190612964565b60405180910390f35b6102d160048036038101906102cc9190612700565b611af9565b005b60006103017f7cc75704f78d4af0161627de45da3dd03b65989173dd0e313c6b1b5bf6ecd19360001b611b7d565b61032d7f62dda847388a111b5ea42d1efea8e8484d27f35b6cff17df984b0121fa1ea2d860001b611b7d565b6103597f3aabfa31b93ce855c0d252e3cce92b5a72c3ecfb4d8ffd69d3e30dd58e2e5b2260001b611b7d565b600660008373ffffffffffffffffffffffffffffffffffffffff1673ffffffffffffffffffffffffffffffffffffffff16815260200190815260200160002060009054906101000a900460ff169050919050565b6103d97fbb3a3131f12f71a5c713c231565a2cfa84e3aaffb4e5677d56de0f10ad09841360001b611b7d565b6104057f4f86eae510f55bfdf06b5f4de84f723983135aed8cba665234a452de5114bef860001b611b7d565b6104317fdc03516a822c6e62326f0263dd3c5850b5751ddb2effb69f65000b9e4d33272960001b611b7d565b80600960003373ffffffffffffffffffffffffffffffffffffffff1673ffffffffffffffffffffffffffffffffffffffff16815260200190815260200160002090805190602001906104849291906125eb565b506104b17f919b0d86f8ec5918e64507cfe99ad81393fd3e77ba8ef8a756841b1223f3e26d60001b611b7d565b6104dd7fa0a81ae3e3398bdcbd23e7e752a44cccceca8f8d01fca0b38308965f4ce0b9c960001b611b7d565b806040516104eb9190612acf565b60405180910390203373ffffffffffffffffffffffffffffffffffffffff167fa58cbc2d3fc0880739836e4603b53162415106cbe246519f687d635cb98de46960405160405180910390a350565b6105657f7ee4dec7d08f2fbc7b39511f8950b75fd18dc54768c5a961a0cb3cb44b330d7360001b611b7d565b6105917f0d95c03fd27371e903c035d6c412db715eafacfa1128a17f337c55feb207dc9e60001b611b7d565b6105bd7f078d8ea605ae0048606db256f78abc5670db91d5412cf4f4f0c4aa2993be8a3160001b611b7d565b80600860003373ffffffffffffffffffffffffffffffffffffffff1673ffffffffffffffffffffffffffffffffffffffff16815260200190815260200160002090805190602001906106109291906125eb565b5061063d7f510eacb43a7d6d1de19251b2502d32045e2d0366037312444b8d8af5275a9c4460001b611b7d565b6106697fec8dcfce2b205ce132cd8ca90cb1db848dffb1609a1050e763c486bf41c0760860001b611b7d565b806040516106779190612acf565b60405180910390203373ffffffffffffffffffffffffffffffffffffffff167f7c628b061e272b7258a02ac185c3f3c805bf87461e54b741885a169d7ae39cce60405160405180910390a350565b6106f17f42607466aac1417b69168d4e7f252a1e69b28334fa784169f5018b41d27f6f2460001b611b7d565b61071d7fdcbad97780ccfce527619c95e277110cdb501292bc62674a209d27adc2e7680560001b611b7d565b6107497f761d5a8b6b7df8d48236e5b9ff96ae3425702bc31ee2b4606c942ba3499ea2db60001b611b7d565b600660003373ffffffffffffffffffffffffffffffffffffffff1673ffffffffffffffffffffffffffffffffffffffff16815260200190815260200160002060009054906101000a900460ff1661082f576107c67f0629953d3c41183d2a7c55ad28fd6c1a6250998af0b826722c3fc819812cf9b660001b611b7d565b6107f27f18b3fbebea46127981ae60b3456c86b204ac7a36a2887a0845c9352aa895951a60001b611b7d565b336040517fd141f986000000000000000000000000000000000000000000000000000000008152600401610826919061298e565b60405180910390fd5b61085b7f74428effc60474dc60e3987cb93e268b4e2c0f862a2da9ca9acb9a3d8b49939c60001b611b7d565b6108877fbdcc0e84427de6cc3a4e54b48f099ed0080c7da9933644e3f9c3e432355230eb60001b611b7d565b6108b37f203766e944a742f8f0817a3f0d369351049bbaa9093545fad4a146b9994c3f0960001b611b7d565b600760003373ffffffffffffffffffffffffffffffffffffffff1673ffffffffffffffffffffffffffffffffffffffff16815260200190815260200160002060009054906101000a900460ff161561099a576109317f87b6e5aa0b303ef6e5efc05d577ed14695ca7c6cba13df67ef17149b1ab6126060001b611b7d565b61095d7f4a533c468c545ff3810ff619d2935f30551601115b0115adc4c4cd93ad37de2360001b611b7d565b336040517f60a704b4000000000000000000000000000000000000000000000000000000008152600401610991919061298e565b60405180910390fd5b6109c67fd3e47c5c0787901bd0c24823314523815bb91cb3b7e51c04b649196f78c0c28d60001b611b7d565b6109f27f5d73beb7e5de4660fac634206c64c996000e70c53307fb61720edf4f44eab3f460001b611b7d565b610a1e7f0372e368cdd1a0ed88e515eae80acb1f3009ac3166188dbaf061d474db43647b60001b611b7d565b6000811080610a2d5750600a81115b15610abc57610a5e7fbf755e4bb763cf37b0147e2feb37d8023051e13e88837a5ab22f36c7bb62559460001b611b7d565b610a8a7fb76c1584c51284096a75a4b6973b79c9cdace51683c84f4cdd16403d471d826860001b611b7d565b6040517fa0f45cb600000000000000000000000000000000000000000000000000000000815260040160405180910390fd5b610ae87f359bb255741f7f5ce345d5d21cd0a801c231bffbe55203780d4554e9ce073d7d60001b611b7d565b610b147f43276a2438011574c56e2741fec741ff34e62c8b5eba8b4d79338b575016b83e60001b611b7d565b610b407f91a67fcfc3156006e3c5621e11fbcc9bf1107efdb83ee471e569126e14b5ccab60001b611b7d565b6001600760003373ffffffffffffffffffffffffffffffffffffffff1673ffffffffffffffffffffffffffffffffffffffff16815260200190815260200160002060006101000a81548160ff021916908315150217905550610bc47fedd1f3451c02264451126d6b188b2fe36001920948c61d6ce2666f7e240145c460001b611b7d565b610bf07fe8444679dc7bec120f89cadecf1acdcdcd8240345b243015ea8b89602d0c5daf60001b611b7d565b80600254610bfe9190612b15565b600281905550610c307fc1ee7a76a77d0c4e2fbfb7889d02014e9d2b456734e42bd6563225693f8f28e960001b611b7d565b60036000815480929190610c4390612b6b565b919050555050565b6000610c797f7472d49cf76e4c16de1dc665c1efbb730281f83e48c89ecef8225d776db6d8b560001b611b7d565b610ca57f5c62f396fbb673b4663d17d579f90cc50e2cb8d2e8bdee48b73fbe5cb9d28dac60001b611b7d565b610cd17fd5385e9d745d4863d76721aeb970328a1ce5658593f1825ae7eaf2fd800ed42960001b611b7d565b600354905090565b610ce1611b80565b610ceb6000611bfe565b565b610cf5611b80565b610d217fc20387937713e607df397f6a784f530a7ea80049aa069d605d915585a83f687460001b611b7d565b610d4d7fe0349a5c9427f6a7df01f8eebba5a25837d22315d56269c76d27ba03673181c760001b611b7d565b610d797fcd78497f8a7842492e3915facca7359fefb7fa6659fc27f37dd96376c2eda7af60001b611b7d565b6005600460008373ffffffffffffffffffffffffffffffffffffffff1673ffffffffffffffffffffffffffffffffffffffff1681526020019081526020016000205414610e5557610dec7fd2da44d61a4b4c088d3b2bdde4547753b9b1ec6b5d378fd4dd3c49cf0cc587c860001b611b7d565b610e187f51f002e55df470f602c612cb535be56e729acf180383ae69051f88157b871e3660001b611b7d565b806040517faf90c652000000000000000000000000000000000000000000000000000000008152600401610e4c919061298e565b60405180910390fd5b610e817f421302ba49b19e97e94149dfeea00a5b5de179aaa7983431a6f554f8a18475ce60001b611b7d565b610ead7f1d8efc786ca1a00573681451e29c0ec03018fa1efdf7b382ba0e392aaa8647d760001b611b7d565b610ed97f75ec9799584cbae3f07ce13dad919018b5ee6fadcd5b56613ebdce7d4af2bbb860001b611b7d565b6001600660008373ffffffffffffffffffffffffffffffffffffffff1673ffffffffffffffffffffffffffffffffffffffff16815260200190815260200160002060006101000a81548160ff02191690831515021790555050565b60008060009054906101000a900473ffffffffffffffffffffffffffffffffffffffff16905090565b6060610f8b7fd4e8f21eb4941ff98330c97100ea74ef5d5c3271fc41f86b13ac5c984951a71c60001b611b7d565b610fb77ff5bf0ff9709654acc9bc58c64c4a29eb73d883ccd753770d037a66651dc03dab60001b611b7d565b610fe37f9c300a467f20a659cb0fb429094fc10204c29caf7f3a4964b6f0e0851176097f60001b611b7d565b600860003373ffffffffffffffffffffffffffffffffffffffff1673ffffffffffffffffffffffffffffffffffffffff168152602001908152602001600020805461102d90612be3565b80601f016020809104026020016040519081016040528092919081815260200182805461105990612be3565b80156110a65780601f1061107b576101008083540402835291602001916110a6565b820191906000526020600020905b81548152906001019060200180831161108957829003601f168201915b5050505050905090565b6110dc7f7183fa704cc570dbd39248ba6169d77ab37c330ff2368a772a091383ee24788e60001b611b7d565b6111087fb09cd72325c9ed009cd504a1f00a5bf3b44534093c662a40f3e23ca2fab79f9960001b611b7d565b6111347f924b39036a3f7dcf002d1195bdcebe0484a016117cec10d89fe79530c1b3fa7160001b611b7d565b80600a60003373ffffffffffffffffffffffffffffffffffffffff1673ffffffffffffffffffffffffffffffffffffffff16815260200190815260200160002090805190602001906111879291906125eb565b506111b47fd15d17d25c56fc84e03366c57f59b766f14a310fdc59488d22e45883ff3bf2e160001b611b7d565b6111e07ff5f1d0b34620da312404ae3908095427d2e57e98522334be456d6f7409efd19c60001b611b7d565b806040516111ee9190612acf565b60405180910390203373ffffffffffffffffffffffffffffffffffffffff167ff1bfcc87ef5b48f65c55ba6bc830a7964faa23a6f8ef22f4fe324b472dad11f860405160405180910390a350565b6112687f80214d72d042780366a0e7f2c9471ae54014f35c7ac5f10937e293070687168a60001b611b7d565b6112947fdbe0f62cee9e977bd37a4b4408c3834281995f0c55b51e456ab02a1c43b32e1460001b611b7d565b6112c07fa8e719967be802fc8a2640cdf73bf18811bed72623d5e0ab56bb5d0caccccb1960001b611b7d565b80600560008473ffffffffffffffffffffffffffffffffffffffff1673ffffffffffffffffffffffffffffffffffffffff1681526020019081526020016000205461130b9190612b15565b600560008473ffffffffffffffffffffffffffffffffffffffff1673ffffffffffffffffffffffffffffffffffffffff1681526020019081526020016000208190555061137a7f50aaf2f0f43bf85aa80b9335f5fd301b1f5f7958b988acb485c79141ed1e1af060001b611b7d565b6113a67ff1f23f45970c0b85fe190fb2a3edc9941a9f2e2787df7bbccb6b00d25b38b3c560001b611b7d565b6113af82611cc2565b5050565b6113bb611b80565b6113e77f755046a19be54076260df17b72c9a0ebb59ac82e85c6a19e5cd4d02cd964cf2b60001b611b7d565b6114137f6dcd97ea535219d4264bfaa961bde802fc8c4d67af248f641365b3a4f992fa3c60001b611b7d565b61143f7f4fb493336c128e4c9f6d184c552e0b74002ec161867ccecf3a76718d5707459460001b611b7d565b60006003546002546114519190612c44565b905061147f7f0bc12a59eb993b24215055cb6813686b526180c82c5f9b0c1ab105b5ae75e40460001b611b7d565b6114ab7fbce846dac16af9bd0ef4b697818911c241765c867fcfea12695b470510cd889c60001b611b7d565b600781101561153e576114e07fe3811d8581cbca19dc099981c99bd7ef4b70294e7daffccf89efe9c4878b030160001b611b7d565b61150c7fabea48b3f22e1342783bf8a69df1dd3623302e72792c7f44956f464b2344513b60001b611b7d565b6040517fa5124bf100000000000000000000000000000000000000000000000000000000815260040160405180910390fd5b61156a7f9152f9a1422b22bd98188e44873880e498952f8e68d3e1bb274080a3d0714a8a60001b611b7d565b6115967f7365fc7614094a5cd25c2b55e57a07fb4ec69d3345813aec83dd1696a5b8c9aa60001b611b7d565b6115c27ffe3a9f376c68f5fab7d33131626c72a95749f4cdb905d8324f2cb57e87d97f4860001b611b7d565b600660008373ffffffffffffffffffffffffffffffffffffffff1673ffffffffffffffffffffffffffffffffffffffff16815260200190815260200160002060009054906101000a900460ff166116a85761163f7f8b894458213e85e7360955f229e656db71952f11cffb54cf23e8f7cd8c2e837760001b611b7d565b61166b7f9cddb0c177b522a7694a6253f17d8245674f285121fa2b1aaa4b741cc94753bb60001b611b7d565b816040517fd141f98600000000000000000000000000000000000000000000000000000000815260040161169f919061298e565b60405180910390fd5b6116d47f7e600aea8a3b95b2792f714a811699fcdafbbb2893a7393e9beee0264275249660001b611b7d565b6117007f2075603338c87c00fce38e51dd708c19246524a8bf3bed069e65bc730aef3b1660001b611b7d565b61172c7fa60b839e4e3023ac304f2d03d858250b905d388f8632c04ce7d89283cd2ba45d60001b611b7d565b6000600660008473ffffffffffffffffffffffffffffffffffffffff1673ffffffffffffffffffffffffffffffffffffffff16815260200190815260200160002060006101000a81548160ff0219169083151502179055505050565b60606117b67f2ab4fab67eb79d446ae486db2ffba8eccebb6835742e1ebf7b82b727f10aa7a060001b611b7d565b6117e27f19d78fe81ef434b2eb23ffacb978928c64d2756b0cd29e7d3118b48b648f2ebc60001b611b7d565b61180e7f72a22fe6feb645e231c6ebc7461328bfe66243dbd1355af25030cffe57cafbf460001b611b7d565b600a60003373ffffffffffffffffffffffffffffffffffffffff1673ffffffffffffffffffffffffffffffffffffffff168152602001908152602001600020805461185890612be3565b80601f016020809104026020016040519081016040528092919081815260200182805461188490612be3565b80156118d15780601f106118a6576101008083540402835291602001916118d1565b820191906000526020600020905b8154815290600101906020018083116118b457829003601f168201915b5050505050905090565b60606119097f951317631f126a56e86bf83c89bc29a657e4fb2e91745cd99ec18e10a65f4b5a60001b611b7d565b6119357fabba283b7c7b426d8eb217b8cc440b929de057c1b712e0a9ab6a449d2ff1711160001b611b7d565b6119617f919c0c3800cf94c74500ba3e18d82d56be31ea7e9353518d7bd910439682659560001b611b7d565b600960003373ffffffffffffffffffffffffffffffffffffffff1673ffffffffffffffffffffffffffffffffffffffff16815260200190815260200160002080546119ab90612be3565b80601f01602080910402602001604051908101604052809291908181526020018280546119d790612be3565b8015611a245780601f106119f957610100808354040283529160200191611a24565b820191906000526020600020905b815481529060010190602001808311611a0757829003601f168201915b5050505050905090565b6000611a5c7f91c59dcb437b551916f2e2ef87ab772fdb78569e60429f81361bb62414abf08860001b611b7d565b611a887f1192599e79fbe539b0dbad5ba64299bad6da5e1de83515fca00b52a2c7ae846c60001b611b7d565b611ab47f4012c33689830bf380134c222a93f726456c71c68ebbb2609126e46431c89d4d60001b611b7d565b600460003373ffffffffffffffffffffffffffffffffffffffff1673ffffffffffffffffffffffffffffffffffffffff16815260200190815260200160002054905090565b611b01611b80565b600073ffffffffffffffffffffffffffffffffffffffff168173ffffffffffffffffffffffffffffffffffffffff161415611b71576040517f08c379a0000000000000000000000000000000000000000000000000000000008152600401611b6890612ce7565b60405180910390fd5b611b7a81611bfe565b50565b50565b611b886125e3565b73ffffffffffffffffffffffffffffffffffffffff16611ba6610f34565b73ffffffffffffffffffffffffffffffffffffffff1614611bfc576040517f08c379a0000000000000000000000000000000000000000000000000000000008152600401611bf390612d53565b60405180910390fd5b565b60008060009054906101000a900473ffffffffffffffffffffffffffffffffffffffff169050816000806101000a81548173ffffffffffffffffffffffffffffffffffffffff021916908373ffffffffffffffffffffffffffffffffffffffff1602179055508173ffffffffffffffffffffffffffffffffffffffff168173ffffffffffffffffffffffffffffffffffffffff167f8be0079c531659141344cd1fd0a4f28419497f9722a3daafe3b4186f6b6457e060405160405180910390a35050565b611cee7fe9dccc56ca60697d24db1a9337e5fb16a7ff922f8b16694536fe23a54a41557c60001b611b7d565b611d1a7ff6606631a623d997ae7d97b1a814f99a0d054112702db82d26ce06c12871304460001b611b7d565b611d467f4369278e75aa4de739e67c94b437836f43088814c91f2f2d663eafc084294eab60001b611b7d565b6064600560008373ffffffffffffffffffffffffffffffffffffffff1673ffffffffffffffffffffffffffffffffffffffff168152602001908152602001600020541015611e3057611dba7ff6df9e2e81f56dfced4d831f32f09dd105f2b194f1fa98f79d4d2422c5a3afb960001b611b7d565b611de67fa0210c9b0159736dce5dfe18ea5325592e09fcdd11ed4060607e166b7f97cb9460001b611b7d565b6000600460008373ffffffffffffffffffffffffffffffffffffffff1673ffffffffffffffffffffffffffffffffffffffff168152602001908152602001600020819055506125e0565b611e5c7f8d626bf238f035399ac316ad82bdda7ea0e802fd0012b560f6cc9e7d3ab8f3d160001b611b7d565b611e887fb8c58710ccc53714d6f18991e42f115b6fd7367147ae5391880a198118884c1060001b611b7d565b6064600560008373ffffffffffffffffffffffffffffffffffffffff1673ffffffffffffffffffffffffffffffffffffffff1681526020019081526020016000205410158015611f17575060c8600560008373ffffffffffffffffffffffffffffffffffffffff1673ffffffffffffffffffffffffffffffffffffffff16815260200190815260200160002054105b15611fbe57611f487f6e3778e3d1355c03aedc1d8194daaadfa9cb64ba4977a336119eabe24b23b14060001b611b7d565b611f747fc764e50b5690b7d47bb3f8a7ae45f461bea14e662ffa77d3f59942c17093d62360001b611b7d565b6001600460008373ffffffffffffffffffffffffffffffffffffffff1673ffffffffffffffffffffffffffffffffffffffff168152602001908152602001600020819055506125df565b611fea7f6bef4ae69a42629f0bc47824750351092f8fe72c38f1c9defc0a8aa9aa698e9260001b611b7d565b6120167f2d25164c3999d6f8059a83b82dcba01c421a27cff08fc9b0f7024e1363686c7e60001b611b7d565b60c8600560008373ffffffffffffffffffffffffffffffffffffffff1673ffffffffffffffffffffffffffffffffffffffff16815260200190815260200160002054101580156120a6575061012c600560008373ffffffffffffffffffffffffffffffffffffffff1673ffffffffffffffffffffffffffffffffffffffff16815260200190815260200160002054105b1561214d576120d77f65ab888d681535a79e1de1e72e3e47e217b2a243a49e824416f3a2dcf42b61a460001b611b7d565b6121037fe8c7f7b59b5e75d0dbb5f77ac55762738d7c045bf8fea170ae53e21bc9da172360001b611b7d565b6002600460008373ffffffffffffffffffffffffffffffffffffffff1673ffffffffffffffffffffffffffffffffffffffff168152602001908152602001600020819055506125de565b6121797fd2bd70ec34b921c0b7d003f3fef3dc395481616bdddee32e068b199960a487c560001b611b7d565b6121a57f03d1202ab73cd97ad1794b2f2bf46768a2ff004a00782d2c8c4fbdb98d457f6260001b611b7d565b61012c600560008373ffffffffffffffffffffffffffffffffffffffff1673ffffffffffffffffffffffffffffffffffffffff16815260200190815260200160002054101580156122365750610190600560008373ffffffffffffffffffffffffffffffffffffffff1673ffffffffffffffffffffffffffffffffffffffff16815260200190815260200160002054105b156122dd576122677ffcdf4c81c0cdc9569789d3bb6edd1d61ce35fec35906a4e2fefdc87398cdcb8260001b611b7d565b6122937fdd63976f93dff65c2751d9cc656d449eef1eb2c120115fe8a243653a71b518f260001b611b7d565b6003600460008373ffffffffffffffffffffffffffffffffffffffff1673ffffffffffffffffffffffffffffffffffffffff168152602001908152602001600020819055506125dd565b6123097f8bf6870630d6a3f978c012dc417f35b729bc49aa2e8be7009120eafefdbe333260001b611b7d565b6123357f98b250248b0caa417ead4f4fd517ec331914121d8b2ca6493bca655b6cbfed1260001b611b7d565b610190600560008373ffffffffffffffffffffffffffffffffffffffff1673ffffffffffffffffffffffffffffffffffffffff16815260200190815260200160002054101580156123c657506101f4600560008373ffffffffffffffffffffffffffffffffffffffff1673ffffffffffffffffffffffffffffffffffffffff16815260200190815260200160002054105b1561246c576123f77f0d508090d6d549a0b81a3b884c03b3438af6209dcfb2457b9ba78928705d291c60001b611b7d565b6124237feb4950f5a88a1b0c63319beed5185eaf4152d9ee18c78ba7197bdf8a356a1b3160001b611b7d565b60048060008373ffffffffffffffffffffffffffffffffffffffff1673ffffffffffffffffffffffffffffffffffffffff168152602001908152602001600020819055506125dc565b6124987ffc9e7f3a5bb4c8c8f3908e7a8d1bf3a8beb8470e6986618c5d19de7bb37f2feb60001b611b7d565b6124c47f50eb89b8ba209d7483291285fb7d4c3f055c60aa080a96cfbbe999bb007b4a1b60001b611b7d565b6101f4600560008373ffffffffffffffffffffffffffffffffffffffff1673ffffffffffffffffffffffffffffffffffffffff16815260200190815260200160002054106125ae576125387fb8631b6fcbc91dac2bd574d8bce43da8ee3215856df57a708abb02e480169e9460001b611b7d565b6125647f9947c270752b368b0d5b716c56d9669875853a77e5987aedff1f621d25951a7d60001b611b7d565b6005600460008373ffffffffffffffffffffffffffffffffffffffff1673ffffffffffffffffffffffffffffffffffffffff168152602001908152602001600020819055506125db565b6125da7f8eae625f09b30d06e1faca62a0f699e72945ffad5b998c419c35efdd32a0885660001b611b7d565b5b5b5b5b5b5b50565b600033905090565b8280546125f790612be3565b90600052602060002090601f0160209004810192826126195760008555612660565b82601f1061263257805160ff1916838001178555612660565b82800160010185558215612660579182015b8281111561265f578251825591602001919060010190612644565b5b50905061266d9190612671565b5090565b5b8082111561268a576000816000905550600101612672565b5090565b6000604051905090565b600080fd5b600080fd5b600073ffffffffffffffffffffffffffffffffffffffff82169050919050565b60006126cd826126a2565b9050919050565b6126dd816126c2565b81146126e857600080fd5b50565b6000813590506126fa816126d4565b92915050565b60006020828403121561271657612715612698565b5b6000612724848285016126eb565b91505092915050565b60008115159050919050565b6127428161272d565b82525050565b600060208201905061275d6000830184612739565b92915050565b600080fd5b600080fd5b6000601f19601f8301169050919050565b7f4e487b7100000000000000000000000000000000000000000000000000000000600052604160045260246000fd5b6127b68261276d565b810181811067ffffffffffffffff821117156127d5576127d461277e565b5b80604052505050565b60006127e861268e565b90506127f482826127ad565b919050565b600067ffffffffffffffff8211156128145761281361277e565b5b61281d8261276d565b9050602081019050919050565b82818337600083830152505050565b600061284c612847846127f9565b6127de565b90508281526020810184848401111561286857612867612768565b5b61287384828561282a565b509392505050565b600082601f8301126128905761288f612763565b5b81356128a0848260208601612839565b91505092915050565b6000602082840312156128bf576128be612698565b5b600082013567ffffffffffffffff8111156128dd576128dc61269d565b5b6128e98482850161287b565b91505092915050565b6000819050919050565b612905816128f2565b811461291057600080fd5b50565b600081359050612922816128fc565b92915050565b60006020828403121561293e5761293d612698565b5b600061294c84828501612913565b91505092915050565b61295e816128f2565b82525050565b60006020820190506129796000830184612955565b92915050565b612988816126c2565b82525050565b60006020820190506129a3600083018461297f565b92915050565b600081519050919050565b600082825260208201905092915050565b60005b838110156129e35780820151818401526020810190506129c8565b838111156129f2576000848401525b50505050565b6000612a03826129a9565b612a0d81856129b4565b9350612a1d8185602086016129c5565b612a268161276d565b840191505092915050565b60006020820190508181036000830152612a4b81846129f8565b905092915050565b60008060408385031215612a6a57612a69612698565b5b6000612a78858286016126eb565b9250506020612a8985828601612913565b9150509250929050565b600081905092915050565b6000612aa9826129a9565b612ab38185612a93565b9350612ac38185602086016129c5565b80840191505092915050565b6000612adb8284612a9e565b915081905092915050565b7f4e487b7100000000000000000000000000000000000000000000000000000000600052601160045260246000fd5b6000612b20826128f2565b9150612b2b836128f2565b9250827fffffffffffffffffffffffffffffffffffffffffffffffffffffffffffffffff03821115612b6057612b5f612ae6565b5b828201905092915050565b6000612b76826128f2565b91507fffffffffffffffffffffffffffffffffffffffffffffffffffffffffffffffff821415612ba957612ba8612ae6565b5b600182019050919050565b7f4e487b7100000000000000000000000000000000000000000000000000000000600052602260045260246000fd5b60006002820490506001821680612bfb57607f821691505b60208210811415612c0f57612c0e612bb4565b5b50919050565b7f4e487b7100000000000000000000000000000000000000000000000000000000600052601260045260246000fd5b6000612c4f826128f2565b9150612c5a836128f2565b925082612c6a57612c69612c15565b5b828204905092915050565b7f4f776e61626c653a206e6577206f776e657220697320746865207a65726f206160008201527f6464726573730000000000000000000000000000000000000000000000000000602082015250565b6000612cd16026836129b4565b9150612cdc82612c75565b604082019050919050565b60006020820190508181036000830152612d0081612cc4565b9050919050565b7f4f776e61626c653a2063616c6c6572206973206e6f7420746865206f776e6572600082015250565b6000612d3d6020836129b4565b9150612d4882612d07565b602082019050919050565b60006020820190508181036000830152612d6c81612d30565b905091905056fea2646970667358221220401be79ecf82afdb81c9827bca6a051aeb45237ae25ed97cca09525123d7b4b864736f6c63430008080033","opcodes":"PUSH1 0x80 PUSH1 0x40 MSTORE CALLVALUE DUP1 ISZERO PUSH3 0x11 JUMPI PUSH1 0x0 DUP1 REVERT JUMPDEST POP PUSH3 0x32 PUSH3 0x26 PUSH3 0x115 PUSH1 0x20 SHL PUSH1 0x20 SHR JUMP JUMPDEST PUSH3 0x11D PUSH1 0x20 SHL PUSH1 0x20 SHR JUMP JUMPDEST PUSH3 0x66 PUSH32 0x675CAE87C8A1BC8F337A070C1FCE3227916A0A478189F262648AA918A08B9151 PUSH1 0x0 SHL PUSH3 0x1E1 PUSH1 0x20 SHL PUSH1 0x20 SHR JUMP JUMPDEST PUSH3 0x9A PUSH32 0x4DA13821059C6B4CDDB3B6E5B8DDB34DD89594F6BD01720FFD8590332E330164 PUSH1 0x0 SHL PUSH3 0x1E1 PUSH1 0x20 SHL PUSH1 0x20 SHR JUMP JUMPDEST PUSH3 0xCE PUSH32 0xAE3DC343E8151EDF789B50C35DE3C4BCD0F3AEA3D8B9DE53D340CF1AE04B5A2 PUSH1 0x0 SHL PUSH3 0x1E1 PUSH1 0x20 SHL PUSH1 0x20 SHR JUMP JUMPDEST CALLER PUSH1 0x1 PUSH1 0x0 PUSH2 0x100 EXP DUP2 SLOAD DUP2 PUSH20 0xFFFFFFFFFFFFFFFFFFFFFFFFFFFFFFFFFFFFFFFF MUL NOT AND SWAP1 DUP4 PUSH20 0xFFFFFFFFFFFFFFFFFFFFFFFFFFFFFFFFFFFFFFFF AND MUL OR SWAP1 SSTORE POP PUSH3 0x1E4 JUMP JUMPDEST PUSH1 0x0 CALLER SWAP1 POP SWAP1 JUMP JUMPDEST PUSH1 0x0 DUP1 PUSH1 0x0 SWAP1 SLOAD SWAP1 PUSH2 0x100 EXP SWAP1 DIV PUSH20 0xFFFFFFFFFFFFFFFFFFFFFFFFFFFFFFFFFFFFFFFF AND SWAP1 POP DUP2 PUSH1 0x0 DUP1 PUSH2 0x100 EXP DUP2 SLOAD DUP2 PUSH20 0xFFFFFFFFFFFFFFFFFFFFFFFFFFFFFFFFFFFFFFFF MUL NOT AND SWAP1 DUP4 PUSH20 0xFFFFFFFFFFFFFFFFFFFFFFFFFFFFFFFFFFFFFFFF AND MUL OR SWAP1 SSTORE POP DUP2 PUSH20 0xFFFFFFFFFFFFFFFFFFFFFFFFFFFFFFFFFFFFFFFF AND DUP2 PUSH20 0xFFFFFFFFFFFFFFFFFFFFFFFFFFFFFFFFFFFFFFFF AND PUSH32 0x8BE0079C531659141344CD1FD0A4F28419497F9722A3DAAFE3B4186F6B6457E0 PUSH1 0x40 MLOAD PUSH1 0x40 MLOAD DUP1 SWAP2 SUB SWAP1 LOG3 POP POP JUMP JUMPDEST POP JUMP JUMPDEST PUSH2 0x2DA9 DUP1 PUSH3 0x1F4 PUSH1 0x0 CODECOPY PUSH1 0x0 RETURN INVALID PUSH1 0x80 PUSH1 0x40 MSTORE CALLVALUE DUP1 ISZERO PUSH2 0x10 JUMPI PUSH1 0x0 DUP1 REVERT JUMPDEST POP PUSH1 0x4 CALLDATASIZE LT PUSH2 0x100 JUMPI PUSH1 0x0 CALLDATALOAD PUSH1 0xE0 SHR DUP1 PUSH4 0x9A166299 GT PUSH2 0x97 JUMPI DUP1 PUSH4 0xBC702429 GT PUSH2 0x66 JUMPI DUP1 PUSH4 0xBC702429 EQ PUSH2 0x25D JUMPI DUP1 PUSH4 0xCC016313 EQ PUSH2 0x27B JUMPI DUP1 PUSH4 0xEC9B4D14 EQ PUSH2 0x299 JUMPI DUP1 PUSH4 0xF2FDE38B EQ PUSH2 0x2B7 JUMPI PUSH2 0x100 JUMP JUMPDEST DUP1 PUSH4 0x9A166299 EQ PUSH2 0x1EB JUMPI DUP1 PUSH4 0xA4EB88F8 EQ PUSH2 0x209 JUMPI DUP1 PUSH4 0xADB303D9 EQ PUSH2 0x225 JUMPI DUP1 PUSH4 0xBBD4D97C EQ PUSH2 0x241 JUMPI PUSH2 0x100 JUMP JUMPDEST DUP1 PUSH4 0x6E1223D4 GT PUSH2 0xD3 JUMPI DUP1 PUSH4 0x6E1223D4 EQ PUSH2 0x189 JUMPI DUP1 PUSH4 0x715018A6 EQ PUSH2 0x1A7 JUMPI DUP1 PUSH4 0x818A01E1 EQ PUSH2 0x1B1 JUMPI DUP1 PUSH4 0x8DA5CB5B EQ PUSH2 0x1CD JUMPI PUSH2 0x100 JUMP JUMPDEST DUP1 PUSH4 0x374E1C2 EQ PUSH2 0x105 JUMPI DUP1 PUSH4 0x8309A6F EQ PUSH2 0x135 JUMPI DUP1 PUSH4 0x1B1E39E8 EQ PUSH2 0x151 JUMPI DUP1 PUSH4 0x67FACA24 EQ PUSH2 0x16D JUMPI JUMPDEST PUSH1 0x0 DUP1 REVERT JUMPDEST PUSH2 0x11F PUSH1 0x4 DUP1 CALLDATASIZE SUB DUP2 ADD SWAP1 PUSH2 0x11A SWAP2 SWAP1 PUSH2 0x2700 JUMP JUMPDEST PUSH2 0x2D3 JUMP JUMPDEST PUSH1 0x40 MLOAD PUSH2 0x12C SWAP2 SWAP1 PUSH2 0x2748 JUMP JUMPDEST PUSH1 0x40 MLOAD DUP1 SWAP2 SUB SWAP1 RETURN JUMPDEST PUSH2 0x14F PUSH1 0x4 DUP1 CALLDATASIZE SUB DUP2 ADD SWAP1 PUSH2 0x14A SWAP2 SWAP1 PUSH2 0x28A9 JUMP JUMPDEST PUSH2 0x3AD JUMP JUMPDEST STOP JUMPDEST PUSH2 0x16B PUSH1 0x4 DUP1 CALLDATASIZE SUB DUP2 ADD SWAP1 PUSH2 0x166 SWAP2 SWAP1 PUSH2 0x28A9 JUMP JUMPDEST PUSH2 0x539 JUMP JUMPDEST STOP JUMPDEST PUSH2 0x187 PUSH1 0x4 DUP1 CALLDATASIZE SUB DUP2 ADD SWAP1 PUSH2 0x182 SWAP2 SWAP1 PUSH2 0x2928 JUMP JUMPDEST PUSH2 0x6C5 JUMP JUMPDEST STOP JUMPDEST PUSH2 0x191 PUSH2 0xC4B JUMP JUMPDEST PUSH1 0x40 MLOAD PUSH2 0x19E SWAP2 SWAP1 PUSH2 0x2964 JUMP JUMPDEST PUSH1 0x40 MLOAD DUP1 SWAP2 SUB SWAP1 RETURN JUMPDEST PUSH2 0x1AF PUSH2 0xCD9 JUMP JUMPDEST STOP JUMPDEST PUSH2 0x1CB PUSH1 0x4 DUP1 CALLDATASIZE SUB DUP2 ADD SWAP1 PUSH2 0x1C6 SWAP2 SWAP1 PUSH2 0x2700 JUMP JUMPDEST PUSH2 0xCED JUMP JUMPDEST STOP JUMPDEST PUSH2 0x1D5 PUSH2 0xF34 JUMP JUMPDEST PUSH1 0x40 MLOAD PUSH2 0x1E2 SWAP2 SWAP1 PUSH2 0x298E JUMP JUMPDEST PUSH1 0x40 MLOAD DUP1 SWAP2 SUB SWAP1 RETURN JUMPDEST PUSH2 0x1F3 PUSH2 0xF5D JUMP JUMPDEST PUSH1 0x40 MLOAD PUSH2 0x200 SWAP2 SWAP1 PUSH2 0x2A31 JUMP JUMPDEST PUSH1 0x40 MLOAD DUP1 SWAP2 SUB SWAP1 RETURN JUMPDEST PUSH2 0x223 PUSH1 0x4 DUP1 CALLDATASIZE SUB DUP2 ADD SWAP1 PUSH2 0x21E SWAP2 SWAP1 PUSH2 0x28A9 JUMP JUMPDEST PUSH2 0x10B0 JUMP JUMPDEST STOP JUMPDEST PUSH2 0x23F PUSH1 0x4 DUP1 CALLDATASIZE SUB DUP2 ADD SWAP1 PUSH2 0x23A SWAP2 SWAP1 PUSH2 0x2A53 JUMP JUMPDEST PUSH2 0x123C JUMP JUMPDEST STOP JUMPDEST PUSH2 0x25B PUSH1 0x4 DUP1 CALLDATASIZE SUB DUP2 ADD SWAP1 PUSH2 0x256 SWAP2 SWAP1 PUSH2 0x2700 JUMP JUMPDEST PUSH2 0x13B3 JUMP JUMPDEST STOP JUMPDEST PUSH2 0x265 PUSH2 0x1788 JUMP JUMPDEST PUSH1 0x40 MLOAD PUSH2 0x272 SWAP2 SWAP1 PUSH2 0x2A31 JUMP JUMPDEST PUSH1 0x40 MLOAD DUP1 SWAP2 SUB SWAP1 RETURN JUMPDEST PUSH2 0x283 PUSH2 0x18DB JUMP JUMPDEST PUSH1 0x40 MLOAD PUSH2 0x290 SWAP2 SWAP1 PUSH2 0x2A31 JUMP JUMPDEST PUSH1 0x40 MLOAD DUP1 SWAP2 SUB SWAP1 RETURN JUMPDEST PUSH2 0x2A1 PUSH2 0x1A2E JUMP JUMPDEST PUSH1 0x40 MLOAD PUSH2 0x2AE SWAP2 SWAP1 PUSH2 0x2964 JUMP JUMPDEST PUSH1 0x40 MLOAD DUP1 SWAP2 SUB SWAP1 RETURN JUMPDEST PUSH2 0x2D1 PUSH1 0x4 DUP1 CALLDATASIZE SUB DUP2 ADD SWAP1 PUSH2 0x2CC SWAP2 SWAP1 PUSH2 0x2700 JUMP JUMPDEST PUSH2 0x1AF9 JUMP JUMPDEST STOP JUMPDEST PUSH1 0x0 PUSH2 0x301 PUSH32 0x7CC75704F78D4AF0161627DE45DA3DD03B65989173DD0E313C6B1B5BF6ECD193 PUSH1 0x0 SHL PUSH2 0x1B7D JUMP JUMPDEST PUSH2 0x32D PUSH32 0x62DDA847388A111B5EA42D1EFEA8E8484D27F35B6CFF17DF984B0121FA1EA2D8 PUSH1 0x0 SHL PUSH2 0x1B7D JUMP JUMPDEST PUSH2 0x359 PUSH32 0x3AABFA31B93CE855C0D252E3CCE92B5A72C3ECFB4D8FFD69D3E30DD58E2E5B22 PUSH1 0x0 SHL PUSH2 0x1B7D JUMP JUMPDEST PUSH1 0x6 PUSH1 0x0 DUP4 PUSH20 0xFFFFFFFFFFFFFFFFFFFFFFFFFFFFFFFFFFFFFFFF AND PUSH20 0xFFFFFFFFFFFFFFFFFFFFFFFFFFFFFFFFFFFFFFFF AND DUP2 MSTORE PUSH1 0x20 ADD SWAP1 DUP2 MSTORE PUSH1 0x20 ADD PUSH1 0x0 KECCAK256 PUSH1 0x0 SWAP1 SLOAD SWAP1 PUSH2 0x100 EXP SWAP1 DIV PUSH1 0xFF AND SWAP1 POP SWAP2 SWAP1 POP JUMP JUMPDEST PUSH2 0x3D9 PUSH32 0xBB3A3131F12F71A5C713C231565A2CFA84E3AAFFB4E5677D56DE0F10AD098413 PUSH1 0x0 SHL PUSH2 0x1B7D JUMP JUMPDEST PUSH2 0x405 PUSH32 0x4F86EAE510F55BFDF06B5F4DE84F723983135AED8CBA665234A452DE5114BEF8 PUSH1 0x0 SHL PUSH2 0x1B7D JUMP JUMPDEST PUSH2 0x431 PUSH32 0xDC03516A822C6E62326F0263DD3C5850B5751DDB2EFFB69F65000B9E4D332729 PUSH1 0x0 SHL PUSH2 0x1B7D JUMP JUMPDEST DUP1 PUSH1 0x9 PUSH1 0x0 CALLER PUSH20 0xFFFFFFFFFFFFFFFFFFFFFFFFFFFFFFFFFFFFFFFF AND PUSH20 0xFFFFFFFFFFFFFFFFFFFFFFFFFFFFFFFFFFFFFFFF AND DUP2 MSTORE PUSH1 0x20 ADD SWAP1 DUP2 MSTORE PUSH1 0x20 ADD PUSH1 0x0 KECCAK256 SWAP1 DUP1 MLOAD SWAP1 PUSH1 0x20 ADD SWAP1 PUSH2 0x484 SWAP3 SWAP2 SWAP1 PUSH2 0x25EB JUMP JUMPDEST POP PUSH2 0x4B1 PUSH32 0x919B0D86F8EC5918E64507CFE99AD81393FD3E77BA8EF8A756841B1223F3E26D PUSH1 0x0 SHL PUSH2 0x1B7D JUMP JUMPDEST PUSH2 0x4DD PUSH32 0xA0A81AE3E3398BDCBD23E7E752A44CCCCECA8F8D01FCA0B38308965F4CE0B9C9 PUSH1 0x0 SHL PUSH2 0x1B7D JUMP JUMPDEST DUP1 PUSH1 0x40 MLOAD PUSH2 0x4EB SWAP2 SWAP1 PUSH2 0x2ACF JUMP JUMPDEST PUSH1 0x40 MLOAD DUP1 SWAP2 SUB SWAP1 KECCAK256 CALLER PUSH20 0xFFFFFFFFFFFFFFFFFFFFFFFFFFFFFFFFFFFFFFFF AND PUSH32 0xA58CBC2D3FC0880739836E4603B53162415106CBE246519F687D635CB98DE469 PUSH1 0x40 MLOAD PUSH1 0x40 MLOAD DUP1 SWAP2 SUB SWAP1 LOG3 POP JUMP JUMPDEST PUSH2 0x565 PUSH32 0x7EE4DEC7D08F2FBC7B39511F8950B75FD18DC54768C5A961A0CB3CB44B330D73 PUSH1 0x0 SHL PUSH2 0x1B7D JUMP JUMPDEST PUSH2 0x591 PUSH32 0xD95C03FD27371E903C035D6C412DB715EAFACFA1128A17F337C55FEB207DC9E PUSH1 0x0 SHL PUSH2 0x1B7D JUMP JUMPDEST PUSH2 0x5BD PUSH32 0x78D8EA605AE0048606DB256F78ABC5670DB91D5412CF4F4F0C4AA2993BE8A31 PUSH1 0x0 SHL PUSH2 0x1B7D JUMP JUMPDEST DUP1 PUSH1 0x8 PUSH1 0x0 CALLER PUSH20 0xFFFFFFFFFFFFFFFFFFFFFFFFFFFFFFFFFFFFFFFF AND PUSH20 0xFFFFFFFFFFFFFFFFFFFFFFFFFFFFFFFFFFFFFFFF AND DUP2 MSTORE PUSH1 0x20 ADD SWAP1 DUP2 MSTORE PUSH1 0x20 ADD PUSH1 0x0 KECCAK256 SWAP1 DUP1 MLOAD SWAP1 PUSH1 0x20 ADD SWAP1 PUSH2 0x610 SWAP3 SWAP2 SWAP1 PUSH2 0x25EB JUMP JUMPDEST POP PUSH2 0x63D PUSH32 0x510EACB43A7D6D1DE19251B2502D32045E2D0366037312444B8D8AF5275A9C44 PUSH1 0x0 SHL PUSH2 0x1B7D JUMP JUMPDEST PUSH2 0x669 PUSH32 0xEC8DCFCE2B205CE132CD8CA90CB1DB848DFFB1609A1050E763C486BF41C07608 PUSH1 0x0 SHL PUSH2 0x1B7D JUMP JUMPDEST DUP1 PUSH1 0x40 MLOAD PUSH2 0x677 SWAP2 SWAP1 PUSH2 0x2ACF JUMP JUMPDEST PUSH1 0x40 MLOAD DUP1 SWAP2 SUB SWAP1 KECCAK256 CALLER PUSH20 0xFFFFFFFFFFFFFFFFFFFFFFFFFFFFFFFFFFFFFFFF AND PUSH32 0x7C628B061E272B7258A02AC185C3F3C805BF87461E54B741885A169D7AE39CCE PUSH1 0x40 MLOAD PUSH1 0x40 MLOAD DUP1 SWAP2 SUB SWAP1 LOG3 POP JUMP JUMPDEST PUSH2 0x6F1 PUSH32 0x42607466AAC1417B69168D4E7F252A1E69B28334FA784169F5018B41D27F6F24 PUSH1 0x0 SHL PUSH2 0x1B7D JUMP JUMPDEST PUSH2 0x71D PUSH32 0xDCBAD97780CCFCE527619C95E277110CDB501292BC62674A209D27ADC2E76805 PUSH1 0x0 SHL PUSH2 0x1B7D JUMP JUMPDEST PUSH2 0x749 PUSH32 0x761D5A8B6B7DF8D48236E5B9FF96AE3425702BC31EE2B4606C942BA3499EA2DB PUSH1 0x0 SHL PUSH2 0x1B7D JUMP JUMPDEST PUSH1 0x6 PUSH1 0x0 CALLER PUSH20 0xFFFFFFFFFFFFFFFFFFFFFFFFFFFFFFFFFFFFFFFF AND PUSH20 0xFFFFFFFFFFFFFFFFFFFFFFFFFFFFFFFFFFFFFFFF AND DUP2 MSTORE PUSH1 0x20 ADD SWAP1 DUP2 MSTORE PUSH1 0x20 ADD PUSH1 0x0 KECCAK256 PUSH1 0x0 SWAP1 SLOAD SWAP1 PUSH2 0x100 EXP SWAP1 DIV PUSH1 0xFF AND PUSH2 0x82F JUMPI PUSH2 0x7C6 PUSH32 0x629953D3C41183D2A7C55AD28FD6C1A6250998AF0B826722C3FC819812CF9B6 PUSH1 0x0 SHL PUSH2 0x1B7D JUMP JUMPDEST PUSH2 0x7F2 PUSH32 0x18B3FBEBEA46127981AE60B3456C86B204AC7A36A2887A0845C9352AA895951A PUSH1 0x0 SHL PUSH2 0x1B7D JUMP JUMPDEST CALLER PUSH1 0x40 MLOAD PUSH32 0xD141F98600000000000000000000000000000000000000000000000000000000 DUP2 MSTORE PUSH1 0x4 ADD PUSH2 0x826 SWAP2 SWAP1 PUSH2 0x298E JUMP JUMPDEST PUSH1 0x40 MLOAD DUP1 SWAP2 SUB SWAP1 REVERT JUMPDEST PUSH2 0x85B PUSH32 0x74428EFFC60474DC60E3987CB93E268B4E2C0F862A2DA9CA9ACB9A3D8B49939C PUSH1 0x0 SHL PUSH2 0x1B7D JUMP JUMPDEST PUSH2 0x887 PUSH32 0xBDCC0E84427DE6CC3A4E54B48F099ED0080C7DA9933644E3F9C3E432355230EB PUSH1 0x0 SHL PUSH2 0x1B7D JUMP JUMPDEST PUSH2 0x8B3 PUSH32 0x203766E944A742F8F0817A3F0D369351049BBAA9093545FAD4A146B9994C3F09 PUSH1 0x0 SHL PUSH2 0x1B7D JUMP JUMPDEST PUSH1 0x7 PUSH1 0x0 CALLER PUSH20 0xFFFFFFFFFFFFFFFFFFFFFFFFFFFFFFFFFFFFFFFF AND PUSH20 0xFFFFFFFFFFFFFFFFFFFFFFFFFFFFFFFFFFFFFFFF AND DUP2 MSTORE PUSH1 0x20 ADD SWAP1 DUP2 MSTORE PUSH1 0x20 ADD PUSH1 0x0 KECCAK256 PUSH1 0x0 SWAP1 SLOAD SWAP1 PUSH2 0x100 EXP SWAP1 DIV PUSH1 0xFF AND ISZERO PUSH2 0x99A JUMPI PUSH2 0x931 PUSH32 0x87B6E5AA0B303EF6E5EFC05D577ED14695CA7C6CBA13DF67EF17149B1AB61260 PUSH1 0x0 SHL PUSH2 0x1B7D JUMP JUMPDEST PUSH2 0x95D PUSH32 0x4A533C468C545FF3810FF619D2935F30551601115B0115ADC4C4CD93AD37DE23 PUSH1 0x0 SHL PUSH2 0x1B7D JUMP JUMPDEST CALLER PUSH1 0x40 MLOAD PUSH32 0x60A704B400000000000000000000000000000000000000000000000000000000 DUP2 MSTORE PUSH1 0x4 ADD PUSH2 0x991 SWAP2 SWAP1 PUSH2 0x298E JUMP JUMPDEST PUSH1 0x40 MLOAD DUP1 SWAP2 SUB SWAP1 REVERT JUMPDEST PUSH2 0x9C6 PUSH32 0xD3E47C5C0787901BD0C24823314523815BB91CB3B7E51C04B649196F78C0C28D PUSH1 0x0 SHL PUSH2 0x1B7D JUMP JUMPDEST PUSH2 0x9F2 PUSH32 0x5D73BEB7E5DE4660FAC634206C64C996000E70C53307FB61720EDF4F44EAB3F4 PUSH1 0x0 SHL PUSH2 0x1B7D JUMP JUMPDEST PUSH2 0xA1E PUSH32 0x372E368CDD1A0ED88E515EAE80ACB1F3009AC3166188DBAF061D474DB43647B PUSH1 0x0 SHL PUSH2 0x1B7D JUMP JUMPDEST PUSH1 0x0 DUP2 LT DUP1 PUSH2 0xA2D JUMPI POP PUSH1 0xA DUP2 GT JUMPDEST ISZERO PUSH2 0xABC JUMPI PUSH2 0xA5E PUSH32 0xBF755E4BB763CF37B0147E2FEB37D8023051E13E88837A5AB22F36C7BB625594 PUSH1 0x0 SHL PUSH2 0x1B7D JUMP JUMPDEST PUSH2 0xA8A PUSH32 0xB76C1584C51284096A75A4B6973B79C9CDACE51683C84F4CDD16403D471D8268 PUSH1 0x0 SHL PUSH2 0x1B7D JUMP JUMPDEST PUSH1 0x40 MLOAD PUSH32 0xA0F45CB600000000000000000000000000000000000000000000000000000000 DUP2 MSTORE PUSH1 0x4 ADD PUSH1 0x40 MLOAD DUP1 SWAP2 SUB SWAP1 REVERT JUMPDEST PUSH2 0xAE8 PUSH32 0x359BB255741F7F5CE345D5D21CD0A801C231BFFBE55203780D4554E9CE073D7D PUSH1 0x0 SHL PUSH2 0x1B7D JUMP JUMPDEST PUSH2 0xB14 PUSH32 0x43276A2438011574C56E2741FEC741FF34E62C8B5EBA8B4D79338B575016B83E PUSH1 0x0 SHL PUSH2 0x1B7D JUMP JUMPDEST PUSH2 0xB40 PUSH32 0x91A67FCFC3156006E3C5621E11FBCC9BF1107EFDB83EE471E569126E14B5CCAB PUSH1 0x0 SHL PUSH2 0x1B7D JUMP JUMPDEST PUSH1 0x1 PUSH1 0x7 PUSH1 0x0 CALLER PUSH20 0xFFFFFFFFFFFFFFFFFFFFFFFFFFFFFFFFFFFFFFFF AND PUSH20 0xFFFFFFFFFFFFFFFFFFFFFFFFFFFFFFFFFFFFFFFF AND DUP2 MSTORE PUSH1 0x20 ADD SWAP1 DUP2 MSTORE PUSH1 0x20 ADD PUSH1 0x0 KECCAK256 PUSH1 0x0 PUSH2 0x100 EXP DUP2 SLOAD DUP2 PUSH1 0xFF MUL NOT AND SWAP1 DUP4 ISZERO ISZERO MUL OR SWAP1 SSTORE POP PUSH2 0xBC4 PUSH32 0xEDD1F3451C02264451126D6B188B2FE36001920948C61D6CE2666F7E240145C4 PUSH1 0x0 SHL PUSH2 0x1B7D JUMP JUMPDEST PUSH2 0xBF0 PUSH32 0xE8444679DC7BEC120F89CADECF1ACDCDCD8240345B243015EA8B89602D0C5DAF PUSH1 0x0 SHL PUSH2 0x1B7D JUMP JUMPDEST DUP1 PUSH1 0x2 SLOAD PUSH2 0xBFE SWAP2 SWAP1 PUSH2 0x2B15 JUMP JUMPDEST PUSH1 0x2 DUP2 SWAP1 SSTORE POP PUSH2 0xC30 PUSH32 0xC1EE7A76A77D0C4E2FBFB7889D02014E9D2B456734E42BD6563225693F8F28E9 PUSH1 0x0 SHL PUSH2 0x1B7D JUMP JUMPDEST PUSH1 0x3 PUSH1 0x0 DUP2 SLOAD DUP1 SWAP3 SWAP2 SWAP1 PUSH2 0xC43 SWAP1 PUSH2 0x2B6B JUMP JUMPDEST SWAP2 SWAP1 POP SSTORE POP POP JUMP JUMPDEST PUSH1 0x0 PUSH2 0xC79 PUSH32 0x7472D49CF76E4C16DE1DC665C1EFBB730281F83E48C89ECEF8225D776DB6D8B5 PUSH1 0x0 SHL PUSH2 0x1B7D JUMP JUMPDEST PUSH2 0xCA5 PUSH32 0x5C62F396FBB673B4663D17D579F90CC50E2CB8D2E8BDEE48B73FBE5CB9D28DAC PUSH1 0x0 SHL PUSH2 0x1B7D JUMP JUMPDEST PUSH2 0xCD1 PUSH32 0xD5385E9D745D4863D76721AEB970328A1CE5658593F1825AE7EAF2FD800ED429 PUSH1 0x0 SHL PUSH2 0x1B7D JUMP JUMPDEST PUSH1 0x3 SLOAD SWAP1 POP SWAP1 JUMP JUMPDEST PUSH2 0xCE1 PUSH2 0x1B80 JUMP JUMPDEST PUSH2 0xCEB PUSH1 0x0 PUSH2 0x1BFE JUMP JUMPDEST JUMP JUMPDEST PUSH2 0xCF5 PUSH2 0x1B80 JUMP JUMPDEST PUSH2 0xD21 PUSH32 0xC20387937713E607DF397F6A784F530A7EA80049AA069D605D915585A83F6874 PUSH1 0x0 SHL PUSH2 0x1B7D JUMP JUMPDEST PUSH2 0xD4D PUSH32 0xE0349A5C9427F6A7DF01F8EEBBA5A25837D22315D56269C76D27BA03673181C7 PUSH1 0x0 SHL PUSH2 0x1B7D JUMP JUMPDEST PUSH2 0xD79 PUSH32 0xCD78497F8A7842492E3915FACCA7359FEFB7FA6659FC27F37DD96376C2EDA7AF PUSH1 0x0 SHL PUSH2 0x1B7D JUMP JUMPDEST PUSH1 0x5 PUSH1 0x4 PUSH1 0x0 DUP4 PUSH20 0xFFFFFFFFFFFFFFFFFFFFFFFFFFFFFFFFFFFFFFFF AND PUSH20 0xFFFFFFFFFFFFFFFFFFFFFFFFFFFFFFFFFFFFFFFF AND DUP2 MSTORE PUSH1 0x20 ADD SWAP1 DUP2 MSTORE PUSH1 0x20 ADD PUSH1 0x0 KECCAK256 SLOAD EQ PUSH2 0xE55 JUMPI PUSH2 0xDEC PUSH32 0xD2DA44D61A4B4C088D3B2BDDE4547753B9B1EC6B5D378FD4DD3C49CF0CC587C8 PUSH1 0x0 SHL PUSH2 0x1B7D JUMP JUMPDEST PUSH2 0xE18 PUSH32 0x51F002E55DF470F602C612CB535BE56E729ACF180383AE69051F88157B871E36 PUSH1 0x0 SHL PUSH2 0x1B7D JUMP JUMPDEST DUP1 PUSH1 0x40 MLOAD PUSH32 0xAF90C65200000000000000000000000000000000000000000000000000000000 DUP2 MSTORE PUSH1 0x4 ADD PUSH2 0xE4C SWAP2 SWAP1 PUSH2 0x298E JUMP JUMPDEST PUSH1 0x40 MLOAD DUP1 SWAP2 SUB SWAP1 REVERT JUMPDEST PUSH2 0xE81 PUSH32 0x421302BA49B19E97E94149DFEEA00A5B5DE179AAA7983431A6F554F8A18475CE PUSH1 0x0 SHL PUSH2 0x1B7D JUMP JUMPDEST PUSH2 0xEAD PUSH32 0x1D8EFC786CA1A00573681451E29C0EC03018FA1EFDF7B382BA0E392AAA8647D7 PUSH1 0x0 SHL PUSH2 0x1B7D JUMP JUMPDEST PUSH2 0xED9 PUSH32 0x75EC9799584CBAE3F07CE13DAD919018B5EE6FADCD5B56613EBDCE7D4AF2BBB8 PUSH1 0x0 SHL PUSH2 0x1B7D JUMP JUMPDEST PUSH1 0x1 PUSH1 0x6 PUSH1 0x0 DUP4 PUSH20 0xFFFFFFFFFFFFFFFFFFFFFFFFFFFFFFFFFFFFFFFF AND PUSH20 0xFFFFFFFFFFFFFFFFFFFFFFFFFFFFFFFFFFFFFFFF AND DUP2 MSTORE PUSH1 0x20 ADD SWAP1 DUP2 MSTORE PUSH1 0x20 ADD PUSH1 0x0 KECCAK256 PUSH1 0x0 PUSH2 0x100 EXP DUP2 SLOAD DUP2 PUSH1 0xFF MUL NOT AND SWAP1 DUP4 ISZERO ISZERO MUL OR SWAP1 SSTORE POP POP JUMP JUMPDEST PUSH1 0x0 DUP1 PUSH1 0x0 SWAP1 SLOAD SWAP1 PUSH2 0x100 EXP SWAP1 DIV PUSH20 0xFFFFFFFFFFFFFFFFFFFFFFFFFFFFFFFFFFFFFFFF AND SWAP1 POP SWAP1 JUMP JUMPDEST PUSH1 0x60 PUSH2 0xF8B PUSH32 0xD4E8F21EB4941FF98330C97100EA74EF5D5C3271FC41F86B13AC5C984951A71C PUSH1 0x0 SHL PUSH2 0x1B7D JUMP JUMPDEST PUSH2 0xFB7 PUSH32 0xF5BF0FF9709654ACC9BC58C64C4A29EB73D883CCD753770D037A66651DC03DAB PUSH1 0x0 SHL PUSH2 0x1B7D JUMP JUMPDEST PUSH2 0xFE3 PUSH32 0x9C300A467F20A659CB0FB429094FC10204C29CAF7F3A4964B6F0E0851176097F PUSH1 0x0 SHL PUSH2 0x1B7D JUMP JUMPDEST PUSH1 0x8 PUSH1 0x0 CALLER PUSH20 0xFFFFFFFFFFFFFFFFFFFFFFFFFFFFFFFFFFFFFFFF AND PUSH20 0xFFFFFFFFFFFFFFFFFFFFFFFFFFFFFFFFFFFFFFFF AND DUP2 MSTORE PUSH1 0x20 ADD SWAP1 DUP2 MSTORE PUSH1 0x20 ADD PUSH1 0x0 KECCAK256 DUP1 SLOAD PUSH2 0x102D SWAP1 PUSH2 0x2BE3 JUMP JUMPDEST DUP1 PUSH1 0x1F ADD PUSH1 0x20 DUP1 SWAP2 DIV MUL PUSH1 0x20 ADD PUSH1 0x40 MLOAD SWAP1 DUP2 ADD PUSH1 0x40 MSTORE DUP1 SWAP3 SWAP2 SWAP1 DUP2 DUP2 MSTORE PUSH1 0x20 ADD DUP3 DUP1 SLOAD PUSH2 0x1059 SWAP1 PUSH2 0x2BE3 JUMP JUMPDEST DUP1 ISZERO PUSH2 0x10A6 JUMPI DUP1 PUSH1 0x1F LT PUSH2 0x107B JUMPI PUSH2 0x100 DUP1 DUP4 SLOAD DIV MUL DUP4 MSTORE SWAP2 PUSH1 0x20 ADD SWAP2 PUSH2 0x10A6 JUMP JUMPDEST DUP3 ADD SWAP2 SWAP1 PUSH1 0x0 MSTORE PUSH1 0x20 PUSH1 0x0 KECCAK256 SWAP1 JUMPDEST DUP2 SLOAD DUP2 MSTORE SWAP1 PUSH1 0x1 ADD SWAP1 PUSH1 0x20 ADD DUP1 DUP4 GT PUSH2 0x1089 JUMPI DUP3 SWAP1 SUB PUSH1 0x1F AND DUP3 ADD SWAP2 JUMPDEST POP POP POP POP POP SWAP1 POP SWAP1 JUMP JUMPDEST PUSH2 0x10DC PUSH32 0x7183FA704CC570DBD39248BA6169D77AB37C330FF2368A772A091383EE24788E PUSH1 0x0 SHL PUSH2 0x1B7D JUMP JUMPDEST PUSH2 0x1108 PUSH32 0xB09CD72325C9ED009CD504A1F00A5BF3B44534093C662A40F3E23CA2FAB79F99 PUSH1 0x0 SHL PUSH2 0x1B7D JUMP JUMPDEST PUSH2 0x1134 PUSH32 0x924B39036A3F7DCF002D1195BDCEBE0484A016117CEC10D89FE79530C1B3FA71 PUSH1 0x0 SHL PUSH2 0x1B7D JUMP JUMPDEST DUP1 PUSH1 0xA PUSH1 0x0 CALLER PUSH20 0xFFFFFFFFFFFFFFFFFFFFFFFFFFFFFFFFFFFFFFFF AND PUSH20 0xFFFFFFFFFFFFFFFFFFFFFFFFFFFFFFFFFFFFFFFF AND DUP2 MSTORE PUSH1 0x20 ADD SWAP1 DUP2 MSTORE PUSH1 0x20 ADD PUSH1 0x0 KECCAK256 SWAP1 DUP1 MLOAD SWAP1 PUSH1 0x20 ADD SWAP1 PUSH2 0x1187 SWAP3 SWAP2 SWAP1 PUSH2 0x25EB JUMP JUMPDEST POP PUSH2 0x11B4 PUSH32 0xD15D17D25C56FC84E03366C57F59B766F14A310FDC59488D22E45883FF3BF2E1 PUSH1 0x0 SHL PUSH2 0x1B7D JUMP JUMPDEST PUSH2 0x11E0 PUSH32 0xF5F1D0B34620DA312404AE3908095427D2E57E98522334BE456D6F7409EFD19C PUSH1 0x0 SHL PUSH2 0x1B7D JUMP JUMPDEST DUP1 PUSH1 0x40 MLOAD PUSH2 0x11EE SWAP2 SWAP1 PUSH2 0x2ACF JUMP JUMPDEST PUSH1 0x40 MLOAD DUP1 SWAP2 SUB SWAP1 KECCAK256 CALLER PUSH20 0xFFFFFFFFFFFFFFFFFFFFFFFFFFFFFFFFFFFFFFFF AND PUSH32 0xF1BFCC87EF5B48F65C55BA6BC830A7964FAA23A6F8EF22F4FE324B472DAD11F8 PUSH1 0x40 MLOAD PUSH1 0x40 MLOAD DUP1 SWAP2 SUB SWAP1 LOG3 POP JUMP JUMPDEST PUSH2 0x1268 PUSH32 0x80214D72D042780366A0E7F2C9471AE54014F35C7AC5F10937E293070687168A PUSH1 0x0 SHL PUSH2 0x1B7D JUMP JUMPDEST PUSH2 0x1294 PUSH32 0xDBE0F62CEE9E977BD37A4B4408C3834281995F0C55B51E456AB02A1C43B32E14 PUSH1 0x0 SHL PUSH2 0x1B7D JUMP JUMPDEST PUSH2 0x12C0 PUSH32 0xA8E719967BE802FC8A2640CDF73BF18811BED72623D5E0AB56BB5D0CACCCCB19 PUSH1 0x0 SHL PUSH2 0x1B7D JUMP JUMPDEST DUP1 PUSH1 0x5 PUSH1 0x0 DUP5 PUSH20 0xFFFFFFFFFFFFFFFFFFFFFFFFFFFFFFFFFFFFFFFF AND PUSH20 0xFFFFFFFFFFFFFFFFFFFFFFFFFFFFFFFFFFFFFFFF AND DUP2 MSTORE PUSH1 0x20 ADD SWAP1 DUP2 MSTORE PUSH1 0x20 ADD PUSH1 0x0 KECCAK256 SLOAD PUSH2 0x130B SWAP2 SWAP1 PUSH2 0x2B15 JUMP JUMPDEST PUSH1 0x5 PUSH1 0x0 DUP5 PUSH20 0xFFFFFFFFFFFFFFFFFFFFFFFFFFFFFFFFFFFFFFFF AND PUSH20 0xFFFFFFFFFFFFFFFFFFFFFFFFFFFFFFFFFFFFFFFF AND DUP2 MSTORE PUSH1 0x20 ADD SWAP1 DUP2 MSTORE PUSH1 0x20 ADD PUSH1 0x0 KECCAK256 DUP2 SWAP1 SSTORE POP PUSH2 0x137A PUSH32 0x50AAF2F0F43BF85AA80B9335F5FD301B1F5F7958B988ACB485C79141ED1E1AF0 PUSH1 0x0 SHL PUSH2 0x1B7D JUMP JUMPDEST PUSH2 0x13A6 PUSH32 0xF1F23F45970C0B85FE190FB2A3EDC9941A9F2E2787DF7BBCCB6B00D25B38B3C5 PUSH1 0x0 SHL PUSH2 0x1B7D JUMP JUMPDEST PUSH2 0x13AF DUP3 PUSH2 0x1CC2 JUMP JUMPDEST POP POP JUMP JUMPDEST PUSH2 0x13BB PUSH2 0x1B80 JUMP JUMPDEST PUSH2 0x13E7 PUSH32 0x755046A19BE54076260DF17B72C9A0EBB59AC82E85C6A19E5CD4D02CD964CF2B PUSH1 0x0 SHL PUSH2 0x1B7D JUMP JUMPDEST PUSH2 0x1413 PUSH32 0x6DCD97EA535219D4264BFAA961BDE802FC8C4D67AF248F641365B3A4F992FA3C PUSH1 0x0 SHL PUSH2 0x1B7D JUMP JUMPDEST PUSH2 0x143F PUSH32 0x4FB493336C128E4C9F6D184C552E0B74002EC161867CCECF3A76718D57074594 PUSH1 0x0 SHL PUSH2 0x1B7D JUMP JUMPDEST PUSH1 0x0 PUSH1 0x3 SLOAD PUSH1 0x2 SLOAD PUSH2 0x1451 SWAP2 SWAP1 PUSH2 0x2C44 JUMP JUMPDEST SWAP1 POP PUSH2 0x147F PUSH32 0xBC12A59EB993B24215055CB6813686B526180C82C5F9B0C1AB105B5AE75E404 PUSH1 0x0 SHL PUSH2 0x1B7D JUMP JUMPDEST PUSH2 0x14AB PUSH32 0xBCE846DAC16AF9BD0EF4B697818911C241765C867FCFEA12695B470510CD889C PUSH1 0x0 SHL PUSH2 0x1B7D JUMP JUMPDEST PUSH1 0x7 DUP2 LT ISZERO PUSH2 0x153E JUMPI PUSH2 0x14E0 PUSH32 0xE3811D8581CBCA19DC099981C99BD7EF4B70294E7DAFFCCF89EFE9C4878B0301 PUSH1 0x0 SHL PUSH2 0x1B7D JUMP JUMPDEST PUSH2 0x150C PUSH32 0xABEA48B3F22E1342783BF8A69DF1DD3623302E72792C7F44956F464B2344513B PUSH1 0x0 SHL PUSH2 0x1B7D JUMP JUMPDEST PUSH1 0x40 MLOAD PUSH32 0xA5124BF100000000000000000000000000000000000000000000000000000000 DUP2 MSTORE PUSH1 0x4 ADD PUSH1 0x40 MLOAD DUP1 SWAP2 SUB SWAP1 REVERT JUMPDEST PUSH2 0x156A PUSH32 0x9152F9A1422B22BD98188E44873880E498952F8E68D3E1BB274080A3D0714A8A PUSH1 0x0 SHL PUSH2 0x1B7D JUMP JUMPDEST PUSH2 0x1596 PUSH32 0x7365FC7614094A5CD25C2B55E57A07FB4EC69D3345813AEC83DD1696A5B8C9AA PUSH1 0x0 SHL PUSH2 0x1B7D JUMP JUMPDEST PUSH2 0x15C2 PUSH32 0xFE3A9F376C68F5FAB7D33131626C72A95749F4CDB905D8324F2CB57E87D97F48 PUSH1 0x0 SHL PUSH2 0x1B7D JUMP JUMPDEST PUSH1 0x6 PUSH1 0x0 DUP4 PUSH20 0xFFFFFFFFFFFFFFFFFFFFFFFFFFFFFFFFFFFFFFFF AND PUSH20 0xFFFFFFFFFFFFFFFFFFFFFFFFFFFFFFFFFFFFFFFF AND DUP2 MSTORE PUSH1 0x20 ADD SWAP1 DUP2 MSTORE PUSH1 0x20 ADD PUSH1 0x0 KECCAK256 PUSH1 0x0 SWAP1 SLOAD SWAP1 PUSH2 0x100 EXP SWAP1 DIV PUSH1 0xFF AND PUSH2 0x16A8 JUMPI PUSH2 0x163F PUSH32 0x8B894458213E85E7360955F229E656DB71952F11CFFB54CF23E8F7CD8C2E8377 PUSH1 0x0 SHL PUSH2 0x1B7D JUMP JUMPDEST PUSH2 0x166B PUSH32 0x9CDDB0C177B522A7694A6253F17D8245674F285121FA2B1AAA4B741CC94753BB PUSH1 0x0 SHL PUSH2 0x1B7D JUMP JUMPDEST DUP2 PUSH1 0x40 MLOAD PUSH32 0xD141F98600000000000000000000000000000000000000000000000000000000 DUP2 MSTORE PUSH1 0x4 ADD PUSH2 0x169F SWAP2 SWAP1 PUSH2 0x298E JUMP JUMPDEST PUSH1 0x40 MLOAD DUP1 SWAP2 SUB SWAP1 REVERT JUMPDEST PUSH2 0x16D4 PUSH32 0x7E600AEA8A3B95B2792F714A811699FCDAFBBB2893A7393E9BEEE02642752496 PUSH1 0x0 SHL PUSH2 0x1B7D JUMP JUMPDEST PUSH2 0x1700 PUSH32 0x2075603338C87C00FCE38E51DD708C19246524A8BF3BED069E65BC730AEF3B16 PUSH1 0x0 SHL PUSH2 0x1B7D JUMP JUMPDEST PUSH2 0x172C PUSH32 0xA60B839E4E3023AC304F2D03D858250B905D388F8632C04CE7D89283CD2BA45D PUSH1 0x0 SHL PUSH2 0x1B7D JUMP JUMPDEST PUSH1 0x0 PUSH1 0x6 PUSH1 0x0 DUP5 PUSH20 0xFFFFFFFFFFFFFFFFFFFFFFFFFFFFFFFFFFFFFFFF AND PUSH20 0xFFFFFFFFFFFFFFFFFFFFFFFFFFFFFFFFFFFFFFFF AND DUP2 MSTORE PUSH1 0x20 ADD SWAP1 DUP2 MSTORE PUSH1 0x20 ADD PUSH1 0x0 KECCAK256 PUSH1 0x0 PUSH2 0x100 EXP DUP2 SLOAD DUP2 PUSH1 0xFF MUL NOT AND SWAP1 DUP4 ISZERO ISZERO MUL OR SWAP1 SSTORE POP POP POP JUMP JUMPDEST PUSH1 0x60 PUSH2 0x17B6 PUSH32 0x2AB4FAB67EB79D446AE486DB2FFBA8ECCEBB6835742E1EBF7B82B727F10AA7A0 PUSH1 0x0 SHL PUSH2 0x1B7D JUMP JUMPDEST PUSH2 0x17E2 PUSH32 0x19D78FE81EF434B2EB23FFACB978928C64D2756B0CD29E7D3118B48B648F2EBC PUSH1 0x0 SHL PUSH2 0x1B7D JUMP JUMPDEST PUSH2 0x180E PUSH32 0x72A22FE6FEB645E231C6EBC7461328BFE66243DBD1355AF25030CFFE57CAFBF4 PUSH1 0x0 SHL PUSH2 0x1B7D JUMP JUMPDEST PUSH1 0xA PUSH1 0x0 CALLER PUSH20 0xFFFFFFFFFFFFFFFFFFFFFFFFFFFFFFFFFFFFFFFF AND PUSH20 0xFFFFFFFFFFFFFFFFFFFFFFFFFFFFFFFFFFFFFFFF AND DUP2 MSTORE PUSH1 0x20 ADD SWAP1 DUP2 MSTORE PUSH1 0x20 ADD PUSH1 0x0 KECCAK256 DUP1 SLOAD PUSH2 0x1858 SWAP1 PUSH2 0x2BE3 JUMP JUMPDEST DUP1 PUSH1 0x1F ADD PUSH1 0x20 DUP1 SWAP2 DIV MUL PUSH1 0x20 ADD PUSH1 0x40 MLOAD SWAP1 DUP2 ADD PUSH1 0x40 MSTORE DUP1 SWAP3 SWAP2 SWAP1 DUP2 DUP2 MSTORE PUSH1 0x20 ADD DUP3 DUP1 SLOAD PUSH2 0x1884 SWAP1 PUSH2 0x2BE3 JUMP JUMPDEST DUP1 ISZERO PUSH2 0x18D1 JUMPI DUP1 PUSH1 0x1F LT PUSH2 0x18A6 JUMPI PUSH2 0x100 DUP1 DUP4 SLOAD DIV MUL DUP4 MSTORE SWAP2 PUSH1 0x20 ADD SWAP2 PUSH2 0x18D1 JUMP JUMPDEST DUP3 ADD SWAP2 SWAP1 PUSH1 0x0 MSTORE PUSH1 0x20 PUSH1 0x0 KECCAK256 SWAP1 JUMPDEST DUP2 SLOAD DUP2 MSTORE SWAP1 PUSH1 0x1 ADD SWAP1 PUSH1 0x20 ADD DUP1 DUP4 GT PUSH2 0x18B4 JUMPI DUP3 SWAP1 SUB PUSH1 0x1F AND DUP3 ADD SWAP2 JUMPDEST POP POP POP POP POP SWAP1 POP SWAP1 JUMP JUMPDEST PUSH1 0x60 PUSH2 0x1909 PUSH32 0x951317631F126A56E86BF83C89BC29A657E4FB2E91745CD99EC18E10A65F4B5A PUSH1 0x0 SHL PUSH2 0x1B7D JUMP JUMPDEST PUSH2 0x1935 PUSH32 0xABBA283B7C7B426D8EB217B8CC440B929DE057C1B712E0A9AB6A449D2FF17111 PUSH1 0x0 SHL PUSH2 0x1B7D JUMP JUMPDEST PUSH2 0x1961 PUSH32 0x919C0C3800CF94C74500BA3E18D82D56BE31EA7E9353518D7BD9104396826595 PUSH1 0x0 SHL PUSH2 0x1B7D JUMP JUMPDEST PUSH1 0x9 PUSH1 0x0 CALLER PUSH20 0xFFFFFFFFFFFFFFFFFFFFFFFFFFFFFFFFFFFFFFFF AND PUSH20 0xFFFFFFFFFFFFFFFFFFFFFFFFFFFFFFFFFFFFFFFF AND DUP2 MSTORE PUSH1 0x20 ADD SWAP1 DUP2 MSTORE PUSH1 0x20 ADD PUSH1 0x0 KECCAK256 DUP1 SLOAD PUSH2 0x19AB SWAP1 PUSH2 0x2BE3 JUMP JUMPDEST DUP1 PUSH1 0x1F ADD PUSH1 0x20 DUP1 SWAP2 DIV MUL PUSH1 0x20 ADD PUSH1 0x40 MLOAD SWAP1 DUP2 ADD PUSH1 0x40 MSTORE DUP1 SWAP3 SWAP2 SWAP1 DUP2 DUP2 MSTORE PUSH1 0x20 ADD DUP3 DUP1 SLOAD PUSH2 0x19D7 SWAP1 PUSH2 0x2BE3 JUMP JUMPDEST DUP1 ISZERO PUSH2 0x1A24 JUMPI DUP1 PUSH1 0x1F LT PUSH2 0x19F9 JUMPI PUSH2 0x100 DUP1 DUP4 SLOAD DIV MUL DUP4 MSTORE SWAP2 PUSH1 0x20 ADD SWAP2 PUSH2 0x1A24 JUMP JUMPDEST DUP3 ADD SWAP2 SWAP1 PUSH1 0x0 MSTORE PUSH1 0x20 PUSH1 0x0 KECCAK256 SWAP1 JUMPDEST DUP2 SLOAD DUP2 MSTORE SWAP1 PUSH1 0x1 ADD SWAP1 PUSH1 0x20 ADD DUP1 DUP4 GT PUSH2 0x1A07 JUMPI DUP3 SWAP1 SUB PUSH1 0x1F AND DUP3 ADD SWAP2 JUMPDEST POP POP POP POP POP SWAP1 POP SWAP1 JUMP JUMPDEST PUSH1 0x0 PUSH2 0x1A5C PUSH32 0x91C59DCB437B551916F2E2EF87AB772FDB78569E60429F81361BB62414ABF088 PUSH1 0x0 SHL PUSH2 0x1B7D JUMP JUMPDEST PUSH2 0x1A88 PUSH32 0x1192599E79FBE539B0DBAD5BA64299BAD6DA5E1DE83515FCA00B52A2C7AE846C PUSH1 0x0 SHL PUSH2 0x1B7D JUMP JUMPDEST PUSH2 0x1AB4 PUSH32 0x4012C33689830BF380134C222A93F726456C71C68EBBB2609126E46431C89D4D PUSH1 0x0 SHL PUSH2 0x1B7D JUMP JUMPDEST PUSH1 0x4 PUSH1 0x0 CALLER PUSH20 0xFFFFFFFFFFFFFFFFFFFFFFFFFFFFFFFFFFFFFFFF AND PUSH20 0xFFFFFFFFFFFFFFFFFFFFFFFFFFFFFFFFFFFFFFFF AND DUP2 MSTORE PUSH1 0x20 ADD SWAP1 DUP2 MSTORE PUSH1 0x20 ADD PUSH1 0x0 KECCAK256 SLOAD SWAP1 POP SWAP1 JUMP JUMPDEST PUSH2 0x1B01 PUSH2 0x1B80 JUMP JUMPDEST PUSH1 0x0 PUSH20 0xFFFFFFFFFFFFFFFFFFFFFFFFFFFFFFFFFFFFFFFF AND DUP2 PUSH20 0xFFFFFFFFFFFFFFFFFFFFFFFFFFFFFFFFFFFFFFFF AND EQ ISZERO PUSH2 0x1B71 JUMPI PUSH1 0x40 MLOAD PUSH32 0x8C379A000000000000000000000000000000000000000000000000000000000 DUP2 MSTORE PUSH1 0x4 ADD PUSH2 0x1B68 SWAP1 PUSH2 0x2CE7 JUMP JUMPDEST PUSH1 0x40 MLOAD DUP1 SWAP2 SUB SWAP1 REVERT JUMPDEST PUSH2 0x1B7A DUP2 PUSH2 0x1BFE JUMP JUMPDEST POP JUMP JUMPDEST POP JUMP JUMPDEST PUSH2 0x1B88 PUSH2 0x25E3 JUMP JUMPDEST PUSH20 0xFFFFFFFFFFFFFFFFFFFFFFFFFFFFFFFFFFFFFFFF AND PUSH2 0x1BA6 PUSH2 0xF34 JUMP JUMPDEST PUSH20 0xFFFFFFFFFFFFFFFFFFFFFFFFFFFFFFFFFFFFFFFF AND EQ PUSH2 0x1BFC JUMPI PUSH1 0x40 MLOAD PUSH32 0x8C379A000000000000000000000000000000000000000000000000000000000 DUP2 MSTORE PUSH1 0x4 ADD PUSH2 0x1BF3 SWAP1 PUSH2 0x2D53 JUMP JUMPDEST PUSH1 0x40 MLOAD DUP1 SWAP2 SUB SWAP1 REVERT JUMPDEST JUMP JUMPDEST PUSH1 0x0 DUP1 PUSH1 0x0 SWAP1 SLOAD SWAP1 PUSH2 0x100 EXP SWAP1 DIV PUSH20 0xFFFFFFFFFFFFFFFFFFFFFFFFFFFFFFFFFFFFFFFF AND SWAP1 POP DUP2 PUSH1 0x0 DUP1 PUSH2 0x100 EXP DUP2 SLOAD DUP2 PUSH20 0xFFFFFFFFFFFFFFFFFFFFFFFFFFFFFFFFFFFFFFFF MUL NOT AND SWAP1 DUP4 PUSH20 0xFFFFFFFFFFFFFFFFFFFFFFFFFFFFFFFFFFFFFFFF AND MUL OR SWAP1 SSTORE POP DUP2 PUSH20 0xFFFFFFFFFFFFFFFFFFFFFFFFFFFFFFFFFFFFFFFF AND DUP2 PUSH20 0xFFFFFFFFFFFFFFFFFFFFFFFFFFFFFFFFFFFFFFFF AND PUSH32 0x8BE0079C531659141344CD1FD0A4F28419497F9722A3DAAFE3B4186F6B6457E0 PUSH1 0x40 MLOAD PUSH1 0x40 MLOAD DUP1 SWAP2 SUB SWAP1 LOG3 POP POP JUMP JUMPDEST PUSH2 0x1CEE PUSH32 0xE9DCCC56CA60697D24DB1A9337E5FB16A7FF922F8B16694536FE23A54A41557C PUSH1 0x0 SHL PUSH2 0x1B7D JUMP JUMPDEST PUSH2 0x1D1A PUSH32 0xF6606631A623D997AE7D97B1A814F99A0D054112702DB82D26CE06C128713044 PUSH1 0x0 SHL PUSH2 0x1B7D JUMP JUMPDEST PUSH2 0x1D46 PUSH32 0x4369278E75AA4DE739E67C94B437836F43088814C91F2F2D663EAFC084294EAB PUSH1 0x0 SHL PUSH2 0x1B7D JUMP JUMPDEST PUSH1 0x64 PUSH1 0x5 PUSH1 0x0 DUP4 PUSH20 0xFFFFFFFFFFFFFFFFFFFFFFFFFFFFFFFFFFFFFFFF AND PUSH20 0xFFFFFFFFFFFFFFFFFFFFFFFFFFFFFFFFFFFFFFFF AND DUP2 MSTORE PUSH1 0x20 ADD SWAP1 DUP2 MSTORE PUSH1 0x20 ADD PUSH1 0x0 KECCAK256 SLOAD LT ISZERO PUSH2 0x1E30 JUMPI PUSH2 0x1DBA PUSH32 0xF6DF9E2E81F56DFCED4D831F32F09DD105F2B194F1FA98F79D4D2422C5A3AFB9 PUSH1 0x0 SHL PUSH2 0x1B7D JUMP JUMPDEST PUSH2 0x1DE6 PUSH32 0xA0210C9B0159736DCE5DFE18EA5325592E09FCDD11ED4060607E166B7F97CB94 PUSH1 0x0 SHL PUSH2 0x1B7D JUMP JUMPDEST PUSH1 0x0 PUSH1 0x4 PUSH1 0x0 DUP4 PUSH20 0xFFFFFFFFFFFFFFFFFFFFFFFFFFFFFFFFFFFFFFFF AND PUSH20 0xFFFFFFFFFFFFFFFFFFFFFFFFFFFFFFFFFFFFFFFF AND DUP2 MSTORE PUSH1 0x20 ADD SWAP1 DUP2 MSTORE PUSH1 0x20 ADD PUSH1 0x0 KECCAK256 DUP2 SWAP1 SSTORE POP PUSH2 0x25E0 JUMP JUMPDEST PUSH2 0x1E5C PUSH32 0x8D626BF238F035399AC316AD82BDDA7EA0E802FD0012B560F6CC9E7D3AB8F3D1 PUSH1 0x0 SHL PUSH2 0x1B7D JUMP JUMPDEST PUSH2 0x1E88 PUSH32 0xB8C58710CCC53714D6F18991E42F115B6FD7367147AE5391880A198118884C10 PUSH1 0x0 SHL PUSH2 0x1B7D JUMP JUMPDEST PUSH1 0x64 PUSH1 0x5 PUSH1 0x0 DUP4 PUSH20 0xFFFFFFFFFFFFFFFFFFFFFFFFFFFFFFFFFFFFFFFF AND PUSH20 0xFFFFFFFFFFFFFFFFFFFFFFFFFFFFFFFFFFFFFFFF AND DUP2 MSTORE PUSH1 0x20 ADD SWAP1 DUP2 MSTORE PUSH1 0x20 ADD PUSH1 0x0 KECCAK256 SLOAD LT ISZERO DUP1 ISZERO PUSH2 0x1F17 JUMPI POP PUSH1 0xC8 PUSH1 0x5 PUSH1 0x0 DUP4 PUSH20 0xFFFFFFFFFFFFFFFFFFFFFFFFFFFFFFFFFFFFFFFF AND PUSH20 0xFFFFFFFFFFFFFFFFFFFFFFFFFFFFFFFFFFFFFFFF AND DUP2 MSTORE PUSH1 0x20 ADD SWAP1 DUP2 MSTORE PUSH1 0x20 ADD PUSH1 0x0 KECCAK256 SLOAD LT JUMPDEST ISZERO PUSH2 0x1FBE JUMPI PUSH2 0x1F48 PUSH32 0x6E3778E3D1355C03AEDC1D8194DAAADFA9CB64BA4977A336119EABE24B23B140 PUSH1 0x0 SHL PUSH2 0x1B7D JUMP JUMPDEST PUSH2 0x1F74 PUSH32 0xC764E50B5690B7D47BB3F8A7AE45F461BEA14E662FFA77D3F59942C17093D623 PUSH1 0x0 SHL PUSH2 0x1B7D JUMP JUMPDEST PUSH1 0x1 PUSH1 0x4 PUSH1 0x0 DUP4 PUSH20 0xFFFFFFFFFFFFFFFFFFFFFFFFFFFFFFFFFFFFFFFF AND PUSH20 0xFFFFFFFFFFFFFFFFFFFFFFFFFFFFFFFFFFFFFFFF AND DUP2 MSTORE PUSH1 0x20 ADD SWAP1 DUP2 MSTORE PUSH1 0x20 ADD PUSH1 0x0 KECCAK256 DUP2 SWAP1 SSTORE POP PUSH2 0x25DF JUMP JUMPDEST PUSH2 0x1FEA PUSH32 0x6BEF4AE69A42629F0BC47824750351092F8FE72C38F1C9DEFC0A8AA9AA698E92 PUSH1 0x0 SHL PUSH2 0x1B7D JUMP JUMPDEST PUSH2 0x2016 PUSH32 0x2D25164C3999D6F8059A83B82DCBA01C421A27CFF08FC9B0F7024E1363686C7E PUSH1 0x0 SHL PUSH2 0x1B7D JUMP JUMPDEST PUSH1 0xC8 PUSH1 0x5 PUSH1 0x0 DUP4 PUSH20 0xFFFFFFFFFFFFFFFFFFFFFFFFFFFFFFFFFFFFFFFF AND PUSH20 0xFFFFFFFFFFFFFFFFFFFFFFFFFFFFFFFFFFFFFFFF AND DUP2 MSTORE PUSH1 0x20 ADD SWAP1 DUP2 MSTORE PUSH1 0x20 ADD PUSH1 0x0 KECCAK256 SLOAD LT ISZERO DUP1 ISZERO PUSH2 0x20A6 JUMPI POP PUSH2 0x12C PUSH1 0x5 PUSH1 0x0 DUP4 PUSH20 0xFFFFFFFFFFFFFFFFFFFFFFFFFFFFFFFFFFFFFFFF AND PUSH20 0xFFFFFFFFFFFFFFFFFFFFFFFFFFFFFFFFFFFFFFFF AND DUP2 MSTORE PUSH1 0x20 ADD SWAP1 DUP2 MSTORE PUSH1 0x20 ADD PUSH1 0x0 KECCAK256 SLOAD LT JUMPDEST ISZERO PUSH2 0x214D JUMPI PUSH2 0x20D7 PUSH32 0x65AB888D681535A79E1DE1E72E3E47E217B2A243A49E824416F3A2DCF42B61A4 PUSH1 0x0 SHL PUSH2 0x1B7D JUMP JUMPDEST PUSH2 0x2103 PUSH32 0xE8C7F7B59B5E75D0DBB5F77AC55762738D7C045BF8FEA170AE53E21BC9DA1723 PUSH1 0x0 SHL PUSH2 0x1B7D JUMP JUMPDEST PUSH1 0x2 PUSH1 0x4 PUSH1 0x0 DUP4 PUSH20 0xFFFFFFFFFFFFFFFFFFFFFFFFFFFFFFFFFFFFFFFF AND PUSH20 0xFFFFFFFFFFFFFFFFFFFFFFFFFFFFFFFFFFFFFFFF AND DUP2 MSTORE PUSH1 0x20 ADD SWAP1 DUP2 MSTORE PUSH1 0x20 ADD PUSH1 0x0 KECCAK256 DUP2 SWAP1 SSTORE POP PUSH2 0x25DE JUMP JUMPDEST PUSH2 0x2179 PUSH32 0xD2BD70EC34B921C0B7D003F3FEF3DC395481616BDDDEE32E068B199960A487C5 PUSH1 0x0 SHL PUSH2 0x1B7D JUMP JUMPDEST PUSH2 0x21A5 PUSH32 0x3D1202AB73CD97AD1794B2F2BF46768A2FF004A00782D2C8C4FBDB98D457F62 PUSH1 0x0 SHL PUSH2 0x1B7D JUMP JUMPDEST PUSH2 0x12C PUSH1 0x5 PUSH1 0x0 DUP4 PUSH20 0xFFFFFFFFFFFFFFFFFFFFFFFFFFFFFFFFFFFFFFFF AND PUSH20 0xFFFFFFFFFFFFFFFFFFFFFFFFFFFFFFFFFFFFFFFF AND DUP2 MSTORE PUSH1 0x20 ADD SWAP1 DUP2 MSTORE PUSH1 0x20 ADD PUSH1 0x0 KECCAK256 SLOAD LT ISZERO DUP1 ISZERO PUSH2 0x2236 JUMPI POP PUSH2 0x190 PUSH1 0x5 PUSH1 0x0 DUP4 PUSH20 0xFFFFFFFFFFFFFFFFFFFFFFFFFFFFFFFFFFFFFFFF AND PUSH20 0xFFFFFFFFFFFFFFFFFFFFFFFFFFFFFFFFFFFFFFFF AND DUP2 MSTORE PUSH1 0x20 ADD SWAP1 DUP2 MSTORE PUSH1 0x20 ADD PUSH1 0x0 KECCAK256 SLOAD LT JUMPDEST ISZERO PUSH2 0x22DD JUMPI PUSH2 0x2267 PUSH32 0xFCDF4C81C0CDC9569789D3BB6EDD1D61CE35FEC35906A4E2FEFDC87398CDCB82 PUSH1 0x0 SHL PUSH2 0x1B7D JUMP JUMPDEST PUSH2 0x2293 PUSH32 0xDD63976F93DFF65C2751D9CC656D449EEF1EB2C120115FE8A243653A71B518F2 PUSH1 0x0 SHL PUSH2 0x1B7D JUMP JUMPDEST PUSH1 0x3 PUSH1 0x4 PUSH1 0x0 DUP4 PUSH20 0xFFFFFFFFFFFFFFFFFFFFFFFFFFFFFFFFFFFFFFFF AND PUSH20 0xFFFFFFFFFFFFFFFFFFFFFFFFFFFFFFFFFFFFFFFF AND DUP2 MSTORE PUSH1 0x20 ADD SWAP1 DUP2 MSTORE PUSH1 0x20 ADD PUSH1 0x0 KECCAK256 DUP2 SWAP1 SSTORE POP PUSH2 0x25DD JUMP JUMPDEST PUSH2 0x2309 PUSH32 0x8BF6870630D6A3F978C012DC417F35B729BC49AA2E8BE7009120EAFEFDBE3332 PUSH1 0x0 SHL PUSH2 0x1B7D JUMP JUMPDEST PUSH2 0x2335 PUSH32 0x98B250248B0CAA417EAD4F4FD517EC331914121D8B2CA6493BCA655B6CBFED12 PUSH1 0x0 SHL PUSH2 0x1B7D JUMP JUMPDEST PUSH2 0x190 PUSH1 0x5 PUSH1 0x0 DUP4 PUSH20 0xFFFFFFFFFFFFFFFFFFFFFFFFFFFFFFFFFFFFFFFF AND PUSH20 0xFFFFFFFFFFFFFFFFFFFFFFFFFFFFFFFFFFFFFFFF AND DUP2 MSTORE PUSH1 0x20 ADD SWAP1 DUP2 MSTORE PUSH1 0x20 ADD PUSH1 0x0 KECCAK256 SLOAD LT ISZERO DUP1 ISZERO PUSH2 0x23C6 JUMPI POP PUSH2 0x1F4 PUSH1 0x5 PUSH1 0x0 DUP4 PUSH20 0xFFFFFFFFFFFFFFFFFFFFFFFFFFFFFFFFFFFFFFFF AND PUSH20 0xFFFFFFFFFFFFFFFFFFFFFFFFFFFFFFFFFFFFFFFF AND DUP2 MSTORE PUSH1 0x20 ADD SWAP1 DUP2 MSTORE PUSH1 0x20 ADD PUSH1 0x0 KECCAK256 SLOAD LT JUMPDEST ISZERO PUSH2 0x246C JUMPI PUSH2 0x23F7 PUSH32 0xD508090D6D549A0B81A3B884C03B3438AF6209DCFB2457B9BA78928705D291C PUSH1 0x0 SHL PUSH2 0x1B7D JUMP JUMPDEST PUSH2 0x2423 PUSH32 0xEB4950F5A88A1B0C63319BEED5185EAF4152D9EE18C78BA7197BDF8A356A1B31 PUSH1 0x0 SHL PUSH2 0x1B7D JUMP JUMPDEST PUSH1 0x4 DUP1 PUSH1 0x0 DUP4 PUSH20 0xFFFFFFFFFFFFFFFFFFFFFFFFFFFFFFFFFFFFFFFF AND PUSH20 0xFFFFFFFFFFFFFFFFFFFFFFFFFFFFFFFFFFFFFFFF AND DUP2 MSTORE PUSH1 0x20 ADD SWAP1 DUP2 MSTORE PUSH1 0x20 ADD PUSH1 0x0 KECCAK256 DUP2 SWAP1 SSTORE POP PUSH2 0x25DC JUMP JUMPDEST PUSH2 0x2498 PUSH32 0xFC9E7F3A5BB4C8C8F3908E7A8D1BF3A8BEB8470E6986618C5D19DE7BB37F2FEB PUSH1 0x0 SHL PUSH2 0x1B7D JUMP JUMPDEST PUSH2 0x24C4 PUSH32 0x50EB89B8BA209D7483291285FB7D4C3F055C60AA080A96CFBBE999BB007B4A1B PUSH1 0x0 SHL PUSH2 0x1B7D JUMP JUMPDEST PUSH2 0x1F4 PUSH1 0x5 PUSH1 0x0 DUP4 PUSH20 0xFFFFFFFFFFFFFFFFFFFFFFFFFFFFFFFFFFFFFFFF AND PUSH20 0xFFFFFFFFFFFFFFFFFFFFFFFFFFFFFFFFFFFFFFFF AND DUP2 MSTORE PUSH1 0x20 ADD SWAP1 DUP2 MSTORE PUSH1 0x20 ADD PUSH1 0x0 KECCAK256 SLOAD LT PUSH2 0x25AE JUMPI PUSH2 0x2538 PUSH32 0xB8631B6FCBC91DAC2BD574D8BCE43DA8EE3215856DF57A708ABB02E480169E94 PUSH1 0x0 SHL PUSH2 0x1B7D JUMP JUMPDEST PUSH2 0x2564 PUSH32 0x9947C270752B368B0D5B716C56D9669875853A77E5987AEDFF1F621D25951A7D PUSH1 0x0 SHL PUSH2 0x1B7D JUMP JUMPDEST PUSH1 0x5 PUSH1 0x4 PUSH1 0x0 DUP4 PUSH20 0xFFFFFFFFFFFFFFFFFFFFFFFFFFFFFFFFFFFFFFFF AND PUSH20 0xFFFFFFFFFFFFFFFFFFFFFFFFFFFFFFFFFFFFFFFF AND DUP2 MSTORE PUSH1 0x20 ADD SWAP1 DUP2 MSTORE PUSH1 0x20 ADD PUSH1 0x0 KECCAK256 DUP2 SWAP1 SSTORE POP PUSH2 0x25DB JUMP JUMPDEST PUSH2 0x25DA PUSH32 0x8EAE625F09B30D06E1FACA62A0F699E72945FFAD5B998C419C35EFDD32A08856 PUSH1 0x0 SHL PUSH2 0x1B7D JUMP JUMPDEST JUMPDEST JUMPDEST JUMPDEST JUMPDEST JUMPDEST JUMPDEST POP JUMP JUMPDEST PUSH1 0x0 CALLER SWAP1 POP SWAP1 JUMP JUMPDEST DUP3 DUP1 SLOAD PUSH2 0x25F7 SWAP1 PUSH2 0x2BE3 JUMP JUMPDEST SWAP1 PUSH1 0x0 MSTORE PUSH1 0x20 PUSH1 0x0 KECCAK256 SWAP1 PUSH1 0x1F ADD PUSH1 0x20 SWAP1 DIV DUP2 ADD SWAP3 DUP3 PUSH2 0x2619 JUMPI PUSH1 0x0 DUP6 SSTORE PUSH2 0x2660 JUMP JUMPDEST DUP3 PUSH1 0x1F LT PUSH2 0x2632 JUMPI DUP1 MLOAD PUSH1 0xFF NOT AND DUP4 DUP1 ADD OR DUP6 SSTORE PUSH2 0x2660 JUMP JUMPDEST DUP3 DUP1 ADD PUSH1 0x1 ADD DUP6 SSTORE DUP3 ISZERO PUSH2 0x2660 JUMPI SWAP2 DUP3 ADD JUMPDEST DUP3 DUP2 GT ISZERO PUSH2 0x265F JUMPI DUP3 MLOAD DUP3 SSTORE SWAP2 PUSH1 0x20 ADD SWAP2 SWAP1 PUSH1 0x1 ADD SWAP1 PUSH2 0x2644 JUMP JUMPDEST JUMPDEST POP SWAP1 POP PUSH2 0x266D SWAP2 SWAP1 PUSH2 0x2671 JUMP JUMPDEST POP SWAP1 JUMP JUMPDEST JUMPDEST DUP1 DUP3 GT ISZERO PUSH2 0x268A JUMPI PUSH1 0x0 DUP2 PUSH1 0x0 SWAP1 SSTORE POP PUSH1 0x1 ADD PUSH2 0x2672 JUMP JUMPDEST POP SWAP1 JUMP JUMPDEST PUSH1 0x0 PUSH1 0x40 MLOAD SWAP1 POP SWAP1 JUMP JUMPDEST PUSH1 0x0 DUP1 REVERT JUMPDEST PUSH1 0x0 DUP1 REVERT JUMPDEST PUSH1 0x0 PUSH20 0xFFFFFFFFFFFFFFFFFFFFFFFFFFFFFFFFFFFFFFFF DUP3 AND SWAP1 POP SWAP2 SWAP1 POP JUMP JUMPDEST PUSH1 0x0 PUSH2 0x26CD DUP3 PUSH2 0x26A2 JUMP JUMPDEST SWAP1 POP SWAP2 SWAP1 POP JUMP JUMPDEST PUSH2 0x26DD DUP2 PUSH2 0x26C2 JUMP JUMPDEST DUP2 EQ PUSH2 0x26E8 JUMPI PUSH1 0x0 DUP1 REVERT JUMPDEST POP JUMP JUMPDEST PUSH1 0x0 DUP2 CALLDATALOAD SWAP1 POP PUSH2 0x26FA DUP2 PUSH2 0x26D4 JUMP JUMPDEST SWAP3 SWAP2 POP POP JUMP JUMPDEST PUSH1 0x0 PUSH1 0x20 DUP3 DUP5 SUB SLT ISZERO PUSH2 0x2716 JUMPI PUSH2 0x2715 PUSH2 0x2698 JUMP JUMPDEST JUMPDEST PUSH1 0x0 PUSH2 0x2724 DUP5 DUP3 DUP6 ADD PUSH2 0x26EB JUMP JUMPDEST SWAP2 POP POP SWAP3 SWAP2 POP POP JUMP JUMPDEST PUSH1 0x0 DUP2 ISZERO ISZERO SWAP1 POP SWAP2 SWAP1 POP JUMP JUMPDEST PUSH2 0x2742 DUP2 PUSH2 0x272D JUMP JUMPDEST DUP3 MSTORE POP POP JUMP JUMPDEST PUSH1 0x0 PUSH1 0x20 DUP3 ADD SWAP1 POP PUSH2 0x275D PUSH1 0x0 DUP4 ADD DUP5 PUSH2 0x2739 JUMP JUMPDEST SWAP3 SWAP2 POP POP JUMP JUMPDEST PUSH1 0x0 DUP1 REVERT JUMPDEST PUSH1 0x0 DUP1 REVERT JUMPDEST PUSH1 0x0 PUSH1 0x1F NOT PUSH1 0x1F DUP4 ADD AND SWAP1 POP SWAP2 SWAP1 POP JUMP JUMPDEST PUSH32 0x4E487B7100000000000000000000000000000000000000000000000000000000 PUSH1 0x0 MSTORE PUSH1 0x41 PUSH1 0x4 MSTORE PUSH1 0x24 PUSH1 0x0 REVERT JUMPDEST PUSH2 0x27B6 DUP3 PUSH2 0x276D JUMP JUMPDEST DUP2 ADD DUP2 DUP2 LT PUSH8 0xFFFFFFFFFFFFFFFF DUP3 GT OR ISZERO PUSH2 0x27D5 JUMPI PUSH2 0x27D4 PUSH2 0x277E JUMP JUMPDEST JUMPDEST DUP1 PUSH1 0x40 MSTORE POP POP POP JUMP JUMPDEST PUSH1 0x0 PUSH2 0x27E8 PUSH2 0x268E JUMP JUMPDEST SWAP1 POP PUSH2 0x27F4 DUP3 DUP3 PUSH2 0x27AD JUMP JUMPDEST SWAP2 SWAP1 POP JUMP JUMPDEST PUSH1 0x0 PUSH8 0xFFFFFFFFFFFFFFFF DUP3 GT ISZERO PUSH2 0x2814 JUMPI PUSH2 0x2813 PUSH2 0x277E JUMP JUMPDEST JUMPDEST PUSH2 0x281D DUP3 PUSH2 0x276D JUMP JUMPDEST SWAP1 POP PUSH1 0x20 DUP2 ADD SWAP1 POP SWAP2 SWAP1 POP JUMP JUMPDEST DUP3 DUP2 DUP4 CALLDATACOPY PUSH1 0x0 DUP4 DUP4 ADD MSTORE POP POP POP JUMP JUMPDEST PUSH1 0x0 PUSH2 0x284C PUSH2 0x2847 DUP5 PUSH2 0x27F9 JUMP JUMPDEST PUSH2 0x27DE JUMP JUMPDEST SWAP1 POP DUP3 DUP2 MSTORE PUSH1 0x20 DUP2 ADD DUP5 DUP5 DUP5 ADD GT ISZERO PUSH2 0x2868 JUMPI PUSH2 0x2867 PUSH2 0x2768 JUMP JUMPDEST JUMPDEST PUSH2 0x2873 DUP5 DUP3 DUP6 PUSH2 0x282A JUMP JUMPDEST POP SWAP4 SWAP3 POP POP POP JUMP JUMPDEST PUSH1 0x0 DUP3 PUSH1 0x1F DUP4 ADD SLT PUSH2 0x2890 JUMPI PUSH2 0x288F PUSH2 0x2763 JUMP JUMPDEST JUMPDEST DUP2 CALLDATALOAD PUSH2 0x28A0 DUP5 DUP3 PUSH1 0x20 DUP7 ADD PUSH2 0x2839 JUMP JUMPDEST SWAP2 POP POP SWAP3 SWAP2 POP POP JUMP JUMPDEST PUSH1 0x0 PUSH1 0x20 DUP3 DUP5 SUB SLT ISZERO PUSH2 0x28BF JUMPI PUSH2 0x28BE PUSH2 0x2698 JUMP JUMPDEST JUMPDEST PUSH1 0x0 DUP3 ADD CALLDATALOAD PUSH8 0xFFFFFFFFFFFFFFFF DUP2 GT ISZERO PUSH2 0x28DD JUMPI PUSH2 0x28DC PUSH2 0x269D JUMP JUMPDEST JUMPDEST PUSH2 0x28E9 DUP5 DUP3 DUP6 ADD PUSH2 0x287B JUMP JUMPDEST SWAP2 POP POP SWAP3 SWAP2 POP POP JUMP JUMPDEST PUSH1 0x0 DUP2 SWAP1 POP SWAP2 SWAP1 POP JUMP JUMPDEST PUSH2 0x2905 DUP2 PUSH2 0x28F2 JUMP JUMPDEST DUP2 EQ PUSH2 0x2910 JUMPI PUSH1 0x0 DUP1 REVERT JUMPDEST POP JUMP JUMPDEST PUSH1 0x0 DUP2 CALLDATALOAD SWAP1 POP PUSH2 0x2922 DUP2 PUSH2 0x28FC JUMP JUMPDEST SWAP3 SWAP2 POP POP JUMP JUMPDEST PUSH1 0x0 PUSH1 0x20 DUP3 DUP5 SUB SLT ISZERO PUSH2 0x293E JUMPI PUSH2 0x293D PUSH2 0x2698 JUMP JUMPDEST JUMPDEST PUSH1 0x0 PUSH2 0x294C DUP5 DUP3 DUP6 ADD PUSH2 0x2913 JUMP JUMPDEST SWAP2 POP POP SWAP3 SWAP2 POP POP JUMP JUMPDEST PUSH2 0x295E DUP2 PUSH2 0x28F2 JUMP JUMPDEST DUP3 MSTORE POP POP JUMP JUMPDEST PUSH1 0x0 PUSH1 0x20 DUP3 ADD SWAP1 POP PUSH2 0x2979 PUSH1 0x0 DUP4 ADD DUP5 PUSH2 0x2955 JUMP JUMPDEST SWAP3 SWAP2 POP POP JUMP JUMPDEST PUSH2 0x2988 DUP2 PUSH2 0x26C2 JUMP JUMPDEST DUP3 MSTORE POP POP JUMP JUMPDEST PUSH1 0x0 PUSH1 0x20 DUP3 ADD SWAP1 POP PUSH2 0x29A3 PUSH1 0x0 DUP4 ADD DUP5 PUSH2 0x297F JUMP JUMPDEST SWAP3 SWAP2 POP POP JUMP JUMPDEST PUSH1 0x0 DUP2 MLOAD SWAP1 POP SWAP2 SWAP1 POP JUMP JUMPDEST PUSH1 0x0 DUP3 DUP3 MSTORE PUSH1 0x20 DUP3 ADD SWAP1 POP SWAP3 SWAP2 POP POP JUMP JUMPDEST PUSH1 0x0 JUMPDEST DUP4 DUP2 LT ISZERO PUSH2 0x29E3 JUMPI DUP1 DUP3 ADD MLOAD DUP2 DUP5 ADD MSTORE PUSH1 0x20 DUP2 ADD SWAP1 POP PUSH2 0x29C8 JUMP JUMPDEST DUP4 DUP2 GT ISZERO PUSH2 0x29F2 JUMPI PUSH1 0x0 DUP5 DUP5 ADD MSTORE JUMPDEST POP POP POP POP JUMP JUMPDEST PUSH1 0x0 PUSH2 0x2A03 DUP3 PUSH2 0x29A9 JUMP JUMPDEST PUSH2 0x2A0D DUP2 DUP6 PUSH2 0x29B4 JUMP JUMPDEST SWAP4 POP PUSH2 0x2A1D DUP2 DUP6 PUSH1 0x20 DUP7 ADD PUSH2 0x29C5 JUMP JUMPDEST PUSH2 0x2A26 DUP2 PUSH2 0x276D JUMP JUMPDEST DUP5 ADD SWAP2 POP POP SWAP3 SWAP2 POP POP JUMP JUMPDEST PUSH1 0x0 PUSH1 0x20 DUP3 ADD SWAP1 POP DUP2 DUP2 SUB PUSH1 0x0 DUP4 ADD MSTORE PUSH2 0x2A4B DUP2 DUP5 PUSH2 0x29F8 JUMP JUMPDEST SWAP1 POP SWAP3 SWAP2 POP POP JUMP JUMPDEST PUSH1 0x0 DUP1 PUSH1 0x40 DUP4 DUP6 SUB SLT ISZERO PUSH2 0x2A6A JUMPI PUSH2 0x2A69 PUSH2 0x2698 JUMP JUMPDEST JUMPDEST PUSH1 0x0 PUSH2 0x2A78 DUP6 DUP3 DUP7 ADD PUSH2 0x26EB JUMP JUMPDEST SWAP3 POP POP PUSH1 0x20 PUSH2 0x2A89 DUP6 DUP3 DUP7 ADD PUSH2 0x2913 JUMP JUMPDEST SWAP2 POP POP SWAP3 POP SWAP3 SWAP1 POP JUMP JUMPDEST PUSH1 0x0 DUP2 SWAP1 POP SWAP3 SWAP2 POP POP JUMP JUMPDEST PUSH1 0x0 PUSH2 0x2AA9 DUP3 PUSH2 0x29A9 JUMP JUMPDEST PUSH2 0x2AB3 DUP2 DUP6 PUSH2 0x2A93 JUMP JUMPDEST SWAP4 POP PUSH2 0x2AC3 DUP2 DUP6 PUSH1 0x20 DUP7 ADD PUSH2 0x29C5 JUMP JUMPDEST DUP1 DUP5 ADD SWAP2 POP POP SWAP3 SWAP2 POP POP JUMP JUMPDEST PUSH1 0x0 PUSH2 0x2ADB DUP3 DUP5 PUSH2 0x2A9E JUMP JUMPDEST SWAP2 POP DUP2 SWAP1 POP SWAP3 SWAP2 POP POP JUMP JUMPDEST PUSH32 0x4E487B7100000000000000000000000000000000000000000000000000000000 PUSH1 0x0 MSTORE PUSH1 0x11 PUSH1 0x4 MSTORE PUSH1 0x24 PUSH1 0x0 REVERT JUMPDEST PUSH1 0x0 PUSH2 0x2B20 DUP3 PUSH2 0x28F2 JUMP JUMPDEST SWAP2 POP PUSH2 0x2B2B DUP4 PUSH2 0x28F2 JUMP JUMPDEST SWAP3 POP DUP3 PUSH32 0xFFFFFFFFFFFFFFFFFFFFFFFFFFFFFFFFFFFFFFFFFFFFFFFFFFFFFFFFFFFFFFFF SUB DUP3 GT ISZERO PUSH2 0x2B60 JUMPI PUSH2 0x2B5F PUSH2 0x2AE6 JUMP JUMPDEST JUMPDEST DUP3 DUP3 ADD SWAP1 POP SWAP3 SWAP2 POP POP JUMP JUMPDEST PUSH1 0x0 PUSH2 0x2B76 DUP3 PUSH2 0x28F2 JUMP JUMPDEST SWAP2 POP PUSH32 0xFFFFFFFFFFFFFFFFFFFFFFFFFFFFFFFFFFFFFFFFFFFFFFFFFFFFFFFFFFFFFFFF DUP3 EQ ISZERO PUSH2 0x2BA9 JUMPI PUSH2 0x2BA8 PUSH2 0x2AE6 JUMP JUMPDEST JUMPDEST PUSH1 0x1 DUP3 ADD SWAP1 POP SWAP2 SWAP1 POP JUMP JUMPDEST PUSH32 0x4E487B7100000000000000000000000000000000000000000000000000000000 PUSH1 0x0 MSTORE PUSH1 0x22 PUSH1 0x4 MSTORE PUSH1 0x24 PUSH1 0x0 REVERT JUMPDEST PUSH1 0x0 PUSH1 0x2 DUP3 DIV SWAP1 POP PUSH1 0x1 DUP3 AND DUP1 PUSH2 0x2BFB JUMPI PUSH1 0x7F DUP3 AND SWAP2 POP JUMPDEST PUSH1 0x20 DUP3 LT DUP2 EQ ISZERO PUSH2 0x2C0F JUMPI PUSH2 0x2C0E PUSH2 0x2BB4 JUMP JUMPDEST JUMPDEST POP SWAP2 SWAP1 POP JUMP JUMPDEST PUSH32 0x4E487B7100000000000000000000000000000000000000000000000000000000 PUSH1 0x0 MSTORE PUSH1 0x12 PUSH1 0x4 MSTORE PUSH1 0x24 PUSH1 0x0 REVERT JUMPDEST PUSH1 0x0 PUSH2 0x2C4F DUP3 PUSH2 0x28F2 JUMP JUMPDEST SWAP2 POP PUSH2 0x2C5A DUP4 PUSH2 0x28F2 JUMP JUMPDEST SWAP3 POP DUP3 PUSH2 0x2C6A JUMPI PUSH2 0x2C69 PUSH2 0x2C15 JUMP JUMPDEST JUMPDEST DUP3 DUP3 DIV SWAP1 POP SWAP3 SWAP2 POP POP JUMP JUMPDEST PUSH32 0x4F776E61626C653A206E6577206F776E657220697320746865207A65726F2061 PUSH1 0x0 DUP3 ADD MSTORE PUSH32 0x6464726573730000000000000000000000000000000000000000000000000000 PUSH1 0x20 DUP3 ADD MSTORE POP JUMP JUMPDEST PUSH1 0x0 PUSH2 0x2CD1 PUSH1 0x26 DUP4 PUSH2 0x29B4 JUMP JUMPDEST SWAP2 POP PUSH2 0x2CDC DUP3 PUSH2 0x2C75 JUMP JUMPDEST PUSH1 0x40 DUP3 ADD SWAP1 POP SWAP2 SWAP1 POP JUMP JUMPDEST PUSH1 0x0 PUSH1 0x20 DUP3 ADD SWAP1 POP DUP2 DUP2 SUB PUSH1 0x0 DUP4 ADD MSTORE PUSH2 0x2D00 DUP2 PUSH2 0x2CC4 JUMP JUMPDEST SWAP1 POP SWAP2 SWAP1 POP JUMP JUMPDEST PUSH32 0x4F776E61626C653A2063616C6C6572206973206E6F7420746865206F776E6572 PUSH1 0x0 DUP3 ADD MSTORE POP JUMP JUMPDEST PUSH1 0x0 PUSH2 0x2D3D PUSH1 0x20 DUP4 PUSH2 0x29B4 JUMP JUMPDEST SWAP2 POP PUSH2 0x2D48 DUP3 PUSH2 0x2D07 JUMP JUMPDEST PUSH1 0x20 DUP3 ADD SWAP1 POP SWAP2 SWAP1 POP JUMP JUMPDEST PUSH1 0x0 PUSH1 0x20 DUP3 ADD SWAP1 POP DUP2 DUP2 SUB PUSH1 0x0 DUP4 ADD MSTORE PUSH2 0x2D6C DUP2 PUSH2 0x2D30 JUMP JUMPDEST SWAP1 POP SWAP2 SWAP1 POP JUMP INVALID LOG2 PUSH5 0x6970667358 0x22 SLT KECCAK256 BLOCKHASH SHL 0xE7 SWAP15 0xCF DUP3 0xAF 0xDB DUP2 0xC9 DUP3 PUSH28 0xCA6A051AEB45237AE25ED97CCA09525123D7B4B864736F6C63430008 ADDMOD STOP CALLER "},"gasEstimates":{"creation":{"codeDepositCost":"2337800","executionCost":"infinite","totalCost":"infinite"},"external":{"cancelEmbassador(address)":"infinite","checkEmbassador(address)":"infinite","evaluateOwner(uint256)":"infinite","getMyAddress()":"infinite","getMyLevel()":"infinite","getMyMail()":"infinite","getMyTelephone()":"infinite","getOwnerVotes()":"infinite","givePoints(address,uint256)":"infinite","makeEmbassador(address)":"infinite","owner()":"2611","renounceOwnership()":"30443","setMyAddress(string)":"infinite","setMyMail(string)":"infinite","setMyTelephone(string)":"infinite","transferOwnership(address)":"30835"},"internal":{"c_0x031cfbda(bytes32)":"11","updateLevel(address)":"infinite"}},"methodIdentifiers":{"cancelEmbassador(address)":"bbd4d97c","checkEmbassador(address)":"0374e1c2","evaluateOwner(uint256)":"67faca24","getMyAddress()":"9a166299","getMyLevel()":"ec9b4d14","getMyMail()":"cc016313","getMyTelephone()":"bc702429","getOwnerVotes()":"6e1223d4","givePoints(address,uint256)":"adb303d9","makeEmbassador(address)":"818a01e1","owner()":"8da5cb5b","renounceOwnership()":"715018a6","setMyAddress(string)":"1b1e39e8","setMyMail(string)":"08309a6f","setMyTelephone(string)":"a4eb88f8","transferOwnership(address)":"f2fde38b"}},"storageLayout":{"storage":[{"astId":1635,"contract":"contracts/Users.sol:Users","label":"_owner","offset":0,"slot":"0","type":"t_address"},{"astId":758,"contract":"contracts/Users.sol:Users","label":"_owner","offset":0,"slot":"1","type":"t_address"},{"astId":760,"contract":"contracts/Users.sol:Users","label":"ownerGrade","offset":0,"slot":"2","type":"t_uint256"},{"astId":762,"contract":"contracts/Users.sol:Users","label":"ownerVotes","offset":0,"slot":"3","type":"t_uint256"},{"astId":766,"contract":"contracts/Users.sol:Users","label":"userLevel","offset":0,"slot":"4","type":"t_mapping(t_address,t_uint256)"},{"astId":770,"contract":"contracts/Users.sol:Users","label":"userPoints","offset":0,"slot":"5","type":"t_mapping(t_address,t_uint256)"},{"astId":774,"contract":"contracts/Users.sol:Users","label":"isEmbassador","offset":0,"slot":"6","type":"t_mapping(t_address,t_bool)"},{"astId":778,"contract":"contracts/Users.sol:Users","label":"evaluatedOwner","offset":0,"slot":"7","type":"t_mapping(t_address,t_bool)"},{"astId":782,"contract":"contracts/Users.sol:Users","label":"userAddress","offset":0,"slot":"8","type":"t_mapping(t_address,t_string_storage)"},{"astId":786,"contract":"contracts/Users.sol:Users","label":"userMail","offset":0,"slot":"9","type":"t_mapping(t_address,t_string_storage)"},{"astId":790,"contract":"contracts/Users.sol:Users","label":"userTelephone","offset":0,"slot":"10","type":"t_mapping(t_address,t_string_storage)"}],"types":{"t_address":{"encoding":"inplace","label":"address","numberOfBytes":"20"},"t_bool":{"encoding":"inplace","label":"bool","numberOfBytes":"1"},"t_mapping(t_address,t_bool)":{"encoding":"mapping","key":"t_address","label":"mapping(address => bool)","numberOfBytes":"32","value":"t_bool"},"t_mapping(t_address,t_string_storage)":{"encoding":"mapping","key":"t_address","label":"mapping(address => string)","numberOfBytes":"32","value":"t_string_storage"},"t_mapping(t_address,t_uint256)":{"encoding":"mapping","key":"t_address","label":"mapping(address => uint256)","numberOfBytes":"32","value":"t_uint256"},"t_string_storage":{"encoding":"bytes","label":"string","numberOfBytes":"32"},"t_uint256":{"encoding":"inplace","label":"uint256","numberOfBytes":"32"}}},"userdoc":{"kind":"user","methods":{},"version":1}}}}