{
  "_format": "hh-sol-artifact-1",
  "contractName": "Shop",
  "sourceName": "contracts/Shop.sol",
  "abi": [
    {
      "inputs": [],
      "stateMutability": "nonpayable",
      "type": "constructor"
    },
    {
      "inputs": [
        {
          "internalType": "uint256",
          "name": "ownedItemId",
          "type": "uint256"
        }
      ],
      "name": "Shop__AlreadyOwner",
      "type": "error"
    },
    {
      "inputs": [
        {
          "internalType": "uint256",
          "name": "requiredPrice",
          "type": "uint256"
        }
      ],
      "name": "Shop__NotEnoughMoney",
      "type": "error"
    },
    {
      "inputs": [
        {
          "internalType": "uint256",
          "name": "notExistingId",
          "type": "uint256"
        }
      ],
      "name": "Shop__NotListed",
      "type": "error"
    },
    {
      "inputs": [
        {
          "internalType": "uint256",
          "name": "notOwnedItemId",
          "type": "uint256"
        }
      ],
      "name": "Shop__NotOwner",
      "type": "error"
    },
    {
      "inputs": [
        {
          "internalType": "address",
          "name": "",
          "type": "address"
        }
      ],
      "name": "Users__AlreadyEvaluated",
      "type": "error"
    },
    {
      "inputs": [],
      "name": "Users__NotAdmittedGrade",
      "type": "error"
    },
    {
      "inputs": [
        {
          "internalType": "address",
          "name": "",
          "type": "address"
        }
      ],
      "name": "Users__NotEmbassador",
      "type": "error"
    },
    {
      "inputs": [
        {
          "internalType": "address",
          "name": "",
          "type": "address"
        }
      ],
      "name": "Users__NotLevel5",
      "type": "error"
    },
    {
      "inputs": [],
      "name": "Users__OwnerNotAllowed",
      "type": "error"
    },
    {
      "anonymous": false,
      "inputs": [
        {
          "indexed": true,
          "internalType": "address",
          "name": "",
          "type": "address"
        },
        {
          "indexed": true,
          "internalType": "string",
          "name": "",
          "type": "string"
        }
      ],
      "name": "AddressWasSet",
      "type": "event"
    },
    {
      "anonymous": false,
      "inputs": [
        {
          "indexed": true,
          "internalType": "string",
          "name": "name",
          "type": "string"
        },
        {
          "indexed": true,
          "internalType": "address",
          "name": "buyer",
          "type": "address"
        },
        {
          "indexed": true,
          "internalType": "uint256",
          "name": "id",
          "type": "uint256"
        }
      ],
      "name": "ItemBought",
      "type": "event"
    },
    {
      "anonymous": false,
      "inputs": [
        {
          "indexed": true,
          "internalType": "string",
          "name": "name",
          "type": "string"
        },
        {
          "indexed": true,
          "internalType": "uint256",
          "name": "id",
          "type": "uint256"
        }
      ],
      "name": "ItemCancelled",
      "type": "event"
    },
    {
      "anonymous": false,
      "inputs": [
        {
          "indexed": true,
          "internalType": "string",
          "name": "name",
          "type": "string"
        },
        {
          "indexed": true,
          "internalType": "address",
          "name": "seller",
          "type": "address"
        },
        {
          "indexed": true,
          "internalType": "uint256",
          "name": "id",
          "type": "uint256"
        },
        {
          "indexed": false,
          "internalType": "uint256",
          "name": "price",
          "type": "uint256"
        }
      ],
      "name": "ItemListed",
      "type": "event"
    },
    {
      "anonymous": false,
      "inputs": [
        {
          "indexed": true,
          "internalType": "address",
          "name": "",
          "type": "address"
        },
        {
          "indexed": true,
          "internalType": "string",
          "name": "",
          "type": "string"
        }
      ],
      "name": "MailWasSet",
      "type": "event"
    },
    {
      "anonymous": false,
      "inputs": [
        {
          "indexed": true,
          "internalType": "address",
          "name": "previousOwner",
          "type": "address"
        },
        {
          "indexed": true,
          "internalType": "address",
          "name": "newOwner",
          "type": "address"
        }
      ],
      "name": "OwnershipTransferred",
      "type": "event"
    },
    {
      "anonymous": false,
      "inputs": [
        {
          "indexed": true,
          "internalType": "address",
          "name": "",
          "type": "address"
        },
        {
          "indexed": true,
          "internalType": "string",
          "name": "",
          "type": "string"
        }
      ],
      "name": "TelephoneWasSet",
      "type": "event"
    },
    {
      "inputs": [
        {
          "internalType": "uint256",
          "name": "_id",
          "type": "uint256"
        }
      ],
      "name": "buyItem",
      "outputs": [],
      "stateMutability": "payable",
      "type": "function"
    },
    {
      "inputs": [
        {
          "internalType": "address",
          "name": "_user",
          "type": "address"
        }
      ],
      "name": "cancelEmbassador",
      "outputs": [],
      "stateMutability": "nonpayable",
      "type": "function"
    },
    {
      "inputs": [
        {
          "internalType": "uint256",
          "name": "_id",
          "type": "uint256"
        }
      ],
      "name": "cancelItem",
      "outputs": [],
      "stateMutability": "nonpayable",
      "type": "function"
    },
    {
      "inputs": [
        {
          "internalType": "address",
          "name": "_user",
          "type": "address"
        }
      ],
      "name": "checkEmbassador",
      "outputs": [
        {
          "internalType": "bool",
          "name": "",
          "type": "bool"
        }
      ],
      "stateMutability": "view",
      "type": "function"
    },
    {
      "inputs": [
        {
          "internalType": "uint256",
          "name": "_grade",
          "type": "uint256"
        }
      ],
      "name": "evaluateOwner",
      "outputs": [],
      "stateMutability": "nonpayable",
      "type": "function"
    },
    {
      "inputs": [],
      "name": "getItemAmount",
      "outputs": [
        {
          "internalType": "uint256",
          "name": "",
          "type": "uint256"
        }
      ],
      "stateMutability": "view",
      "type": "function"
    },
    {
      "inputs": [
        {
          "internalType": "uint256",
          "name": "_position",
          "type": "uint256"
        }
      ],
      "name": "getListedItem",
      "outputs": [
        {
          "internalType": "string",
          "name": "",
          "type": "string"
        }
      ],
      "stateMutability": "view",
      "type": "function"
    },
    {
      "inputs": [],
      "name": "getMyAddress",
      "outputs": [
        {
          "internalType": "string",
          "name": "",
          "type": "string"
        }
      ],
      "stateMutability": "view",
      "type": "function"
    },
    {
      "inputs": [],
      "name": "getMyLevel",
      "outputs": [
        {
          "internalType": "uint256",
          "name": "",
          "type": "uint256"
        }
      ],
      "stateMutability": "view",
      "type": "function"
    },
    {
      "inputs": [],
      "name": "getMyMail",
      "outputs": [
        {
          "internalType": "string",
          "name": "",
          "type": "string"
        }
      ],
      "stateMutability": "view",
      "type": "function"
    },
    {
      "inputs": [],
      "name": "getMyTelephone",
      "outputs": [
        {
          "internalType": "string",
          "name": "",
          "type": "string"
        }
      ],
      "stateMutability": "view",
      "type": "function"
    },
    {
      "inputs": [],
      "name": "getOwnerVotes",
      "outputs": [
        {
          "internalType": "uint256",
          "name": "",
          "type": "uint256"
        }
      ],
      "stateMutability": "view",
      "type": "function"
    },
    {
      "inputs": [
        {
          "internalType": "address",
          "name": "_user",
          "type": "address"
        },
        {
          "internalType": "uint256",
          "name": "_points",
          "type": "uint256"
        }
      ],
      "name": "givePoints",
      "outputs": [],
      "stateMutability": "nonpayable",
      "type": "function"
    },
    {
      "inputs": [],
      "name": "itemAmount",
      "outputs": [
        {
          "internalType": "uint256",
          "name": "",
          "type": "uint256"
        }
      ],
      "stateMutability": "view",
      "type": "function"
    },
    {
      "inputs": [
        {
          "internalType": "uint256",
          "name": "",
          "type": "uint256"
        }
      ],
      "name": "itemList",
      "outputs": [
        {
          "internalType": "string",
          "name": "name",
          "type": "string"
        },
        {
          "internalType": "string",
          "name": "description",
          "type": "string"
        },
        {
          "internalType": "string",
          "name": "picture",
          "type": "string"
        },
        {
          "internalType": "uint256",
          "name": "id",
          "type": "uint256"
        },
        {
          "internalType": "address",
          "name": "owner",
          "type": "address"
        },
        {
          "internalType": "uint256",
          "name": "price",
          "type": "uint256"
        }
      ],
      "stateMutability": "view",
      "type": "function"
    },
    {
      "inputs": [
        {
          "internalType": "string",
          "name": "_name",
          "type": "string"
        },
        {
          "internalType": "string",
          "name": "_description",
          "type": "string"
        },
        {
          "internalType": "string",
          "name": "_picture",
          "type": "string"
        },
        {
          "internalType": "uint256",
          "name": "_price",
          "type": "uint256"
        }
      ],
      "name": "listItem",
      "outputs": [],
      "stateMutability": "nonpayable",
      "type": "function"
    },
    {
      "inputs": [
        {
          "internalType": "address",
          "name": "_user",
          "type": "address"
        }
      ],
      "name": "makeEmbassador",
      "outputs": [],
      "stateMutability": "nonpayable",
      "type": "function"
    },
    {
      "inputs": [],
      "name": "owner",
      "outputs": [
        {
          "internalType": "address",
          "name": "",
          "type": "address"
        }
      ],
      "stateMutability": "view",
      "type": "function"
    },
    {
      "inputs": [],
      "name": "renounceOwnership",
      "outputs": [],
      "stateMutability": "nonpayable",
      "type": "function"
    },
    {
      "inputs": [
        {
          "internalType": "string",
          "name": "_myAddress",
          "type": "string"
        }
      ],
      "name": "setMyAddress",
      "outputs": [],
      "stateMutability": "nonpayable",
      "type": "function"
    },
    {
      "inputs": [
        {
          "internalType": "string",
          "name": "_myMail",
          "type": "string"
        }
      ],
      "name": "setMyMail",
      "outputs": [],
      "stateMutability": "nonpayable",
      "type": "function"
    },
    {
      "inputs": [
        {
          "internalType": "string",
          "name": "_myTelephone",
          "type": "string"
        }
      ],
      "name": "setMyTelephone",
      "outputs": [],
      "stateMutability": "nonpayable",
      "type": "function"
    },
    {
      "inputs": [
        {
          "internalType": "address",
          "name": "newOwner",
          "type": "address"
        }
      ],
      "name": "transferOwnership",
      "outputs": [],
      "stateMutability": "nonpayable",
      "type": "function"
    }
  ],
  "bytecode": "0x60806040523480156200001157600080fd5b506200003262000026620001f260201b60201c565b620001fa60201b60201c565b620000667f675cae87c8a1bc8f337a070c1fce3227916a0a478189f262648aa918a08b915160001b620002be60201b60201c565b6200009a7f4da13821059c6b4cddb3b6e5b8ddb34dd89594f6bd01720ffd8590332e33016460001b620002be60201b60201c565b620000ce7f0ae3dc343e8151edf789b50c35de3c4bcd0f3aea3d8b9de53d340cf1ae04b5a260001b620002be60201b60201c565b33600160006101000a81548173ffffffffffffffffffffffffffffffffffffffff021916908373ffffffffffffffffffffffffffffffffffffffff160217905550620001437f8059b491ed86d687eb33ab4855addbfe316d6f68b1b21667c0c5b914456af6b960001b620002c160201b60201c565b620001777ff9feeca126bb07774734d09387130a5861eab468cf8a03c2dba0a6d08e4af25760001b620002c160201b60201c565b620001ab7f1cd6bbfe211a521014c39ff3d24c8b029f10dee73a23028a806155f2ba0413ee60001b620002c160201b60201c565b33600160006101000a81548173ffffffffffffffffffffffffffffffffffffffff021916908373ffffffffffffffffffffffffffffffffffffffff160217905550620002c4565b600033905090565b60008060009054906101000a900473ffffffffffffffffffffffffffffffffffffffff169050816000806101000a81548173ffffffffffffffffffffffffffffffffffffffff021916908373ffffffffffffffffffffffffffffffffffffffff1602179055508173ffffffffffffffffffffffffffffffffffffffff168173ffffffffffffffffffffffffffffffffffffffff167f8be0079c531659141344cd1fd0a4f28419497f9722a3daafe3b4186f6b6457e060405160405180910390a35050565b50565b50565b61488f80620002d46000396000f3fe6080604052600436106101405760003560e01c80638da5cb5b116100b6578063c03735611161006f578063c037356114610437578063cc01631314610462578063d65274c91461048d578063e7fb74c7146104b6578063ec9b4d14146104d2578063f2fde38b146104fd57610140565b80638da5cb5b1461033b5780639a16629914610366578063a4eb88f814610391578063adb303d9146103ba578063bbd4d97c146103e3578063bc7024291461040c57610140565b806351563f8e1161010857806351563f8e1461024157806367faca241461026a5780636e1223d414610293578063715018a6146102be5780637655abc8146102d5578063818a01e11461031257610140565b80630374e1c21461014557806308309a6f14610182578063134053a6146101ab5780631b1e39e8146101d65780633d4d3600146101ff575b600080fd5b34801561015157600080fd5b5061016c60048036038101906101679190613f23565b610526565b6040516101799190613f6b565b60405180910390f35b34801561018e57600080fd5b506101a960048036038101906101a491906140cc565b610600565b005b3480156101b757600080fd5b506101c061078c565b6040516101cd919061412e565b60405180910390f35b3480156101e257600080fd5b506101fd60048036038101906101f891906140cc565b61081a565b005b34801561020b57600080fd5b5061022660048036038101906102219190614175565b6109a6565b60405161023896959493929190614239565b60405180910390f35b34801561024d57600080fd5b5061026860048036038101906102639190614175565b610baa565b005b34801561027657600080fd5b50610291600480360381019061028c9190614175565b6110a4565b005b34801561029f57600080fd5b506102a861162a565b6040516102b5919061412e565b60405180910390f35b3480156102ca57600080fd5b506102d36116b8565b005b3480156102e157600080fd5b506102fc60048036038101906102f79190614175565b6116cc565b60405161030991906142af565b60405180910390f35b34801561031e57600080fd5b5061033960048036038101906103349190613f23565b611823565b005b34801561034757600080fd5b50610350611a6a565b60405161035d91906142d1565b60405180910390f35b34801561037257600080fd5b5061037b611a93565b60405161038891906142af565b60405180910390f35b34801561039d57600080fd5b506103b860048036038101906103b391906140cc565b611be6565b005b3480156103c657600080fd5b506103e160048036038101906103dc91906142ec565b611d72565b005b3480156103ef57600080fd5b5061040a60048036038101906104059190613f23565b611ee9565b005b34801561041857600080fd5b506104216122be565b60405161042e91906142af565b60405180910390f35b34801561044357600080fd5b5061044c612411565b604051610459919061412e565b60405180910390f35b34801561046e57600080fd5b50610477612417565b60405161048491906142af565b60405180910390f35b34801561049957600080fd5b506104b460048036038101906104af919061432c565b61256a565b005b6104d060048036038101906104cb9190614175565b61282d565b005b3480156104de57600080fd5b506104e761320e565b6040516104f4919061412e565b60405180910390f35b34801561050957600080fd5b50610524600480360381019061051f9190613f23565b6132d9565b005b60006105547f7cc75704f78d4af0161627de45da3dd03b65989173dd0e313c6b1b5bf6ecd19360001b61335d565b6105807f62dda847388a111b5ea42d1efea8e8484d27f35b6cff17df984b0121fa1ea2d860001b61335d565b6105ac7f3aabfa31b93ce855c0d252e3cce92b5a72c3ecfb4d8ffd69d3e30dd58e2e5b2260001b61335d565b600660008373ffffffffffffffffffffffffffffffffffffffff1673ffffffffffffffffffffffffffffffffffffffff16815260200190815260200160002060009054906101000a900460ff169050919050565b61062c7fbb3a3131f12f71a5c713c231565a2cfa84e3aaffb4e5677d56de0f10ad09841360001b61335d565b6106587f4f86eae510f55bfdf06b5f4de84f723983135aed8cba665234a452de5114bef860001b61335d565b6106847fdc03516a822c6e62326f0263dd3c5850b5751ddb2effb69f65000b9e4d33272960001b61335d565b80600960003373ffffffffffffffffffffffffffffffffffffffff1673ffffffffffffffffffffffffffffffffffffffff16815260200190815260200160002090805190602001906106d7929190613dce565b506107047f919b0d86f8ec5918e64507cfe99ad81393fd3e77ba8ef8a756841b1223f3e26d60001b61335d565b6107307fa0a81ae3e3398bdcbd23e7e752a44cccceca8f8d01fca0b38308965f4ce0b9c960001b61335d565b8060405161073e9190614423565b60405180910390203373ffffffffffffffffffffffffffffffffffffffff167fa58cbc2d3fc0880739836e4603b53162415106cbe246519f687d635cb98de46960405160405180910390a350565b60006107ba7f79354d0f73c5e3d0b33b05e39259220c9ffd1eb3de41a04f758cde5836277b0260001b613360565b6107e67f94e56dbb171fb3367f074ea208478c3498e9e18a3036962ebace8f441068b3b860001b613360565b6108127f7acfdcf60afb2ff875b595be13b57e65e0b27797f9a17718c3b83910cbf395bc60001b613360565b600c54905090565b6108467f7ee4dec7d08f2fbc7b39511f8950b75fd18dc54768c5a961a0cb3cb44b330d7360001b61335d565b6108727f0d95c03fd27371e903c035d6c412db715eafacfa1128a17f337c55feb207dc9e60001b61335d565b61089e7f078d8ea605ae0048606db256f78abc5670db91d5412cf4f4f0c4aa2993be8a3160001b61335d565b80600860003373ffffffffffffffffffffffffffffffffffffffff1673ffffffffffffffffffffffffffffffffffffffff16815260200190815260200160002090805190602001906108f1929190613dce565b5061091e7f510eacb43a7d6d1de19251b2502d32045e2d0366037312444b8d8af5275a9c4460001b61335d565b61094a7fec8dcfce2b205ce132cd8ca90cb1db848dffb1609a1050e763c486bf41c0760860001b61335d565b806040516109589190614423565b60405180910390203373ffffffffffffffffffffffffffffffffffffffff167f7c628b061e272b7258a02ac185c3f3c805bf87461e54b741885a169d7ae39cce60405160405180910390a350565b600b81815481106109b657600080fd5b90600052602060002090600602016000915090508060000180546109d990614469565b80601f0160208091040260200160405190810160405280929190818152602001828054610a0590614469565b8015610a525780601f10610a2757610100808354040283529160200191610a52565b820191906000526020600020905b815481529060010190602001808311610a3557829003601f168201915b505050505090806001018054610a6790614469565b80601f0160208091040260200160405190810160405280929190818152602001828054610a9390614469565b8015610ae05780601f10610ab557610100808354040283529160200191610ae0565b820191906000526020600020905b815481529060010190602001808311610ac357829003601f168201915b505050505090806002018054610af590614469565b80601f0160208091040260200160405190810160405280929190818152602001828054610b2190614469565b8015610b6e5780601f10610b4357610100808354040283529160200191610b6e565b820191906000526020600020905b815481529060010190602001808311610b5157829003601f168201915b5050505050908060030154908060040160009054906101000a900473ffffffffffffffffffffffffffffffffffffffff16908060050154905086565b80610bd77f9465c16a288568b90a39115d3d3eb15305c43fe6b70b60ab0ac6630d590425c060001b613360565b610c037f9c398ef1a0addf5be55dc3724aed418fd90405ec0f0f031b720a1c42a711bc4f60001b613360565b610c2f7f813e599e382e6cb92d46c741c9ddcd72e64effd5bc16e778c2477ad58290c24f60001b613360565b600b805490508110610cd057610c677fa03bd4366ff54ab45a3d74433993b31db4e74c5669c8b29c8acdaa9873b11aac60001b613360565b610c937fbd9042ff855d27b4750c514c54c2e169ad334fb9fd322ec812664fb3255b056260001b613360565b806040517fae08efde000000000000000000000000000000000000000000000000000000008152600401610cc7919061412e565b60405180910390fd5b610cfc7f4b13f1e945469c66e662c55de4d3c65aa5d7d3ca31844005a95696a2dbc4fe8160001b613360565b610d287f9a7a15b631f8fd10c4b4ad504bb08742b3a92ae66308b02eb360a04931cc199c60001b613360565b610d547fb5f0d42e32ea933a15514c8d9e0abe7e73c766ffd44cd8cd0ddbe2ebd3c8b1d760001b613360565b610d807f8e61811a89abeda29d3e3e778a0fde8ee78f5a12e2142fc5ecbc277c7fb9eb0260001b613360565b610dac7fa744718e5319fae05fad033dab7cff7ab76b380b84552cac8483363a993f1c2260001b613360565b3373ffffffffffffffffffffffffffffffffffffffff16600b8381548110610dd757610dd661449b565b5b906000526020600020906006020160040160009054906101000a900473ffffffffffffffffffffffffffffffffffffffff1673ffffffffffffffffffffffffffffffffffffffff1614610eb957610e507f3c00fabd47d0162eae6fd79d2af65a885ab6757d7ae41a4eafe2c3296c69ed8d60001b613360565b610e7c7f21311d025133639d4725cacde86e34b6d53be0e1e59be4768da6e6f625cd422560001b613360565b816040517feef61d50000000000000000000000000000000000000000000000000000000008152600401610eb0919061412e565b60405180910390fd5b610ee57f839be3c1b1109b91dbc08ebc8a7517c0c40dc96a847a9c9de293a9e51242d87360001b613360565b610f117fdd4a57cdbd40dbe5189dbf903131092466cfe031175d672482d26313e778075560001b613360565b600c6000815480929190610f24906144f9565b9190505550610f557f88b2c97ea3b714a78452f5edf104ed1cfff851727af8b8c04f494c754bada32660001b613360565b610f817f1c8900d111dc5708377879a0face822904e523c6c15bc6f860b426878092686960001b613360565b81600b8381548110610f9657610f9561449b565b5b9060005260206000209060060201600001604051610fb491906145b7565b60405180910390207f701c7939e3d5a81feb6e3335b60cd139d6e7a836571174de8587de079fb5b70c60405160405180910390a36110147f2b46e529bf0eb49cbeeb190b40b8f0c4d80d854eaf55d46db15fd491704cd95960001b613360565b600b82815481106110285761102761449b565b5b9060005260206000209060060201600080820160006110479190613e54565b6001820160006110579190613e54565b6002820160006110679190613e54565b60038201600090556004820160006101000a81549073ffffffffffffffffffffffffffffffffffffffff0219169055600582016000905550505050565b6110d07f42607466aac1417b69168d4e7f252a1e69b28334fa784169f5018b41d27f6f2460001b61335d565b6110fc7fdcbad97780ccfce527619c95e277110cdb501292bc62674a209d27adc2e7680560001b61335d565b6111287f761d5a8b6b7df8d48236e5b9ff96ae3425702bc31ee2b4606c942ba3499ea2db60001b61335d565b600660003373ffffffffffffffffffffffffffffffffffffffff1673ffffffffffffffffffffffffffffffffffffffff16815260200190815260200160002060009054906101000a900460ff1661120e576111a57f0629953d3c41183d2a7c55ad28fd6c1a6250998af0b826722c3fc819812cf9b660001b61335d565b6111d17f18b3fbebea46127981ae60b3456c86b204ac7a36a2887a0845c9352aa895951a60001b61335d565b336040517fd141f98600000000000000000000000000000000000000000000000000000000815260040161120591906142d1565b60405180910390fd5b61123a7f74428effc60474dc60e3987cb93e268b4e2c0f862a2da9ca9acb9a3d8b49939c60001b61335d565b6112667fbdcc0e84427de6cc3a4e54b48f099ed0080c7da9933644e3f9c3e432355230eb60001b61335d565b6112927f203766e944a742f8f0817a3f0d369351049bbaa9093545fad4a146b9994c3f0960001b61335d565b600760003373ffffffffffffffffffffffffffffffffffffffff1673ffffffffffffffffffffffffffffffffffffffff16815260200190815260200160002060009054906101000a900460ff1615611379576113107f87b6e5aa0b303ef6e5efc05d577ed14695ca7c6cba13df67ef17149b1ab6126060001b61335d565b61133c7f4a533c468c545ff3810ff619d2935f30551601115b0115adc4c4cd93ad37de2360001b61335d565b336040517f60a704b400000000000000000000000000000000000000000000000000000000815260040161137091906142d1565b60405180910390fd5b6113a57fd3e47c5c0787901bd0c24823314523815bb91cb3b7e51c04b649196f78c0c28d60001b61335d565b6113d17f5d73beb7e5de4660fac634206c64c996000e70c53307fb61720edf4f44eab3f460001b61335d565b6113fd7f0372e368cdd1a0ed88e515eae80acb1f3009ac3166188dbaf061d474db43647b60001b61335d565b600081108061140c5750600a81115b1561149b5761143d7fbf755e4bb763cf37b0147e2feb37d8023051e13e88837a5ab22f36c7bb62559460001b61335d565b6114697fb76c1584c51284096a75a4b6973b79c9cdace51683c84f4cdd16403d471d826860001b61335d565b6040517fa0f45cb600000000000000000000000000000000000000000000000000000000815260040160405180910390fd5b6114c77f359bb255741f7f5ce345d5d21cd0a801c231bffbe55203780d4554e9ce073d7d60001b61335d565b6114f37f43276a2438011574c56e2741fec741ff34e62c8b5eba8b4d79338b575016b83e60001b61335d565b61151f7f91a67fcfc3156006e3c5621e11fbcc9bf1107efdb83ee471e569126e14b5ccab60001b61335d565b6001600760003373ffffffffffffffffffffffffffffffffffffffff1673ffffffffffffffffffffffffffffffffffffffff16815260200190815260200160002060006101000a81548160ff0219169083151502179055506115a37fedd1f3451c02264451126d6b188b2fe36001920948c61d6ce2666f7e240145c460001b61335d565b6115cf7fe8444679dc7bec120f89cadecf1acdcdcd8240345b243015ea8b89602d0c5daf60001b61335d565b806002546115dd91906145ce565b60028190555061160f7fc1ee7a76a77d0c4e2fbfb7889d02014e9d2b456734e42bd6563225693f8f28e960001b61335d565b6003600081548092919061162290614624565b919050555050565b60006116587f7472d49cf76e4c16de1dc665c1efbb730281f83e48c89ecef8225d776db6d8b560001b61335d565b6116847f5c62f396fbb673b4663d17d579f90cc50e2cb8d2e8bdee48b73fbe5cb9d28dac60001b61335d565b6116b07fd5385e9d745d4863d76721aeb970328a1ce5658593f1825ae7eaf2fd800ed42960001b61335d565b600354905090565b6116c0613363565b6116ca60006133e1565b565b60606116fa7f38090cbd967e53d6781a7091f5c994a9c1d7c5c1927038e1eb293502519f15c960001b613360565b6117267f2aba7a932b51e157021fb2312091252904adab82474531bb77c9e1309ab8447360001b613360565b6117527fa77672c3582da0241f1c53f426cc360c7bcffd337814ee1afb4f9519caf4c5da60001b613360565b600b600183600b80549050611767919061466d565b611771919061466d565b815481106117825761178161449b565b5b9060005260206000209060060201600001805461179e90614469565b80601f01602080910402602001604051908101604052809291908181526020018280546117ca90614469565b80156118175780601f106117ec57610100808354040283529160200191611817565b820191906000526020600020905b8154815290600101906020018083116117fa57829003601f168201915b50505050509050919050565b61182b613363565b6118577fc20387937713e607df397f6a784f530a7ea80049aa069d605d915585a83f687460001b61335d565b6118837fe0349a5c9427f6a7df01f8eebba5a25837d22315d56269c76d27ba03673181c760001b61335d565b6118af7fcd78497f8a7842492e3915facca7359fefb7fa6659fc27f37dd96376c2eda7af60001b61335d565b6005600460008373ffffffffffffffffffffffffffffffffffffffff1673ffffffffffffffffffffffffffffffffffffffff168152602001908152602001600020541461198b576119227fd2da44d61a4b4c088d3b2bdde4547753b9b1ec6b5d378fd4dd3c49cf0cc587c860001b61335d565b61194e7f51f002e55df470f602c612cb535be56e729acf180383ae69051f88157b871e3660001b61335d565b806040517faf90c65200000000000000000000000000000000000000000000000000000000815260040161198291906142d1565b60405180910390fd5b6119b77f421302ba49b19e97e94149dfeea00a5b5de179aaa7983431a6f554f8a18475ce60001b61335d565b6119e37f1d8efc786ca1a00573681451e29c0ec03018fa1efdf7b382ba0e392aaa8647d760001b61335d565b611a0f7f75ec9799584cbae3f07ce13dad919018b5ee6fadcd5b56613ebdce7d4af2bbb860001b61335d565b6001600660008373ffffffffffffffffffffffffffffffffffffffff1673ffffffffffffffffffffffffffffffffffffffff16815260200190815260200160002060006101000a81548160ff02191690831515021790555050565b60008060009054906101000a900473ffffffffffffffffffffffffffffffffffffffff16905090565b6060611ac17fd4e8f21eb4941ff98330c97100ea74ef5d5c3271fc41f86b13ac5c984951a71c60001b61335d565b611aed7ff5bf0ff9709654acc9bc58c64c4a29eb73d883ccd753770d037a66651dc03dab60001b61335d565b611b197f9c300a467f20a659cb0fb429094fc10204c29caf7f3a4964b6f0e0851176097f60001b61335d565b600860003373ffffffffffffffffffffffffffffffffffffffff1673ffffffffffffffffffffffffffffffffffffffff1681526020019081526020016000208054611b6390614469565b80601f0160208091040260200160405190810160405280929190818152602001828054611b8f90614469565b8015611bdc5780601f10611bb157610100808354040283529160200191611bdc565b820191906000526020600020905b815481529060010190602001808311611bbf57829003601f168201915b5050505050905090565b611c127f7183fa704cc570dbd39248ba6169d77ab37c330ff2368a772a091383ee24788e60001b61335d565b611c3e7fb09cd72325c9ed009cd504a1f00a5bf3b44534093c662a40f3e23ca2fab79f9960001b61335d565b611c6a7f924b39036a3f7dcf002d1195bdcebe0484a016117cec10d89fe79530c1b3fa7160001b61335d565b80600a60003373ffffffffffffffffffffffffffffffffffffffff1673ffffffffffffffffffffffffffffffffffffffff1681526020019081526020016000209080519060200190611cbd929190613dce565b50611cea7fd15d17d25c56fc84e03366c57f59b766f14a310fdc59488d22e45883ff3bf2e160001b61335d565b611d167ff5f1d0b34620da312404ae3908095427d2e57e98522334be456d6f7409efd19c60001b61335d565b80604051611d249190614423565b60405180910390203373ffffffffffffffffffffffffffffffffffffffff167ff1bfcc87ef5b48f65c55ba6bc830a7964faa23a6f8ef22f4fe324b472dad11f860405160405180910390a350565b611d9e7f80214d72d042780366a0e7f2c9471ae54014f35c7ac5f10937e293070687168a60001b61335d565b611dca7fdbe0f62cee9e977bd37a4b4408c3834281995f0c55b51e456ab02a1c43b32e1460001b61335d565b611df67fa8e719967be802fc8a2640cdf73bf18811bed72623d5e0ab56bb5d0caccccb1960001b61335d565b80600560008473ffffffffffffffffffffffffffffffffffffffff1673ffffffffffffffffffffffffffffffffffffffff16815260200190815260200160002054611e4191906145ce565b600560008473ffffffffffffffffffffffffffffffffffffffff1673ffffffffffffffffffffffffffffffffffffffff16815260200190815260200160002081905550611eb07f50aaf2f0f43bf85aa80b9335f5fd301b1f5f7958b988acb485c79141ed1e1af060001b61335d565b611edc7ff1f23f45970c0b85fe190fb2a3edc9941a9f2e2787df7bbccb6b00d25b38b3c560001b61335d565b611ee5826134a5565b5050565b611ef1613363565b611f1d7f755046a19be54076260df17b72c9a0ebb59ac82e85c6a19e5cd4d02cd964cf2b60001b61335d565b611f497f6dcd97ea535219d4264bfaa961bde802fc8c4d67af248f641365b3a4f992fa3c60001b61335d565b611f757f4fb493336c128e4c9f6d184c552e0b74002ec161867ccecf3a76718d5707459460001b61335d565b6000600354600254611f8791906146d0565b9050611fb57f0bc12a59eb993b24215055cb6813686b526180c82c5f9b0c1ab105b5ae75e40460001b61335d565b611fe17fbce846dac16af9bd0ef4b697818911c241765c867fcfea12695b470510cd889c60001b61335d565b6007811015612074576120167fe3811d8581cbca19dc099981c99bd7ef4b70294e7daffccf89efe9c4878b030160001b61335d565b6120427fabea48b3f22e1342783bf8a69df1dd3623302e72792c7f44956f464b2344513b60001b61335d565b6040517fa5124bf100000000000000000000000000000000000000000000000000000000815260040160405180910390fd5b6120a07f9152f9a1422b22bd98188e44873880e498952f8e68d3e1bb274080a3d0714a8a60001b61335d565b6120cc7f7365fc7614094a5cd25c2b55e57a07fb4ec69d3345813aec83dd1696a5b8c9aa60001b61335d565b6120f87ffe3a9f376c68f5fab7d33131626c72a95749f4cdb905d8324f2cb57e87d97f4860001b61335d565b600660008373ffffffffffffffffffffffffffffffffffffffff1673ffffffffffffffffffffffffffffffffffffffff16815260200190815260200160002060009054906101000a900460ff166121de576121757f8b894458213e85e7360955f229e656db71952f11cffb54cf23e8f7cd8c2e837760001b61335d565b6121a17f9cddb0c177b522a7694a6253f17d8245674f285121fa2b1aaa4b741cc94753bb60001b61335d565b816040517fd141f9860000000000000000000000000000000000000000000000000000000081526004016121d591906142d1565b60405180910390fd5b61220a7f7e600aea8a3b95b2792f714a811699fcdafbbb2893a7393e9beee0264275249660001b61335d565b6122367f2075603338c87c00fce38e51dd708c19246524a8bf3bed069e65bc730aef3b1660001b61335d565b6122627fa60b839e4e3023ac304f2d03d858250b905d388f8632c04ce7d89283cd2ba45d60001b61335d565b6000600660008473ffffffffffffffffffffffffffffffffffffffff1673ffffffffffffffffffffffffffffffffffffffff16815260200190815260200160002060006101000a81548160ff0219169083151502179055505050565b60606122ec7f2ab4fab67eb79d446ae486db2ffba8eccebb6835742e1ebf7b82b727f10aa7a060001b61335d565b6123187f19d78fe81ef434b2eb23ffacb978928c64d2756b0cd29e7d3118b48b648f2ebc60001b61335d565b6123447f72a22fe6feb645e231c6ebc7461328bfe66243dbd1355af25030cffe57cafbf460001b61335d565b600a60003373ffffffffffffffffffffffffffffffffffffffff1673ffffffffffffffffffffffffffffffffffffffff168152602001908152602001600020805461238e90614469565b80601f01602080910402602001604051908101604052809291908181526020018280546123ba90614469565b80156124075780601f106123dc57610100808354040283529160200191612407565b820191906000526020600020905b8154815290600101906020018083116123ea57829003601f168201915b5050505050905090565b600c5481565b60606124457f951317631f126a56e86bf83c89bc29a657e4fb2e91745cd99ec18e10a65f4b5a60001b61335d565b6124717fabba283b7c7b426d8eb217b8cc440b929de057c1b712e0a9ab6a449d2ff1711160001b61335d565b61249d7f919c0c3800cf94c74500ba3e18d82d56be31ea7e9353518d7bd910439682659560001b61335d565b600960003373ffffffffffffffffffffffffffffffffffffffff1673ffffffffffffffffffffffffffffffffffffffff16815260200190815260200160002080546124e790614469565b80601f016020809104026020016040519081016040528092919081815260200182805461251390614469565b80156125605780601f1061253557610100808354040283529160200191612560565b820191906000526020600020905b81548152906001019060200180831161254357829003601f168201915b5050505050905090565b6125967f28c151de6e1c3f9e94a435bce5e64b8ef32c5da3ec835b04ada8cc6fcab1d4ad60001b613360565b6125c27f0b5c89414ecf676e948c4c0ee24294745d10993d13fe8359ba6c5cc1092d589b60001b613360565b6125ee7ffa02846b08d450007ac3784a33479dad851f8dbd75d9fcdf25a6a3f7a54aaefa60001b613360565b600b6040518060c00160405280868152602001858152602001848152602001600b8054905081526020013373ffffffffffffffffffffffffffffffffffffffff168152602001838152509080600181540180825580915050600190039060005260206000209060060201600090919091909150600082015181600001908051906020019061267d929190613dce565b50602082015181600101908051906020019061269a929190613dce565b5060408201518160020190805190602001906126b7929190613dce565b506060820151816003015560808201518160040160006101000a81548173ffffffffffffffffffffffffffffffffffffffff021916908373ffffffffffffffffffffffffffffffffffffffff16021790555060a0820151816005015550506127417f77d33d68591ea33cc8f97d0d9c7fe9f28c5c465b9109a9dd42955a9d12d6ee9860001b613360565b600c600081548092919061275490614624565b91905055506127857fadd17d50b0fdb14932dfc14204b61e26366314cfd52eab4aab75d4a13c37a77c60001b613360565b6127b17f1970d9419cbb7908b6a536bc9b1cc74f97f662b39aa7a9b11ff4f3e5a05d82d160001b613360565b6001600b805490506127c3919061466d565b3373ffffffffffffffffffffffffffffffffffffffff16856040516127e89190614423565b60405180910390207f3d51a95276a8cfd6489223082d100f5a832a5e5363e06326cc478e86ee2b24dc8460405161281f919061412e565b60405180910390a450505050565b8061285a7f9465c16a288568b90a39115d3d3eb15305c43fe6b70b60ab0ac6630d590425c060001b613360565b6128867f9c398ef1a0addf5be55dc3724aed418fd90405ec0f0f031b720a1c42a711bc4f60001b613360565b6128b27f813e599e382e6cb92d46c741c9ddcd72e64effd5bc16e778c2477ad58290c24f60001b613360565b600b805490508110612953576128ea7fa03bd4366ff54ab45a3d74433993b31db4e74c5669c8b29c8acdaa9873b11aac60001b613360565b6129167fbd9042ff855d27b4750c514c54c2e169ad334fb9fd322ec812664fb3255b056260001b613360565b806040517fae08efde00000000000000000000000000000000000000000000000000000000815260040161294a919061412e565b60405180910390fd5b61297f7f4b13f1e945469c66e662c55de4d3c65aa5d7d3ca31844005a95696a2dbc4fe8160001b613360565b6129ab7f9a7a15b631f8fd10c4b4ad504bb08742b3a92ae66308b02eb360a04931cc199c60001b613360565b6129d77f3ffa053bf181768c45c2e938fcbacd20ba8dc945387fffb217bdfa6a2dea04ed60001b613360565b612a037f53b6f64b143108059b5ed6fb7a44d23613f8cf77565cf14b8788776ff30e997660001b613360565b612a2f7fa82ebcea8e6a31d5be6c506f5972208977e55cc728841780eb10ab83b4ff514d60001b613360565b6000600b8381548110612a4557612a4461449b565b5b9060005260206000209060060201600501549050612a857f18de1b9a1d1bc8b97cb473c92fce590ebfd0519d072f3a01042f89753199a5af60001b613360565b612ab17fc94aaf50492a9e203b1c0c64a8e5fe73aef1c73715a70c43843769d84e0007c960001b613360565b600060646005600460003373ffffffffffffffffffffffffffffffffffffffff1673ffffffffffffffffffffffffffffffffffffffff1681526020019081526020016000205484612b029190614701565b612b0c9190614701565b612b1691906146d0565b9050612b447f3360f81e0434d0a9053460f52545426b40752ec42b713cf75e39065c6a21632860001b613360565b612b707f77f0ae03617d40843c2e57138aff2516329dad8f64978d2e8c47a1b103485bec60001b613360565b60008183612b7e919061466d565b9050612bac7fec4d6474d931d001f397df2a4e6d08aa200d5e69c319f26a27e09220a05fc4a560001b613360565b612bd87f115f70d1b06eacf79d8acda806e0fed89fa9d62baab5b6cf24e1a699ff0c713060001b613360565b80341015612c9a57612c0c7f214e4df2e84d01e9aa2226bfcc1d450e1453e6dfe361174ae8d2c98f6359f05760001b613360565b612c387f2b8cfba0b6c592517a28d840cee5f99479d953f8289521fe494993e75d1fd7f860001b613360565b600b8581548110612c4c57612c4b61449b565b5b9060005260206000209060060201600501546040517faaf32d2f000000000000000000000000000000000000000000000000000000008152600401612c91919061412e565b60405180910390fd5b612cc67f814c017496dc799f3dcc4677297fbafeecda02997f30f036aa452690593f68a460001b613360565b612cf27fc05aca6adcf7588d52953ba34dfdf35802dac7d2261220a36d762fe2c23350a260001b613360565b612d1e7f139763e4d4364c007959934f4f837b9918167e7127f1ed28d071b6a94f17e5f160001b613360565b600b8581548110612d3257612d3161449b565b5b906000526020600020906006020160040160009054906101000a900473ffffffffffffffffffffffffffffffffffffffff1673ffffffffffffffffffffffffffffffffffffffff163373ffffffffffffffffffffffffffffffffffffffff161415612e2c57612dc37f0469ab65346ccfd4cd534c78f1f288b03a253776ba37ed60c18d8daa59f7393060001b613360565b612def7fa916a652c187c66362793229ea44a276b97e29134a32337cec8d8b08c885d79160001b613360565b846040517f20b91b67000000000000000000000000000000000000000000000000000000008152600401612e23919061412e565b60405180910390fd5b612e587f944aecbe5429a3166394875fb03440bc90daed33804e5014235634e5961f293f60001b613360565b612e847f855f8e19094fab0f6a8e00d9b7791a52083b61afdf695266bf384310ae29d4d160001b613360565b612eb07fa3f399314ae93337db85a6b02b7772ba3a261599bfdc6b24acd097c98c67efbe60001b613360565b612f0b600b8681548110612ec757612ec661449b565b5b906000526020600020906006020160040160009054906101000a900473ffffffffffffffffffffffffffffffffffffffff16603285612f0691906146d0565b611d72565b612f377f6a0ff0c3507595b1de554fbfbb86d089a0c07e105b0ee63bec0249c1ebac6ef460001b613360565b612f637f5d10417e17c1c94acc8c2295b1a2b7cb8cf762f0d1145e5be4805aecc91e702860001b613360565b33600b8681548110612f7857612f7761449b565b5b906000526020600020906006020160040160006101000a81548173ffffffffffffffffffffffffffffffffffffffff021916908373ffffffffffffffffffffffffffffffffffffffff160217905550612ff37f92ed9e77f14060fa8441074782291340c0d44af3ee0b3d5d24bda7aee1777c3160001b613360565b61301f7f171e29e3294dab099c6fac0b24c5e4dcaa827ce0eb5e2a686a403a2aaa8e14e160001b613360565b6130353360328361303091906146d0565b611d72565b6130617f5e9d1f7d1b43e2c3197fd51a23f4ef7a4d24171e6452e876e477ceba77dac88b60001b613360565b600c6000815480929190613074906144f9565b91905055506130a57fc296119e93eef53da63414e8919bdaa3335c462a8438785d8f9f3e5e175bf59c60001b613360565b6130d17f514316d2266d56265ee2a60cec7f6b806e5b964d1c8fdc7ad478fa927246d97760001b613360565b843373ffffffffffffffffffffffffffffffffffffffff16600b87815481106130fd576130fc61449b565b5b906000526020600020906006020160000160405161311b91906145b7565b60405180910390207f326f0b4ef6b221838bf1dcec0112c888c10cb7653cc15d3fc97244983609b61560405160405180910390a461317b7fb586e7dc472949a9b16461138668d2e83170f96ed9f929aba257ef2615d1bfcc60001b613360565b600b858154811061318f5761318e61449b565b5b9060005260206000209060060201600080820160006131ae9190613e54565b6001820160006131be9190613e54565b6002820160006131ce9190613e54565b60038201600090556004820160006101000a81549073ffffffffffffffffffffffffffffffffffffffff0219169055600582016000905550505050505050565b600061323c7f91c59dcb437b551916f2e2ef87ab772fdb78569e60429f81361bb62414abf08860001b61335d565b6132687f1192599e79fbe539b0dbad5ba64299bad6da5e1de83515fca00b52a2c7ae846c60001b61335d565b6132947f4012c33689830bf380134c222a93f726456c71c68ebbb2609126e46431c89d4d60001b61335d565b600460003373ffffffffffffffffffffffffffffffffffffffff1673ffffffffffffffffffffffffffffffffffffffff16815260200190815260200160002054905090565b6132e1613363565b600073ffffffffffffffffffffffffffffffffffffffff168173ffffffffffffffffffffffffffffffffffffffff161415613351576040517f08c379a0000000000000000000000000000000000000000000000000000000008152600401613348906147cd565b60405180910390fd5b61335a816133e1565b50565b50565b50565b61336b613dc6565b73ffffffffffffffffffffffffffffffffffffffff16613389611a6a565b73ffffffffffffffffffffffffffffffffffffffff16146133df576040517f08c379a00000000000000000000000000000000000000000000000000000000081526004016133d690614839565b60405180910390fd5b565b60008060009054906101000a900473ffffffffffffffffffffffffffffffffffffffff169050816000806101000a81548173ffffffffffffffffffffffffffffffffffffffff021916908373ffffffffffffffffffffffffffffffffffffffff1602179055508173ffffffffffffffffffffffffffffffffffffffff168173ffffffffffffffffffffffffffffffffffffffff167f8be0079c531659141344cd1fd0a4f28419497f9722a3daafe3b4186f6b6457e060405160405180910390a35050565b6134d17fe9dccc56ca60697d24db1a9337e5fb16a7ff922f8b16694536fe23a54a41557c60001b61335d565b6134fd7ff6606631a623d997ae7d97b1a814f99a0d054112702db82d26ce06c12871304460001b61335d565b6135297f4369278e75aa4de739e67c94b437836f43088814c91f2f2d663eafc084294eab60001b61335d565b6064600560008373ffffffffffffffffffffffffffffffffffffffff1673ffffffffffffffffffffffffffffffffffffffff1681526020019081526020016000205410156136135761359d7ff6df9e2e81f56dfced4d831f32f09dd105f2b194f1fa98f79d4d2422c5a3afb960001b61335d565b6135c97fa0210c9b0159736dce5dfe18ea5325592e09fcdd11ed4060607e166b7f97cb9460001b61335d565b6000600460008373ffffffffffffffffffffffffffffffffffffffff1673ffffffffffffffffffffffffffffffffffffffff16815260200190815260200160002081905550613dc3565b61363f7f8d626bf238f035399ac316ad82bdda7ea0e802fd0012b560f6cc9e7d3ab8f3d160001b61335d565b61366b7fb8c58710ccc53714d6f18991e42f115b6fd7367147ae5391880a198118884c1060001b61335d565b6064600560008373ffffffffffffffffffffffffffffffffffffffff1673ffffffffffffffffffffffffffffffffffffffff16815260200190815260200160002054101580156136fa575060c8600560008373ffffffffffffffffffffffffffffffffffffffff1673ffffffffffffffffffffffffffffffffffffffff16815260200190815260200160002054105b156137a15761372b7f6e3778e3d1355c03aedc1d8194daaadfa9cb64ba4977a336119eabe24b23b14060001b61335d565b6137577fc764e50b5690b7d47bb3f8a7ae45f461bea14e662ffa77d3f59942c17093d62360001b61335d565b6001600460008373ffffffffffffffffffffffffffffffffffffffff1673ffffffffffffffffffffffffffffffffffffffff16815260200190815260200160002081905550613dc2565b6137cd7f6bef4ae69a42629f0bc47824750351092f8fe72c38f1c9defc0a8aa9aa698e9260001b61335d565b6137f97f2d25164c3999d6f8059a83b82dcba01c421a27cff08fc9b0f7024e1363686c7e60001b61335d565b60c8600560008373ffffffffffffffffffffffffffffffffffffffff1673ffffffffffffffffffffffffffffffffffffffff1681526020019081526020016000205410158015613889575061012c600560008373ffffffffffffffffffffffffffffffffffffffff1673ffffffffffffffffffffffffffffffffffffffff16815260200190815260200160002054105b15613930576138ba7f65ab888d681535a79e1de1e72e3e47e217b2a243a49e824416f3a2dcf42b61a460001b61335d565b6138e67fe8c7f7b59b5e75d0dbb5f77ac55762738d7c045bf8fea170ae53e21bc9da172360001b61335d565b6002600460008373ffffffffffffffffffffffffffffffffffffffff1673ffffffffffffffffffffffffffffffffffffffff16815260200190815260200160002081905550613dc1565b61395c7fd2bd70ec34b921c0b7d003f3fef3dc395481616bdddee32e068b199960a487c560001b61335d565b6139887f03d1202ab73cd97ad1794b2f2bf46768a2ff004a00782d2c8c4fbdb98d457f6260001b61335d565b61012c600560008373ffffffffffffffffffffffffffffffffffffffff1673ffffffffffffffffffffffffffffffffffffffff1681526020019081526020016000205410158015613a195750610190600560008373ffffffffffffffffffffffffffffffffffffffff1673ffffffffffffffffffffffffffffffffffffffff16815260200190815260200160002054105b15613ac057613a4a7ffcdf4c81c0cdc9569789d3bb6edd1d61ce35fec35906a4e2fefdc87398cdcb8260001b61335d565b613a767fdd63976f93dff65c2751d9cc656d449eef1eb2c120115fe8a243653a71b518f260001b61335d565b6003600460008373ffffffffffffffffffffffffffffffffffffffff1673ffffffffffffffffffffffffffffffffffffffff16815260200190815260200160002081905550613dc0565b613aec7f8bf6870630d6a3f978c012dc417f35b729bc49aa2e8be7009120eafefdbe333260001b61335d565b613b187f98b250248b0caa417ead4f4fd517ec331914121d8b2ca6493bca655b6cbfed1260001b61335d565b610190600560008373ffffffffffffffffffffffffffffffffffffffff1673ffffffffffffffffffffffffffffffffffffffff1681526020019081526020016000205410158015613ba957506101f4600560008373ffffffffffffffffffffffffffffffffffffffff1673ffffffffffffffffffffffffffffffffffffffff16815260200190815260200160002054105b15613c4f57613bda7f0d508090d6d549a0b81a3b884c03b3438af6209dcfb2457b9ba78928705d291c60001b61335d565b613c067feb4950f5a88a1b0c63319beed5185eaf4152d9ee18c78ba7197bdf8a356a1b3160001b61335d565b60048060008373ffffffffffffffffffffffffffffffffffffffff1673ffffffffffffffffffffffffffffffffffffffff16815260200190815260200160002081905550613dbf565b613c7b7ffc9e7f3a5bb4c8c8f3908e7a8d1bf3a8beb8470e6986618c5d19de7bb37f2feb60001b61335d565b613ca77f50eb89b8ba209d7483291285fb7d4c3f055c60aa080a96cfbbe999bb007b4a1b60001b61335d565b6101f4600560008373ffffffffffffffffffffffffffffffffffffffff1673ffffffffffffffffffffffffffffffffffffffff1681526020019081526020016000205410613d9157613d1b7fb8631b6fcbc91dac2bd574d8bce43da8ee3215856df57a708abb02e480169e9460001b61335d565b613d477f9947c270752b368b0d5b716c56d9669875853a77e5987aedff1f621d25951a7d60001b61335d565b6005600460008373ffffffffffffffffffffffffffffffffffffffff1673ffffffffffffffffffffffffffffffffffffffff16815260200190815260200160002081905550613dbe565b613dbd7f8eae625f09b30d06e1faca62a0f699e72945ffad5b998c419c35efdd32a0885660001b61335d565b5b5b5b5b5b5b50565b600033905090565b828054613dda90614469565b90600052602060002090601f016020900481019282613dfc5760008555613e43565b82601f10613e1557805160ff1916838001178555613e43565b82800160010185558215613e43579182015b82811115613e42578251825591602001919060010190613e27565b5b509050613e509190613e94565b5090565b508054613e6090614469565b6000825580601f10613e725750613e91565b601f016020900490600052602060002090810190613e909190613e94565b5b50565b5b80821115613ead576000816000905550600101613e95565b5090565b6000604051905090565b600080fd5b600080fd5b600073ffffffffffffffffffffffffffffffffffffffff82169050919050565b6000613ef082613ec5565b9050919050565b613f0081613ee5565b8114613f0b57600080fd5b50565b600081359050613f1d81613ef7565b92915050565b600060208284031215613f3957613f38613ebb565b5b6000613f4784828501613f0e565b91505092915050565b60008115159050919050565b613f6581613f50565b82525050565b6000602082019050613f806000830184613f5c565b92915050565b600080fd5b600080fd5b6000601f19601f8301169050919050565b7f4e487b7100000000000000000000000000000000000000000000000000000000600052604160045260246000fd5b613fd982613f90565b810181811067ffffffffffffffff82111715613ff857613ff7613fa1565b5b80604052505050565b600061400b613eb1565b90506140178282613fd0565b919050565b600067ffffffffffffffff82111561403757614036613fa1565b5b61404082613f90565b9050602081019050919050565b82818337600083830152505050565b600061406f61406a8461401c565b614001565b90508281526020810184848401111561408b5761408a613f8b565b5b61409684828561404d565b509392505050565b600082601f8301126140b3576140b2613f86565b5b81356140c384826020860161405c565b91505092915050565b6000602082840312156140e2576140e1613ebb565b5b600082013567ffffffffffffffff811115614100576140ff613ec0565b5b61410c8482850161409e565b91505092915050565b6000819050919050565b61412881614115565b82525050565b6000602082019050614143600083018461411f565b92915050565b61415281614115565b811461415d57600080fd5b50565b60008135905061416f81614149565b92915050565b60006020828403121561418b5761418a613ebb565b5b600061419984828501614160565b91505092915050565b600081519050919050565b600082825260208201905092915050565b60005b838110156141dc5780820151818401526020810190506141c1565b838111156141eb576000848401525b50505050565b60006141fc826141a2565b61420681856141ad565b93506142168185602086016141be565b61421f81613f90565b840191505092915050565b61423381613ee5565b82525050565b600060c082019050818103600083015261425381896141f1565b9050818103602083015261426781886141f1565b9050818103604083015261427b81876141f1565b905061428a606083018661411f565b614297608083018561422a565b6142a460a083018461411f565b979650505050505050565b600060208201905081810360008301526142c981846141f1565b905092915050565b60006020820190506142e6600083018461422a565b92915050565b6000806040838503121561430357614302613ebb565b5b600061431185828601613f0e565b925050602061432285828601614160565b9150509250929050565b6000806000806080858703121561434657614345613ebb565b5b600085013567ffffffffffffffff81111561436457614363613ec0565b5b6143708782880161409e565b945050602085013567ffffffffffffffff81111561439157614390613ec0565b5b61439d8782880161409e565b935050604085013567ffffffffffffffff8111156143be576143bd613ec0565b5b6143ca8782880161409e565b92505060606143db87828801614160565b91505092959194509250565b600081905092915050565b60006143fd826141a2565b61440781856143e7565b93506144178185602086016141be565b80840191505092915050565b600061442f82846143f2565b915081905092915050565b7f4e487b7100000000000000000000000000000000000000000000000000000000600052602260045260246000fd5b6000600282049050600182168061448157607f821691505b602082108114156144955761449461443a565b5b50919050565b7f4e487b7100000000000000000000000000000000000000000000000000000000600052603260045260246000fd5b7f4e487b7100000000000000000000000000000000000000000000000000000000600052601160045260246000fd5b600061450482614115565b91506000821415614518576145176144ca565b5b600182039050919050565b60008190508160005260206000209050919050565b6000815461454581614469565b61454f81866143e7565b9450600182166000811461456a576001811461457b576145ae565b60ff198316865281860193506145ae565b61458485614523565b60005b838110156145a657815481890152600182019150602081019050614587565b838801955050505b50505092915050565b60006145c38284614538565b915081905092915050565b60006145d982614115565b91506145e483614115565b9250827fffffffffffffffffffffffffffffffffffffffffffffffffffffffffffffffff03821115614619576146186144ca565b5b828201905092915050565b600061462f82614115565b91507fffffffffffffffffffffffffffffffffffffffffffffffffffffffffffffffff821415614662576146616144ca565b5b600182019050919050565b600061467882614115565b915061468383614115565b925082821015614696576146956144ca565b5b828203905092915050565b7f4e487b7100000000000000000000000000000000000000000000000000000000600052601260045260246000fd5b60006146db82614115565b91506146e683614115565b9250826146f6576146f56146a1565b5b828204905092915050565b600061470c82614115565b915061471783614115565b9250817fffffffffffffffffffffffffffffffffffffffffffffffffffffffffffffffff04831182151516156147505761474f6144ca565b5b828202905092915050565b7f4f776e61626c653a206e6577206f776e657220697320746865207a65726f206160008201527f6464726573730000000000000000000000000000000000000000000000000000602082015250565b60006147b76026836141ad565b91506147c28261475b565b604082019050919050565b600060208201905081810360008301526147e6816147aa565b9050919050565b7f4f776e61626c653a2063616c6c6572206973206e6f7420746865206f776e6572600082015250565b60006148236020836141ad565b915061482e826147ed565b602082019050919050565b6000602082019050818103600083015261485281614816565b905091905056fea2646970667358221220ba3fe38485fca4365dd71c77576515e09dcab64d93ae563ccaa56ee918a5804064736f6c63430008080033",
  "linkReferences": {},
  "deployedLinkReferences": {}
}