{
  "_format": "hh-sol-artifact-1",
  "contractName": "Users",
  "sourceName": "contracts/Users.sol",
  "abi": [
    {
      "inputs": [],
      "stateMutability": "nonpayable",
      "type": "constructor"
    },
    {
      "inputs": [
        {
          "internalType": "address",
          "name": "",
          "type": "address"
        }
      ],
      "name": "Users__AlreadyEvaluated",
      "type": "error"
    },
    {
      "inputs": [],
      "name": "Users__NotAdmittedGrade",
      "type": "error"
    },
    {
      "inputs": [
        {
          "internalType": "address",
          "name": "",
          "type": "address"
        }
      ],
      "name": "Users__NotEmbassador",
      "type": "error"
    },
    {
      "inputs": [
        {
          "internalType": "address",
          "name": "",
          "type": "address"
        }
      ],
      "name": "Users__NotLevel5",
      "type": "error"
    },
    {
      "inputs": [],
      "name": "Users__OwnerNotAllowed",
      "type": "error"
    },
    {
      "anonymous": false,
      "inputs": [
        {
          "indexed": true,
          "internalType": "address",
          "name": "",
          "type": "address"
        },
        {
          "indexed": true,
          "internalType": "string",
          "name": "",
          "type": "string"
        }
      ],
      "name": "AddressWasSet",
      "type": "event"
    },
    {
      "anonymous": false,
      "inputs": [
        {
          "indexed": true,
          "internalType": "address",
          "name": "",
          "type": "address"
        },
        {
          "indexed": true,
          "internalType": "string",
          "name": "",
          "type": "string"
        }
      ],
      "name": "MailWasSet",
      "type": "event"
    },
    {
      "anonymous": false,
      "inputs": [
        {
          "indexed": true,
          "internalType": "address",
          "name": "previousOwner",
          "type": "address"
        },
        {
          "indexed": true,
          "internalType": "address",
          "name": "newOwner",
          "type": "address"
        }
      ],
      "name": "OwnershipTransferred",
      "type": "event"
    },
    {
      "anonymous": false,
      "inputs": [
        {
          "indexed": true,
          "internalType": "address",
          "name": "",
          "type": "address"
        },
        {
          "indexed": true,
          "internalType": "string",
          "name": "",
          "type": "string"
        }
      ],
      "name": "TelephoneWasSet",
      "type": "event"
    },
    {
      "inputs": [
        {
          "internalType": "address",
          "name": "_user",
          "type": "address"
        }
      ],
      "name": "cancelEmbassador",
      "outputs": [],
      "stateMutability": "nonpayable",
      "type": "function"
    },
    {
      "inputs": [
        {
          "internalType": "address",
          "name": "_user",
          "type": "address"
        }
      ],
      "name": "checkEmbassador",
      "outputs": [
        {
          "internalType": "bool",
          "name": "",
          "type": "bool"
        }
      ],
      "stateMutability": "view",
      "type": "function"
    },
    {
      "inputs": [
        {
          "internalType": "uint256",
          "name": "_grade",
          "type": "uint256"
        }
      ],
      "name": "evaluateOwner",
      "outputs": [],
      "stateMutability": "nonpayable",
      "type": "function"
    },
    {
      "inputs": [],
      "name": "getMyAddress",
      "outputs": [
        {
          "internalType": "string",
          "name": "",
          "type": "string"
        }
      ],
      "stateMutability": "view",
      "type": "function"
    },
    {
      "inputs": [],
      "name": "getMyLevel",
      "outputs": [
        {
          "internalType": "uint256",
          "name": "",
          "type": "uint256"
        }
      ],
      "stateMutability": "view",
      "type": "function"
    },
    {
      "inputs": [],
      "name": "getMyMail",
      "outputs": [
        {
          "internalType": "string",
          "name": "",
          "type": "string"
        }
      ],
      "stateMutability": "view",
      "type": "function"
    },
    {
      "inputs": [],
      "name": "getMyTelephone",
      "outputs": [
        {
          "internalType": "string",
          "name": "",
          "type": "string"
        }
      ],
      "stateMutability": "view",
      "type": "function"
    },
    {
      "inputs": [],
      "name": "getOwnerVotes",
      "outputs": [
        {
          "internalType": "uint256",
          "name": "",
          "type": "uint256"
        }
      ],
      "stateMutability": "view",
      "type": "function"
    },
    {
      "inputs": [
        {
          "internalType": "address",
          "name": "_user",
          "type": "address"
        },
        {
          "internalType": "uint256",
          "name": "_points",
          "type": "uint256"
        }
      ],
      "name": "givePoints",
      "outputs": [],
      "stateMutability": "nonpayable",
      "type": "function"
    },
    {
      "inputs": [
        {
          "internalType": "address",
          "name": "_user",
          "type": "address"
        }
      ],
      "name": "makeEmbassador",
      "outputs": [],
      "stateMutability": "nonpayable",
      "type": "function"
    },
    {
      "inputs": [],
      "name": "owner",
      "outputs": [
        {
          "internalType": "address",
          "name": "",
          "type": "address"
        }
      ],
      "stateMutability": "view",
      "type": "function"
    },
    {
      "inputs": [],
      "name": "renounceOwnership",
      "outputs": [],
      "stateMutability": "nonpayable",
      "type": "function"
    },
    {
      "inputs": [
        {
          "internalType": "string",
          "name": "_myAddress",
          "type": "string"
        }
      ],
      "name": "setMyAddress",
      "outputs": [],
      "stateMutability": "nonpayable",
      "type": "function"
    },
    {
      "inputs": [
        {
          "internalType": "string",
          "name": "_myMail",
          "type": "string"
        }
      ],
      "name": "setMyMail",
      "outputs": [],
      "stateMutability": "nonpayable",
      "type": "function"
    },
    {
      "inputs": [
        {
          "internalType": "string",
          "name": "_myTelephone",
          "type": "string"
        }
      ],
      "name": "setMyTelephone",
      "outputs": [],
      "stateMutability": "nonpayable",
      "type": "function"
    },
    {
      "inputs": [
        {
          "internalType": "address",
          "name": "newOwner",
          "type": "address"
        }
      ],
      "name": "transferOwnership",
      "outputs": [],
      "stateMutability": "nonpayable",
      "type": "function"
    }
  ],
  "bytecode": "0x60806040523480156200001157600080fd5b5062000032620000266200011560201b60201c565b6200011d60201b60201c565b620000667f675cae87c8a1bc8f337a070c1fce3227916a0a478189f262648aa918a08b915160001b620001e160201b60201c565b6200009a7f4da13821059c6b4cddb3b6e5b8ddb34dd89594f6bd01720ffd8590332e33016460001b620001e160201b60201c565b620000ce7f0ae3dc343e8151edf789b50c35de3c4bcd0f3aea3d8b9de53d340cf1ae04b5a260001b620001e160201b60201c565b33600160006101000a81548173ffffffffffffffffffffffffffffffffffffffff021916908373ffffffffffffffffffffffffffffffffffffffff160217905550620001e4565b600033905090565b60008060009054906101000a900473ffffffffffffffffffffffffffffffffffffffff169050816000806101000a81548173ffffffffffffffffffffffffffffffffffffffff021916908373ffffffffffffffffffffffffffffffffffffffff1602179055508173ffffffffffffffffffffffffffffffffffffffff168173ffffffffffffffffffffffffffffffffffffffff167f8be0079c531659141344cd1fd0a4f28419497f9722a3daafe3b4186f6b6457e060405160405180910390a35050565b50565b612da980620001f46000396000f3fe608060405234801561001057600080fd5b50600436106101005760003560e01c80639a16629911610097578063bc70242911610066578063bc7024291461025d578063cc0163131461027b578063ec9b4d1414610299578063f2fde38b146102b757610100565b80639a166299146101eb578063a4eb88f814610209578063adb303d914610225578063bbd4d97c1461024157610100565b80636e1223d4116100d35780636e1223d414610189578063715018a6146101a7578063818a01e1146101b15780638da5cb5b146101cd57610100565b80630374e1c21461010557806308309a6f146101355780631b1e39e81461015157806367faca241461016d575b600080fd5b61011f600480360381019061011a9190612700565b6102d3565b60405161012c9190612748565b60405180910390f35b61014f600480360381019061014a91906128a9565b6103ad565b005b61016b600480360381019061016691906128a9565b610539565b005b61018760048036038101906101829190612928565b6106c5565b005b610191610c4b565b60405161019e9190612964565b60405180910390f35b6101af610cd9565b005b6101cb60048036038101906101c69190612700565b610ced565b005b6101d5610f34565b6040516101e2919061298e565b60405180910390f35b6101f3610f5d565b6040516102009190612a31565b60405180910390f35b610223600480360381019061021e91906128a9565b6110b0565b005b61023f600480360381019061023a9190612a53565b61123c565b005b61025b60048036038101906102569190612700565b6113b3565b005b610265611788565b6040516102729190612a31565b60405180910390f35b6102836118db565b6040516102909190612a31565b60405180910390f35b6102a1611a2e565b6040516102ae9190612964565b60405180910390f35b6102d160048036038101906102cc9190612700565b611af9565b005b60006103017f7cc75704f78d4af0161627de45da3dd03b65989173dd0e313c6b1b5bf6ecd19360001b611b7d565b61032d7f62dda847388a111b5ea42d1efea8e8484d27f35b6cff17df984b0121fa1ea2d860001b611b7d565b6103597f3aabfa31b93ce855c0d252e3cce92b5a72c3ecfb4d8ffd69d3e30dd58e2e5b2260001b611b7d565b600660008373ffffffffffffffffffffffffffffffffffffffff1673ffffffffffffffffffffffffffffffffffffffff16815260200190815260200160002060009054906101000a900460ff169050919050565b6103d97fbb3a3131f12f71a5c713c231565a2cfa84e3aaffb4e5677d56de0f10ad09841360001b611b7d565b6104057f4f86eae510f55bfdf06b5f4de84f723983135aed8cba665234a452de5114bef860001b611b7d565b6104317fdc03516a822c6e62326f0263dd3c5850b5751ddb2effb69f65000b9e4d33272960001b611b7d565b80600960003373ffffffffffffffffffffffffffffffffffffffff1673ffffffffffffffffffffffffffffffffffffffff16815260200190815260200160002090805190602001906104849291906125eb565b506104b17f919b0d86f8ec5918e64507cfe99ad81393fd3e77ba8ef8a756841b1223f3e26d60001b611b7d565b6104dd7fa0a81ae3e3398bdcbd23e7e752a44cccceca8f8d01fca0b38308965f4ce0b9c960001b611b7d565b806040516104eb9190612acf565b60405180910390203373ffffffffffffffffffffffffffffffffffffffff167fa58cbc2d3fc0880739836e4603b53162415106cbe246519f687d635cb98de46960405160405180910390a350565b6105657f7ee4dec7d08f2fbc7b39511f8950b75fd18dc54768c5a961a0cb3cb44b330d7360001b611b7d565b6105917f0d95c03fd27371e903c035d6c412db715eafacfa1128a17f337c55feb207dc9e60001b611b7d565b6105bd7f078d8ea605ae0048606db256f78abc5670db91d5412cf4f4f0c4aa2993be8a3160001b611b7d565b80600860003373ffffffffffffffffffffffffffffffffffffffff1673ffffffffffffffffffffffffffffffffffffffff16815260200190815260200160002090805190602001906106109291906125eb565b5061063d7f510eacb43a7d6d1de19251b2502d32045e2d0366037312444b8d8af5275a9c4460001b611b7d565b6106697fec8dcfce2b205ce132cd8ca90cb1db848dffb1609a1050e763c486bf41c0760860001b611b7d565b806040516106779190612acf565b60405180910390203373ffffffffffffffffffffffffffffffffffffffff167f7c628b061e272b7258a02ac185c3f3c805bf87461e54b741885a169d7ae39cce60405160405180910390a350565b6106f17f42607466aac1417b69168d4e7f252a1e69b28334fa784169f5018b41d27f6f2460001b611b7d565b61071d7fdcbad97780ccfce527619c95e277110cdb501292bc62674a209d27adc2e7680560001b611b7d565b6107497f761d5a8b6b7df8d48236e5b9ff96ae3425702bc31ee2b4606c942ba3499ea2db60001b611b7d565b600660003373ffffffffffffffffffffffffffffffffffffffff1673ffffffffffffffffffffffffffffffffffffffff16815260200190815260200160002060009054906101000a900460ff1661082f576107c67f0629953d3c41183d2a7c55ad28fd6c1a6250998af0b826722c3fc819812cf9b660001b611b7d565b6107f27f18b3fbebea46127981ae60b3456c86b204ac7a36a2887a0845c9352aa895951a60001b611b7d565b336040517fd141f986000000000000000000000000000000000000000000000000000000008152600401610826919061298e565b60405180910390fd5b61085b7f74428effc60474dc60e3987cb93e268b4e2c0f862a2da9ca9acb9a3d8b49939c60001b611b7d565b6108877fbdcc0e84427de6cc3a4e54b48f099ed0080c7da9933644e3f9c3e432355230eb60001b611b7d565b6108b37f203766e944a742f8f0817a3f0d369351049bbaa9093545fad4a146b9994c3f0960001b611b7d565b600760003373ffffffffffffffffffffffffffffffffffffffff1673ffffffffffffffffffffffffffffffffffffffff16815260200190815260200160002060009054906101000a900460ff161561099a576109317f87b6e5aa0b303ef6e5efc05d577ed14695ca7c6cba13df67ef17149b1ab6126060001b611b7d565b61095d7f4a533c468c545ff3810ff619d2935f30551601115b0115adc4c4cd93ad37de2360001b611b7d565b336040517f60a704b4000000000000000000000000000000000000000000000000000000008152600401610991919061298e565b60405180910390fd5b6109c67fd3e47c5c0787901bd0c24823314523815bb91cb3b7e51c04b649196f78c0c28d60001b611b7d565b6109f27f5d73beb7e5de4660fac634206c64c996000e70c53307fb61720edf4f44eab3f460001b611b7d565b610a1e7f0372e368cdd1a0ed88e515eae80acb1f3009ac3166188dbaf061d474db43647b60001b611b7d565b6000811080610a2d5750600a81115b15610abc57610a5e7fbf755e4bb763cf37b0147e2feb37d8023051e13e88837a5ab22f36c7bb62559460001b611b7d565b610a8a7fb76c1584c51284096a75a4b6973b79c9cdace51683c84f4cdd16403d471d826860001b611b7d565b6040517fa0f45cb600000000000000000000000000000000000000000000000000000000815260040160405180910390fd5b610ae87f359bb255741f7f5ce345d5d21cd0a801c231bffbe55203780d4554e9ce073d7d60001b611b7d565b610b147f43276a2438011574c56e2741fec741ff34e62c8b5eba8b4d79338b575016b83e60001b611b7d565b610b407f91a67fcfc3156006e3c5621e11fbcc9bf1107efdb83ee471e569126e14b5ccab60001b611b7d565b6001600760003373ffffffffffffffffffffffffffffffffffffffff1673ffffffffffffffffffffffffffffffffffffffff16815260200190815260200160002060006101000a81548160ff021916908315150217905550610bc47fedd1f3451c02264451126d6b188b2fe36001920948c61d6ce2666f7e240145c460001b611b7d565b610bf07fe8444679dc7bec120f89cadecf1acdcdcd8240345b243015ea8b89602d0c5daf60001b611b7d565b80600254610bfe9190612b15565b600281905550610c307fc1ee7a76a77d0c4e2fbfb7889d02014e9d2b456734e42bd6563225693f8f28e960001b611b7d565b60036000815480929190610c4390612b6b565b919050555050565b6000610c797f7472d49cf76e4c16de1dc665c1efbb730281f83e48c89ecef8225d776db6d8b560001b611b7d565b610ca57f5c62f396fbb673b4663d17d579f90cc50e2cb8d2e8bdee48b73fbe5cb9d28dac60001b611b7d565b610cd17fd5385e9d745d4863d76721aeb970328a1ce5658593f1825ae7eaf2fd800ed42960001b611b7d565b600354905090565b610ce1611b80565b610ceb6000611bfe565b565b610cf5611b80565b610d217fc20387937713e607df397f6a784f530a7ea80049aa069d605d915585a83f687460001b611b7d565b610d4d7fe0349a5c9427f6a7df01f8eebba5a25837d22315d56269c76d27ba03673181c760001b611b7d565b610d797fcd78497f8a7842492e3915facca7359fefb7fa6659fc27f37dd96376c2eda7af60001b611b7d565b6005600460008373ffffffffffffffffffffffffffffffffffffffff1673ffffffffffffffffffffffffffffffffffffffff1681526020019081526020016000205414610e5557610dec7fd2da44d61a4b4c088d3b2bdde4547753b9b1ec6b5d378fd4dd3c49cf0cc587c860001b611b7d565b610e187f51f002e55df470f602c612cb535be56e729acf180383ae69051f88157b871e3660001b611b7d565b806040517faf90c652000000000000000000000000000000000000000000000000000000008152600401610e4c919061298e565b60405180910390fd5b610e817f421302ba49b19e97e94149dfeea00a5b5de179aaa7983431a6f554f8a18475ce60001b611b7d565b610ead7f1d8efc786ca1a00573681451e29c0ec03018fa1efdf7b382ba0e392aaa8647d760001b611b7d565b610ed97f75ec9799584cbae3f07ce13dad919018b5ee6fadcd5b56613ebdce7d4af2bbb860001b611b7d565b6001600660008373ffffffffffffffffffffffffffffffffffffffff1673ffffffffffffffffffffffffffffffffffffffff16815260200190815260200160002060006101000a81548160ff02191690831515021790555050565b60008060009054906101000a900473ffffffffffffffffffffffffffffffffffffffff16905090565b6060610f8b7fd4e8f21eb4941ff98330c97100ea74ef5d5c3271fc41f86b13ac5c984951a71c60001b611b7d565b610fb77ff5bf0ff9709654acc9bc58c64c4a29eb73d883ccd753770d037a66651dc03dab60001b611b7d565b610fe37f9c300a467f20a659cb0fb429094fc10204c29caf7f3a4964b6f0e0851176097f60001b611b7d565b600860003373ffffffffffffffffffffffffffffffffffffffff1673ffffffffffffffffffffffffffffffffffffffff168152602001908152602001600020805461102d90612be3565b80601f016020809104026020016040519081016040528092919081815260200182805461105990612be3565b80156110a65780601f1061107b576101008083540402835291602001916110a6565b820191906000526020600020905b81548152906001019060200180831161108957829003601f168201915b5050505050905090565b6110dc7f7183fa704cc570dbd39248ba6169d77ab37c330ff2368a772a091383ee24788e60001b611b7d565b6111087fb09cd72325c9ed009cd504a1f00a5bf3b44534093c662a40f3e23ca2fab79f9960001b611b7d565b6111347f924b39036a3f7dcf002d1195bdcebe0484a016117cec10d89fe79530c1b3fa7160001b611b7d565b80600a60003373ffffffffffffffffffffffffffffffffffffffff1673ffffffffffffffffffffffffffffffffffffffff16815260200190815260200160002090805190602001906111879291906125eb565b506111b47fd15d17d25c56fc84e03366c57f59b766f14a310fdc59488d22e45883ff3bf2e160001b611b7d565b6111e07ff5f1d0b34620da312404ae3908095427d2e57e98522334be456d6f7409efd19c60001b611b7d565b806040516111ee9190612acf565b60405180910390203373ffffffffffffffffffffffffffffffffffffffff167ff1bfcc87ef5b48f65c55ba6bc830a7964faa23a6f8ef22f4fe324b472dad11f860405160405180910390a350565b6112687f80214d72d042780366a0e7f2c9471ae54014f35c7ac5f10937e293070687168a60001b611b7d565b6112947fdbe0f62cee9e977bd37a4b4408c3834281995f0c55b51e456ab02a1c43b32e1460001b611b7d565b6112c07fa8e719967be802fc8a2640cdf73bf18811bed72623d5e0ab56bb5d0caccccb1960001b611b7d565b80600560008473ffffffffffffffffffffffffffffffffffffffff1673ffffffffffffffffffffffffffffffffffffffff1681526020019081526020016000205461130b9190612b15565b600560008473ffffffffffffffffffffffffffffffffffffffff1673ffffffffffffffffffffffffffffffffffffffff1681526020019081526020016000208190555061137a7f50aaf2f0f43bf85aa80b9335f5fd301b1f5f7958b988acb485c79141ed1e1af060001b611b7d565b6113a67ff1f23f45970c0b85fe190fb2a3edc9941a9f2e2787df7bbccb6b00d25b38b3c560001b611b7d565b6113af82611cc2565b5050565b6113bb611b80565b6113e77f755046a19be54076260df17b72c9a0ebb59ac82e85c6a19e5cd4d02cd964cf2b60001b611b7d565b6114137f6dcd97ea535219d4264bfaa961bde802fc8c4d67af248f641365b3a4f992fa3c60001b611b7d565b61143f7f4fb493336c128e4c9f6d184c552e0b74002ec161867ccecf3a76718d5707459460001b611b7d565b60006003546002546114519190612c44565b905061147f7f0bc12a59eb993b24215055cb6813686b526180c82c5f9b0c1ab105b5ae75e40460001b611b7d565b6114ab7fbce846dac16af9bd0ef4b697818911c241765c867fcfea12695b470510cd889c60001b611b7d565b600781101561153e576114e07fe3811d8581cbca19dc099981c99bd7ef4b70294e7daffccf89efe9c4878b030160001b611b7d565b61150c7fabea48b3f22e1342783bf8a69df1dd3623302e72792c7f44956f464b2344513b60001b611b7d565b6040517fa5124bf100000000000000000000000000000000000000000000000000000000815260040160405180910390fd5b61156a7f9152f9a1422b22bd98188e44873880e498952f8e68d3e1bb274080a3d0714a8a60001b611b7d565b6115967f7365fc7614094a5cd25c2b55e57a07fb4ec69d3345813aec83dd1696a5b8c9aa60001b611b7d565b6115c27ffe3a9f376c68f5fab7d33131626c72a95749f4cdb905d8324f2cb57e87d97f4860001b611b7d565b600660008373ffffffffffffffffffffffffffffffffffffffff1673ffffffffffffffffffffffffffffffffffffffff16815260200190815260200160002060009054906101000a900460ff166116a85761163f7f8b894458213e85e7360955f229e656db71952f11cffb54cf23e8f7cd8c2e837760001b611b7d565b61166b7f9cddb0c177b522a7694a6253f17d8245674f285121fa2b1aaa4b741cc94753bb60001b611b7d565b816040517fd141f98600000000000000000000000000000000000000000000000000000000815260040161169f919061298e565b60405180910390fd5b6116d47f7e600aea8a3b95b2792f714a811699fcdafbbb2893a7393e9beee0264275249660001b611b7d565b6117007f2075603338c87c00fce38e51dd708c19246524a8bf3bed069e65bc730aef3b1660001b611b7d565b61172c7fa60b839e4e3023ac304f2d03d858250b905d388f8632c04ce7d89283cd2ba45d60001b611b7d565b6000600660008473ffffffffffffffffffffffffffffffffffffffff1673ffffffffffffffffffffffffffffffffffffffff16815260200190815260200160002060006101000a81548160ff0219169083151502179055505050565b60606117b67f2ab4fab67eb79d446ae486db2ffba8eccebb6835742e1ebf7b82b727f10aa7a060001b611b7d565b6117e27f19d78fe81ef434b2eb23ffacb978928c64d2756b0cd29e7d3118b48b648f2ebc60001b611b7d565b61180e7f72a22fe6feb645e231c6ebc7461328bfe66243dbd1355af25030cffe57cafbf460001b611b7d565b600a60003373ffffffffffffffffffffffffffffffffffffffff1673ffffffffffffffffffffffffffffffffffffffff168152602001908152602001600020805461185890612be3565b80601f016020809104026020016040519081016040528092919081815260200182805461188490612be3565b80156118d15780601f106118a6576101008083540402835291602001916118d1565b820191906000526020600020905b8154815290600101906020018083116118b457829003601f168201915b5050505050905090565b60606119097f951317631f126a56e86bf83c89bc29a657e4fb2e91745cd99ec18e10a65f4b5a60001b611b7d565b6119357fabba283b7c7b426d8eb217b8cc440b929de057c1b712e0a9ab6a449d2ff1711160001b611b7d565b6119617f919c0c3800cf94c74500ba3e18d82d56be31ea7e9353518d7bd910439682659560001b611b7d565b600960003373ffffffffffffffffffffffffffffffffffffffff1673ffffffffffffffffffffffffffffffffffffffff16815260200190815260200160002080546119ab90612be3565b80601f01602080910402602001604051908101604052809291908181526020018280546119d790612be3565b8015611a245780601f106119f957610100808354040283529160200191611a24565b820191906000526020600020905b815481529060010190602001808311611a0757829003601f168201915b5050505050905090565b6000611a5c7f91c59dcb437b551916f2e2ef87ab772fdb78569e60429f81361bb62414abf08860001b611b7d565b611a887f1192599e79fbe539b0dbad5ba64299bad6da5e1de83515fca00b52a2c7ae846c60001b611b7d565b611ab47f4012c33689830bf380134c222a93f726456c71c68ebbb2609126e46431c89d4d60001b611b7d565b600460003373ffffffffffffffffffffffffffffffffffffffff1673ffffffffffffffffffffffffffffffffffffffff16815260200190815260200160002054905090565b611b01611b80565b600073ffffffffffffffffffffffffffffffffffffffff168173ffffffffffffffffffffffffffffffffffffffff161415611b71576040517f08c379a0000000000000000000000000000000000000000000000000000000008152600401611b6890612ce7565b60405180910390fd5b611b7a81611bfe565b50565b50565b611b886125e3565b73ffffffffffffffffffffffffffffffffffffffff16611ba6610f34565b73ffffffffffffffffffffffffffffffffffffffff1614611bfc576040517f08c379a0000000000000000000000000000000000000000000000000000000008152600401611bf390612d53565b60405180910390fd5b565b60008060009054906101000a900473ffffffffffffffffffffffffffffffffffffffff169050816000806101000a81548173ffffffffffffffffffffffffffffffffffffffff021916908373ffffffffffffffffffffffffffffffffffffffff1602179055508173ffffffffffffffffffffffffffffffffffffffff168173ffffffffffffffffffffffffffffffffffffffff167f8be0079c531659141344cd1fd0a4f28419497f9722a3daafe3b4186f6b6457e060405160405180910390a35050565b611cee7fe9dccc56ca60697d24db1a9337e5fb16a7ff922f8b16694536fe23a54a41557c60001b611b7d565b611d1a7ff6606631a623d997ae7d97b1a814f99a0d054112702db82d26ce06c12871304460001b611b7d565b611d467f4369278e75aa4de739e67c94b437836f43088814c91f2f2d663eafc084294eab60001b611b7d565b6064600560008373ffffffffffffffffffffffffffffffffffffffff1673ffffffffffffffffffffffffffffffffffffffff168152602001908152602001600020541015611e3057611dba7ff6df9e2e81f56dfced4d831f32f09dd105f2b194f1fa98f79d4d2422c5a3afb960001b611b7d565b611de67fa0210c9b0159736dce5dfe18ea5325592e09fcdd11ed4060607e166b7f97cb9460001b611b7d565b6000600460008373ffffffffffffffffffffffffffffffffffffffff1673ffffffffffffffffffffffffffffffffffffffff168152602001908152602001600020819055506125e0565b611e5c7f8d626bf238f035399ac316ad82bdda7ea0e802fd0012b560f6cc9e7d3ab8f3d160001b611b7d565b611e887fb8c58710ccc53714d6f18991e42f115b6fd7367147ae5391880a198118884c1060001b611b7d565b6064600560008373ffffffffffffffffffffffffffffffffffffffff1673ffffffffffffffffffffffffffffffffffffffff1681526020019081526020016000205410158015611f17575060c8600560008373ffffffffffffffffffffffffffffffffffffffff1673ffffffffffffffffffffffffffffffffffffffff16815260200190815260200160002054105b15611fbe57611f487f6e3778e3d1355c03aedc1d8194daaadfa9cb64ba4977a336119eabe24b23b14060001b611b7d565b611f747fc764e50b5690b7d47bb3f8a7ae45f461bea14e662ffa77d3f59942c17093d62360001b611b7d565b6001600460008373ffffffffffffffffffffffffffffffffffffffff1673ffffffffffffffffffffffffffffffffffffffff168152602001908152602001600020819055506125df565b611fea7f6bef4ae69a42629f0bc47824750351092f8fe72c38f1c9defc0a8aa9aa698e9260001b611b7d565b6120167f2d25164c3999d6f8059a83b82dcba01c421a27cff08fc9b0f7024e1363686c7e60001b611b7d565b60c8600560008373ffffffffffffffffffffffffffffffffffffffff1673ffffffffffffffffffffffffffffffffffffffff16815260200190815260200160002054101580156120a6575061012c600560008373ffffffffffffffffffffffffffffffffffffffff1673ffffffffffffffffffffffffffffffffffffffff16815260200190815260200160002054105b1561214d576120d77f65ab888d681535a79e1de1e72e3e47e217b2a243a49e824416f3a2dcf42b61a460001b611b7d565b6121037fe8c7f7b59b5e75d0dbb5f77ac55762738d7c045bf8fea170ae53e21bc9da172360001b611b7d565b6002600460008373ffffffffffffffffffffffffffffffffffffffff1673ffffffffffffffffffffffffffffffffffffffff168152602001908152602001600020819055506125de565b6121797fd2bd70ec34b921c0b7d003f3fef3dc395481616bdddee32e068b199960a487c560001b611b7d565b6121a57f03d1202ab73cd97ad1794b2f2bf46768a2ff004a00782d2c8c4fbdb98d457f6260001b611b7d565b61012c600560008373ffffffffffffffffffffffffffffffffffffffff1673ffffffffffffffffffffffffffffffffffffffff16815260200190815260200160002054101580156122365750610190600560008373ffffffffffffffffffffffffffffffffffffffff1673ffffffffffffffffffffffffffffffffffffffff16815260200190815260200160002054105b156122dd576122677ffcdf4c81c0cdc9569789d3bb6edd1d61ce35fec35906a4e2fefdc87398cdcb8260001b611b7d565b6122937fdd63976f93dff65c2751d9cc656d449eef1eb2c120115fe8a243653a71b518f260001b611b7d565b6003600460008373ffffffffffffffffffffffffffffffffffffffff1673ffffffffffffffffffffffffffffffffffffffff168152602001908152602001600020819055506125dd565b6123097f8bf6870630d6a3f978c012dc417f35b729bc49aa2e8be7009120eafefdbe333260001b611b7d565b6123357f98b250248b0caa417ead4f4fd517ec331914121d8b2ca6493bca655b6cbfed1260001b611b7d565b610190600560008373ffffffffffffffffffffffffffffffffffffffff1673ffffffffffffffffffffffffffffffffffffffff16815260200190815260200160002054101580156123c657506101f4600560008373ffffffffffffffffffffffffffffffffffffffff1673ffffffffffffffffffffffffffffffffffffffff16815260200190815260200160002054105b1561246c576123f77f0d508090d6d549a0b81a3b884c03b3438af6209dcfb2457b9ba78928705d291c60001b611b7d565b6124237feb4950f5a88a1b0c63319beed5185eaf4152d9ee18c78ba7197bdf8a356a1b3160001b611b7d565b60048060008373ffffffffffffffffffffffffffffffffffffffff1673ffffffffffffffffffffffffffffffffffffffff168152602001908152602001600020819055506125dc565b6124987ffc9e7f3a5bb4c8c8f3908e7a8d1bf3a8beb8470e6986618c5d19de7bb37f2feb60001b611b7d565b6124c47f50eb89b8ba209d7483291285fb7d4c3f055c60aa080a96cfbbe999bb007b4a1b60001b611b7d565b6101f4600560008373ffffffffffffffffffffffffffffffffffffffff1673ffffffffffffffffffffffffffffffffffffffff16815260200190815260200160002054106125ae576125387fb8631b6fcbc91dac2bd574d8bce43da8ee3215856df57a708abb02e480169e9460001b611b7d565b6125647f9947c270752b368b0d5b716c56d9669875853a77e5987aedff1f621d25951a7d60001b611b7d565b6005600460008373ffffffffffffffffffffffffffffffffffffffff1673ffffffffffffffffffffffffffffffffffffffff168152602001908152602001600020819055506125db565b6125da7f8eae625f09b30d06e1faca62a0f699e72945ffad5b998c419c35efdd32a0885660001b611b7d565b5b5b5b5b5b5b50565b600033905090565b8280546125f790612be3565b90600052602060002090601f0160209004810192826126195760008555612660565b82601f1061263257805160ff1916838001178555612660565b82800160010185558215612660579182015b8281111561265f578251825591602001919060010190612644565b5b50905061266d9190612671565b5090565b5b8082111561268a576000816000905550600101612672565b5090565b6000604051905090565b600080fd5b600080fd5b600073ffffffffffffffffffffffffffffffffffffffff82169050919050565b60006126cd826126a2565b9050919050565b6126dd816126c2565b81146126e857600080fd5b50565b6000813590506126fa816126d4565b92915050565b60006020828403121561271657612715612698565b5b6000612724848285016126eb565b91505092915050565b60008115159050919050565b6127428161272d565b82525050565b600060208201905061275d6000830184612739565b92915050565b600080fd5b600080fd5b6000601f19601f8301169050919050565b7f4e487b7100000000000000000000000000000000000000000000000000000000600052604160045260246000fd5b6127b68261276d565b810181811067ffffffffffffffff821117156127d5576127d461277e565b5b80604052505050565b60006127e861268e565b90506127f482826127ad565b919050565b600067ffffffffffffffff8211156128145761281361277e565b5b61281d8261276d565b9050602081019050919050565b82818337600083830152505050565b600061284c612847846127f9565b6127de565b90508281526020810184848401111561286857612867612768565b5b61287384828561282a565b509392505050565b600082601f8301126128905761288f612763565b5b81356128a0848260208601612839565b91505092915050565b6000602082840312156128bf576128be612698565b5b600082013567ffffffffffffffff8111156128dd576128dc61269d565b5b6128e98482850161287b565b91505092915050565b6000819050919050565b612905816128f2565b811461291057600080fd5b50565b600081359050612922816128fc565b92915050565b60006020828403121561293e5761293d612698565b5b600061294c84828501612913565b91505092915050565b61295e816128f2565b82525050565b60006020820190506129796000830184612955565b92915050565b612988816126c2565b82525050565b60006020820190506129a3600083018461297f565b92915050565b600081519050919050565b600082825260208201905092915050565b60005b838110156129e35780820151818401526020810190506129c8565b838111156129f2576000848401525b50505050565b6000612a03826129a9565b612a0d81856129b4565b9350612a1d8185602086016129c5565b612a268161276d565b840191505092915050565b60006020820190508181036000830152612a4b81846129f8565b905092915050565b60008060408385031215612a6a57612a69612698565b5b6000612a78858286016126eb565b9250506020612a8985828601612913565b9150509250929050565b600081905092915050565b6000612aa9826129a9565b612ab38185612a93565b9350612ac38185602086016129c5565b80840191505092915050565b6000612adb8284612a9e565b915081905092915050565b7f4e487b7100000000000000000000000000000000000000000000000000000000600052601160045260246000fd5b6000612b20826128f2565b9150612b2b836128f2565b9250827fffffffffffffffffffffffffffffffffffffffffffffffffffffffffffffffff03821115612b6057612b5f612ae6565b5b828201905092915050565b6000612b76826128f2565b91507fffffffffffffffffffffffffffffffffffffffffffffffffffffffffffffffff821415612ba957612ba8612ae6565b5b600182019050919050565b7f4e487b7100000000000000000000000000000000000000000000000000000000600052602260045260246000fd5b60006002820490506001821680612bfb57607f821691505b60208210811415612c0f57612c0e612bb4565b5b50919050565b7f4e487b7100000000000000000000000000000000000000000000000000000000600052601260045260246000fd5b6000612c4f826128f2565b9150612c5a836128f2565b925082612c6a57612c69612c15565b5b828204905092915050565b7f4f776e61626c653a206e6577206f776e657220697320746865207a65726f206160008201527f6464726573730000000000000000000000000000000000000000000000000000602082015250565b6000612cd16026836129b4565b9150612cdc82612c75565b604082019050919050565b60006020820190508181036000830152612d0081612cc4565b9050919050565b7f4f776e61626c653a2063616c6c6572206973206e6f7420746865206f776e6572600082015250565b6000612d3d6020836129b4565b9150612d4882612d07565b602082019050919050565b60006020820190508181036000830152612d6c81612d30565b905091905056fea2646970667358221220401be79ecf82afdb81c9827bca6a051aeb45237ae25ed97cca09525123d7b4b864736f6c63430008080033",
  "linkReferences": {},
  "deployedLinkReferences": {}
}