{
  "address": "0x9477D8a3F6AA6427667909e343dc03A94C4233de",
  "abi": [
    {
      "inputs": [],
      "stateMutability": "nonpayable",
      "type": "constructor"
    },
    {
      "inputs": [
        {
          "internalType": "uint256",
          "name": "ownedItemId",
          "type": "uint256"
        }
      ],
      "name": "Shop__AlreadyOwner",
      "type": "error"
    },
    {
      "inputs": [
        {
          "internalType": "uint256",
          "name": "requiredPrice",
          "type": "uint256"
        }
      ],
      "name": "Shop__NotEnoughMoney",
      "type": "error"
    },
    {
      "inputs": [
        {
          "internalType": "uint256",
          "name": "notExistingId",
          "type": "uint256"
        }
      ],
      "name": "Shop__NotListed",
      "type": "error"
    },
    {
      "inputs": [
        {
          "internalType": "uint256",
          "name": "notOwnedItemId",
          "type": "uint256"
        }
      ],
      "name": "Shop__NotOwner",
      "type": "error"
    },
    {
      "inputs": [
        {
          "internalType": "address",
          "name": "",
          "type": "address"
        }
      ],
      "name": "Users__AlreadyEvaluated",
      "type": "error"
    },
    {
      "inputs": [],
      "name": "Users__NotAdmittedGrade",
      "type": "error"
    },
    {
      "inputs": [
        {
          "internalType": "address",
          "name": "",
          "type": "address"
        }
      ],
      "name": "Users__NotEmbassador",
      "type": "error"
    },
    {
      "inputs": [
        {
          "internalType": "address",
          "name": "",
          "type": "address"
        }
      ],
      "name": "Users__NotLevel5",
      "type": "error"
    },
    {
      "inputs": [],
      "name": "Users__OwnerNotAllowed",
      "type": "error"
    },
    {
      "anonymous": false,
      "inputs": [
        {
          "indexed": true,
          "internalType": "string",
          "name": "name",
          "type": "string"
        },
        {
          "indexed": true,
          "internalType": "address",
          "name": "buyer",
          "type": "address"
        },
        {
          "indexed": true,
          "internalType": "uint256",
          "name": "id",
          "type": "uint256"
        }
      ],
      "name": "ItemBought",
      "type": "event"
    },
    {
      "anonymous": false,
      "inputs": [
        {
          "indexed": true,
          "internalType": "string",
          "name": "name",
          "type": "string"
        },
        {
          "indexed": true,
          "internalType": "uint256",
          "name": "id",
          "type": "uint256"
        }
      ],
      "name": "ItemCancelled",
      "type": "event"
    },
    {
      "anonymous": false,
      "inputs": [
        {
          "indexed": true,
          "internalType": "string",
          "name": "name",
          "type": "string"
        },
        {
          "indexed": true,
          "internalType": "address",
          "name": "seller",
          "type": "address"
        },
        {
          "indexed": true,
          "internalType": "uint256",
          "name": "id",
          "type": "uint256"
        },
        {
          "indexed": false,
          "internalType": "uint256",
          "name": "price",
          "type": "uint256"
        }
      ],
      "name": "ItemListed",
      "type": "event"
    },
    {
      "anonymous": false,
      "inputs": [
        {
          "indexed": true,
          "internalType": "address",
          "name": "previousOwner",
          "type": "address"
        },
        {
          "indexed": true,
          "internalType": "address",
          "name": "newOwner",
          "type": "address"
        }
      ],
      "name": "OwnershipTransferred",
      "type": "event"
    },
    {
      "anonymous": false,
      "inputs": [
        {
          "indexed": true,
          "internalType": "address",
          "name": "",
          "type": "address"
        },
        {
          "indexed": true,
          "internalType": "string",
          "name": "",
          "type": "string"
        }
      ],
      "name": "addressWasSet",
      "type": "event"
    },
    {
      "anonymous": false,
      "inputs": [
        {
          "indexed": true,
          "internalType": "address",
          "name": "",
          "type": "address"
        },
        {
          "indexed": true,
          "internalType": "string",
          "name": "",
          "type": "string"
        }
      ],
      "name": "mailWasSet",
      "type": "event"
    },
    {
      "anonymous": false,
      "inputs": [
        {
          "indexed": true,
          "internalType": "address",
          "name": "",
          "type": "address"
        },
        {
          "indexed": true,
          "internalType": "string",
          "name": "",
          "type": "string"
        }
      ],
      "name": "telephoneWasSet",
      "type": "event"
    },
    {
      "inputs": [
        {
          "internalType": "uint256",
          "name": "_id",
          "type": "uint256"
        }
      ],
      "name": "buyItem",
      "outputs": [],
      "stateMutability": "payable",
      "type": "function"
    },
    {
      "inputs": [
        {
          "internalType": "address",
          "name": "_user",
          "type": "address"
        }
      ],
      "name": "cancelEmbassador",
      "outputs": [],
      "stateMutability": "nonpayable",
      "type": "function"
    },
    {
      "inputs": [
        {
          "internalType": "uint256",
          "name": "_id",
          "type": "uint256"
        }
      ],
      "name": "cancelItem",
      "outputs": [],
      "stateMutability": "nonpayable",
      "type": "function"
    },
    {
      "inputs": [
        {
          "internalType": "uint256",
          "name": "_grade",
          "type": "uint256"
        }
      ],
      "name": "evaluateOwner",
      "outputs": [],
      "stateMutability": "nonpayable",
      "type": "function"
    },
    {
      "inputs": [],
      "name": "getItemAmount",
      "outputs": [
        {
          "internalType": "uint256",
          "name": "",
          "type": "uint256"
        }
      ],
      "stateMutability": "view",
      "type": "function"
    },
    {
      "inputs": [
        {
          "internalType": "uint256",
          "name": "_item",
          "type": "uint256"
        }
      ],
      "name": "getListedItem",
      "outputs": [
        {
          "internalType": "string",
          "name": "",
          "type": "string"
        }
      ],
      "stateMutability": "view",
      "type": "function"
    },
    {
      "inputs": [],
      "name": "getMyAddress",
      "outputs": [
        {
          "internalType": "string",
          "name": "",
          "type": "string"
        }
      ],
      "stateMutability": "view",
      "type": "function"
    },
    {
      "inputs": [],
      "name": "getMyLevel",
      "outputs": [
        {
          "internalType": "uint256",
          "name": "",
          "type": "uint256"
        }
      ],
      "stateMutability": "view",
      "type": "function"
    },
    {
      "inputs": [],
      "name": "getMyMail",
      "outputs": [
        {
          "internalType": "string",
          "name": "",
          "type": "string"
        }
      ],
      "stateMutability": "view",
      "type": "function"
    },
    {
      "inputs": [],
      "name": "getMyTelephone",
      "outputs": [
        {
          "internalType": "string",
          "name": "",
          "type": "string"
        }
      ],
      "stateMutability": "view",
      "type": "function"
    },
    {
      "inputs": [],
      "name": "itemAmount",
      "outputs": [
        {
          "internalType": "uint256",
          "name": "",
          "type": "uint256"
        }
      ],
      "stateMutability": "view",
      "type": "function"
    },
    {
      "inputs": [
        {
          "internalType": "uint256",
          "name": "",
          "type": "uint256"
        }
      ],
      "name": "itemList",
      "outputs": [
        {
          "internalType": "string",
          "name": "name",
          "type": "string"
        },
        {
          "internalType": "string",
          "name": "description",
          "type": "string"
        },
        {
          "internalType": "string",
          "name": "picture",
          "type": "string"
        },
        {
          "internalType": "uint256",
          "name": "id",
          "type": "uint256"
        },
        {
          "internalType": "address",
          "name": "owner",
          "type": "address"
        },
        {
          "internalType": "uint256",
          "name": "price",
          "type": "uint256"
        }
      ],
      "stateMutability": "view",
      "type": "function"
    },
    {
      "inputs": [
        {
          "internalType": "string",
          "name": "_name",
          "type": "string"
        },
        {
          "internalType": "string",
          "name": "_description",
          "type": "string"
        },
        {
          "internalType": "string",
          "name": "_picture",
          "type": "string"
        },
        {
          "internalType": "uint256",
          "name": "_price",
          "type": "uint256"
        }
      ],
      "name": "listItem",
      "outputs": [],
      "stateMutability": "nonpayable",
      "type": "function"
    },
    {
      "inputs": [
        {
          "internalType": "address",
          "name": "_user",
          "type": "address"
        }
      ],
      "name": "makeEmbassador",
      "outputs": [],
      "stateMutability": "nonpayable",
      "type": "function"
    },
    {
      "inputs": [],
      "name": "owner",
      "outputs": [
        {
          "internalType": "address",
          "name": "",
          "type": "address"
        }
      ],
      "stateMutability": "view",
      "type": "function"
    },
    {
      "inputs": [],
      "name": "renounceOwnership",
      "outputs": [],
      "stateMutability": "nonpayable",
      "type": "function"
    },
    {
      "inputs": [
        {
          "internalType": "string",
          "name": "_myAddress",
          "type": "string"
        }
      ],
      "name": "setMyAddress",
      "outputs": [],
      "stateMutability": "nonpayable",
      "type": "function"
    },
    {
      "inputs": [
        {
          "internalType": "string",
          "name": "_myMail",
          "type": "string"
        }
      ],
      "name": "setMyMail",
      "outputs": [],
      "stateMutability": "nonpayable",
      "type": "function"
    },
    {
      "inputs": [
        {
          "internalType": "string",
          "name": "_myTelephone",
          "type": "string"
        }
      ],
      "name": "setMyTelephone",
      "outputs": [],
      "stateMutability": "nonpayable",
      "type": "function"
    },
    {
      "inputs": [
        {
          "internalType": "address",
          "name": "newOwner",
          "type": "address"
        }
      ],
      "name": "transferOwnership",
      "outputs": [],
      "stateMutability": "nonpayable",
      "type": "function"
    }
  ],
  "transactionHash": "0xc96f969b7dcca2e07734a97a565283cf1b57843897a9d21f7983b50fc1776ab4",
  "args": [],
  "numDeployments": 5,
  "solcInputHash": "d01ab6c1fa37997fea599d71a79558cb",
  "bytecode": "0x60806040523480156200001157600080fd5b506200003262000026620000ba60201b60201c565b620000c260201b60201c565b33600160006101000a81548173ffffffffffffffffffffffffffffffffffffffff021916908373ffffffffffffffffffffffffffffffffffffffff16021790555033600160006101000a81548173ffffffffffffffffffffffffffffffffffffffff021916908373ffffffffffffffffffffffffffffffffffffffff16021790555062000186565b600033905090565b60008060009054906101000a900473ffffffffffffffffffffffffffffffffffffffff169050816000806101000a81548173ffffffffffffffffffffffffffffffffffffffff021916908373ffffffffffffffffffffffffffffffffffffffff1602179055508173ffffffffffffffffffffffffffffffffffffffff168173ffffffffffffffffffffffffffffffffffffffff167f8be0079c531659141344cd1fd0a4f28419497f9722a3daafe3b4186f6b6457e060405160405180910390a35050565b6129d880620001966000396000f3fe60806040526004361061011f5760003560e01c80639a166299116100a0578063cc01631311610064578063cc016313146103b0578063d65274c9146103db578063e7fb74c714610404578063ec9b4d1414610420578063f2fde38b1461044b5761011f565b80639a166299146102dd578063a4eb88f814610308578063bbd4d97c14610331578063bc7024291461035a578063c0373561146103855761011f565b806367faca24116100e757806367faca241461020c578063715018a6146102355780637655abc81461024c578063818a01e1146102895780638da5cb5b146102b25761011f565b806308309a6f14610124578063134053a61461014d5780631b1e39e8146101785780633d4d3600146101a157806351563f8e146101e3575b600080fd5b34801561013057600080fd5b5061014b600480360381019061014691906121ca565b610474565b005b34801561015957600080fd5b50610162610524565b60405161016f919061222c565b60405180910390f35b34801561018457600080fd5b5061019f600480360381019061019a91906121ca565b61052e565b005b3480156101ad57600080fd5b506101c860048036038101906101c39190612273565b6105de565b6040516101da96959493929190612369565b60405180910390f35b3480156101ef57600080fd5b5061020a60048036038101906102059190612273565b6107e2565b005b34801561021857600080fd5b50610233600480360381019061022e9190612273565b6109f0565b005b34801561024157600080fd5b5061024a610bda565b005b34801561025857600080fd5b50610273600480360381019061026e9190612273565b610bee565b60405161028091906123df565b60405180910390f35b34801561029557600080fd5b506102b060048036038101906102ab919061242d565b610d01565b005b3480156102be57600080fd5b506102c7610de8565b6040516102d4919061245a565b60405180910390f35b3480156102e957600080fd5b506102f2610e11565b6040516102ff91906123df565b60405180910390f35b34801561031457600080fd5b5061032f600480360381019061032a91906121ca565b610ee0565b005b34801561033d57600080fd5b506103586004803603810190610353919061242d565b610f90565b005b34801561036657600080fd5b5061036f6110d1565b60405161037c91906123df565b60405180910390f35b34801561039157600080fd5b5061039a6111a0565b6040516103a7919061222c565b60405180910390f35b3480156103bc57600080fd5b506103c56111a6565b6040516103d291906123df565b60405180910390f35b3480156103e757600080fd5b5061040260048036038101906103fd9190612475565b611275565b005b61041e60048036038101906104199190612273565b611430565b005b34801561042c57600080fd5b50610435611839565b604051610442919061222c565b60405180910390f35b34801561045757600080fd5b50610472600480360381019061046d919061242d565b611880565b005b80600960003373ffffffffffffffffffffffffffffffffffffffff1673ffffffffffffffffffffffffffffffffffffffff16815260200190815260200160002090805190602001906104c7929190611f8d565b50806040516104d6919061256c565b60405180910390203373ffffffffffffffffffffffffffffffffffffffff167fa77ea2b62c672c0c0582487d7921637a315b9bd4ae45fdfec6d23b518eab0fd160405160405180910390a350565b6000600c54905090565b80600860003373ffffffffffffffffffffffffffffffffffffffff1673ffffffffffffffffffffffffffffffffffffffff1681526020019081526020016000209080519060200190610581929190611f8d565b5080604051610590919061256c565b60405180910390203373ffffffffffffffffffffffffffffffffffffffff167f73bfc7aeed6d6d2b5fd2ea07071824a7ff1ffca900562c50050eff433c01dba260405160405180910390a350565b600b81815481106105ee57600080fd5b9060005260206000209060060201600091509050806000018054610611906125b2565b80601f016020809104026020016040519081016040528092919081815260200182805461063d906125b2565b801561068a5780601f1061065f5761010080835404028352916020019161068a565b820191906000526020600020905b81548152906001019060200180831161066d57829003601f168201915b50505050509080600101805461069f906125b2565b80601f01602080910402602001604051908101604052809291908181526020018280546106cb906125b2565b80156107185780601f106106ed57610100808354040283529160200191610718565b820191906000526020600020905b8154815290600101906020018083116106fb57829003601f168201915b50505050509080600201805461072d906125b2565b80601f0160208091040260200160405190810160405280929190818152602001828054610759906125b2565b80156107a65780601f1061077b576101008083540402835291602001916107a6565b820191906000526020600020905b81548152906001019060200180831161078957829003601f168201915b5050505050908060030154908060040160009054906101000a900473ffffffffffffffffffffffffffffffffffffffff16908060050154905086565b80600b80549050811061082c57806040517fae08efde000000000000000000000000000000000000000000000000000000008152600401610823919061222c565b60405180910390fd5b3373ffffffffffffffffffffffffffffffffffffffff16600b8381548110610857576108566125e4565b5b906000526020600020906006020160040160009054906101000a900473ffffffffffffffffffffffffffffffffffffffff1673ffffffffffffffffffffffffffffffffffffffff16146108e157816040517feef61d500000000000000000000000000000000000000000000000000000000081526004016108d8919061222c565b60405180910390fd5b600b82815481106108f5576108f46125e4565b5b9060005260206000209060060201600080820160006109149190612013565b6001820160006109249190612013565b6002820160006109349190612013565b60038201600090556004820160006101000a81549073ffffffffffffffffffffffffffffffffffffffff021916905560058201600090555050600c600081548092919061098090612642565b919050555081600b838154811061099a576109996125e4565b5b90600052602060002090600602016000016040516109b89190612700565b60405180910390207f701c7939e3d5a81feb6e3335b60cd139d6e7a836571174de8587de079fb5b70c60405160405180910390a35050565b600660003373ffffffffffffffffffffffffffffffffffffffff1673ffffffffffffffffffffffffffffffffffffffff16815260200190815260200160002060009054906101000a900460ff16610a7e57336040517fd141f986000000000000000000000000000000000000000000000000000000008152600401610a75919061245a565b60405180910390fd5b600760003373ffffffffffffffffffffffffffffffffffffffff1673ffffffffffffffffffffffffffffffffffffffff16815260200190815260200160002060009054906101000a900460ff1615610b0d57336040517f60a704b4000000000000000000000000000000000000000000000000000000008152600401610b04919061245a565b60405180910390fd5b6000811080610b1c5750600a81115b15610b53576040517fa0f45cb600000000000000000000000000000000000000000000000000000000815260040160405180910390fd5b6001600760003373ffffffffffffffffffffffffffffffffffffffff1673ffffffffffffffffffffffffffffffffffffffff16815260200190815260200160002060006101000a81548160ff02191690831515021790555080600254610bb99190612717565b60028190555060036000815480929190610bd29061276d565b919050555050565b610be2611904565b610bec6000611982565b565b60606000600b805490501415610c3b576040518060400160405280601381526020017f4e6f206974656d73206c697374656420796574000000000000000000000000008152509050610cfc565b600b82600b80549050610c4e91906127b6565b81548110610c5f57610c5e6125e4565b5b90600052602060002090600602016000018054610c7b906125b2565b80601f0160208091040260200160405190810160405280929190818152602001828054610ca7906125b2565b8015610cf45780601f10610cc957610100808354040283529160200191610cf4565b820191906000526020600020905b815481529060010190602001808311610cd757829003601f168201915b505050505090505b919050565b610d09611904565b6005600460008373ffffffffffffffffffffffffffffffffffffffff1673ffffffffffffffffffffffffffffffffffffffff1681526020019081526020016000205414610d8d57806040517faf90c652000000000000000000000000000000000000000000000000000000008152600401610d84919061245a565b60405180910390fd5b6001600660008373ffffffffffffffffffffffffffffffffffffffff1673ffffffffffffffffffffffffffffffffffffffff16815260200190815260200160002060006101000a81548160ff02191690831515021790555050565b60008060009054906101000a900473ffffffffffffffffffffffffffffffffffffffff16905090565b6060600860003373ffffffffffffffffffffffffffffffffffffffff1673ffffffffffffffffffffffffffffffffffffffff1681526020019081526020016000208054610e5d906125b2565b80601f0160208091040260200160405190810160405280929190818152602001828054610e89906125b2565b8015610ed65780601f10610eab57610100808354040283529160200191610ed6565b820191906000526020600020905b815481529060010190602001808311610eb957829003601f168201915b5050505050905090565b80600a60003373ffffffffffffffffffffffffffffffffffffffff1673ffffffffffffffffffffffffffffffffffffffff1681526020019081526020016000209080519060200190610f33929190611f8d565b5080604051610f42919061256c565b60405180910390203373ffffffffffffffffffffffffffffffffffffffff167f1f85361cb5e38aac1de0d3bffa84a6242f2216f50618b96b2ac5b2855376e4e860405160405180910390a350565b610f98611904565b6000600354600254610faa9190612819565b90506007811015610fe7576040517fa5124bf100000000000000000000000000000000000000000000000000000000815260040160405180910390fd5b600660008373ffffffffffffffffffffffffffffffffffffffff1673ffffffffffffffffffffffffffffffffffffffff16815260200190815260200160002060009054906101000a900460ff1661107557816040517fd141f98600000000000000000000000000000000000000000000000000000000815260040161106c919061245a565b60405180910390fd5b6000600660008473ffffffffffffffffffffffffffffffffffffffff1673ffffffffffffffffffffffffffffffffffffffff16815260200190815260200160002060006101000a81548160ff0219169083151502179055505050565b6060600a60003373ffffffffffffffffffffffffffffffffffffffff1673ffffffffffffffffffffffffffffffffffffffff168152602001908152602001600020805461111d906125b2565b80601f0160208091040260200160405190810160405280929190818152602001828054611149906125b2565b80156111965780601f1061116b57610100808354040283529160200191611196565b820191906000526020600020905b81548152906001019060200180831161117957829003601f168201915b5050505050905090565b600c5481565b6060600960003373ffffffffffffffffffffffffffffffffffffffff1673ffffffffffffffffffffffffffffffffffffffff16815260200190815260200160002080546111f2906125b2565b80601f016020809104026020016040519081016040528092919081815260200182805461121e906125b2565b801561126b5780601f106112405761010080835404028352916020019161126b565b820191906000526020600020905b81548152906001019060200180831161124e57829003601f168201915b5050505050905090565b600b6040518060c00160405280868152602001858152602001848152602001600b8054905081526020013373ffffffffffffffffffffffffffffffffffffffff1681526020018381525090806001815401808255809150506001900390600052602060002090600602016000909190919091506000820151816000019080519060200190611304929190611f8d565b506020820151816001019080519060200190611321929190611f8d565b50604082015181600201908051906020019061133e929190611f8d565b506060820151816003015560808201518160040160006101000a81548173ffffffffffffffffffffffffffffffffffffffff021916908373ffffffffffffffffffffffffffffffffffffffff16021790555060a082015181600501555050600c60008154809291906113af9061276d565b91905055506001600b805490506113c691906127b6565b3373ffffffffffffffffffffffffffffffffffffffff16856040516113eb919061256c565b60405180910390207f3d51a95276a8cfd6489223082d100f5a832a5e5363e06326cc478e86ee2b24dc84604051611422919061222c565b60405180910390a450505050565b80600b80549050811061147a57806040517fae08efde000000000000000000000000000000000000000000000000000000008152600401611471919061222c565b60405180910390fd5b6000600b83815481106114905761148f6125e4565b5b9060005260206000209060060201600501549050600060646005600460003373ffffffffffffffffffffffffffffffffffffffff1673ffffffffffffffffffffffffffffffffffffffff16815260200190815260200160002054846114f5919061284a565b6114ff919061284a565b6115099190612819565b90506000818361151991906127b6565b90508034101561158557600b8581548110611537576115366125e4565b5b9060005260206000209060060201600501546040517faaf32d2f00000000000000000000000000000000000000000000000000000000815260040161157c919061222c565b60405180910390fd5b600b8581548110611599576115986125e4565b5b906000526020600020906006020160040160009054906101000a900473ffffffffffffffffffffffffffffffffffffffff1673ffffffffffffffffffffffffffffffffffffffff163373ffffffffffffffffffffffffffffffffffffffff16141561163b57846040517f20b91b67000000000000000000000000000000000000000000000000000000008152600401611632919061222c565b60405180910390fd5b611696600b8681548110611652576116516125e4565b5b906000526020600020906006020160040160009054906101000a900473ffffffffffffffffffffffffffffffffffffffff166032856116919190612819565b611a46565b33600b86815481106116ab576116aa6125e4565b5b906000526020600020906006020160040160006101000a81548173ffffffffffffffffffffffffffffffffffffffff021916908373ffffffffffffffffffffffffffffffffffffffff1602179055506117103360328361170b9190612819565b611a46565b600b8581548110611724576117236125e4565b5b9060005260206000209060060201600080820160006117439190612013565b6001820160006117539190612013565b6002820160006117639190612013565b60038201600090556004820160006101000a81549073ffffffffffffffffffffffffffffffffffffffff021916905560058201600090555050600c60008154809291906117af90612642565b9190505550843373ffffffffffffffffffffffffffffffffffffffff16600b87815481106117e0576117df6125e4565b5b90600052602060002090600602016000016040516117fe9190612700565b60405180910390207f326f0b4ef6b221838bf1dcec0112c888c10cb7653cc15d3fc97244983609b61560405160405180910390a45050505050565b6000600460003373ffffffffffffffffffffffffffffffffffffffff1673ffffffffffffffffffffffffffffffffffffffff16815260200190815260200160002054905090565b611888611904565b600073ffffffffffffffffffffffffffffffffffffffff168173ffffffffffffffffffffffffffffffffffffffff1614156118f8576040517f08c379a00000000000000000000000000000000000000000000000000000000081526004016118ef90612916565b60405180910390fd5b61190181611982565b50565b61190c611ae1565b73ffffffffffffffffffffffffffffffffffffffff1661192a610de8565b73ffffffffffffffffffffffffffffffffffffffff1614611980576040517f08c379a000000000000000000000000000000000000000000000000000000000815260040161197790612982565b60405180910390fd5b565b60008060009054906101000a900473ffffffffffffffffffffffffffffffffffffffff169050816000806101000a81548173ffffffffffffffffffffffffffffffffffffffff021916908373ffffffffffffffffffffffffffffffffffffffff1602179055508173ffffffffffffffffffffffffffffffffffffffff168173ffffffffffffffffffffffffffffffffffffffff167f8be0079c531659141344cd1fd0a4f28419497f9722a3daafe3b4186f6b6457e060405160405180910390a35050565b80600560008473ffffffffffffffffffffffffffffffffffffffff1673ffffffffffffffffffffffffffffffffffffffff16815260200190815260200160002054611a919190612717565b600560008473ffffffffffffffffffffffffffffffffffffffff1673ffffffffffffffffffffffffffffffffffffffff16815260200190815260200160002081905550611add82611ae9565b5050565b600033905090565b6064600560008373ffffffffffffffffffffffffffffffffffffffff1673ffffffffffffffffffffffffffffffffffffffff168152602001908152602001600020541015611b7b576000600460008373ffffffffffffffffffffffffffffffffffffffff1673ffffffffffffffffffffffffffffffffffffffff16815260200190815260200160002081905550611f8a565b6064600560008373ffffffffffffffffffffffffffffffffffffffff1673ffffffffffffffffffffffffffffffffffffffff1681526020019081526020016000205410158015611c0a575060c8600560008373ffffffffffffffffffffffffffffffffffffffff1673ffffffffffffffffffffffffffffffffffffffff16815260200190815260200160002054105b15611c59576001600460008373ffffffffffffffffffffffffffffffffffffffff1673ffffffffffffffffffffffffffffffffffffffff16815260200190815260200160002081905550611f89565b60c8600560008373ffffffffffffffffffffffffffffffffffffffff1673ffffffffffffffffffffffffffffffffffffffff1681526020019081526020016000205410158015611ce9575061012c600560008373ffffffffffffffffffffffffffffffffffffffff1673ffffffffffffffffffffffffffffffffffffffff16815260200190815260200160002054105b15611d38576002600460008373ffffffffffffffffffffffffffffffffffffffff1673ffffffffffffffffffffffffffffffffffffffff16815260200190815260200160002081905550611f88565b61012c600560008373ffffffffffffffffffffffffffffffffffffffff1673ffffffffffffffffffffffffffffffffffffffff1681526020019081526020016000205410158015611dc95750610190600560008373ffffffffffffffffffffffffffffffffffffffff1673ffffffffffffffffffffffffffffffffffffffff16815260200190815260200160002054105b15611e18576003600460008373ffffffffffffffffffffffffffffffffffffffff1673ffffffffffffffffffffffffffffffffffffffff16815260200190815260200160002081905550611f87565b610190600560008373ffffffffffffffffffffffffffffffffffffffff1673ffffffffffffffffffffffffffffffffffffffff1681526020019081526020016000205410158015611ea957506101f4600560008373ffffffffffffffffffffffffffffffffffffffff1673ffffffffffffffffffffffffffffffffffffffff16815260200190815260200160002054105b15611ef75760048060008373ffffffffffffffffffffffffffffffffffffffff1673ffffffffffffffffffffffffffffffffffffffff16815260200190815260200160002081905550611f86565b6101f4600560008373ffffffffffffffffffffffffffffffffffffffff1673ffffffffffffffffffffffffffffffffffffffff1681526020019081526020016000205410611f85576005600460008373ffffffffffffffffffffffffffffffffffffffff1673ffffffffffffffffffffffffffffffffffffffff168152602001908152602001600020819055505b5b5b5b5b5b50565b828054611f99906125b2565b90600052602060002090601f016020900481019282611fbb5760008555612002565b82601f10611fd457805160ff1916838001178555612002565b82800160010185558215612002579182015b82811115612001578251825591602001919060010190611fe6565b5b50905061200f9190612053565b5090565b50805461201f906125b2565b6000825580601f106120315750612050565b601f01602090049060005260206000209081019061204f9190612053565b5b50565b5b8082111561206c576000816000905550600101612054565b5090565b6000604051905090565b600080fd5b600080fd5b600080fd5b600080fd5b6000601f19601f8301169050919050565b7f4e487b7100000000000000000000000000000000000000000000000000000000600052604160045260246000fd5b6120d78261208e565b810181811067ffffffffffffffff821117156120f6576120f561209f565b5b80604052505050565b6000612109612070565b905061211582826120ce565b919050565b600067ffffffffffffffff8211156121355761213461209f565b5b61213e8261208e565b9050602081019050919050565b82818337600083830152505050565b600061216d6121688461211a565b6120ff565b90508281526020810184848401111561218957612188612089565b5b61219484828561214b565b509392505050565b600082601f8301126121b1576121b0612084565b5b81356121c184826020860161215a565b91505092915050565b6000602082840312156121e0576121df61207a565b5b600082013567ffffffffffffffff8111156121fe576121fd61207f565b5b61220a8482850161219c565b91505092915050565b6000819050919050565b61222681612213565b82525050565b6000602082019050612241600083018461221d565b92915050565b61225081612213565b811461225b57600080fd5b50565b60008135905061226d81612247565b92915050565b6000602082840312156122895761228861207a565b5b60006122978482850161225e565b91505092915050565b600081519050919050565b600082825260208201905092915050565b60005b838110156122da5780820151818401526020810190506122bf565b838111156122e9576000848401525b50505050565b60006122fa826122a0565b61230481856122ab565b93506123148185602086016122bc565b61231d8161208e565b840191505092915050565b600073ffffffffffffffffffffffffffffffffffffffff82169050919050565b600061235382612328565b9050919050565b61236381612348565b82525050565b600060c082019050818103600083015261238381896122ef565b9050818103602083015261239781886122ef565b905081810360408301526123ab81876122ef565b90506123ba606083018661221d565b6123c7608083018561235a565b6123d460a083018461221d565b979650505050505050565b600060208201905081810360008301526123f981846122ef565b905092915050565b61240a81612348565b811461241557600080fd5b50565b60008135905061242781612401565b92915050565b6000602082840312156124435761244261207a565b5b600061245184828501612418565b91505092915050565b600060208201905061246f600083018461235a565b92915050565b6000806000806080858703121561248f5761248e61207a565b5b600085013567ffffffffffffffff8111156124ad576124ac61207f565b5b6124b98782880161219c565b945050602085013567ffffffffffffffff8111156124da576124d961207f565b5b6124e68782880161219c565b935050604085013567ffffffffffffffff8111156125075761250661207f565b5b6125138782880161219c565b92505060606125248782880161225e565b91505092959194509250565b600081905092915050565b6000612546826122a0565b6125508185612530565b93506125608185602086016122bc565b80840191505092915050565b6000612578828461253b565b915081905092915050565b7f4e487b7100000000000000000000000000000000000000000000000000000000600052602260045260246000fd5b600060028204905060018216806125ca57607f821691505b602082108114156125de576125dd612583565b5b50919050565b7f4e487b7100000000000000000000000000000000000000000000000000000000600052603260045260246000fd5b7f4e487b7100000000000000000000000000000000000000000000000000000000600052601160045260246000fd5b600061264d82612213565b9150600082141561266157612660612613565b5b600182039050919050565b60008190508160005260206000209050919050565b6000815461268e816125b2565b6126988186612530565b945060018216600081146126b357600181146126c4576126f7565b60ff198316865281860193506126f7565b6126cd8561266c565b60005b838110156126ef578154818901526001820191506020810190506126d0565b838801955050505b50505092915050565b600061270c8284612681565b915081905092915050565b600061272282612213565b915061272d83612213565b9250827fffffffffffffffffffffffffffffffffffffffffffffffffffffffffffffffff0382111561276257612761612613565b5b828201905092915050565b600061277882612213565b91507fffffffffffffffffffffffffffffffffffffffffffffffffffffffffffffffff8214156127ab576127aa612613565b5b600182019050919050565b60006127c182612213565b91506127cc83612213565b9250828210156127df576127de612613565b5b828203905092915050565b7f4e487b7100000000000000000000000000000000000000000000000000000000600052601260045260246000fd5b600061282482612213565b915061282f83612213565b92508261283f5761283e6127ea565b5b828204905092915050565b600061285582612213565b915061286083612213565b9250817fffffffffffffffffffffffffffffffffffffffffffffffffffffffffffffffff048311821515161561289957612898612613565b5b828202905092915050565b7f4f776e61626c653a206e6577206f776e657220697320746865207a65726f206160008201527f6464726573730000000000000000000000000000000000000000000000000000602082015250565b60006129006026836122ab565b915061290b826128a4565b604082019050919050565b6000602082019050818103600083015261292f816128f3565b9050919050565b7f4f776e61626c653a2063616c6c6572206973206e6f7420746865206f776e6572600082015250565b600061296c6020836122ab565b915061297782612936565b602082019050919050565b6000602082019050818103600083015261299b8161295f565b905091905056fea26469706673582212209621642b9e7552eaebb9274f3430ae13137ca2928114ca5745d005cf024601b664736f6c63430008080033",
  "devdoc": {
    "kind": "dev",
    "methods": {
      "owner()": {
        "details": "Returns the address of the current owner."
      },
      "renounceOwnership()": {
        "details": "Leaves the contract without owner. It will not be possible to call `onlyOwner` functions. Can only be called by the current owner. NOTE: Renouncing ownership will leave the contract without an owner, thereby disabling any functionality that is only available to the owner."
      },
      "transferOwnership(address)": {
        "details": "Transfers ownership of the contract to a new account (`newOwner`). Can only be called by the current owner."
      }
    },
    "version": 1
  },
  "userdoc": {
    "kind": "user",
    "methods": {},
    "version": 1
  },
  "storageLayout": {
    "storage": [
      {
        "astId": 888,
        "contract": "contracts/Shop.sol:Shop",
        "label": "_owner",
        "offset": 0,
        "slot": "0",
        "type": "t_address"
      },
      {
        "astId": 493,
        "contract": "contracts/Shop.sol:Shop",
        "label": "_owner",
        "offset": 0,
        "slot": "1",
        "type": "t_address"
      },
      {
        "astId": 495,
        "contract": "contracts/Shop.sol:Shop",
        "label": "ownerGrade",
        "offset": 0,
        "slot": "2",
        "type": "t_uint256"
      },
      {
        "astId": 497,
        "contract": "contracts/Shop.sol:Shop",
        "label": "ownerVotes",
        "offset": 0,
        "slot": "3",
        "type": "t_uint256"
      },
      {
        "astId": 501,
        "contract": "contracts/Shop.sol:Shop",
        "label": "userLevel",
        "offset": 0,
        "slot": "4",
        "type": "t_mapping(t_address,t_uint256)"
      },
      {
        "astId": 505,
        "contract": "contracts/Shop.sol:Shop",
        "label": "userPoints",
        "offset": 0,
        "slot": "5",
        "type": "t_mapping(t_address,t_uint256)"
      },
      {
        "astId": 509,
        "contract": "contracts/Shop.sol:Shop",
        "label": "isEmbassador",
        "offset": 0,
        "slot": "6",
        "type": "t_mapping(t_address,t_bool)"
      },
      {
        "astId": 513,
        "contract": "contracts/Shop.sol:Shop",
        "label": "evaluatedOwner",
        "offset": 0,
        "slot": "7",
        "type": "t_mapping(t_address,t_bool)"
      },
      {
        "astId": 517,
        "contract": "contracts/Shop.sol:Shop",
        "label": "userAddress",
        "offset": 0,
        "slot": "8",
        "type": "t_mapping(t_address,t_string_storage)"
      },
      {
        "astId": 521,
        "contract": "contracts/Shop.sol:Shop",
        "label": "userMail",
        "offset": 0,
        "slot": "9",
        "type": "t_mapping(t_address,t_string_storage)"
      },
      {
        "astId": 525,
        "contract": "contracts/Shop.sol:Shop",
        "label": "userTelephone",
        "offset": 0,
        "slot": "10",
        "type": "t_mapping(t_address,t_string_storage)"
      },
      {
        "astId": 162,
        "contract": "contracts/Shop.sol:Shop",
        "label": "itemList",
        "offset": 0,
        "slot": "11",
        "type": "t_array(t_struct(Item)177_storage)dyn_storage"
      },
      {
        "astId": 164,
        "contract": "contracts/Shop.sol:Shop",
        "label": "itemAmount",
        "offset": 0,
        "slot": "12",
        "type": "t_uint256"
      }
    ],
    "types": {
      "t_address": {
        "encoding": "inplace",
        "label": "address",
        "numberOfBytes": "20"
      },
      "t_array(t_struct(Item)177_storage)dyn_storage": {
        "base": "t_struct(Item)177_storage",
        "encoding": "dynamic_array",
        "label": "struct Shop.Item[]",
        "numberOfBytes": "32"
      },
      "t_bool": {
        "encoding": "inplace",
        "label": "bool",
        "numberOfBytes": "1"
      },
      "t_mapping(t_address,t_bool)": {
        "encoding": "mapping",
        "key": "t_address",
        "label": "mapping(address => bool)",
        "numberOfBytes": "32",
        "value": "t_bool"
      },
      "t_mapping(t_address,t_string_storage)": {
        "encoding": "mapping",
        "key": "t_address",
        "label": "mapping(address => string)",
        "numberOfBytes": "32",
        "value": "t_string_storage"
      },
      "t_mapping(t_address,t_uint256)": {
        "encoding": "mapping",
        "key": "t_address",
        "label": "mapping(address => uint256)",
        "numberOfBytes": "32",
        "value": "t_uint256"
      },
      "t_string_storage": {
        "encoding": "bytes",
        "label": "string",
        "numberOfBytes": "32"
      },
      "t_struct(Item)177_storage": {
        "encoding": "inplace",
        "label": "struct Shop.Item",
        "members": [
          {
            "astId": 166,
            "contract": "contracts/Shop.sol:Shop",
            "label": "name",
            "offset": 0,
            "slot": "0",
            "type": "t_string_storage"
          },
          {
            "astId": 168,
            "contract": "contracts/Shop.sol:Shop",
            "label": "description",
            "offset": 0,
            "slot": "1",
            "type": "t_string_storage"
          },
          {
            "astId": 170,
            "contract": "contracts/Shop.sol:Shop",
            "label": "picture",
            "offset": 0,
            "slot": "2",
            "type": "t_string_storage"
          },
          {
            "astId": 172,
            "contract": "contracts/Shop.sol:Shop",
            "label": "id",
            "offset": 0,
            "slot": "3",
            "type": "t_uint256"
          },
          {
            "astId": 174,
            "contract": "contracts/Shop.sol:Shop",
            "label": "owner",
            "offset": 0,
            "slot": "4",
            "type": "t_address"
          },
          {
            "astId": 176,
            "contract": "contracts/Shop.sol:Shop",
            "label": "price",
            "offset": 0,
            "slot": "5",
            "type": "t_uint256"
          }
        ],
        "numberOfBytes": "192"
      },
      "t_uint256": {
        "encoding": "inplace",
        "label": "uint256",
        "numberOfBytes": "32"
      }
    }
  }
}